{
	".deps/github/aave/protocol-v2/contracts/misc/AaveProtocolDataProvider.sol": {
		"AaveProtocolDataProvider": {
			"abi": [
				{
					"inputs": [
						{
							"internalType": "contract ILendingPoolAddressesProvider",
							"name": "addressesProvider",
							"type": "address"
						}
					],
					"stateMutability": "nonpayable",
					"type": "constructor"
				},
				{
					"inputs": [],
					"name": "ADDRESSES_PROVIDER",
					"outputs": [
						{
							"internalType": "contract ILendingPoolAddressesProvider",
							"name": "",
							"type": "address"
						}
					],
					"stateMutability": "view",
					"type": "function"
				},
				{
					"inputs": [],
					"name": "getAllATokens",
					"outputs": [
						{
							"components": [
								{
									"internalType": "string",
									"name": "symbol",
									"type": "string"
								},
								{
									"internalType": "address",
									"name": "tokenAddress",
									"type": "address"
								}
							],
							"internalType": "struct AaveProtocolDataProvider.TokenData[]",
							"name": "",
							"type": "tuple[]"
						}
					],
					"stateMutability": "view",
					"type": "function"
				},
				{
					"inputs": [],
					"name": "getAllReservesTokens",
					"outputs": [
						{
							"components": [
								{
									"internalType": "string",
									"name": "symbol",
									"type": "string"
								},
								{
									"internalType": "address",
									"name": "tokenAddress",
									"type": "address"
								}
							],
							"internalType": "struct AaveProtocolDataProvider.TokenData[]",
							"name": "",
							"type": "tuple[]"
						}
					],
					"stateMutability": "view",
					"type": "function"
				},
				{
					"inputs": [
						{
							"internalType": "address",
							"name": "asset",
							"type": "address"
						}
					],
					"name": "getReserveConfigurationData",
					"outputs": [
						{
							"internalType": "uint256",
							"name": "decimals",
							"type": "uint256"
						},
						{
							"internalType": "uint256",
							"name": "ltv",
							"type": "uint256"
						},
						{
							"internalType": "uint256",
							"name": "liquidationThreshold",
							"type": "uint256"
						},
						{
							"internalType": "uint256",
							"name": "liquidationBonus",
							"type": "uint256"
						},
						{
							"internalType": "uint256",
							"name": "reserveFactor",
							"type": "uint256"
						},
						{
							"internalType": "bool",
							"name": "usageAsCollateralEnabled",
							"type": "bool"
						},
						{
							"internalType": "bool",
							"name": "borrowingEnabled",
							"type": "bool"
						},
						{
							"internalType": "bool",
							"name": "stableBorrowRateEnabled",
							"type": "bool"
						},
						{
							"internalType": "bool",
							"name": "isActive",
							"type": "bool"
						},
						{
							"internalType": "bool",
							"name": "isFrozen",
							"type": "bool"
						}
					],
					"stateMutability": "view",
					"type": "function"
				},
				{
					"inputs": [
						{
							"internalType": "address",
							"name": "asset",
							"type": "address"
						}
					],
					"name": "getReserveData",
					"outputs": [
						{
							"internalType": "uint256",
							"name": "availableLiquidity",
							"type": "uint256"
						},
						{
							"internalType": "uint256",
							"name": "totalStableDebt",
							"type": "uint256"
						},
						{
							"internalType": "uint256",
							"name": "totalVariableDebt",
							"type": "uint256"
						},
						{
							"internalType": "uint256",
							"name": "liquidityRate",
							"type": "uint256"
						},
						{
							"internalType": "uint256",
							"name": "variableBorrowRate",
							"type": "uint256"
						},
						{
							"internalType": "uint256",
							"name": "stableBorrowRate",
							"type": "uint256"
						},
						{
							"internalType": "uint256",
							"name": "averageStableBorrowRate",
							"type": "uint256"
						},
						{
							"internalType": "uint256",
							"name": "liquidityIndex",
							"type": "uint256"
						},
						{
							"internalType": "uint256",
							"name": "variableBorrowIndex",
							"type": "uint256"
						},
						{
							"internalType": "uint40",
							"name": "lastUpdateTimestamp",
							"type": "uint40"
						}
					],
					"stateMutability": "view",
					"type": "function"
				},
				{
					"inputs": [
						{
							"internalType": "address",
							"name": "asset",
							"type": "address"
						}
					],
					"name": "getReserveTokensAddresses",
					"outputs": [
						{
							"internalType": "address",
							"name": "aTokenAddress",
							"type": "address"
						},
						{
							"internalType": "address",
							"name": "stableDebtTokenAddress",
							"type": "address"
						},
						{
							"internalType": "address",
							"name": "variableDebtTokenAddress",
							"type": "address"
						}
					],
					"stateMutability": "view",
					"type": "function"
				},
				{
					"inputs": [
						{
							"internalType": "address",
							"name": "asset",
							"type": "address"
						},
						{
							"internalType": "address",
							"name": "user",
							"type": "address"
						}
					],
					"name": "getUserReserveData",
					"outputs": [
						{
							"internalType": "uint256",
							"name": "currentATokenBalance",
							"type": "uint256"
						},
						{
							"internalType": "uint256",
							"name": "currentStableDebt",
							"type": "uint256"
						},
						{
							"internalType": "uint256",
							"name": "currentVariableDebt",
							"type": "uint256"
						},
						{
							"internalType": "uint256",
							"name": "principalStableDebt",
							"type": "uint256"
						},
						{
							"internalType": "uint256",
							"name": "scaledVariableDebt",
							"type": "uint256"
						},
						{
							"internalType": "uint256",
							"name": "stableBorrowRate",
							"type": "uint256"
						},
						{
							"internalType": "uint256",
							"name": "liquidityRate",
							"type": "uint256"
						},
						{
							"internalType": "uint40",
							"name": "stableRateLastUpdated",
							"type": "uint40"
						},
						{
							"internalType": "bool",
							"name": "usageAsCollateralEnabled",
							"type": "bool"
						}
					],
					"stateMutability": "view",
					"type": "function"
				}
			],
			"devdoc": {
				"kind": "dev",
				"methods": {},
				"version": 1
			},
			"evm": {
				"assembly": "    /* \".deps/github/aave/protocol-v2/contracts/misc/AaveProtocolDataProvider.sol\":746:6512  contract AaveProtocolDataProvider {... */\n  mstore(0x40, 0xa0)\n    /* \".deps/github/aave/protocol-v2/contracts/misc/AaveProtocolDataProvider.sol\":1195:1312  constructor(ILendingPoolAddressesProvider addressesProvider) public {... */\n  callvalue\n  dup1\n  iszero\n  tag_1\n  jumpi\n  0x00\n  dup1\n  revert\ntag_1:\n  pop\n  mload(0x40)\n  sub(codesize, bytecodeSize)\n  dup1\n  bytecodeSize\n  dup4\n  codecopy\n  dup2\n  add\n  0x40\n  dup2\n  swap1\n  mstore\n  tag_2\n  swap2\n  tag_3\n  jump\t// in\ntag_2:\n    /* \".deps/github/aave/protocol-v2/contracts/misc/AaveProtocolDataProvider.sol\":1269:1307  ADDRESSES_PROVIDER = addressesProvider */\n  0x60\n  shl\n  not(sub(shl(0x60, 0x01), 0x01))\n  and\n  0x80\n  mstore\n    /* \".deps/github/aave/protocol-v2/contracts/misc/AaveProtocolDataProvider.sol\":746:6512  contract AaveProtocolDataProvider {... */\n  jump(tag_7)\n    /* \"--CODEGEN--\":220:557   */\ntag_3:\n  0x00\n    /* \"--CODEGEN--\":372:374   */\n  0x20\n    /* \"--CODEGEN--\":360:369   */\n  dup3\n    /* \"--CODEGEN--\":351:358   */\n  dup5\n    /* \"--CODEGEN--\":347:370   */\n  sub\n    /* \"--CODEGEN--\":343:375   */\n  slt\n    /* \"--CODEGEN--\":340:342   */\n  iszero\n  tag_9\n  jumpi\n  dup1\n  dup2\n    /* \"--CODEGEN--\":378:390   */\n  revert\n    /* \"--CODEGEN--\":340:342   */\ntag_9:\n    /* \"--CODEGEN--\":120:133   */\n  dup2\n  mload\n  sub(shl(0xa0, 0x01), 0x01)\n    /* \"--CODEGEN--\":859:913   */\n  dup2\n  and\n    /* \"--CODEGEN--\":1021:1093   */\n  dup2\n  eq\n    /* \"--CODEGEN--\":1011:1013   */\n  tag_10\n  jumpi\n  dup2\n  dup3\n    /* \"--CODEGEN--\":1097:1109   */\n  revert\n    /* \"--CODEGEN--\":1011:1013   */\ntag_10:\n    /* \"--CODEGEN--\":430:541   */\n  swap4\n    /* \"--CODEGEN--\":334:557   */\n  swap3\n  pop\n  pop\n  pop\n  jump\t// out\ntag_7:\n    /* \".deps/github/aave/protocol-v2/contracts/misc/AaveProtocolDataProvider.sol\":746:6512  contract AaveProtocolDataProvider {... */\n  shr(0x60, mload(0x80))\n  codecopy(0x00, dataOffset(sub_0), dataSize(sub_0))\n  assignImmutable(\"0x8129634de98ff4eac36cfdb2b9e1dc55781fddf4fba9ec16d4ac1f285a99533e\")\n  return(0x00, dataSize(sub_0))\nstop\n\nsub_0: assembly {\n        /* \".deps/github/aave/protocol-v2/contracts/misc/AaveProtocolDataProvider.sol\":746:6512  contract AaveProtocolDataProvider {... */\n      mstore(0x40, 0x80)\n      callvalue\n      dup1\n      iszero\n      tag_1\n      jumpi\n      0x00\n      dup1\n      revert\n    tag_1:\n      pop\n      jumpi(tag_2, lt(calldatasize, 0x04))\n      shr(0xe0, calldataload(0x00))\n      dup1\n      0x3e150141\n      gt\n      tag_10\n      jumpi\n      dup1\n      0x3e150141\n      eq\n      tag_6\n      jumpi\n      dup1\n      0xb316ff89\n      eq\n      tag_7\n      jumpi\n      dup1\n      0xd2493b6c\n      eq\n      tag_8\n      jumpi\n      dup1\n      0xf561ae41\n      eq\n      tag_9\n      jumpi\n      jump(tag_2)\n    tag_10:\n      dup1\n      0x0542975c\n      eq\n      tag_3\n      jumpi\n      dup1\n      0x28dd2d01\n      eq\n      tag_4\n      jumpi\n      dup1\n      0x35ea6a75\n      eq\n      tag_5\n      jumpi\n    tag_2:\n      0x00\n      dup1\n      revert\n        /* \".deps/github/aave/protocol-v2/contracts/misc/AaveProtocolDataProvider.sol\":1125:1190  ILendingPoolAddressesProvider public immutable ADDRESSES_PROVIDER */\n    tag_3:\n      tag_11\n      tag_12\n      jump\t// in\n    tag_11:\n      mload(0x40)\n      tag_13\n      swap2\n      swap1\n      tag_53\n      jump\t// in\n    tag_13:\n      mload(0x40)\n      dup1\n      swap2\n      sub\n      swap1\n      return\n        /* \".deps/github/aave/protocol-v2/contracts/misc/AaveProtocolDataProvider.sol\":4576:6052  function getUserReserveData(address asset, address user)... */\n    tag_4:\n      tag_15\n      tag_16\n      calldatasize\n      0x04\n      tag_17\n      jump\t// in\n    tag_16:\n      tag_18\n      jump\t// in\n    tag_15:\n      mload(0x40)\n      tag_13\n      swap10\n      swap9\n      swap8\n      swap7\n      swap6\n      swap5\n      swap4\n      swap3\n      swap2\n      swap1\n      tag_20\n      jump\t// in\n        /* \".deps/github/aave/protocol-v2/contracts/misc/AaveProtocolDataProvider.sol\":3517:4572  function getReserveData(address asset)... */\n    tag_5:\n      tag_21\n      tag_22\n      calldatasize\n      0x04\n      tag_23\n      jump\t// in\n    tag_22:\n      tag_24\n      jump\t// in\n    tag_21:\n      mload(0x40)\n      tag_13\n      swap11\n      swap10\n      swap9\n      swap8\n      swap7\n      swap6\n      swap5\n      swap4\n      swap3\n      swap2\n      swap1\n      tag_26\n      jump\t// in\n        /* \".deps/github/aave/protocol-v2/contracts/misc/AaveProtocolDataProvider.sol\":2701:3513  function getReserveConfigurationData(address asset)... */\n    tag_6:\n      tag_27\n      tag_28\n      calldatasize\n      0x04\n      tag_23\n      jump\t// in\n    tag_28:\n      tag_29\n      jump\t// in\n    tag_27:\n      mload(0x40)\n      tag_13\n      swap11\n      swap10\n      swap9\n      swap8\n      swap7\n      swap6\n      swap5\n      swap4\n      swap3\n      swap2\n      swap1\n      tag_31\n      jump\t// in\n        /* \".deps/github/aave/protocol-v2/contracts/misc/AaveProtocolDataProvider.sol\":1316:2104  function getAllReservesTokens() external view returns (TokenData[] memory) {... */\n    tag_7:\n      tag_32\n      tag_33\n      jump\t// in\n    tag_32:\n      mload(0x40)\n      tag_13\n      swap2\n      swap1\n      tag_35\n      jump\t// in\n        /* \".deps/github/aave/protocol-v2/contracts/misc/AaveProtocolDataProvider.sol\":6056:6510  function getReserveTokensAddresses(address asset)... */\n    tag_8:\n      tag_36\n      tag_37\n      calldatasize\n      0x04\n      tag_23\n      jump\t// in\n    tag_37:\n      tag_38\n      jump\t// in\n    tag_36:\n      mload(0x40)\n      tag_13\n      swap4\n      swap3\n      swap2\n      swap1\n      tag_40\n      jump\t// in\n        /* \".deps/github/aave/protocol-v2/contracts/misc/AaveProtocolDataProvider.sol\":2108:2697  function getAllATokens() external view returns (TokenData[] memory) {... */\n    tag_9:\n      tag_32\n      tag_42\n      jump\t// in\n        /* \".deps/github/aave/protocol-v2/contracts/misc/AaveProtocolDataProvider.sol\":1125:1190  ILendingPoolAddressesProvider public immutable ADDRESSES_PROVIDER */\n    tag_12:\n      immutable(\"0x8129634de98ff4eac36cfdb2b9e1dc55781fddf4fba9ec16d4ac1f285a99533e\")\n      dup2\n      jump\t// out\n        /* \".deps/github/aave/protocol-v2/contracts/misc/AaveProtocolDataProvider.sol\":4576:6052  function getUserReserveData(address asset, address user)... */\n    tag_18:\n        /* \".deps/github/aave/protocol-v2/contracts/misc/AaveProtocolDataProvider.sol\":4675:4703  uint256 currentATokenBalance */\n      0x00\n        /* \".deps/github/aave/protocol-v2/contracts/misc/AaveProtocolDataProvider.sol\":4711:4736  uint256 currentStableDebt */\n      dup1\n        /* \".deps/github/aave/protocol-v2/contracts/misc/AaveProtocolDataProvider.sol\":4744:4771  uint256 currentVariableDebt */\n      0x00\n        /* \".deps/github/aave/protocol-v2/contracts/misc/AaveProtocolDataProvider.sol\":4779:4806  uint256 principalStableDebt */\n      dup1\n        /* \".deps/github/aave/protocol-v2/contracts/misc/AaveProtocolDataProvider.sol\":4814:4840  uint256 scaledVariableDebt */\n      0x00\n        /* \".deps/github/aave/protocol-v2/contracts/misc/AaveProtocolDataProvider.sol\":4848:4872  uint256 stableBorrowRate */\n      dup1\n        /* \".deps/github/aave/protocol-v2/contracts/misc/AaveProtocolDataProvider.sol\":4880:4901  uint256 liquidityRate */\n      0x00\n        /* \".deps/github/aave/protocol-v2/contracts/misc/AaveProtocolDataProvider.sol\":4909:4937  uint40 stableRateLastUpdated */\n      dup1\n        /* \".deps/github/aave/protocol-v2/contracts/misc/AaveProtocolDataProvider.sol\":4945:4974  bool usageAsCollateralEnabled */\n      0x00\n        /* \".deps/github/aave/protocol-v2/contracts/misc/AaveProtocolDataProvider.sol\":4989:5025  DataTypes.ReserveData memory reserve */\n      tag_45\n      tag_46\n      jump\t// in\n    tag_45:\n        /* \".deps/github/aave/protocol-v2/contracts/misc/AaveProtocolDataProvider.sol\":5047:5065  ADDRESSES_PROVIDER */\n      immutable(\"0x8129634de98ff4eac36cfdb2b9e1dc55781fddf4fba9ec16d4ac1f285a99533e\")\n      sub(shl(0xa0, 0x01), 0x01)\n        /* \".deps/github/aave/protocol-v2/contracts/misc/AaveProtocolDataProvider.sol\":5047:5080  ADDRESSES_PROVIDER.getLendingPool */\n      and\n      0x0261bf8b\n        /* \".deps/github/aave/protocol-v2/contracts/misc/AaveProtocolDataProvider.sol\":5047:5082  ADDRESSES_PROVIDER.getLendingPool() */\n      mload(0x40)\n      dup2\n      0xffffffff\n      and\n      0xe0\n      shl\n      dup2\n      mstore\n      0x04\n      add\n      0x20\n      mload(0x40)\n      dup1\n      dup4\n      sub\n      dup2\n      dup7\n      dup1\n      extcodesize\n      iszero\n      dup1\n      iszero\n      tag_47\n      jumpi\n      0x00\n      dup1\n      revert\n    tag_47:\n      pop\n      gas\n      staticcall\n      iszero\n      dup1\n      iszero\n      tag_49\n      jumpi\n      returndatasize\n      0x00\n      dup1\n      returndatacopy\n      revert(0x00, returndatasize)\n    tag_49:\n      pop\n      pop\n      pop\n      pop\n      mload(0x40)\n      returndatasize\n      not(0x1f)\n      0x1f\n      dup3\n      add\n      and\n      dup3\n      add\n      dup1\n      0x40\n      mstore\n      pop\n      dup2\n      add\n      swap1\n      tag_50\n      swap2\n      swap1\n      tag_51\n      jump\t// in\n    tag_50:\n      sub(shl(0xa0, 0x01), 0x01)\n        /* \".deps/github/aave/protocol-v2/contracts/misc/AaveProtocolDataProvider.sol\":5034:5098  ILendingPool(ADDRESSES_PROVIDER.getLendingPool()).getReserveData */\n      and\n      0x35ea6a75\n        /* \".deps/github/aave/protocol-v2/contracts/misc/AaveProtocolDataProvider.sol\":5099:5104  asset */\n      dup14\n        /* \".deps/github/aave/protocol-v2/contracts/misc/AaveProtocolDataProvider.sol\":5034:5105  ILendingPool(ADDRESSES_PROVIDER.getLendingPool()).getReserveData(asset) */\n      mload(0x40)\n      dup3\n      0xffffffff\n      and\n      0xe0\n      shl\n      dup2\n      mstore\n      0x04\n      add\n      tag_52\n      swap2\n      swap1\n      tag_53\n      jump\t// in\n    tag_52:\n      0x0180\n      mload(0x40)\n      dup1\n      dup4\n      sub\n      dup2\n      dup7\n      dup1\n      extcodesize\n      iszero\n      dup1\n      iszero\n      tag_54\n      jumpi\n      0x00\n      dup1\n      revert\n    tag_54:\n      pop\n      gas\n      staticcall\n      iszero\n      dup1\n      iszero\n      tag_56\n      jumpi\n      returndatasize\n      0x00\n      dup1\n      returndatacopy\n      revert(0x00, returndatasize)\n    tag_56:\n      pop\n      pop\n      pop\n      pop\n      mload(0x40)\n      returndatasize\n      not(0x1f)\n      0x1f\n      dup3\n      add\n      and\n      dup3\n      add\n      dup1\n      0x40\n      mstore\n      pop\n      dup2\n      add\n      swap1\n      tag_57\n      swap2\n      swap1\n      tag_58\n      jump\t// in\n    tag_57:\n        /* \".deps/github/aave/protocol-v2/contracts/misc/AaveProtocolDataProvider.sol\":4989:5105  DataTypes.ReserveData memory reserve =... */\n      swap1\n      pop\n        /* \".deps/github/aave/protocol-v2/contracts/misc/AaveProtocolDataProvider.sol\":5112:5160  DataTypes.UserConfigurationMap memory userConfig */\n      tag_59\n      tag_60\n      jump\t// in\n    tag_59:\n        /* \".deps/github/aave/protocol-v2/contracts/misc/AaveProtocolDataProvider.sol\":5182:5200  ADDRESSES_PROVIDER */\n      immutable(\"0x8129634de98ff4eac36cfdb2b9e1dc55781fddf4fba9ec16d4ac1f285a99533e\")\n      sub(shl(0xa0, 0x01), 0x01)\n        /* \".deps/github/aave/protocol-v2/contracts/misc/AaveProtocolDataProvider.sol\":5182:5215  ADDRESSES_PROVIDER.getLendingPool */\n      and\n      0x0261bf8b\n        /* \".deps/github/aave/protocol-v2/contracts/misc/AaveProtocolDataProvider.sol\":5182:5217  ADDRESSES_PROVIDER.getLendingPool() */\n      mload(0x40)\n      dup2\n      0xffffffff\n      and\n      0xe0\n      shl\n      dup2\n      mstore\n      0x04\n      add\n      0x20\n      mload(0x40)\n      dup1\n      dup4\n      sub\n      dup2\n      dup7\n      dup1\n      extcodesize\n      iszero\n      dup1\n      iszero\n      tag_61\n      jumpi\n      0x00\n      dup1\n      revert\n    tag_61:\n      pop\n      gas\n      staticcall\n      iszero\n      dup1\n      iszero\n      tag_63\n      jumpi\n      returndatasize\n      0x00\n      dup1\n      returndatacopy\n      revert(0x00, returndatasize)\n    tag_63:\n      pop\n      pop\n      pop\n      pop\n      mload(0x40)\n      returndatasize\n      not(0x1f)\n      0x1f\n      dup3\n      add\n      and\n      dup3\n      add\n      dup1\n      0x40\n      mstore\n      pop\n      dup2\n      add\n      swap1\n      tag_64\n      swap2\n      swap1\n      tag_51\n      jump\t// in\n    tag_64:\n      sub(shl(0xa0, 0x01), 0x01)\n        /* \".deps/github/aave/protocol-v2/contracts/misc/AaveProtocolDataProvider.sol\":5169:5239  ILendingPool(ADDRESSES_PROVIDER.getLendingPool()).getUserConfiguration */\n      and\n      0x4417a583\n        /* \".deps/github/aave/protocol-v2/contracts/misc/AaveProtocolDataProvider.sol\":5240:5244  user */\n      dup14\n        /* \".deps/github/aave/protocol-v2/contracts/misc/AaveProtocolDataProvider.sol\":5169:5245  ILendingPool(ADDRESSES_PROVIDER.getLendingPool()).getUserConfiguration(user) */\n      mload(0x40)\n      dup3\n      0xffffffff\n      and\n      0xe0\n      shl\n      dup2\n      mstore\n      0x04\n      add\n      tag_65\n      swap2\n      swap1\n      tag_53\n      jump\t// in\n    tag_65:\n      0x20\n      mload(0x40)\n      dup1\n      dup4\n      sub\n      dup2\n      dup7\n      dup1\n      extcodesize\n      iszero\n      dup1\n      iszero\n      tag_66\n      jumpi\n      0x00\n      dup1\n      revert\n    tag_66:\n      pop\n      gas\n      staticcall\n      iszero\n      dup1\n      iszero\n      tag_68\n      jumpi\n      returndatasize\n      0x00\n      dup1\n      returndatacopy\n      revert(0x00, returndatasize)\n    tag_68:\n      pop\n      pop\n      pop\n      pop\n      mload(0x40)\n      returndatasize\n      not(0x1f)\n      0x1f\n      dup3\n      add\n      and\n      dup3\n      add\n      dup1\n      0x40\n      mstore\n      pop\n      dup2\n      add\n      swap1\n      tag_69\n      swap2\n      swap1\n      tag_150\n      jump\t// in\n    tag_69:\n        /* \".deps/github/aave/protocol-v2/contracts/misc/AaveProtocolDataProvider.sol\":5290:5311  reserve.aTokenAddress */\n      0xe0\n      dup4\n      add\n      mload\n        /* \".deps/github/aave/protocol-v2/contracts/misc/AaveProtocolDataProvider.sol\":5275:5328  IERC20Detailed(reserve.aTokenAddress).balanceOf(user) */\n      mload(0x40)\n      shl(0xe0, 0x70a08231)\n      dup2\n      mstore\n        /* \".deps/github/aave/protocol-v2/contracts/misc/AaveProtocolDataProvider.sol\":5112:5245  DataTypes.UserConfigurationMap memory userConfig =... */\n      swap2\n      swap3\n      pop\n      sub(shl(0xa0, 0x01), 0x01)\n        /* \".deps/github/aave/protocol-v2/contracts/misc/AaveProtocolDataProvider.sol\":5275:5322  IERC20Detailed(reserve.aTokenAddress).balanceOf */\n      and\n      swap1\n      0x70a08231\n      swap1\n        /* \".deps/github/aave/protocol-v2/contracts/misc/AaveProtocolDataProvider.sol\":5275:5328  IERC20Detailed(reserve.aTokenAddress).balanceOf(user) */\n      tag_71\n      swap1\n        /* \".deps/github/aave/protocol-v2/contracts/misc/AaveProtocolDataProvider.sol\":5323:5327  user */\n      dup16\n      swap1\n        /* \".deps/github/aave/protocol-v2/contracts/misc/AaveProtocolDataProvider.sol\":5275:5328  IERC20Detailed(reserve.aTokenAddress).balanceOf(user) */\n      0x04\n      add\n      tag_53\n      jump\t// in\n    tag_71:\n      0x20\n      mload(0x40)\n      dup1\n      dup4\n      sub\n      dup2\n      dup7\n      dup1\n      extcodesize\n      iszero\n      dup1\n      iszero\n      tag_72\n      jumpi\n      0x00\n      dup1\n      revert\n    tag_72:\n      pop\n      gas\n      staticcall\n      iszero\n      dup1\n      iszero\n      tag_74\n      jumpi\n      returndatasize\n      0x00\n      dup1\n      returndatacopy\n      revert(0x00, returndatasize)\n    tag_74:\n      pop\n      pop\n      pop\n      pop\n      mload(0x40)\n      returndatasize\n      not(0x1f)\n      0x1f\n      dup3\n      add\n      and\n      dup3\n      add\n      dup1\n      0x40\n      mstore\n      pop\n      dup2\n      add\n      swap1\n      tag_75\n      swap2\n      swap1\n      tag_76\n      jump\t// in\n    tag_75:\n        /* \".deps/github/aave/protocol-v2/contracts/misc/AaveProtocolDataProvider.sol\":5371:5403  reserve.variableDebtTokenAddress */\n      0x0120\n      dup4\n      add\n      mload\n        /* \".deps/github/aave/protocol-v2/contracts/misc/AaveProtocolDataProvider.sol\":5356:5420  IERC20Detailed(reserve.variableDebtTokenAddress).balanceOf(user) */\n      mload(0x40)\n      shl(0xe0, 0x70a08231)\n      dup2\n      mstore\n        /* \".deps/github/aave/protocol-v2/contracts/misc/AaveProtocolDataProvider.sol\":5252:5328  currentATokenBalance = IERC20Detailed(reserve.aTokenAddress).balanceOf(user) */\n      swap2\n      swap13\n      pop\n      sub(shl(0xa0, 0x01), 0x01)\n        /* \".deps/github/aave/protocol-v2/contracts/misc/AaveProtocolDataProvider.sol\":5356:5414  IERC20Detailed(reserve.variableDebtTokenAddress).balanceOf */\n      and\n      swap1\n      0x70a08231\n      swap1\n        /* \".deps/github/aave/protocol-v2/contracts/misc/AaveProtocolDataProvider.sol\":5356:5420  IERC20Detailed(reserve.variableDebtTokenAddress).balanceOf(user) */\n      tag_77\n      swap1\n        /* \".deps/github/aave/protocol-v2/contracts/misc/AaveProtocolDataProvider.sol\":5415:5419  user */\n      dup16\n      swap1\n        /* \".deps/github/aave/protocol-v2/contracts/misc/AaveProtocolDataProvider.sol\":5356:5420  IERC20Detailed(reserve.variableDebtTokenAddress).balanceOf(user) */\n      0x04\n      add\n      tag_53\n      jump\t// in\n    tag_77:\n      0x20\n      mload(0x40)\n      dup1\n      dup4\n      sub\n      dup2\n      dup7\n      dup1\n      extcodesize\n      iszero\n      dup1\n      iszero\n      tag_78\n      jumpi\n      0x00\n      dup1\n      revert\n    tag_78:\n      pop\n      gas\n      staticcall\n      iszero\n      dup1\n      iszero\n      tag_80\n      jumpi\n      returndatasize\n      0x00\n      dup1\n      returndatacopy\n      revert(0x00, returndatasize)\n    tag_80:\n      pop\n      pop\n      pop\n      pop\n      mload(0x40)\n      returndatasize\n      not(0x1f)\n      0x1f\n      dup3\n      add\n      and\n      dup3\n      add\n      dup1\n      0x40\n      mstore\n      pop\n      dup2\n      add\n      swap1\n      tag_81\n      swap2\n      swap1\n      tag_76\n      jump\t// in\n    tag_81:\n        /* \".deps/github/aave/protocol-v2/contracts/misc/AaveProtocolDataProvider.sol\":5461:5491  reserve.stableDebtTokenAddress */\n      0x0100\n      dup4\n      add\n      mload\n        /* \".deps/github/aave/protocol-v2/contracts/misc/AaveProtocolDataProvider.sol\":5446:5508  IERC20Detailed(reserve.stableDebtTokenAddress).balanceOf(user) */\n      mload(0x40)\n      shl(0xe0, 0x70a08231)\n      dup2\n      mstore\n        /* \".deps/github/aave/protocol-v2/contracts/misc/AaveProtocolDataProvider.sol\":5334:5420  currentVariableDebt = IERC20Detailed(reserve.variableDebtTokenAddress).balanceOf(user) */\n      swap2\n      swap11\n      pop\n      sub(shl(0xa0, 0x01), 0x01)\n        /* \".deps/github/aave/protocol-v2/contracts/misc/AaveProtocolDataProvider.sol\":5446:5502  IERC20Detailed(reserve.stableDebtTokenAddress).balanceOf */\n      and\n      swap1\n      0x70a08231\n      swap1\n        /* \".deps/github/aave/protocol-v2/contracts/misc/AaveProtocolDataProvider.sol\":5446:5508  IERC20Detailed(reserve.stableDebtTokenAddress).balanceOf(user) */\n      tag_82\n      swap1\n        /* \".deps/github/aave/protocol-v2/contracts/misc/AaveProtocolDataProvider.sol\":5503:5507  user */\n      dup16\n      swap1\n        /* \".deps/github/aave/protocol-v2/contracts/misc/AaveProtocolDataProvider.sol\":5446:5508  IERC20Detailed(reserve.stableDebtTokenAddress).balanceOf(user) */\n      0x04\n      add\n      tag_53\n      jump\t// in\n    tag_82:\n      0x20\n      mload(0x40)\n      dup1\n      dup4\n      sub\n      dup2\n      dup7\n      dup1\n      extcodesize\n      iszero\n      dup1\n      iszero\n      tag_83\n      jumpi\n      0x00\n      dup1\n      revert\n    tag_83:\n      pop\n      gas\n      staticcall\n      iszero\n      dup1\n      iszero\n      tag_85\n      jumpi\n      returndatasize\n      0x00\n      dup1\n      returndatacopy\n      revert(0x00, returndatasize)\n    tag_85:\n      pop\n      pop\n      pop\n      pop\n      mload(0x40)\n      returndatasize\n      not(0x1f)\n      0x1f\n      dup3\n      add\n      and\n      dup3\n      add\n      dup1\n      0x40\n      mstore\n      pop\n      dup2\n      add\n      swap1\n      tag_86\n      swap2\n      swap1\n      tag_76\n      jump\t// in\n    tag_86:\n        /* \".deps/github/aave/protocol-v2/contracts/misc/AaveProtocolDataProvider.sol\":5553:5583  reserve.stableDebtTokenAddress */\n      0x0100\n      dup4\n      add\n      mload\n        /* \".deps/github/aave/protocol-v2/contracts/misc/AaveProtocolDataProvider.sol\":5536:5609  IStableDebtToken(reserve.stableDebtTokenAddress).principalBalanceOf(user) */\n      mload(0x40)\n      shl(0xe1, 0x631a6fd5)\n      dup2\n      mstore\n        /* \".deps/github/aave/protocol-v2/contracts/misc/AaveProtocolDataProvider.sol\":5426:5508  currentStableDebt = IERC20Detailed(reserve.stableDebtTokenAddress).balanceOf(user) */\n      swap2\n      swap12\n      pop\n      sub(shl(0xa0, 0x01), 0x01)\n        /* \".deps/github/aave/protocol-v2/contracts/misc/AaveProtocolDataProvider.sol\":5536:5603  IStableDebtToken(reserve.stableDebtTokenAddress).principalBalanceOf */\n      and\n      swap1\n      0xc634dfaa\n      swap1\n        /* \".deps/github/aave/protocol-v2/contracts/misc/AaveProtocolDataProvider.sol\":5536:5609  IStableDebtToken(reserve.stableDebtTokenAddress).principalBalanceOf(user) */\n      tag_87\n      swap1\n        /* \".deps/github/aave/protocol-v2/contracts/misc/AaveProtocolDataProvider.sol\":5604:5608  user */\n      dup16\n      swap1\n        /* \".deps/github/aave/protocol-v2/contracts/misc/AaveProtocolDataProvider.sol\":5536:5609  IStableDebtToken(reserve.stableDebtTokenAddress).principalBalanceOf(user) */\n      0x04\n      add\n      tag_53\n      jump\t// in\n    tag_87:\n      0x20\n      mload(0x40)\n      dup1\n      dup4\n      sub\n      dup2\n      dup7\n      dup1\n      extcodesize\n      iszero\n      dup1\n      iszero\n      tag_88\n      jumpi\n      0x00\n      dup1\n      revert\n    tag_88:\n      pop\n      gas\n      staticcall\n      iszero\n      dup1\n      iszero\n      tag_90\n      jumpi\n      returndatasize\n      0x00\n      dup1\n      returndatacopy\n      revert(0x00, returndatasize)\n    tag_90:\n      pop\n      pop\n      pop\n      pop\n      mload(0x40)\n      returndatasize\n      not(0x1f)\n      0x1f\n      dup3\n      add\n      and\n      dup3\n      add\n      dup1\n      0x40\n      mstore\n      pop\n      dup2\n      add\n      swap1\n      tag_91\n      swap2\n      swap1\n      tag_76\n      jump\t// in\n    tag_91:\n        /* \".deps/github/aave/protocol-v2/contracts/misc/AaveProtocolDataProvider.sol\":5655:5687  reserve.variableDebtTokenAddress */\n      0x0120\n      dup4\n      add\n      mload\n        /* \".deps/github/aave/protocol-v2/contracts/misc/AaveProtocolDataProvider.sol\":5636:5710  IVariableDebtToken(reserve.variableDebtTokenAddress).scaledBalanceOf(user) */\n      mload(0x40)\n      shl(0xe1, 0x0ed1279f)\n      dup2\n      mstore\n        /* \".deps/github/aave/protocol-v2/contracts/misc/AaveProtocolDataProvider.sol\":5514:5609  principalStableDebt = IStableDebtToken(reserve.stableDebtTokenAddress).principalBalanceOf(user) */\n      swap2\n      swap10\n      pop\n      sub(shl(0xa0, 0x01), 0x01)\n        /* \".deps/github/aave/protocol-v2/contracts/misc/AaveProtocolDataProvider.sol\":5636:5704  IVariableDebtToken(reserve.variableDebtTokenAddress).scaledBalanceOf */\n      and\n      swap1\n      0x1da24f3e\n      swap1\n        /* \".deps/github/aave/protocol-v2/contracts/misc/AaveProtocolDataProvider.sol\":5636:5710  IVariableDebtToken(reserve.variableDebtTokenAddress).scaledBalanceOf(user) */\n      tag_92\n      swap1\n        /* \".deps/github/aave/protocol-v2/contracts/misc/AaveProtocolDataProvider.sol\":5705:5709  user */\n      dup16\n      swap1\n        /* \".deps/github/aave/protocol-v2/contracts/misc/AaveProtocolDataProvider.sol\":5636:5710  IVariableDebtToken(reserve.variableDebtTokenAddress).scaledBalanceOf(user) */\n      0x04\n      add\n      tag_53\n      jump\t// in\n    tag_92:\n      0x20\n      mload(0x40)\n      dup1\n      dup4\n      sub\n      dup2\n      dup7\n      dup1\n      extcodesize\n      iszero\n      dup1\n      iszero\n      tag_93\n      jumpi\n      0x00\n      dup1\n      revert\n    tag_93:\n      pop\n      gas\n      staticcall\n      iszero\n      dup1\n      iszero\n      tag_95\n      jumpi\n      returndatasize\n      0x00\n      dup1\n      returndatacopy\n      revert(0x00, returndatasize)\n    tag_95:\n      pop\n      pop\n      pop\n      pop\n      mload(0x40)\n      returndatasize\n      not(0x1f)\n      0x1f\n      dup3\n      add\n      and\n      dup3\n      add\n      dup1\n      0x40\n      mstore\n      pop\n      dup2\n      add\n      swap1\n      tag_96\n      swap2\n      swap1\n      tag_76\n      jump\t// in\n    tag_96:\n        /* \".deps/github/aave/protocol-v2/contracts/misc/AaveProtocolDataProvider.sol\":5615:5710  scaledVariableDebt = IVariableDebtToken(reserve.variableDebtTokenAddress).scaledBalanceOf(user) */\n      swap7\n      pop\n        /* \".deps/github/aave/protocol-v2/contracts/misc/AaveProtocolDataProvider.sol\":5732:5739  reserve */\n      dup2\n        /* \".deps/github/aave/protocol-v2/contracts/misc/AaveProtocolDataProvider.sol\":5732:5760  reserve.currentLiquidityRate */\n      0x60\n      add\n      mload\n      sub(shl(0x80, 0x01), 0x01)\n        /* \".deps/github/aave/protocol-v2/contracts/misc/AaveProtocolDataProvider.sol\":5716:5760  liquidityRate = reserve.currentLiquidityRate */\n      and\n      swap5\n      pop\n        /* \".deps/github/aave/protocol-v2/contracts/misc/AaveProtocolDataProvider.sol\":5802:5809  reserve */\n      dup2\n        /* \".deps/github/aave/protocol-v2/contracts/misc/AaveProtocolDataProvider.sol\":5802:5832  reserve.stableDebtTokenAddress */\n      0x0100\n      add\n      mload\n      sub(shl(0xa0, 0x01), 0x01)\n        /* \".deps/github/aave/protocol-v2/contracts/misc/AaveProtocolDataProvider.sol\":5785:5851  IStableDebtToken(reserve.stableDebtTokenAddress).getUserStableRate */\n      and\n      0xe78c9b3b\n        /* \".deps/github/aave/protocol-v2/contracts/misc/AaveProtocolDataProvider.sol\":5852:5856  user */\n      dup14\n        /* \".deps/github/aave/protocol-v2/contracts/misc/AaveProtocolDataProvider.sol\":5785:5857  IStableDebtToken(reserve.stableDebtTokenAddress).getUserStableRate(user) */\n      mload(0x40)\n      dup3\n      0xffffffff\n      and\n      0xe0\n      shl\n      dup2\n      mstore\n      0x04\n      add\n      tag_97\n      swap2\n      swap1\n      tag_53\n      jump\t// in\n    tag_97:\n      0x20\n      mload(0x40)\n      dup1\n      dup4\n      sub\n      dup2\n      dup7\n      dup1\n      extcodesize\n      iszero\n      dup1\n      iszero\n      tag_98\n      jumpi\n      0x00\n      dup1\n      revert\n    tag_98:\n      pop\n      gas\n      staticcall\n      iszero\n      dup1\n      iszero\n      tag_100\n      jumpi\n      returndatasize\n      0x00\n      dup1\n      returndatacopy\n      revert(0x00, returndatasize)\n    tag_100:\n      pop\n      pop\n      pop\n      pop\n      mload(0x40)\n      returndatasize\n      not(0x1f)\n      0x1f\n      dup3\n      add\n      and\n      dup3\n      add\n      dup1\n      0x40\n      mstore\n      pop\n      dup2\n      add\n      swap1\n      tag_101\n      swap2\n      swap1\n      tag_76\n      jump\t// in\n    tag_101:\n        /* \".deps/github/aave/protocol-v2/contracts/misc/AaveProtocolDataProvider.sol\":5904:5934  reserve.stableDebtTokenAddress */\n      0x0100\n      dup4\n      add\n      mload\n        /* \".deps/github/aave/protocol-v2/contracts/misc/AaveProtocolDataProvider.sol\":5887:5972  IStableDebtToken(reserve.stableDebtTokenAddress).getUserLastUpdated(... */\n      mload(0x40)\n      shl(0xe2, 0x1e739ae3)\n      dup2\n      mstore\n        /* \".deps/github/aave/protocol-v2/contracts/misc/AaveProtocolDataProvider.sol\":5766:5857  stableBorrowRate = IStableDebtToken(reserve.stableDebtTokenAddress).getUserStableRate(user) */\n      swap2\n      swap8\n      pop\n      sub(shl(0xa0, 0x01), 0x01)\n        /* \".deps/github/aave/protocol-v2/contracts/misc/AaveProtocolDataProvider.sol\":5887:5954  IStableDebtToken(reserve.stableDebtTokenAddress).getUserLastUpdated */\n      and\n      swap1\n      0x79ce6b8c\n      swap1\n        /* \".deps/github/aave/protocol-v2/contracts/misc/AaveProtocolDataProvider.sol\":5887:5972  IStableDebtToken(reserve.stableDebtTokenAddress).getUserLastUpdated(... */\n      tag_102\n      swap1\n        /* \".deps/github/aave/protocol-v2/contracts/misc/AaveProtocolDataProvider.sol\":5962:5966  user */\n      dup16\n      swap1\n        /* \".deps/github/aave/protocol-v2/contracts/misc/AaveProtocolDataProvider.sol\":5887:5972  IStableDebtToken(reserve.stableDebtTokenAddress).getUserLastUpdated(... */\n      0x04\n      add\n      tag_53\n      jump\t// in\n    tag_102:\n      0x20\n      mload(0x40)\n      dup1\n      dup4\n      sub\n      dup2\n      dup7\n      dup1\n      extcodesize\n      iszero\n      dup1\n      iszero\n      tag_103\n      jumpi\n      0x00\n      dup1\n      revert\n    tag_103:\n      pop\n      gas\n      staticcall\n      iszero\n      dup1\n      iszero\n      tag_105\n      jumpi\n      returndatasize\n      0x00\n      dup1\n      returndatacopy\n      revert(0x00, returndatasize)\n    tag_105:\n      pop\n      pop\n      pop\n      pop\n      mload(0x40)\n      returndatasize\n      not(0x1f)\n      0x1f\n      dup3\n      add\n      and\n      dup3\n      add\n      dup1\n      0x40\n      mstore\n      pop\n      dup2\n      add\n      swap1\n      tag_106\n      swap2\n      swap1\n      tag_107\n      jump\t// in\n    tag_106:\n        /* \".deps/github/aave/protocol-v2/contracts/misc/AaveProtocolDataProvider.sol\":5863:5972  stableRateLastUpdated = IStableDebtToken(reserve.stableDebtTokenAddress).getUserLastUpdated(... */\n      swap4\n      pop\n        /* \".deps/github/aave/protocol-v2/contracts/misc/AaveProtocolDataProvider.sol\":6005:6047  userConfig.isUsingAsCollateral(reserve.id) */\n      tag_108\n        /* \".deps/github/aave/protocol-v2/contracts/misc/AaveProtocolDataProvider.sol\":6036:6043  reserve */\n      dup3\n        /* \".deps/github/aave/protocol-v2/contracts/misc/AaveProtocolDataProvider.sol\":6036:6046  reserve.id */\n      0x0160\n      add\n      mload\n        /* \".deps/github/aave/protocol-v2/contracts/misc/AaveProtocolDataProvider.sol\":6005:6047  userConfig.isUsingAsCollateral(reserve.id) */\n      0xff\n      and\n        /* \".deps/github/aave/protocol-v2/contracts/misc/AaveProtocolDataProvider.sol\":6005:6015  userConfig */\n      dup3\n        /* \".deps/github/aave/protocol-v2/contracts/misc/AaveProtocolDataProvider.sol\":6005:6035  userConfig.isUsingAsCollateral */\n      tag_109\n      swap1\n        /* \".deps/github/aave/protocol-v2/contracts/misc/AaveProtocolDataProvider.sol\":6005:6047  userConfig.isUsingAsCollateral(reserve.id) */\n      swap2\n      swap1\n      0xffffffff\n      and\n      jump\t// in\n    tag_108:\n        /* \".deps/github/aave/protocol-v2/contracts/misc/AaveProtocolDataProvider.sol\":5978:6047  usageAsCollateralEnabled = userConfig.isUsingAsCollateral(reserve.id) */\n      swap3\n      pop\n        /* \".deps/github/aave/protocol-v2/contracts/misc/AaveProtocolDataProvider.sol\":4576:6052  function getUserReserveData(address asset, address user)... */\n      pop\n      pop\n      swap3\n      swap6\n      swap9\n      pop\n      swap3\n      swap6\n      swap9\n      pop\n      swap3\n      swap6\n      swap9\n      jump\t// out\n        /* \".deps/github/aave/protocol-v2/contracts/misc/AaveProtocolDataProvider.sol\":3517:4572  function getReserveData(address asset)... */\n    tag_24:\n        /* \".deps/github/aave/protocol-v2/contracts/misc/AaveProtocolDataProvider.sol\":3598:3624  uint256 availableLiquidity */\n      0x00\n        /* \".deps/github/aave/protocol-v2/contracts/misc/AaveProtocolDataProvider.sol\":3632:3655  uint256 totalStableDebt */\n      dup1\n        /* \".deps/github/aave/protocol-v2/contracts/misc/AaveProtocolDataProvider.sol\":3663:3688  uint256 totalVariableDebt */\n      0x00\n        /* \".deps/github/aave/protocol-v2/contracts/misc/AaveProtocolDataProvider.sol\":3696:3717  uint256 liquidityRate */\n      dup1\n        /* \".deps/github/aave/protocol-v2/contracts/misc/AaveProtocolDataProvider.sol\":3725:3751  uint256 variableBorrowRate */\n      0x00\n        /* \".deps/github/aave/protocol-v2/contracts/misc/AaveProtocolDataProvider.sol\":3759:3783  uint256 stableBorrowRate */\n      dup1\n        /* \".deps/github/aave/protocol-v2/contracts/misc/AaveProtocolDataProvider.sol\":3791:3822  uint256 averageStableBorrowRate */\n      0x00\n        /* \".deps/github/aave/protocol-v2/contracts/misc/AaveProtocolDataProvider.sol\":3830:3852  uint256 liquidityIndex */\n      dup1\n        /* \".deps/github/aave/protocol-v2/contracts/misc/AaveProtocolDataProvider.sol\":3860:3887  uint256 variableBorrowIndex */\n      0x00\n        /* \".deps/github/aave/protocol-v2/contracts/misc/AaveProtocolDataProvider.sol\":3895:3921  uint40 lastUpdateTimestamp */\n      dup1\n        /* \".deps/github/aave/protocol-v2/contracts/misc/AaveProtocolDataProvider.sol\":3936:3972  DataTypes.ReserveData memory reserve */\n      tag_111\n      tag_46\n      jump\t// in\n    tag_111:\n        /* \".deps/github/aave/protocol-v2/contracts/misc/AaveProtocolDataProvider.sol\":3994:4012  ADDRESSES_PROVIDER */\n      immutable(\"0x8129634de98ff4eac36cfdb2b9e1dc55781fddf4fba9ec16d4ac1f285a99533e\")\n      sub(shl(0xa0, 0x01), 0x01)\n        /* \".deps/github/aave/protocol-v2/contracts/misc/AaveProtocolDataProvider.sol\":3994:4027  ADDRESSES_PROVIDER.getLendingPool */\n      and\n      0x0261bf8b\n        /* \".deps/github/aave/protocol-v2/contracts/misc/AaveProtocolDataProvider.sol\":3994:4029  ADDRESSES_PROVIDER.getLendingPool() */\n      mload(0x40)\n      dup2\n      0xffffffff\n      and\n      0xe0\n      shl\n      dup2\n      mstore\n      0x04\n      add\n      0x20\n      mload(0x40)\n      dup1\n      dup4\n      sub\n      dup2\n      dup7\n      dup1\n      extcodesize\n      iszero\n      dup1\n      iszero\n      tag_112\n      jumpi\n      0x00\n      dup1\n      revert\n    tag_112:\n      pop\n      gas\n      staticcall\n      iszero\n      dup1\n      iszero\n      tag_114\n      jumpi\n      returndatasize\n      0x00\n      dup1\n      returndatacopy\n      revert(0x00, returndatasize)\n    tag_114:\n      pop\n      pop\n      pop\n      pop\n      mload(0x40)\n      returndatasize\n      not(0x1f)\n      0x1f\n      dup3\n      add\n      and\n      dup3\n      add\n      dup1\n      0x40\n      mstore\n      pop\n      dup2\n      add\n      swap1\n      tag_115\n      swap2\n      swap1\n      tag_51\n      jump\t// in\n    tag_115:\n      sub(shl(0xa0, 0x01), 0x01)\n        /* \".deps/github/aave/protocol-v2/contracts/misc/AaveProtocolDataProvider.sol\":3981:4045  ILendingPool(ADDRESSES_PROVIDER.getLendingPool()).getReserveData */\n      and\n      0x35ea6a75\n        /* \".deps/github/aave/protocol-v2/contracts/misc/AaveProtocolDataProvider.sol\":4046:4051  asset */\n      dup14\n        /* \".deps/github/aave/protocol-v2/contracts/misc/AaveProtocolDataProvider.sol\":3981:4052  ILendingPool(ADDRESSES_PROVIDER.getLendingPool()).getReserveData(asset) */\n      mload(0x40)\n      dup3\n      0xffffffff\n      and\n      0xe0\n      shl\n      dup2\n      mstore\n      0x04\n      add\n      tag_116\n      swap2\n      swap1\n      tag_53\n      jump\t// in\n    tag_116:\n      0x0180\n      mload(0x40)\n      dup1\n      dup4\n      sub\n      dup2\n      dup7\n      dup1\n      extcodesize\n      iszero\n      dup1\n      iszero\n      tag_117\n      jumpi\n      0x00\n      dup1\n      revert\n    tag_117:\n      pop\n      gas\n      staticcall\n      iszero\n      dup1\n      iszero\n      tag_119\n      jumpi\n      returndatasize\n      0x00\n      dup1\n      returndatacopy\n      revert(0x00, returndatasize)\n    tag_119:\n      pop\n      pop\n      pop\n      pop\n      mload(0x40)\n      returndatasize\n      not(0x1f)\n      0x1f\n      dup3\n      add\n      and\n      dup3\n      add\n      dup1\n      0x40\n      mstore\n      pop\n      dup2\n      add\n      swap1\n      tag_120\n      swap2\n      swap1\n      tag_58\n      jump\t// in\n    tag_120:\n        /* \".deps/github/aave/protocol-v2/contracts/misc/AaveProtocolDataProvider.sol\":4106:4127  reserve.aTokenAddress */\n      0xe0\n      dup2\n      add\n      mload\n        /* \".deps/github/aave/protocol-v2/contracts/misc/AaveProtocolDataProvider.sol\":4074:4128  IERC20Detailed(asset).balanceOf(reserve.aTokenAddress) */\n      mload(0x40)\n      shl(0xe0, 0x70a08231)\n      dup2\n      mstore\n        /* \".deps/github/aave/protocol-v2/contracts/misc/AaveProtocolDataProvider.sol\":3936:4052  DataTypes.ReserveData memory reserve =... */\n      swap2\n      swap3\n      pop\n      sub(shl(0xa0, 0x01), 0x01)\n        /* \".deps/github/aave/protocol-v2/contracts/misc/AaveProtocolDataProvider.sol\":4074:4105  IERC20Detailed(asset).balanceOf */\n      dup15\n      and\n      swap2\n      0x70a08231\n      swap2\n        /* \".deps/github/aave/protocol-v2/contracts/misc/AaveProtocolDataProvider.sol\":4074:4128  IERC20Detailed(asset).balanceOf(reserve.aTokenAddress) */\n      tag_121\n      swap2\n      0x04\n      add\n      tag_53\n      jump\t// in\n    tag_121:\n      0x20\n      mload(0x40)\n      dup1\n      dup4\n      sub\n      dup2\n      dup7\n      dup1\n      extcodesize\n      iszero\n      dup1\n      iszero\n      tag_122\n      jumpi\n      0x00\n      dup1\n      revert\n    tag_122:\n      pop\n      gas\n      staticcall\n      iszero\n      dup1\n      iszero\n      tag_124\n      jumpi\n      returndatasize\n      0x00\n      dup1\n      returndatacopy\n      revert(0x00, returndatasize)\n    tag_124:\n      pop\n      pop\n      pop\n      pop\n      mload(0x40)\n      returndatasize\n      not(0x1f)\n      0x1f\n      dup3\n      add\n      and\n      dup3\n      add\n      dup1\n      0x40\n      mstore\n      pop\n      dup2\n      add\n      swap1\n      tag_125\n      swap2\n      swap1\n      tag_76\n      jump\t// in\n    tag_125:\n        /* \".deps/github/aave/protocol-v2/contracts/misc/AaveProtocolDataProvider.sol\":4151:4158  reserve */\n      dup2\n        /* \".deps/github/aave/protocol-v2/contracts/misc/AaveProtocolDataProvider.sol\":4151:4181  reserve.stableDebtTokenAddress */\n      0x0100\n      add\n      mload\n      sub(shl(0xa0, 0x01), 0x01)\n        /* \".deps/github/aave/protocol-v2/contracts/misc/AaveProtocolDataProvider.sol\":4136:4194  IERC20Detailed(reserve.stableDebtTokenAddress).totalSupply */\n      and\n      0x18160ddd\n        /* \".deps/github/aave/protocol-v2/contracts/misc/AaveProtocolDataProvider.sol\":4136:4196  IERC20Detailed(reserve.stableDebtTokenAddress).totalSupply() */\n      mload(0x40)\n      dup2\n      0xffffffff\n      and\n      0xe0\n      shl\n      dup2\n      mstore\n      0x04\n      add\n      0x20\n      mload(0x40)\n      dup1\n      dup4\n      sub\n      dup2\n      dup7\n      dup1\n      extcodesize\n      iszero\n      dup1\n      iszero\n      tag_126\n      jumpi\n      0x00\n      dup1\n      revert\n    tag_126:\n      pop\n      gas\n      staticcall\n      iszero\n      dup1\n      iszero\n      tag_128\n      jumpi\n      returndatasize\n      0x00\n      dup1\n      returndatacopy\n      revert(0x00, returndatasize)\n    tag_128:\n      pop\n      pop\n      pop\n      pop\n      mload(0x40)\n      returndatasize\n      not(0x1f)\n      0x1f\n      dup3\n      add\n      and\n      dup3\n      add\n      dup1\n      0x40\n      mstore\n      pop\n      dup2\n      add\n      swap1\n      tag_129\n      swap2\n      swap1\n      tag_76\n      jump\t// in\n    tag_129:\n        /* \".deps/github/aave/protocol-v2/contracts/misc/AaveProtocolDataProvider.sol\":4219:4226  reserve */\n      dup3\n        /* \".deps/github/aave/protocol-v2/contracts/misc/AaveProtocolDataProvider.sol\":4219:4251  reserve.variableDebtTokenAddress */\n      0x0120\n      add\n      mload\n      sub(shl(0xa0, 0x01), 0x01)\n        /* \".deps/github/aave/protocol-v2/contracts/misc/AaveProtocolDataProvider.sol\":4204:4264  IERC20Detailed(reserve.variableDebtTokenAddress).totalSupply */\n      and\n      0x18160ddd\n        /* \".deps/github/aave/protocol-v2/contracts/misc/AaveProtocolDataProvider.sol\":4204:4266  IERC20Detailed(reserve.variableDebtTokenAddress).totalSupply() */\n      mload(0x40)\n      dup2\n      0xffffffff\n      and\n      0xe0\n      shl\n      dup2\n      mstore\n      0x04\n      add\n      0x20\n      mload(0x40)\n      dup1\n      dup4\n      sub\n      dup2\n      dup7\n      dup1\n      extcodesize\n      iszero\n      dup1\n      iszero\n      tag_130\n      jumpi\n      0x00\n      dup1\n      revert\n    tag_130:\n      pop\n      gas\n      staticcall\n      iszero\n      dup1\n      iszero\n      tag_132\n      jumpi\n      returndatasize\n      0x00\n      dup1\n      returndatacopy\n      revert(0x00, returndatasize)\n    tag_132:\n      pop\n      pop\n      pop\n      pop\n      mload(0x40)\n      returndatasize\n      not(0x1f)\n      0x1f\n      dup3\n      add\n      and\n      dup3\n      add\n      dup1\n      0x40\n      mstore\n      pop\n      dup2\n      add\n      swap1\n      tag_133\n      swap2\n      swap1\n      tag_76\n      jump\t// in\n    tag_133:\n        /* \".deps/github/aave/protocol-v2/contracts/misc/AaveProtocolDataProvider.sol\":4274:4281  reserve */\n      dup4\n        /* \".deps/github/aave/protocol-v2/contracts/misc/AaveProtocolDataProvider.sol\":4274:4302  reserve.currentLiquidityRate */\n      0x60\n      add\n      mload\n        /* \".deps/github/aave/protocol-v2/contracts/misc/AaveProtocolDataProvider.sol\":4310:4317  reserve */\n      dup5\n        /* \".deps/github/aave/protocol-v2/contracts/misc/AaveProtocolDataProvider.sol\":4310:4343  reserve.currentVariableBorrowRate */\n      0x80\n      add\n      mload\n        /* \".deps/github/aave/protocol-v2/contracts/misc/AaveProtocolDataProvider.sol\":4351:4358  reserve */\n      dup6\n        /* \".deps/github/aave/protocol-v2/contracts/misc/AaveProtocolDataProvider.sol\":4351:4382  reserve.currentStableBorrowRate */\n      0xa0\n      add\n      mload\n        /* \".deps/github/aave/protocol-v2/contracts/misc/AaveProtocolDataProvider.sol\":4407:4414  reserve */\n      dup7\n        /* \".deps/github/aave/protocol-v2/contracts/misc/AaveProtocolDataProvider.sol\":4407:4437  reserve.stableDebtTokenAddress */\n      0x0100\n      add\n      mload\n      sub(shl(0xa0, 0x01), 0x01)\n        /* \".deps/github/aave/protocol-v2/contracts/misc/AaveProtocolDataProvider.sol\":4390:4459  IStableDebtToken(reserve.stableDebtTokenAddress).getAverageStableRate */\n      and\n      0x90f6fcf2\n        /* \".deps/github/aave/protocol-v2/contracts/misc/AaveProtocolDataProvider.sol\":4390:4461  IStableDebtToken(reserve.stableDebtTokenAddress).getAverageStableRate() */\n      mload(0x40)\n      dup2\n      0xffffffff\n      and\n      0xe0\n      shl\n      dup2\n      mstore\n      0x04\n      add\n      0x20\n      mload(0x40)\n      dup1\n      dup4\n      sub\n      dup2\n      dup7\n      dup1\n      extcodesize\n      iszero\n      dup1\n      iszero\n      tag_134\n      jumpi\n      0x00\n      dup1\n      revert\n    tag_134:\n      pop\n      gas\n      staticcall\n      iszero\n      dup1\n      iszero\n      tag_136\n      jumpi\n      returndatasize\n      0x00\n      dup1\n      returndatacopy\n      revert(0x00, returndatasize)\n    tag_136:\n      pop\n      pop\n      pop\n      pop\n      mload(0x40)\n      returndatasize\n      not(0x1f)\n      0x1f\n      dup3\n      add\n      and\n      dup3\n      add\n      dup1\n      0x40\n      mstore\n      pop\n      dup2\n      add\n      swap1\n      tag_137\n      swap2\n      swap1\n      tag_76\n      jump\t// in\n    tag_137:\n        /* \".deps/github/aave/protocol-v2/contracts/misc/AaveProtocolDataProvider.sol\":4469:4476  reserve */\n      dup8\n        /* \".deps/github/aave/protocol-v2/contracts/misc/AaveProtocolDataProvider.sol\":4469:4491  reserve.liquidityIndex */\n      0x20\n      add\n      mload\n        /* \".deps/github/aave/protocol-v2/contracts/misc/AaveProtocolDataProvider.sol\":4499:4506  reserve */\n      dup9\n        /* \".deps/github/aave/protocol-v2/contracts/misc/AaveProtocolDataProvider.sol\":4499:4526  reserve.variableBorrowIndex */\n      0x40\n      add\n      mload\n        /* \".deps/github/aave/protocol-v2/contracts/misc/AaveProtocolDataProvider.sol\":4534:4541  reserve */\n      dup10\n        /* \".deps/github/aave/protocol-v2/contracts/misc/AaveProtocolDataProvider.sol\":4534:4561  reserve.lastUpdateTimestamp */\n      0xc0\n      add\n      mload\n        /* \".deps/github/aave/protocol-v2/contracts/misc/AaveProtocolDataProvider.sol\":4059:4567  return (... */\n      dup7\n      sub(shl(0x80, 0x01), 0x01)\n      and\n      swap7\n      pop\n      dup6\n      sub(shl(0x80, 0x01), 0x01)\n      and\n      swap6\n      pop\n      dup5\n      sub(shl(0x80, 0x01), 0x01)\n      and\n      swap5\n      pop\n      dup3\n      sub(shl(0x80, 0x01), 0x01)\n      and\n      swap3\n      pop\n      dup2\n      sub(shl(0x80, 0x01), 0x01)\n      and\n      swap2\n      pop\n      swap11\n      pop\n      swap11\n      pop\n      swap11\n      pop\n      swap11\n      pop\n      swap11\n      pop\n      swap11\n      pop\n      swap11\n      pop\n      swap11\n      pop\n      swap11\n      pop\n      swap11\n      pop\n      pop\n        /* \".deps/github/aave/protocol-v2/contracts/misc/AaveProtocolDataProvider.sol\":3517:4572  function getReserveData(address asset)... */\n      swap2\n      swap4\n      swap6\n      swap8\n      swap10\n      pop\n      swap2\n      swap4\n      swap6\n      swap8\n      swap10\n      jump\t// out\n        /* \".deps/github/aave/protocol-v2/contracts/misc/AaveProtocolDataProvider.sol\":2701:3513  function getReserveConfigurationData(address asset)... */\n    tag_29:\n        /* \".deps/github/aave/protocol-v2/contracts/misc/AaveProtocolDataProvider.sol\":2795:2811  uint256 decimals */\n      0x00\n        /* \".deps/github/aave/protocol-v2/contracts/misc/AaveProtocolDataProvider.sol\":2819:2830  uint256 ltv */\n      dup1\n        /* \".deps/github/aave/protocol-v2/contracts/misc/AaveProtocolDataProvider.sol\":2838:2866  uint256 liquidationThreshold */\n      0x00\n        /* \".deps/github/aave/protocol-v2/contracts/misc/AaveProtocolDataProvider.sol\":2874:2898  uint256 liquidationBonus */\n      dup1\n        /* \".deps/github/aave/protocol-v2/contracts/misc/AaveProtocolDataProvider.sol\":2906:2927  uint256 reserveFactor */\n      0x00\n        /* \".deps/github/aave/protocol-v2/contracts/misc/AaveProtocolDataProvider.sol\":2935:2964  bool usageAsCollateralEnabled */\n      dup1\n        /* \".deps/github/aave/protocol-v2/contracts/misc/AaveProtocolDataProvider.sol\":2972:2993  bool borrowingEnabled */\n      0x00\n        /* \".deps/github/aave/protocol-v2/contracts/misc/AaveProtocolDataProvider.sol\":3001:3029  bool stableBorrowRateEnabled */\n      dup1\n        /* \".deps/github/aave/protocol-v2/contracts/misc/AaveProtocolDataProvider.sol\":3037:3050  bool isActive */\n      0x00\n        /* \".deps/github/aave/protocol-v2/contracts/misc/AaveProtocolDataProvider.sol\":3058:3071  bool isFrozen */\n      dup1\n        /* \".deps/github/aave/protocol-v2/contracts/misc/AaveProtocolDataProvider.sol\":3086:3140  DataTypes.ReserveConfigurationMap memory configuration */\n      tag_139\n      tag_60\n      jump\t// in\n    tag_139:\n        /* \".deps/github/aave/protocol-v2/contracts/misc/AaveProtocolDataProvider.sol\":3162:3180  ADDRESSES_PROVIDER */\n      immutable(\"0x8129634de98ff4eac36cfdb2b9e1dc55781fddf4fba9ec16d4ac1f285a99533e\")\n      sub(shl(0xa0, 0x01), 0x01)\n        /* \".deps/github/aave/protocol-v2/contracts/misc/AaveProtocolDataProvider.sol\":3162:3195  ADDRESSES_PROVIDER.getLendingPool */\n      and\n      0x0261bf8b\n        /* \".deps/github/aave/protocol-v2/contracts/misc/AaveProtocolDataProvider.sol\":3162:3197  ADDRESSES_PROVIDER.getLendingPool() */\n      mload(0x40)\n      dup2\n      0xffffffff\n      and\n      0xe0\n      shl\n      dup2\n      mstore\n      0x04\n      add\n      0x20\n      mload(0x40)\n      dup1\n      dup4\n      sub\n      dup2\n      dup7\n      dup1\n      extcodesize\n      iszero\n      dup1\n      iszero\n      tag_141\n      jumpi\n      0x00\n      dup1\n      revert\n    tag_141:\n      pop\n      gas\n      staticcall\n      iszero\n      dup1\n      iszero\n      tag_143\n      jumpi\n      returndatasize\n      0x00\n      dup1\n      returndatacopy\n      revert(0x00, returndatasize)\n    tag_143:\n      pop\n      pop\n      pop\n      pop\n      mload(0x40)\n      returndatasize\n      not(0x1f)\n      0x1f\n      dup3\n      add\n      and\n      dup3\n      add\n      dup1\n      0x40\n      mstore\n      pop\n      dup2\n      add\n      swap1\n      tag_144\n      swap2\n      swap1\n      tag_51\n      jump\t// in\n    tag_144:\n      sub(shl(0xa0, 0x01), 0x01)\n        /* \".deps/github/aave/protocol-v2/contracts/misc/AaveProtocolDataProvider.sol\":3149:3215  ILendingPool(ADDRESSES_PROVIDER.getLendingPool()).getConfiguration */\n      and\n      0xc44b11f7\n        /* \".deps/github/aave/protocol-v2/contracts/misc/AaveProtocolDataProvider.sol\":3216:3221  asset */\n      dup14\n        /* \".deps/github/aave/protocol-v2/contracts/misc/AaveProtocolDataProvider.sol\":3149:3222  ILendingPool(ADDRESSES_PROVIDER.getLendingPool()).getConfiguration(asset) */\n      mload(0x40)\n      dup3\n      0xffffffff\n      and\n      0xe0\n      shl\n      dup2\n      mstore\n      0x04\n      add\n      tag_145\n      swap2\n      swap1\n      tag_53\n      jump\t// in\n    tag_145:\n      0x20\n      mload(0x40)\n      dup1\n      dup4\n      sub\n      dup2\n      dup7\n      dup1\n      extcodesize\n      iszero\n      dup1\n      iszero\n      tag_146\n      jumpi\n      0x00\n      dup1\n      revert\n    tag_146:\n      pop\n      gas\n      staticcall\n      iszero\n      dup1\n      iszero\n      tag_148\n      jumpi\n      returndatasize\n      0x00\n      dup1\n      returndatacopy\n      revert(0x00, returndatasize)\n    tag_148:\n      pop\n      pop\n      pop\n      pop\n      mload(0x40)\n      returndatasize\n      not(0x1f)\n      0x1f\n      dup3\n      add\n      and\n      dup3\n      add\n      dup1\n      0x40\n      mstore\n      pop\n      dup2\n      add\n      swap1\n      tag_149\n      swap2\n      swap1\n      tag_150\n      jump\t// in\n    tag_149:\n        /* \".deps/github/aave/protocol-v2/contracts/misc/AaveProtocolDataProvider.sol\":3086:3222  DataTypes.ReserveConfigurationMap memory configuration =... */\n      swap1\n      pop\n        /* \".deps/github/aave/protocol-v2/contracts/misc/AaveProtocolDataProvider.sol\":3302:3340  configuration... */\n      tag_151\n        /* \".deps/github/aave/protocol-v2/contracts/misc/AaveProtocolDataProvider.sol\":3302:3315  configuration */\n      dup2\n        /* \".deps/github/aave/protocol-v2/contracts/misc/AaveProtocolDataProvider.sol\":3302:3338  configuration... */\n      tag_152\n        /* \".deps/github/aave/protocol-v2/contracts/misc/AaveProtocolDataProvider.sol\":3302:3340  configuration... */\n      jump\t// in\n    tag_151:\n        /* \".deps/github/aave/protocol-v2/contracts/misc/AaveProtocolDataProvider.sol\":3229:3340  (ltv, liquidationThreshold, liquidationBonus, decimals, reserveFactor) = configuration... */\n      swap1\n      swap15\n      pop\n      swap3\n      swap13\n      pop\n      swap1\n      swap11\n      pop\n      swap9\n      pop\n      swap7\n      pop\n        /* \".deps/github/aave/protocol-v2/contracts/misc/AaveProtocolDataProvider.sol\":3413:3450  configuration... */\n      tag_153\n        /* \".deps/github/aave/protocol-v2/contracts/misc/AaveProtocolDataProvider.sol\":3413:3426  configuration */\n      dup2\n        /* \".deps/github/aave/protocol-v2/contracts/misc/AaveProtocolDataProvider.sol\":3413:3448  configuration... */\n      tag_154\n        /* \".deps/github/aave/protocol-v2/contracts/misc/AaveProtocolDataProvider.sol\":3413:3450  configuration... */\n      jump\t// in\n    tag_153:\n        /* \".deps/github/aave/protocol-v2/contracts/misc/AaveProtocolDataProvider.sol\":2701:3513  function getReserveConfigurationData(address asset)... */\n      swap14\n      swap16\n      swap13\n      swap15\n      pop\n        /* \".deps/github/aave/protocol-v2/contracts/misc/AaveProtocolDataProvider.sol\":3484:3504  liquidationThreshold */\n      swap11\n      swap13\n        /* \".deps/github/aave/protocol-v2/contracts/misc/AaveProtocolDataProvider.sol\":2701:3513  function getReserveConfigurationData(address asset)... */\n      swap10\n      swap12\n      swap9\n      swap11\n        /* \".deps/github/aave/protocol-v2/contracts/misc/AaveProtocolDataProvider.sol\":3484:3508  liquidationThreshold > 0 */\n      dup14\n      iszero\n      iszero\n      swap11\n        /* \".deps/github/aave/protocol-v2/contracts/misc/AaveProtocolDataProvider.sol\":3347:3450  (isActive, isFrozen, borrowingEnabled, stableBorrowRateEnabled) = configuration... */\n      swap1\n      swap10\n      swap1\n      swap9\n      pop\n      swap2\n      swap7\n      pop\n      swap5\n      pop\n        /* \".deps/github/aave/protocol-v2/contracts/misc/AaveProtocolDataProvider.sol\":2701:3513  function getReserveConfigurationData(address asset)... */\n      swap3\n      pop\n      pop\n      pop\n      jump\t// out\n        /* \".deps/github/aave/protocol-v2/contracts/misc/AaveProtocolDataProvider.sol\":1316:2104  function getAllReservesTokens() external view returns (TokenData[] memory) {... */\n    tag_33:\n        /* \".deps/github/aave/protocol-v2/contracts/misc/AaveProtocolDataProvider.sol\":1371:1389  TokenData[] memory */\n      0x60\n        /* \".deps/github/aave/protocol-v2/contracts/misc/AaveProtocolDataProvider.sol\":1397:1414  ILendingPool pool */\n      0x00\n        /* \".deps/github/aave/protocol-v2/contracts/misc/AaveProtocolDataProvider.sol\":1430:1448  ADDRESSES_PROVIDER */\n      immutable(\"0x8129634de98ff4eac36cfdb2b9e1dc55781fddf4fba9ec16d4ac1f285a99533e\")\n      sub(shl(0xa0, 0x01), 0x01)\n        /* \".deps/github/aave/protocol-v2/contracts/misc/AaveProtocolDataProvider.sol\":1430:1463  ADDRESSES_PROVIDER.getLendingPool */\n      and\n      0x0261bf8b\n        /* \".deps/github/aave/protocol-v2/contracts/misc/AaveProtocolDataProvider.sol\":1430:1465  ADDRESSES_PROVIDER.getLendingPool() */\n      mload(0x40)\n      dup2\n      0xffffffff\n      and\n      0xe0\n      shl\n      dup2\n      mstore\n      0x04\n      add\n      0x20\n      mload(0x40)\n      dup1\n      dup4\n      sub\n      dup2\n      dup7\n      dup1\n      extcodesize\n      iszero\n      dup1\n      iszero\n      tag_156\n      jumpi\n      0x00\n      dup1\n      revert\n    tag_156:\n      pop\n      gas\n      staticcall\n      iszero\n      dup1\n      iszero\n      tag_158\n      jumpi\n      returndatasize\n      0x00\n      dup1\n      returndatacopy\n      revert(0x00, returndatasize)\n    tag_158:\n      pop\n      pop\n      pop\n      pop\n      mload(0x40)\n      returndatasize\n      not(0x1f)\n      0x1f\n      dup3\n      add\n      and\n      dup3\n      add\n      dup1\n      0x40\n      mstore\n      pop\n      dup2\n      add\n      swap1\n      tag_159\n      swap2\n      swap1\n      tag_51\n      jump\t// in\n    tag_159:\n        /* \".deps/github/aave/protocol-v2/contracts/misc/AaveProtocolDataProvider.sol\":1397:1466  ILendingPool pool = ILendingPool(ADDRESSES_PROVIDER.getLendingPool()) */\n      swap1\n      pop\n        /* \".deps/github/aave/protocol-v2/contracts/misc/AaveProtocolDataProvider.sol\":1472:1497  address[] memory reserves */\n      0x60\n        /* \".deps/github/aave/protocol-v2/contracts/misc/AaveProtocolDataProvider.sol\":1500:1504  pool */\n      dup2\n      sub(shl(0xa0, 0x01), 0x01)\n        /* \".deps/github/aave/protocol-v2/contracts/misc/AaveProtocolDataProvider.sol\":1500:1520  pool.getReservesList */\n      and\n      0xd1946dbc\n        /* \".deps/github/aave/protocol-v2/contracts/misc/AaveProtocolDataProvider.sol\":1500:1522  pool.getReservesList() */\n      mload(0x40)\n      dup2\n      0xffffffff\n      and\n      0xe0\n      shl\n      dup2\n      mstore\n      0x04\n      add\n      0x00\n      mload(0x40)\n      dup1\n      dup4\n      sub\n      dup2\n      dup7\n      dup1\n      extcodesize\n      iszero\n      dup1\n      iszero\n      tag_160\n      jumpi\n      0x00\n      dup1\n      revert\n    tag_160:\n      pop\n      gas\n      staticcall\n      iszero\n      dup1\n      iszero\n      tag_162\n      jumpi\n      returndatasize\n      0x00\n      dup1\n      returndatacopy\n      revert(0x00, returndatasize)\n    tag_162:\n      pop\n      pop\n      pop\n      pop\n      mload(0x40)\n      returndatasize\n      0x00\n      dup3\n      returndatacopy\n      0x1f\n      returndatasize\n      swap1\n      dup2\n      add\n      not(0x1f)\n      and\n      dup3\n      add\n      0x40\n      mstore\n      tag_163\n      swap2\n      swap1\n      dup2\n      add\n      swap1\n      tag_164\n      jump\t// in\n    tag_163:\n        /* \".deps/github/aave/protocol-v2/contracts/misc/AaveProtocolDataProvider.sol\":1472:1522  address[] memory reserves = pool.getReservesList() */\n      swap1\n      pop\n        /* \".deps/github/aave/protocol-v2/contracts/misc/AaveProtocolDataProvider.sol\":1528:1561  TokenData[] memory reservesTokens */\n      0x60\n        /* \".deps/github/aave/protocol-v2/contracts/misc/AaveProtocolDataProvider.sol\":1580:1588  reserves */\n      dup2\n        /* \".deps/github/aave/protocol-v2/contracts/misc/AaveProtocolDataProvider.sol\":1580:1595  reserves.length */\n      mload\n        /* \".deps/github/aave/protocol-v2/contracts/misc/AaveProtocolDataProvider.sol\":1564:1596  new TokenData[](reserves.length) */\n      0xffffffffffffffff\n      dup2\n      gt\n      dup1\n      iszero\n      tag_165\n      jumpi\n      0x00\n      dup1\n      revert\n    tag_165:\n      pop\n      mload(0x40)\n      swap1\n      dup1\n      dup3\n      mstore\n      dup1\n      0x20\n      mul\n      0x20\n      add\n      dup3\n      add\n      0x40\n      mstore\n      dup1\n      iszero\n      tag_166\n      jumpi\n      dup2\n      0x20\n      add\n    tag_167:\n      tag_168\n      tag_169\n      jump\t// in\n    tag_168:\n      dup2\n      mstore\n      0x20\n      add\n      swap1\n      0x01\n      swap1\n      sub\n      swap1\n      dup2\n      tag_167\n      jumpi\n      swap1\n      pop\n    tag_166:\n      pop\n        /* \".deps/github/aave/protocol-v2/contracts/misc/AaveProtocolDataProvider.sol\":1528:1596  TokenData[] memory reservesTokens = new TokenData[](reserves.length) */\n      swap1\n      pop\n        /* \".deps/github/aave/protocol-v2/contracts/misc/AaveProtocolDataProvider.sol\":1607:1616  uint256 i */\n      0x00\n        /* \".deps/github/aave/protocol-v2/contracts/misc/AaveProtocolDataProvider.sol\":1602:2073  for (uint256 i = 0; i < reserves.length; i++) {... */\n    tag_170:\n        /* \".deps/github/aave/protocol-v2/contracts/misc/AaveProtocolDataProvider.sol\":1626:1634  reserves */\n      dup3\n        /* \".deps/github/aave/protocol-v2/contracts/misc/AaveProtocolDataProvider.sol\":1626:1641  reserves.length */\n      mload\n        /* \".deps/github/aave/protocol-v2/contracts/misc/AaveProtocolDataProvider.sol\":1622:1623  i */\n      dup2\n        /* \".deps/github/aave/protocol-v2/contracts/misc/AaveProtocolDataProvider.sol\":1622:1641  i < reserves.length */\n      lt\n        /* \".deps/github/aave/protocol-v2/contracts/misc/AaveProtocolDataProvider.sol\":1602:2073  for (uint256 i = 0; i < reserves.length; i++) {... */\n      iszero\n      tag_171\n      jumpi\n        /* \".deps/github/aave/protocol-v2/contracts/misc/AaveProtocolDataProvider.sol\":938:980  0x9f8F72aA9304c8B593d555F12eF6589cC3A579A2 */\n      0x9f8f72aa9304c8b593d555f12ef6589cc3a579a2\n      sub(shl(0xa0, 0x01), 0x01)\n        /* \".deps/github/aave/protocol-v2/contracts/misc/AaveProtocolDataProvider.sol\":1660:1678  reserves[i] == MKR */\n      and\n        /* \".deps/github/aave/protocol-v2/contracts/misc/AaveProtocolDataProvider.sol\":1660:1668  reserves */\n      dup4\n        /* \".deps/github/aave/protocol-v2/contracts/misc/AaveProtocolDataProvider.sol\":1669:1670  i */\n      dup3\n        /* \".deps/github/aave/protocol-v2/contracts/misc/AaveProtocolDataProvider.sol\":1660:1671  reserves[i] */\n      dup2\n      mload\n      dup2\n      lt\n      tag_173\n      jumpi\n      invalid\n    tag_173:\n      0x20\n      mul\n      0x20\n      add\n      add\n      mload\n      sub(shl(0xa0, 0x01), 0x01)\n        /* \".deps/github/aave/protocol-v2/contracts/misc/AaveProtocolDataProvider.sol\":1660:1678  reserves[i] == MKR */\n      and\n      eq\n        /* \".deps/github/aave/protocol-v2/contracts/misc/AaveProtocolDataProvider.sol\":1656:1790  if (reserves[i] == MKR) {... */\n      iszero\n      tag_174\n      jumpi\n        /* \".deps/github/aave/protocol-v2/contracts/misc/AaveProtocolDataProvider.sol\":1710:1763  TokenData({symbol: 'MKR', tokenAddress: reserves[i]}) */\n      mload(0x40)\n      dup1\n      0x40\n      add\n      0x40\n      mstore\n      dup1\n      mload(0x40)\n      dup1\n      0x40\n      add\n      0x40\n      mstore\n      dup1\n      0x03\n      dup2\n      mstore\n      0x20\n      add\n      shl(0xe9, 0x26a5a9)\n      dup2\n      mstore\n      pop\n      dup2\n      mstore\n      0x20\n      add\n        /* \".deps/github/aave/protocol-v2/contracts/misc/AaveProtocolDataProvider.sol\":1750:1758  reserves */\n      dup5\n        /* \".deps/github/aave/protocol-v2/contracts/misc/AaveProtocolDataProvider.sol\":1759:1760  i */\n      dup4\n        /* \".deps/github/aave/protocol-v2/contracts/misc/AaveProtocolDataProvider.sol\":1750:1761  reserves[i] */\n      dup2\n      mload\n      dup2\n      lt\n      tag_175\n      jumpi\n      invalid\n    tag_175:\n      0x20\n      mul\n      0x20\n      add\n      add\n      mload\n      sub(shl(0xa0, 0x01), 0x01)\n        /* \".deps/github/aave/protocol-v2/contracts/misc/AaveProtocolDataProvider.sol\":1710:1763  TokenData({symbol: 'MKR', tokenAddress: reserves[i]}) */\n      and\n      dup2\n      mstore\n      pop\n        /* \".deps/github/aave/protocol-v2/contracts/misc/AaveProtocolDataProvider.sol\":1690:1704  reservesTokens */\n      dup3\n        /* \".deps/github/aave/protocol-v2/contracts/misc/AaveProtocolDataProvider.sol\":1705:1706  i */\n      dup3\n        /* \".deps/github/aave/protocol-v2/contracts/misc/AaveProtocolDataProvider.sol\":1690:1707  reservesTokens[i] */\n      dup2\n      mload\n      dup2\n      lt\n      tag_176\n      jumpi\n      invalid\n    tag_176:\n      0x20\n      mul\n      0x20\n      add\n      add\n        /* \".deps/github/aave/protocol-v2/contracts/misc/AaveProtocolDataProvider.sol\":1690:1763  reservesTokens[i] = TokenData({symbol: 'MKR', tokenAddress: reserves[i]}) */\n      dup2\n      swap1\n      mstore\n      pop\n        /* \".deps/github/aave/protocol-v2/contracts/misc/AaveProtocolDataProvider.sol\":1773:1781  continue */\n      jump(tag_172)\n        /* \".deps/github/aave/protocol-v2/contracts/misc/AaveProtocolDataProvider.sol\":1656:1790  if (reserves[i] == MKR) {... */\n    tag_174:\n        /* \".deps/github/aave/protocol-v2/contracts/misc/AaveProtocolDataProvider.sol\":1007:1049  0xEeeeeEeeeEeEeeEeEeEeeEEEeeeeEeeeeeeeEEeE */\n      0xeeeeeeeeeeeeeeeeeeeeeeeeeeeeeeeeeeeeeeee\n      sub(shl(0xa0, 0x01), 0x01)\n        /* \".deps/github/aave/protocol-v2/contracts/misc/AaveProtocolDataProvider.sol\":1801:1819  reserves[i] == ETH */\n      and\n        /* \".deps/github/aave/protocol-v2/contracts/misc/AaveProtocolDataProvider.sol\":1801:1809  reserves */\n      dup4\n        /* \".deps/github/aave/protocol-v2/contracts/misc/AaveProtocolDataProvider.sol\":1810:1811  i */\n      dup3\n        /* \".deps/github/aave/protocol-v2/contracts/misc/AaveProtocolDataProvider.sol\":1801:1812  reserves[i] */\n      dup2\n      mload\n      dup2\n      lt\n      tag_177\n      jumpi\n      invalid\n    tag_177:\n      0x20\n      mul\n      0x20\n      add\n      add\n      mload\n      sub(shl(0xa0, 0x01), 0x01)\n        /* \".deps/github/aave/protocol-v2/contracts/misc/AaveProtocolDataProvider.sol\":1801:1819  reserves[i] == ETH */\n      and\n      eq\n        /* \".deps/github/aave/protocol-v2/contracts/misc/AaveProtocolDataProvider.sol\":1797:1931  if (reserves[i] == ETH) {... */\n      iszero\n      tag_178\n      jumpi\n        /* \".deps/github/aave/protocol-v2/contracts/misc/AaveProtocolDataProvider.sol\":1851:1904  TokenData({symbol: 'ETH', tokenAddress: reserves[i]}) */\n      mload(0x40)\n      dup1\n      0x40\n      add\n      0x40\n      mstore\n      dup1\n      mload(0x40)\n      dup1\n      0x40\n      add\n      0x40\n      mstore\n      dup1\n      0x03\n      dup2\n      mstore\n      0x20\n      add\n      shl(0xeb, 0x08aa89)\n      dup2\n      mstore\n      pop\n      dup2\n      mstore\n      0x20\n      add\n        /* \".deps/github/aave/protocol-v2/contracts/misc/AaveProtocolDataProvider.sol\":1891:1899  reserves */\n      dup5\n        /* \".deps/github/aave/protocol-v2/contracts/misc/AaveProtocolDataProvider.sol\":1900:1901  i */\n      dup4\n        /* \".deps/github/aave/protocol-v2/contracts/misc/AaveProtocolDataProvider.sol\":1891:1902  reserves[i] */\n      dup2\n      mload\n      dup2\n      lt\n      tag_175\n      jumpi\n      invalid\n        /* \".deps/github/aave/protocol-v2/contracts/misc/AaveProtocolDataProvider.sol\":1797:1931  if (reserves[i] == ETH) {... */\n    tag_178:\n        /* \".deps/github/aave/protocol-v2/contracts/misc/AaveProtocolDataProvider.sol\":1958:2066  TokenData({... */\n      mload(0x40)\n      dup1\n      0x40\n      add\n      0x40\n      mstore\n      dup1\n        /* \".deps/github/aave/protocol-v2/contracts/misc/AaveProtocolDataProvider.sol\":2001:2009  reserves */\n      dup5\n        /* \".deps/github/aave/protocol-v2/contracts/misc/AaveProtocolDataProvider.sol\":2010:2011  i */\n      dup4\n        /* \".deps/github/aave/protocol-v2/contracts/misc/AaveProtocolDataProvider.sol\":2001:2012  reserves[i] */\n      dup2\n      mload\n      dup2\n      lt\n      tag_181\n      jumpi\n      invalid\n    tag_181:\n      0x20\n      mul\n      0x20\n      add\n      add\n      mload\n      sub(shl(0xa0, 0x01), 0x01)\n        /* \".deps/github/aave/protocol-v2/contracts/misc/AaveProtocolDataProvider.sol\":1986:2020  IERC20Detailed(reserves[i]).symbol */\n      and\n      0x95d89b41\n        /* \".deps/github/aave/protocol-v2/contracts/misc/AaveProtocolDataProvider.sol\":1986:2022  IERC20Detailed(reserves[i]).symbol() */\n      mload(0x40)\n      dup2\n      0xffffffff\n      and\n      0xe0\n      shl\n      dup2\n      mstore\n      0x04\n      add\n      0x00\n      mload(0x40)\n      dup1\n      dup4\n      sub\n      dup2\n      dup7\n      dup1\n      extcodesize\n      iszero\n      dup1\n      iszero\n      tag_182\n      jumpi\n      0x00\n      dup1\n      revert\n    tag_182:\n      pop\n      gas\n      staticcall\n      iszero\n      dup1\n      iszero\n      tag_184\n      jumpi\n      returndatasize\n      0x00\n      dup1\n      returndatacopy\n      revert(0x00, returndatasize)\n    tag_184:\n      pop\n      pop\n      pop\n      pop\n      mload(0x40)\n      returndatasize\n      0x00\n      dup3\n      returndatacopy\n      0x1f\n      returndatasize\n      swap1\n      dup2\n      add\n      not(0x1f)\n      and\n      dup3\n      add\n      0x40\n      mstore\n      tag_185\n      swap2\n      swap1\n      dup2\n      add\n      swap1\n      tag_186\n      jump\t// in\n    tag_185:\n        /* \".deps/github/aave/protocol-v2/contracts/misc/AaveProtocolDataProvider.sol\":1958:2066  TokenData({... */\n      dup2\n      mstore\n      0x20\n      add\n        /* \".deps/github/aave/protocol-v2/contracts/misc/AaveProtocolDataProvider.sol\":2046:2054  reserves */\n      dup5\n        /* \".deps/github/aave/protocol-v2/contracts/misc/AaveProtocolDataProvider.sol\":2055:2056  i */\n      dup4\n        /* \".deps/github/aave/protocol-v2/contracts/misc/AaveProtocolDataProvider.sol\":2046:2057  reserves[i] */\n      dup2\n      mload\n      dup2\n      lt\n      tag_187\n      jumpi\n      invalid\n    tag_187:\n      0x20\n      mul\n      0x20\n      add\n      add\n      mload\n      sub(shl(0xa0, 0x01), 0x01)\n        /* \".deps/github/aave/protocol-v2/contracts/misc/AaveProtocolDataProvider.sol\":1958:2066  TokenData({... */\n      and\n      dup2\n      mstore\n      pop\n        /* \".deps/github/aave/protocol-v2/contracts/misc/AaveProtocolDataProvider.sol\":1938:1952  reservesTokens */\n      dup3\n        /* \".deps/github/aave/protocol-v2/contracts/misc/AaveProtocolDataProvider.sol\":1953:1954  i */\n      dup3\n        /* \".deps/github/aave/protocol-v2/contracts/misc/AaveProtocolDataProvider.sol\":1938:1955  reservesTokens[i] */\n      dup2\n      mload\n      dup2\n      lt\n      tag_188\n      jumpi\n      invalid\n    tag_188:\n      0x20\n      mul\n      0x20\n      add\n      add\n        /* \".deps/github/aave/protocol-v2/contracts/misc/AaveProtocolDataProvider.sol\":1938:2066  reservesTokens[i] = TokenData({... */\n      dup2\n      swap1\n      mstore\n      pop\n        /* \".deps/github/aave/protocol-v2/contracts/misc/AaveProtocolDataProvider.sol\":1602:2073  for (uint256 i = 0; i < reserves.length; i++) {... */\n    tag_172:\n        /* \".deps/github/aave/protocol-v2/contracts/misc/AaveProtocolDataProvider.sol\":1643:1646  i++ */\n      0x01\n      add\n        /* \".deps/github/aave/protocol-v2/contracts/misc/AaveProtocolDataProvider.sol\":1602:2073  for (uint256 i = 0; i < reserves.length; i++) {... */\n      jump(tag_170)\n    tag_171:\n      pop\n        /* \".deps/github/aave/protocol-v2/contracts/misc/AaveProtocolDataProvider.sol\":2085:2099  reservesTokens */\n      swap3\n      pop\n      pop\n      pop\n        /* \".deps/github/aave/protocol-v2/contracts/misc/AaveProtocolDataProvider.sol\":1316:2104  function getAllReservesTokens() external view returns (TokenData[] memory) {... */\n      swap1\n      jump\t// out\n        /* \".deps/github/aave/protocol-v2/contracts/misc/AaveProtocolDataProvider.sol\":6056:6510  function getReserveTokensAddresses(address asset)... */\n    tag_38:\n        /* \".deps/github/aave/protocol-v2/contracts/misc/AaveProtocolDataProvider.sol\":6148:6169  address aTokenAddress */\n      0x00\n        /* \".deps/github/aave/protocol-v2/contracts/misc/AaveProtocolDataProvider.sol\":6177:6207  address stableDebtTokenAddress */\n      dup1\n        /* \".deps/github/aave/protocol-v2/contracts/misc/AaveProtocolDataProvider.sol\":6215:6247  address variableDebtTokenAddress */\n      0x00\n        /* \".deps/github/aave/protocol-v2/contracts/misc/AaveProtocolDataProvider.sol\":6262:6298  DataTypes.ReserveData memory reserve */\n      tag_190\n      tag_46\n      jump\t// in\n    tag_190:\n        /* \".deps/github/aave/protocol-v2/contracts/misc/AaveProtocolDataProvider.sol\":6320:6338  ADDRESSES_PROVIDER */\n      immutable(\"0x8129634de98ff4eac36cfdb2b9e1dc55781fddf4fba9ec16d4ac1f285a99533e\")\n      sub(shl(0xa0, 0x01), 0x01)\n        /* \".deps/github/aave/protocol-v2/contracts/misc/AaveProtocolDataProvider.sol\":6320:6353  ADDRESSES_PROVIDER.getLendingPool */\n      and\n      0x0261bf8b\n        /* \".deps/github/aave/protocol-v2/contracts/misc/AaveProtocolDataProvider.sol\":6320:6355  ADDRESSES_PROVIDER.getLendingPool() */\n      mload(0x40)\n      dup2\n      0xffffffff\n      and\n      0xe0\n      shl\n      dup2\n      mstore\n      0x04\n      add\n      0x20\n      mload(0x40)\n      dup1\n      dup4\n      sub\n      dup2\n      dup7\n      dup1\n      extcodesize\n      iszero\n      dup1\n      iszero\n      tag_191\n      jumpi\n      0x00\n      dup1\n      revert\n    tag_191:\n      pop\n      gas\n      staticcall\n      iszero\n      dup1\n      iszero\n      tag_193\n      jumpi\n      returndatasize\n      0x00\n      dup1\n      returndatacopy\n      revert(0x00, returndatasize)\n    tag_193:\n      pop\n      pop\n      pop\n      pop\n      mload(0x40)\n      returndatasize\n      not(0x1f)\n      0x1f\n      dup3\n      add\n      and\n      dup3\n      add\n      dup1\n      0x40\n      mstore\n      pop\n      dup2\n      add\n      swap1\n      tag_194\n      swap2\n      swap1\n      tag_51\n      jump\t// in\n    tag_194:\n      sub(shl(0xa0, 0x01), 0x01)\n        /* \".deps/github/aave/protocol-v2/contracts/misc/AaveProtocolDataProvider.sol\":6307:6371  ILendingPool(ADDRESSES_PROVIDER.getLendingPool()).getReserveData */\n      and\n      0x35ea6a75\n        /* \".deps/github/aave/protocol-v2/contracts/misc/AaveProtocolDataProvider.sol\":6372:6377  asset */\n      dup7\n        /* \".deps/github/aave/protocol-v2/contracts/misc/AaveProtocolDataProvider.sol\":6307:6378  ILendingPool(ADDRESSES_PROVIDER.getLendingPool()).getReserveData(asset) */\n      mload(0x40)\n      dup3\n      0xffffffff\n      and\n      0xe0\n      shl\n      dup2\n      mstore\n      0x04\n      add\n      tag_195\n      swap2\n      swap1\n      tag_53\n      jump\t// in\n    tag_195:\n      0x0180\n      mload(0x40)\n      dup1\n      dup4\n      sub\n      dup2\n      dup7\n      dup1\n      extcodesize\n      iszero\n      dup1\n      iszero\n      tag_196\n      jumpi\n      0x00\n      dup1\n      revert\n    tag_196:\n      pop\n      gas\n      staticcall\n      iszero\n      dup1\n      iszero\n      tag_198\n      jumpi\n      returndatasize\n      0x00\n      dup1\n      returndatacopy\n      revert(0x00, returndatasize)\n    tag_198:\n      pop\n      pop\n      pop\n      pop\n      mload(0x40)\n      returndatasize\n      not(0x1f)\n      0x1f\n      dup3\n      add\n      and\n      dup3\n      add\n      dup1\n      0x40\n      mstore\n      pop\n      dup2\n      add\n      swap1\n      tag_199\n      swap2\n      swap1\n      tag_58\n      jump\t// in\n    tag_199:\n        /* \".deps/github/aave/protocol-v2/contracts/misc/AaveProtocolDataProvider.sol\":6400:6421  reserve.aTokenAddress */\n      0xe0\n      dup2\n      add\n      mload\n        /* \".deps/github/aave/protocol-v2/contracts/misc/AaveProtocolDataProvider.sol\":6429:6459  reserve.stableDebtTokenAddress */\n      0x0100\n      dup3\n      add\n      mload\n        /* \".deps/github/aave/protocol-v2/contracts/misc/AaveProtocolDataProvider.sol\":6467:6499  reserve.variableDebtTokenAddress */\n      0x0120\n      swap1\n      swap3\n      add\n      mload\n        /* \".deps/github/aave/protocol-v2/contracts/misc/AaveProtocolDataProvider.sol\":6400:6421  reserve.aTokenAddress */\n      swap1\n      swap8\n        /* \".deps/github/aave/protocol-v2/contracts/misc/AaveProtocolDataProvider.sol\":6429:6459  reserve.stableDebtTokenAddress */\n      swap2\n      swap7\n      pop\n        /* \".deps/github/aave/protocol-v2/contracts/misc/AaveProtocolDataProvider.sol\":6467:6499  reserve.variableDebtTokenAddress */\n      swap5\n      pop\n        /* \".deps/github/aave/protocol-v2/contracts/misc/AaveProtocolDataProvider.sol\":6056:6510  function getReserveTokensAddresses(address asset)... */\n      swap3\n      pop\n      pop\n      pop\n      jump\t// out\n        /* \".deps/github/aave/protocol-v2/contracts/misc/AaveProtocolDataProvider.sol\":2108:2697  function getAllATokens() external view returns (TokenData[] memory) {... */\n    tag_42:\n        /* \".deps/github/aave/protocol-v2/contracts/misc/AaveProtocolDataProvider.sol\":2156:2174  TokenData[] memory */\n      0x60\n        /* \".deps/github/aave/protocol-v2/contracts/misc/AaveProtocolDataProvider.sol\":2182:2199  ILendingPool pool */\n      0x00\n        /* \".deps/github/aave/protocol-v2/contracts/misc/AaveProtocolDataProvider.sol\":2215:2233  ADDRESSES_PROVIDER */\n      immutable(\"0x8129634de98ff4eac36cfdb2b9e1dc55781fddf4fba9ec16d4ac1f285a99533e\")\n      sub(shl(0xa0, 0x01), 0x01)\n        /* \".deps/github/aave/protocol-v2/contracts/misc/AaveProtocolDataProvider.sol\":2215:2248  ADDRESSES_PROVIDER.getLendingPool */\n      and\n      0x0261bf8b\n        /* \".deps/github/aave/protocol-v2/contracts/misc/AaveProtocolDataProvider.sol\":2215:2250  ADDRESSES_PROVIDER.getLendingPool() */\n      mload(0x40)\n      dup2\n      0xffffffff\n      and\n      0xe0\n      shl\n      dup2\n      mstore\n      0x04\n      add\n      0x20\n      mload(0x40)\n      dup1\n      dup4\n      sub\n      dup2\n      dup7\n      dup1\n      extcodesize\n      iszero\n      dup1\n      iszero\n      tag_201\n      jumpi\n      0x00\n      dup1\n      revert\n    tag_201:\n      pop\n      gas\n      staticcall\n      iszero\n      dup1\n      iszero\n      tag_203\n      jumpi\n      returndatasize\n      0x00\n      dup1\n      returndatacopy\n      revert(0x00, returndatasize)\n    tag_203:\n      pop\n      pop\n      pop\n      pop\n      mload(0x40)\n      returndatasize\n      not(0x1f)\n      0x1f\n      dup3\n      add\n      and\n      dup3\n      add\n      dup1\n      0x40\n      mstore\n      pop\n      dup2\n      add\n      swap1\n      tag_204\n      swap2\n      swap1\n      tag_51\n      jump\t// in\n    tag_204:\n        /* \".deps/github/aave/protocol-v2/contracts/misc/AaveProtocolDataProvider.sol\":2182:2251  ILendingPool pool = ILendingPool(ADDRESSES_PROVIDER.getLendingPool()) */\n      swap1\n      pop\n        /* \".deps/github/aave/protocol-v2/contracts/misc/AaveProtocolDataProvider.sol\":2257:2282  address[] memory reserves */\n      0x60\n        /* \".deps/github/aave/protocol-v2/contracts/misc/AaveProtocolDataProvider.sol\":2285:2289  pool */\n      dup2\n      sub(shl(0xa0, 0x01), 0x01)\n        /* \".deps/github/aave/protocol-v2/contracts/misc/AaveProtocolDataProvider.sol\":2285:2305  pool.getReservesList */\n      and\n      0xd1946dbc\n        /* \".deps/github/aave/protocol-v2/contracts/misc/AaveProtocolDataProvider.sol\":2285:2307  pool.getReservesList() */\n      mload(0x40)\n      dup2\n      0xffffffff\n      and\n      0xe0\n      shl\n      dup2\n      mstore\n      0x04\n      add\n      0x00\n      mload(0x40)\n      dup1\n      dup4\n      sub\n      dup2\n      dup7\n      dup1\n      extcodesize\n      iszero\n      dup1\n      iszero\n      tag_205\n      jumpi\n      0x00\n      dup1\n      revert\n    tag_205:\n      pop\n      gas\n      staticcall\n      iszero\n      dup1\n      iszero\n      tag_207\n      jumpi\n      returndatasize\n      0x00\n      dup1\n      returndatacopy\n      revert(0x00, returndatasize)\n    tag_207:\n      pop\n      pop\n      pop\n      pop\n      mload(0x40)\n      returndatasize\n      0x00\n      dup3\n      returndatacopy\n      0x1f\n      returndatasize\n      swap1\n      dup2\n      add\n      not(0x1f)\n      and\n      dup3\n      add\n      0x40\n      mstore\n      tag_208\n      swap2\n      swap1\n      dup2\n      add\n      swap1\n      tag_164\n      jump\t// in\n    tag_208:\n        /* \".deps/github/aave/protocol-v2/contracts/misc/AaveProtocolDataProvider.sol\":2257:2307  address[] memory reserves = pool.getReservesList() */\n      swap1\n      pop\n        /* \".deps/github/aave/protocol-v2/contracts/misc/AaveProtocolDataProvider.sol\":2313:2339  TokenData[] memory aTokens */\n      0x60\n        /* \".deps/github/aave/protocol-v2/contracts/misc/AaveProtocolDataProvider.sol\":2358:2366  reserves */\n      dup2\n        /* \".deps/github/aave/protocol-v2/contracts/misc/AaveProtocolDataProvider.sol\":2358:2373  reserves.length */\n      mload\n        /* \".deps/github/aave/protocol-v2/contracts/misc/AaveProtocolDataProvider.sol\":2342:2374  new TokenData[](reserves.length) */\n      0xffffffffffffffff\n      dup2\n      gt\n      dup1\n      iszero\n      tag_209\n      jumpi\n      0x00\n      dup1\n      revert\n    tag_209:\n      pop\n      mload(0x40)\n      swap1\n      dup1\n      dup3\n      mstore\n      dup1\n      0x20\n      mul\n      0x20\n      add\n      dup3\n      add\n      0x40\n      mstore\n      dup1\n      iszero\n      tag_210\n      jumpi\n      dup2\n      0x20\n      add\n    tag_211:\n      tag_212\n      tag_169\n      jump\t// in\n    tag_212:\n      dup2\n      mstore\n      0x20\n      add\n      swap1\n      0x01\n      swap1\n      sub\n      swap1\n      dup2\n      tag_211\n      jumpi\n      swap1\n      pop\n    tag_210:\n      pop\n        /* \".deps/github/aave/protocol-v2/contracts/misc/AaveProtocolDataProvider.sol\":2313:2374  TokenData[] memory aTokens = new TokenData[](reserves.length) */\n      swap1\n      pop\n        /* \".deps/github/aave/protocol-v2/contracts/misc/AaveProtocolDataProvider.sol\":2385:2394  uint256 i */\n      0x00\n        /* \".deps/github/aave/protocol-v2/contracts/misc/AaveProtocolDataProvider.sol\":2380:2673  for (uint256 i = 0; i < reserves.length; i++) {... */\n    tag_213:\n        /* \".deps/github/aave/protocol-v2/contracts/misc/AaveProtocolDataProvider.sol\":2404:2412  reserves */\n      dup3\n        /* \".deps/github/aave/protocol-v2/contracts/misc/AaveProtocolDataProvider.sol\":2404:2419  reserves.length */\n      mload\n        /* \".deps/github/aave/protocol-v2/contracts/misc/AaveProtocolDataProvider.sol\":2400:2401  i */\n      dup2\n        /* \".deps/github/aave/protocol-v2/contracts/misc/AaveProtocolDataProvider.sol\":2400:2419  i < reserves.length */\n      lt\n        /* \".deps/github/aave/protocol-v2/contracts/misc/AaveProtocolDataProvider.sol\":2380:2673  for (uint256 i = 0; i < reserves.length; i++) {... */\n      iszero\n      tag_171\n      jumpi\n        /* \".deps/github/aave/protocol-v2/contracts/misc/AaveProtocolDataProvider.sol\":2434:2474  DataTypes.ReserveData memory reserveData */\n      tag_216\n      tag_46\n      jump\t// in\n    tag_216:\n        /* \".deps/github/aave/protocol-v2/contracts/misc/AaveProtocolDataProvider.sol\":2477:2481  pool */\n      dup5\n      sub(shl(0xa0, 0x01), 0x01)\n        /* \".deps/github/aave/protocol-v2/contracts/misc/AaveProtocolDataProvider.sol\":2477:2496  pool.getReserveData */\n      and\n      0x35ea6a75\n        /* \".deps/github/aave/protocol-v2/contracts/misc/AaveProtocolDataProvider.sol\":2497:2505  reserves */\n      dup6\n        /* \".deps/github/aave/protocol-v2/contracts/misc/AaveProtocolDataProvider.sol\":2506:2507  i */\n      dup5\n        /* \".deps/github/aave/protocol-v2/contracts/misc/AaveProtocolDataProvider.sol\":2497:2508  reserves[i] */\n      dup2\n      mload\n      dup2\n      lt\n      tag_217\n      jumpi\n      invalid\n    tag_217:\n      0x20\n      mul\n      0x20\n      add\n      add\n      mload\n        /* \".deps/github/aave/protocol-v2/contracts/misc/AaveProtocolDataProvider.sol\":2477:2509  pool.getReserveData(reserves[i]) */\n      mload(0x40)\n      dup3\n      0xffffffff\n      and\n      0xe0\n      shl\n      dup2\n      mstore\n      0x04\n      add\n      tag_218\n      swap2\n      swap1\n      tag_53\n      jump\t// in\n    tag_218:\n      0x0180\n      mload(0x40)\n      dup1\n      dup4\n      sub\n      dup2\n      dup7\n      dup1\n      extcodesize\n      iszero\n      dup1\n      iszero\n      tag_219\n      jumpi\n      0x00\n      dup1\n      revert\n    tag_219:\n      pop\n      gas\n      staticcall\n      iszero\n      dup1\n      iszero\n      tag_221\n      jumpi\n      returndatasize\n      0x00\n      dup1\n      returndatacopy\n      revert(0x00, returndatasize)\n    tag_221:\n      pop\n      pop\n      pop\n      pop\n      mload(0x40)\n      returndatasize\n      not(0x1f)\n      0x1f\n      dup3\n      add\n      and\n      dup3\n      add\n      dup1\n      0x40\n      mstore\n      pop\n      dup2\n      add\n      swap1\n      tag_222\n      swap2\n      swap1\n      tag_58\n      jump\t// in\n    tag_222:\n        /* \".deps/github/aave/protocol-v2/contracts/misc/AaveProtocolDataProvider.sol\":2434:2509  DataTypes.ReserveData memory reserveData = pool.getReserveData(reserves[i]) */\n      swap1\n      pop\n        /* \".deps/github/aave/protocol-v2/contracts/misc/AaveProtocolDataProvider.sol\":2530:2666  TokenData({... */\n      mload(0x40)\n      dup1\n      0x40\n      add\n      0x40\n      mstore\n      dup1\n        /* \".deps/github/aave/protocol-v2/contracts/misc/AaveProtocolDataProvider.sol\":2573:2584  reserveData */\n      dup3\n        /* \".deps/github/aave/protocol-v2/contracts/misc/AaveProtocolDataProvider.sol\":2573:2598  reserveData.aTokenAddress */\n      0xe0\n      add\n      mload\n      sub(shl(0xa0, 0x01), 0x01)\n        /* \".deps/github/aave/protocol-v2/contracts/misc/AaveProtocolDataProvider.sol\":2558:2606  IERC20Detailed(reserveData.aTokenAddress).symbol */\n      and\n      0x95d89b41\n        /* \".deps/github/aave/protocol-v2/contracts/misc/AaveProtocolDataProvider.sol\":2558:2608  IERC20Detailed(reserveData.aTokenAddress).symbol() */\n      mload(0x40)\n      dup2\n      0xffffffff\n      and\n      0xe0\n      shl\n      dup2\n      mstore\n      0x04\n      add\n      0x00\n      mload(0x40)\n      dup1\n      dup4\n      sub\n      dup2\n      dup7\n      dup1\n      extcodesize\n      iszero\n      dup1\n      iszero\n      tag_223\n      jumpi\n      0x00\n      dup1\n      revert\n    tag_223:\n      pop\n      gas\n      staticcall\n      iszero\n      dup1\n      iszero\n      tag_225\n      jumpi\n      returndatasize\n      0x00\n      dup1\n      returndatacopy\n      revert(0x00, returndatasize)\n    tag_225:\n      pop\n      pop\n      pop\n      pop\n      mload(0x40)\n      returndatasize\n      0x00\n      dup3\n      returndatacopy\n      0x1f\n      returndatasize\n      swap1\n      dup2\n      add\n      not(0x1f)\n      and\n      dup3\n      add\n      0x40\n      mstore\n      tag_226\n      swap2\n      swap1\n      dup2\n      add\n      swap1\n      tag_186\n      jump\t// in\n    tag_226:\n        /* \".deps/github/aave/protocol-v2/contracts/misc/AaveProtocolDataProvider.sol\":2530:2666  TokenData({... */\n      dup2\n      mstore\n      0x20\n      add\n        /* \".deps/github/aave/protocol-v2/contracts/misc/AaveProtocolDataProvider.sol\":2632:2643  reserveData */\n      dup3\n        /* \".deps/github/aave/protocol-v2/contracts/misc/AaveProtocolDataProvider.sol\":2632:2657  reserveData.aTokenAddress */\n      0xe0\n      add\n      mload\n      sub(shl(0xa0, 0x01), 0x01)\n        /* \".deps/github/aave/protocol-v2/contracts/misc/AaveProtocolDataProvider.sol\":2530:2666  TokenData({... */\n      and\n      dup2\n      mstore\n      pop\n        /* \".deps/github/aave/protocol-v2/contracts/misc/AaveProtocolDataProvider.sol\":2517:2524  aTokens */\n      dup4\n        /* \".deps/github/aave/protocol-v2/contracts/misc/AaveProtocolDataProvider.sol\":2525:2526  i */\n      dup4\n        /* \".deps/github/aave/protocol-v2/contracts/misc/AaveProtocolDataProvider.sol\":2517:2527  aTokens[i] */\n      dup2\n      mload\n      dup2\n      lt\n      tag_227\n      jumpi\n      invalid\n    tag_227:\n      0x20\n      swap1\n      dup2\n      mul\n      swap2\n      swap1\n      swap2\n      add\n      add\n        /* \".deps/github/aave/protocol-v2/contracts/misc/AaveProtocolDataProvider.sol\":2517:2666  aTokens[i] = TokenData({... */\n      mstore\n      pop\n        /* \".deps/github/aave/protocol-v2/contracts/misc/AaveProtocolDataProvider.sol\":2421:2424  i++ */\n      0x01\n      add\n        /* \".deps/github/aave/protocol-v2/contracts/misc/AaveProtocolDataProvider.sol\":2380:2673  for (uint256 i = 0; i < reserves.length; i++) {... */\n      jump(tag_213)\n        /* \".deps/github/aave/protocol-v2/contracts/protocol/libraries/configuration/UserConfiguration.sol\":3100:3360  function isUsingAsCollateral(DataTypes.UserConfigurationMap memory self, uint256 reserveIndex)... */\n    tag_109:\n        /* \".deps/github/aave/protocol-v2/contracts/protocol/libraries/configuration/UserConfiguration.sol\":3230:3234  bool */\n      0x00\n        /* \".deps/github/aave/protocol-v2/contracts/protocol/libraries/configuration/UserConfiguration.sol\":3267:3270  128 */\n      0x80\n        /* \".deps/github/aave/protocol-v2/contracts/protocol/libraries/configuration/UserConfiguration.sol\":3252:3264  reserveIndex */\n      dup3\n        /* \".deps/github/aave/protocol-v2/contracts/protocol/libraries/configuration/UserConfiguration.sol\":3252:3270  reserveIndex < 128 */\n      lt\n        /* \".deps/github/aave/protocol-v2/contracts/protocol/libraries/configuration/UserConfiguration.sol\":3272:3295  Errors.UL_INVALID_INDEX */\n      mload(0x40)\n      dup1\n      0x40\n      add\n      0x40\n      mstore\n      dup1\n      0x02\n      dup2\n      mstore\n      0x20\n      add\n      shl(0xf0, 0x3737)\n      dup2\n      mstore\n      pop\n        /* \".deps/github/aave/protocol-v2/contracts/protocol/libraries/configuration/UserConfiguration.sol\":3244:3296  require(reserveIndex < 128, Errors.UL_INVALID_INDEX) */\n      swap1\n      tag_229\n      jumpi\n      mload(0x40)\n      shl(0xe5, 0x461bcd)\n      dup2\n      mstore\n      0x04\n      add\n      tag_230\n      swap2\n      swap1\n      tag_231\n      jump\t// in\n    tag_230:\n      mload(0x40)\n      dup1\n      swap2\n      sub\n      swap1\n      revert\n    tag_229:\n      pop\n      pop\n        /* \".deps/github/aave/protocol-v2/contracts/protocol/libraries/configuration/UserConfiguration.sol\":3310:3319  self.data */\n      dup2\n      mload\n        /* \".deps/github/aave/protocol-v2/contracts/protocol/libraries/configuration/UserConfiguration.sol\":3343:3344  1 */\n      0x01\n        /* \".deps/github/aave/protocol-v2/contracts/protocol/libraries/configuration/UserConfiguration.sol\":3339:3340  2 */\n      0x02\n        /* \".deps/github/aave/protocol-v2/contracts/protocol/libraries/configuration/UserConfiguration.sol\":3324:3340  reserveIndex * 2 */\n      dup4\n      mul\n        /* \".deps/github/aave/protocol-v2/contracts/protocol/libraries/configuration/UserConfiguration.sol\":3324:3344  reserveIndex * 2 + 1 */\n      dup2\n      add\n        /* \".deps/github/aave/protocol-v2/contracts/protocol/libraries/configuration/UserConfiguration.sol\":3310:3345  self.data >> (reserveIndex * 2 + 1) */\n      swap2\n      swap1\n      swap2\n      shr\n        /* \".deps/github/aave/protocol-v2/contracts/protocol/libraries/configuration/UserConfiguration.sol\":3309:3350  (self.data >> (reserveIndex * 2 + 1)) & 1 */\n      and\n        /* \".deps/github/aave/protocol-v2/contracts/protocol/libraries/configuration/UserConfiguration.sol\":3309:3355  (self.data >> (reserveIndex * 2 + 1)) & 1 != 0 */\n      iszero\n      iszero\n        /* \".deps/github/aave/protocol-v2/contracts/protocol/libraries/configuration/UserConfiguration.sol\":3100:3360  function isUsingAsCollateral(DataTypes.UserConfigurationMap memory self, uint256 reserveIndex)... */\n    tag_228:\n      swap3\n      swap2\n      pop\n      pop\n      jump\t// out\n        /* \".deps/github/aave/protocol-v2/contracts/protocol/libraries/configuration/ReserveConfiguration.sol\":10941:11516  function getParamsMemory(DataTypes.ReserveConfigurationMap memory self)... */\n    tag_152:\n        /* \".deps/github/aave/protocol-v2/contracts/protocol/libraries/configuration/ReserveConfiguration.sol\":11152:11161  self.data */\n      mload\n        /* \".deps/github/aave/protocol-v2/contracts/protocol/libraries/configuration/ReserveConfiguration.sol\":11164:11173  ~LTV_MASK */\n      0xffff\n        /* \".deps/github/aave/protocol-v2/contracts/protocol/libraries/configuration/ReserveConfiguration.sol\":11152:11173  self.data & ~LTV_MASK */\n      dup1\n      dup3\n      and\n      swap3\n        /* \".deps/github/aave/protocol-v2/contracts/protocol/libraries/configuration/ReserveConfiguration.sol\":1692:1694  16 */\n      0x10\n        /* \".deps/github/aave/protocol-v2/contracts/protocol/libraries/configuration/ReserveConfiguration.sol\":11181:11266  (self.data & ~LIQUIDATION_THRESHOLD_MASK) >> LIQUIDATION_THRESHOLD_START_BIT_POSITION */\n      dup4\n      swap1\n      shr\n      dup3\n      and\n      swap3\n        /* \".deps/github/aave/protocol-v2/contracts/protocol/libraries/configuration/ReserveConfiguration.sol\":1754:1756  32 */\n      0x20\n        /* \".deps/github/aave/protocol-v2/contracts/protocol/libraries/configuration/ReserveConfiguration.sol\":11274:11351  (self.data & ~LIQUIDATION_BONUS_MASK) >> LIQUIDATION_BONUS_START_BIT_POSITION */\n      dup2\n      swap1\n      shr\n      dup4\n      and\n      swap3\n        /* \".deps/github/aave/protocol-v2/contracts/protocol/libraries/configuration/ReserveConfiguration.sol\":1815:1817  48 */\n      0x30\n        /* \".deps/github/aave/protocol-v2/contracts/protocol/libraries/configuration/ReserveConfiguration.sol\":11359:11426  (self.data & ~DECIMALS_MASK) >> RESERVE_DECIMALS_START_BIT_POSITION */\n      dup3\n      swap1\n      shr\n      0xff\n      and\n      swap3\n        /* \".deps/github/aave/protocol-v2/contracts/protocol/libraries/configuration/ReserveConfiguration.sol\":2113:2115  64 */\n      0x40\n        /* \".deps/github/aave/protocol-v2/contracts/protocol/libraries/configuration/ReserveConfiguration.sol\":11434:11505  (self.data & ~RESERVE_FACTOR_MASK) >> RESERVE_FACTOR_START_BIT_POSITION */\n      swap3\n      swap1\n      swap3\n      shr\n      and\n      swap1\n        /* \".deps/github/aave/protocol-v2/contracts/protocol/libraries/configuration/ReserveConfiguration.sol\":10941:11516  function getParamsMemory(DataTypes.ReserveConfigurationMap memory self)... */\n      jump\t// out\n        /* \".deps/github/aave/protocol-v2/contracts/protocol/libraries/configuration/ReserveConfiguration.sol\":11756:12111  function getFlagsMemory(DataTypes.ReserveConfigurationMap memory self)... */\n    tag_154:\n        /* \".deps/github/aave/protocol-v2/contracts/protocol/libraries/configuration/ReserveConfiguration.sol\":11940:11949  self.data */\n      mload\n        /* \".deps/github/aave/protocol-v2/contracts/protocol/libraries/configuration/ReserveConfiguration.sol\":11952:11964  ~ACTIVE_MASK */\n      0x0100000000000000\n        /* \".deps/github/aave/protocol-v2/contracts/protocol/libraries/configuration/ReserveConfiguration.sol\":11940:11964  self.data & ~ACTIVE_MASK */\n      dup2\n      and\n        /* \".deps/github/aave/protocol-v2/contracts/protocol/libraries/configuration/ReserveConfiguration.sol\":11939:11970  (self.data & ~ACTIVE_MASK) != 0 */\n      iszero\n      iszero\n      swap2\n        /* \".deps/github/aave/protocol-v2/contracts/protocol/libraries/configuration/ReserveConfiguration.sol\":11991:12003  ~FROZEN_MASK */\n      0x0200000000000000\n        /* \".deps/github/aave/protocol-v2/contracts/protocol/libraries/configuration/ReserveConfiguration.sol\":11979:12003  self.data & ~FROZEN_MASK */\n      dup3\n      and\n        /* \".deps/github/aave/protocol-v2/contracts/protocol/libraries/configuration/ReserveConfiguration.sol\":11978:12009  (self.data & ~FROZEN_MASK) != 0 */\n      iszero\n      iszero\n      swap2\n        /* \".deps/github/aave/protocol-v2/contracts/protocol/libraries/configuration/ReserveConfiguration.sol\":12030:12045  ~BORROWING_MASK */\n      0x0400000000000000\n        /* \".deps/github/aave/protocol-v2/contracts/protocol/libraries/configuration/ReserveConfiguration.sol\":12018:12045  self.data & ~BORROWING_MASK */\n      dup2\n      and\n        /* \".deps/github/aave/protocol-v2/contracts/protocol/libraries/configuration/ReserveConfiguration.sol\":12017:12051  (self.data & ~BORROWING_MASK) != 0 */\n      iszero\n      iszero\n      swap2\n        /* \".deps/github/aave/protocol-v2/contracts/protocol/libraries/configuration/ReserveConfiguration.sol\":12072:12094  ~STABLE_BORROWING_MASK */\n      0x0800000000000000\n        /* \".deps/github/aave/protocol-v2/contracts/protocol/libraries/configuration/ReserveConfiguration.sol\":12060:12094  self.data & ~STABLE_BORROWING_MASK */\n      swap1\n      swap2\n      and\n        /* \".deps/github/aave/protocol-v2/contracts/protocol/libraries/configuration/ReserveConfiguration.sol\":12059:12100  (self.data & ~STABLE_BORROWING_MASK) != 0 */\n      iszero\n      iszero\n      swap1\n        /* \".deps/github/aave/protocol-v2/contracts/protocol/libraries/configuration/ReserveConfiguration.sol\":11756:12111  function getFlagsMemory(DataTypes.ReserveConfigurationMap memory self)... */\n      jump\t// out\n    tag_46:\n      mload(0x40)\n      dup1\n      0x0180\n      add\n      0x40\n      mstore\n      dup1\n      tag_234\n      tag_60\n      jump\t// in\n    tag_234:\n      dup2\n      mstore\n      0x00\n      0x20\n      dup3\n      add\n      dup2\n      swap1\n      mstore\n      0x40\n      dup3\n      add\n      dup2\n      swap1\n      mstore\n      0x60\n      dup3\n      add\n      dup2\n      swap1\n      mstore\n      0x80\n      dup3\n      add\n      dup2\n      swap1\n      mstore\n      0xa0\n      dup3\n      add\n      dup2\n      swap1\n      mstore\n      0xc0\n      dup3\n      add\n      dup2\n      swap1\n      mstore\n      0xe0\n      dup3\n      add\n      dup2\n      swap1\n      mstore\n      0x0100\n      dup3\n      add\n      dup2\n      swap1\n      mstore\n      0x0120\n      dup3\n      add\n      dup2\n      swap1\n      mstore\n      0x0140\n      dup3\n      add\n      dup2\n      swap1\n      mstore\n      0x0160\n      swap1\n      swap2\n      add\n      mstore\n      swap1\n      jump\t// out\n    tag_60:\n      mload(0x40)\n      dup1\n      0x20\n      add\n      0x40\n      mstore\n      dup1\n      0x00\n      dup2\n      mstore\n      pop\n      swap1\n      jump\t// out\n    tag_169:\n      0x40\n      dup1\n      mload\n      dup1\n      dup3\n      add\n      swap1\n      swap2\n      mstore\n      0x60\n      dup2\n      mstore\n      0x00\n      0x20\n      dup3\n      add\n      mstore\n      swap1\n      jump\t// out\n        /* \"--CODEGEN--\":142:276   */\n    tag_236:\n        /* \"--CODEGEN--\":220:233   */\n      dup1\n      mload\n        /* \"--CODEGEN--\":238:271   */\n      tag_228\n        /* \"--CODEGEN--\":220:233   */\n      dup2\n        /* \"--CODEGEN--\":238:271   */\n      tag_239\n      jump\t// in\n        /* \"--CODEGEN--\":1531:1892   */\n    tag_240:\n      0x00\n        /* \"--CODEGEN--\":1672:1676   */\n      0x20\n        /* \"--CODEGEN--\":1660:1669   */\n      dup3\n        /* \"--CODEGEN--\":1655:1658   */\n      dup5\n        /* \"--CODEGEN--\":1651:1670   */\n      sub\n        /* \"--CODEGEN--\":1647:1677   */\n      slt\n        /* \"--CODEGEN--\":1644:1646   */\n      iszero\n      tag_242\n      jumpi\n      dup1\n      dup2\n        /* \"--CODEGEN--\":1680:1692   */\n      revert\n        /* \"--CODEGEN--\":1644:1646   */\n    tag_242:\n        /* \"--CODEGEN--\":1708:1728   */\n      tag_243\n        /* \"--CODEGEN--\":1672:1676   */\n      0x20\n        /* \"--CODEGEN--\":1708:1728   */\n      tag_244\n      jump\t// in\n    tag_243:\n        /* \"--CODEGEN--\":4854:4867   */\n      swap2\n      mload\n        /* \"--CODEGEN--\":1785:1871   */\n      dup3\n      mstore\n      pop\n        /* \"--CODEGEN--\":1699:1728   */\n      swap2\n        /* \"--CODEGEN--\":1638:1892   */\n      swap1\n      pop\n      jump\t// out\n        /* \"--CODEGEN--\":4635:4769   */\n    tag_245:\n        /* \"--CODEGEN--\":4713:4726   */\n      dup1\n      mload\n      sub(shl(0x80, 0x01), 0x01)\n        /* \"--CODEGEN--\":19634:19680   */\n      dup2\n      and\n        /* \"--CODEGEN--\":21003:21038   */\n      dup2\n      eq\n        /* \"--CODEGEN--\":20993:20995   */\n      tag_228\n      jumpi\n        /* \"--CODEGEN--\":21052:21053   */\n      0x00\n      dup1\n        /* \"--CODEGEN--\":21042:21054   */\n      revert\n        /* \"--CODEGEN--\":4917:5049   */\n    tag_248:\n        /* \"--CODEGEN--\":4994:5007   */\n      dup1\n      mload\n        /* \"--CODEGEN--\":19971:19983   */\n      0xffffffffff\n        /* \"--CODEGEN--\":19960:19984   */\n      dup2\n      and\n        /* \"--CODEGEN--\":21250:21284   */\n      dup2\n      eq\n        /* \"--CODEGEN--\":21240:21242   */\n      tag_228\n      jumpi\n        /* \"--CODEGEN--\":21298:21299   */\n      0x00\n      dup1\n        /* \"--CODEGEN--\":21288:21300   */\n      revert\n        /* \"--CODEGEN--\":5056:5186   */\n    tag_251:\n        /* \"--CODEGEN--\":5132:5145   */\n      dup1\n      mload\n        /* \"--CODEGEN--\":20067:20071   */\n      0xff\n        /* \"--CODEGEN--\":20056:20072   */\n      dup2\n      and\n        /* \"--CODEGEN--\":21371:21404   */\n      dup2\n      eq\n        /* \"--CODEGEN--\":21361:21363   */\n      tag_228\n      jumpi\n        /* \"--CODEGEN--\":21418:21419   */\n      0x00\n      dup1\n        /* \"--CODEGEN--\":21408:21420   */\n      revert\n        /* \"--CODEGEN--\":5193:5434   */\n    tag_23:\n      0x00\n        /* \"--CODEGEN--\":5297:5299   */\n      0x20\n        /* \"--CODEGEN--\":5285:5294   */\n      dup3\n        /* \"--CODEGEN--\":5276:5283   */\n      dup5\n        /* \"--CODEGEN--\":5272:5295   */\n      sub\n        /* \"--CODEGEN--\":5268:5300   */\n      slt\n        /* \"--CODEGEN--\":5265:5267   */\n      iszero\n      tag_255\n      jumpi\n      dup1\n      dup2\n        /* \"--CODEGEN--\":5303:5315   */\n      revert\n        /* \"--CODEGEN--\":5265:5267   */\n    tag_255:\n        /* \"--CODEGEN--\":85:91   */\n      dup2\n        /* \"--CODEGEN--\":72:92   */\n      calldataload\n        /* \"--CODEGEN--\":97:130   */\n      tag_256\n        /* \"--CODEGEN--\":124:129   */\n      dup2\n        /* \"--CODEGEN--\":97:130   */\n      tag_239\n      jump\t// in\n    tag_256:\n        /* \"--CODEGEN--\":5355:5418   */\n      swap4\n        /* \"--CODEGEN--\":5259:5434   */\n      swap3\n      pop\n      pop\n      pop\n      jump\t// out\n        /* \"--CODEGEN--\":5441:5704   */\n    tag_51:\n      0x00\n        /* \"--CODEGEN--\":5556:5558   */\n      0x20\n        /* \"--CODEGEN--\":5544:5553   */\n      dup3\n        /* \"--CODEGEN--\":5535:5542   */\n      dup5\n        /* \"--CODEGEN--\":5531:5554   */\n      sub\n        /* \"--CODEGEN--\":5527:5559   */\n      slt\n        /* \"--CODEGEN--\":5524:5526   */\n      iszero\n      tag_258\n      jumpi\n      dup1\n      dup2\n        /* \"--CODEGEN--\":5562:5574   */\n      revert\n        /* \"--CODEGEN--\":5524:5526   */\n    tag_258:\n        /* \"--CODEGEN--\":226:232   */\n      dup2\n        /* \"--CODEGEN--\":220:233   */\n      mload\n        /* \"--CODEGEN--\":238:271   */\n      tag_256\n        /* \"--CODEGEN--\":265:270   */\n      dup2\n        /* \"--CODEGEN--\":238:271   */\n      tag_239\n      jump\t// in\n        /* \"--CODEGEN--\":5711:6077   */\n    tag_17:\n      0x00\n      dup1\n        /* \"--CODEGEN--\":5832:5834   */\n      0x40\n        /* \"--CODEGEN--\":5820:5829   */\n      dup4\n        /* \"--CODEGEN--\":5811:5818   */\n      dup6\n        /* \"--CODEGEN--\":5807:5830   */\n      sub\n        /* \"--CODEGEN--\":5803:5835   */\n      slt\n        /* \"--CODEGEN--\":5800:5802   */\n      iszero\n      tag_261\n      jumpi\n      dup1\n      dup2\n        /* \"--CODEGEN--\":5838:5850   */\n      revert\n        /* \"--CODEGEN--\":5800:5802   */\n    tag_261:\n        /* \"--CODEGEN--\":85:91   */\n      dup3\n        /* \"--CODEGEN--\":72:92   */\n      calldataload\n        /* \"--CODEGEN--\":97:130   */\n      tag_262\n        /* \"--CODEGEN--\":124:129   */\n      dup2\n        /* \"--CODEGEN--\":97:130   */\n      tag_239\n      jump\t// in\n    tag_262:\n        /* \"--CODEGEN--\":5890:5953   */\n      swap2\n      pop\n        /* \"--CODEGEN--\":5990:5992   */\n      0x20\n        /* \"--CODEGEN--\":6029:6051   */\n      dup4\n      add\n        /* \"--CODEGEN--\":72:92   */\n      calldataload\n        /* \"--CODEGEN--\":97:130   */\n      tag_263\n        /* \"--CODEGEN--\":72:92   */\n      dup2\n        /* \"--CODEGEN--\":97:130   */\n      tag_239\n      jump\t// in\n    tag_263:\n        /* \"--CODEGEN--\":5998:6061   */\n      dup1\n      swap2\n      pop\n      pop\n        /* \"--CODEGEN--\":5794:6077   */\n      swap3\n      pop\n      swap3\n      swap1\n      pop\n      jump\t// out\n        /* \"--CODEGEN--\":6084:6476   */\n    tag_164:\n      0x00\n        /* \"--CODEGEN--\":6224:6226   */\n      0x20\n      dup1\n        /* \"--CODEGEN--\":6212:6221   */\n      dup4\n        /* \"--CODEGEN--\":6203:6210   */\n      dup6\n        /* \"--CODEGEN--\":6199:6222   */\n      sub\n        /* \"--CODEGEN--\":6195:6227   */\n      slt\n        /* \"--CODEGEN--\":6192:6194   */\n      iszero\n      tag_265\n      jumpi\n      dup2\n      dup3\n        /* \"--CODEGEN--\":6230:6242   */\n      revert\n        /* \"--CODEGEN--\":6192:6194   */\n    tag_265:\n        /* \"--CODEGEN--\":6281:6298   */\n      dup3\n        /* \"--CODEGEN--\":6275:6299   */\n      mload\n        /* \"--CODEGEN--\":6319:6337   */\n      0xffffffffffffffff\n      dup1\n        /* \"--CODEGEN--\":6311:6317   */\n      dup3\n        /* \"--CODEGEN--\":6308:6338   */\n      gt\n        /* \"--CODEGEN--\":6305:6307   */\n      iszero\n      tag_266\n      jumpi\n      dup4\n      dup5\n        /* \"--CODEGEN--\":6341:6353   */\n      revert\n        /* \"--CODEGEN--\":6305:6307   */\n    tag_266:\n        /* \"--CODEGEN--\":6443:6449   */\n      dup2\n        /* \"--CODEGEN--\":6432:6441   */\n      dup6\n        /* \"--CODEGEN--\":6428:6450   */\n      add\n      swap2\n      pop\n        /* \"--CODEGEN--\":429:432   */\n      dup6\n        /* \"--CODEGEN--\":422:426   */\n      0x1f\n        /* \"--CODEGEN--\":414:420   */\n      dup4\n        /* \"--CODEGEN--\":410:427   */\n      add\n        /* \"--CODEGEN--\":406:433   */\n      slt\n        /* \"--CODEGEN--\":396:398   */\n      tag_267\n      jumpi\n      dup4\n      dup5\n        /* \"--CODEGEN--\":437:449   */\n      revert\n        /* \"--CODEGEN--\":396:398   */\n    tag_267:\n        /* \"--CODEGEN--\":477:483   */\n      dup2\n        /* \"--CODEGEN--\":471:484   */\n      mload\n        /* \"--CODEGEN--\":6319:6337   */\n      dup2\n        /* \"--CODEGEN--\":17718:17724   */\n      dup2\n        /* \"--CODEGEN--\":17715:17745   */\n      gt\n        /* \"--CODEGEN--\":17712:17714   */\n      iszero\n      tag_268\n      jumpi\n      dup5\n      dup6\n        /* \"--CODEGEN--\":17748:17760   */\n      revert\n        /* \"--CODEGEN--\":17712:17714   */\n    tag_268:\n        /* \"--CODEGEN--\":6224:6226   */\n      dup4\n        /* \"--CODEGEN--\":17785:17791   */\n      dup2\n        /* \"--CODEGEN--\":17781:17798   */\n      mul\n      swap2\n      pop\n        /* \"--CODEGEN--\":499:579   */\n      tag_269\n        /* \"--CODEGEN--\":6224:6226   */\n      dup5\n        /* \"--CODEGEN--\":17781:17798   */\n      dup4\n        /* \"--CODEGEN--\":17846:17861   */\n      add\n        /* \"--CODEGEN--\":499:579   */\n      tag_244\n      jump\t// in\n    tag_269:\n        /* \"--CODEGEN--\":607:628   */\n      dup2\n      dup2\n      mstore\n        /* \"--CODEGEN--\":664:678   */\n      dup5\n      dup2\n      add\n      swap1\n        /* \"--CODEGEN--\":639:656   */\n      dup5\n      dup7\n      add\n        /* \"--CODEGEN--\":744:771   */\n      dup5\n      dup7\n      add\n      dup8\n      add\n        /* \"--CODEGEN--\":741:777   */\n      dup11\n      lt\n        /* \"--CODEGEN--\":738:740   */\n      iszero\n      tag_270\n      jumpi\n      dup8\n      dup9\n        /* \"--CODEGEN--\":780:792   */\n      revert\n        /* \"--CODEGEN--\":738:740   */\n    tag_270:\n      dup8\n        /* \"--CODEGEN--\":806:816   */\n      swap6\n      pop\n        /* \"--CODEGEN--\":800:1017   */\n    tag_271:\n        /* \"--CODEGEN--\":825:831   */\n      dup4\n        /* \"--CODEGEN--\":822:823   */\n      dup7\n        /* \"--CODEGEN--\":819:832   */\n      lt\n        /* \"--CODEGEN--\":800:1017   */\n      iszero\n      tag_273\n      jumpi\n        /* \"--CODEGEN--\":905:953   */\n      tag_274\n        /* \"--CODEGEN--\":949:952   */\n      dup11\n        /* \"--CODEGEN--\":937:947   */\n      dup3\n        /* \"--CODEGEN--\":905:953   */\n      tag_236\n      jump\t// in\n    tag_274:\n        /* \"--CODEGEN--\":893:954   */\n      dup4\n      mstore\n        /* \"--CODEGEN--\":847:848   */\n      0x01\n        /* \"--CODEGEN--\":840:849   */\n      swap6\n      swap1\n      swap6\n      add\n      swap5\n        /* \"--CODEGEN--\":968:982   */\n      swap2\n      dup7\n      add\n      swap2\n        /* \"--CODEGEN--\":996:1010   */\n      dup7\n      add\n        /* \"--CODEGEN--\":800:1017   */\n      jump(tag_271)\n    tag_273:\n      pop\n        /* \"--CODEGEN--\":6361:6460   */\n      swap9\n        /* \"--CODEGEN--\":6186:6476   */\n      swap8\n      pop\n      pop\n      pop\n      pop\n      pop\n      pop\n      pop\n      pop\n      jump\t// out\n        /* \"--CODEGEN--\":6483:6845   */\n    tag_186:\n      0x00\n        /* \"--CODEGEN--\":6608:6610   */\n      0x20\n        /* \"--CODEGEN--\":6596:6605   */\n      dup3\n        /* \"--CODEGEN--\":6587:6594   */\n      dup5\n        /* \"--CODEGEN--\":6583:6606   */\n      sub\n        /* \"--CODEGEN--\":6579:6611   */\n      slt\n        /* \"--CODEGEN--\":6576:6578   */\n      iszero\n      tag_276\n      jumpi\n      dup1\n      dup2\n        /* \"--CODEGEN--\":6614:6626   */\n      revert\n        /* \"--CODEGEN--\":6576:6578   */\n    tag_276:\n        /* \"--CODEGEN--\":6665:6682   */\n      dup2\n        /* \"--CODEGEN--\":6659:6683   */\n      mload\n        /* \"--CODEGEN--\":6703:6721   */\n      0xffffffffffffffff\n      dup1\n        /* \"--CODEGEN--\":6695:6701   */\n      dup3\n        /* \"--CODEGEN--\":6692:6722   */\n      gt\n        /* \"--CODEGEN--\":6689:6691   */\n      iszero\n      tag_277\n      jumpi\n      dup3\n      dup4\n        /* \"--CODEGEN--\":6725:6737   */\n      revert\n        /* \"--CODEGEN--\":6689:6691   */\n    tag_277:\n        /* \"--CODEGEN--\":6812:6818   */\n      dup2\n        /* \"--CODEGEN--\":6801:6810   */\n      dup5\n        /* \"--CODEGEN--\":6797:6819   */\n      add\n      swap2\n      pop\n        /* \"--CODEGEN--\":1145:1148   */\n      dup5\n        /* \"--CODEGEN--\":1138:1142   */\n      0x1f\n        /* \"--CODEGEN--\":1130:1136   */\n      dup4\n        /* \"--CODEGEN--\":1126:1143   */\n      add\n        /* \"--CODEGEN--\":1122:1149   */\n      slt\n        /* \"--CODEGEN--\":1112:1114   */\n      tag_278\n      jumpi\n      dup3\n      dup4\n        /* \"--CODEGEN--\":1153:1165   */\n      revert\n        /* \"--CODEGEN--\":1112:1114   */\n    tag_278:\n        /* \"--CODEGEN--\":1193:1199   */\n      dup2\n        /* \"--CODEGEN--\":1187:1200   */\n      mload\n        /* \"--CODEGEN--\":6703:6721   */\n      dup2\n        /* \"--CODEGEN--\":18014:18020   */\n      dup2\n        /* \"--CODEGEN--\":18011:18041   */\n      gt\n        /* \"--CODEGEN--\":18008:18010   */\n      iszero\n      tag_279\n      jumpi\n      dup4\n      dup5\n        /* \"--CODEGEN--\":18044:18056   */\n      revert\n        /* \"--CODEGEN--\":18008:18010   */\n    tag_279:\n        /* \"--CODEGEN--\":1215:1280   */\n      tag_280\n        /* \"--CODEGEN--\":18117:18126   */\n      0x1f\n        /* \"--CODEGEN--\":18098:18115   */\n      dup3\n      add\n      not(0x1f)\n        /* \"--CODEGEN--\":18094:18127   */\n      and\n        /* \"--CODEGEN--\":6608:6610   */\n      0x20\n        /* \"--CODEGEN--\":18175:18190   */\n      add\n        /* \"--CODEGEN--\":1215:1280   */\n      tag_244\n      jump\t// in\n    tag_280:\n        /* \"--CODEGEN--\":1206:1280   */\n      swap2\n      pop\n        /* \"--CODEGEN--\":1300:1306   */\n      dup1\n        /* \"--CODEGEN--\":1293:1298   */\n      dup3\n        /* \"--CODEGEN--\":1286:1307   */\n      mstore\n        /* \"--CODEGEN--\":1404:1407   */\n      dup6\n        /* \"--CODEGEN--\":6608:6610   */\n      0x20\n        /* \"--CODEGEN--\":1395:1401   */\n      dup3\n        /* \"--CODEGEN--\":1328:1334   */\n      dup6\n        /* \"--CODEGEN--\":1386:1402   */\n      add\n      add\n        /* \"--CODEGEN--\":1383:1408   */\n      gt\n        /* \"--CODEGEN--\":1380:1382   */\n      iszero\n      tag_281\n      jumpi\n      dup4\n      dup5\n        /* \"--CODEGEN--\":1411:1423   */\n      revert\n        /* \"--CODEGEN--\":1380:1382   */\n    tag_281:\n        /* \"--CODEGEN--\":1431:1470   */\n      tag_282\n        /* \"--CODEGEN--\":1463:1469   */\n      dup2\n        /* \"--CODEGEN--\":6608:6610   */\n      0x20\n        /* \"--CODEGEN--\":1362:1367   */\n      dup5\n        /* \"--CODEGEN--\":1358:1374   */\n      add\n        /* \"--CODEGEN--\":6608:6610   */\n      0x20\n        /* \"--CODEGEN--\":1328:1334   */\n      dup7\n        /* \"--CODEGEN--\":1324:1341   */\n      add\n        /* \"--CODEGEN--\":1431:1470   */\n      tag_283\n      jump\t// in\n    tag_282:\n      pop\n        /* \"--CODEGEN--\":6745:6829   */\n      swap5\n        /* \"--CODEGEN--\":6570:6845   */\n      swap4\n      pop\n      pop\n      pop\n      pop\n      jump\t// out\n        /* \"--CODEGEN--\":6852:7197   */\n    tag_150:\n      0x00\n        /* \"--CODEGEN--\":7008:7010   */\n      0x20\n        /* \"--CODEGEN--\":6996:7005   */\n      dup3\n        /* \"--CODEGEN--\":6987:6994   */\n      dup5\n        /* \"--CODEGEN--\":6983:7006   */\n      sub\n        /* \"--CODEGEN--\":6979:7011   */\n      slt\n        /* \"--CODEGEN--\":6976:6978   */\n      iszero\n      tag_285\n      jumpi\n      dup1\n      dup2\n        /* \"--CODEGEN--\":7014:7026   */\n      revert\n        /* \"--CODEGEN--\":6976:6978   */\n    tag_285:\n        /* \"--CODEGEN--\":7076:7181   */\n      tag_256\n        /* \"--CODEGEN--\":7173:7180   */\n      dup4\n        /* \"--CODEGEN--\":7149:7171   */\n      dup4\n        /* \"--CODEGEN--\":7076:7181   */\n      tag_240\n      jump\t// in\n        /* \"--CODEGEN--\":7204:7526   */\n    tag_58:\n      0x00\n        /* \"--CODEGEN--\":7348:7351   */\n      0x0180\n      dup1\n        /* \"--CODEGEN--\":7336:7345   */\n      dup4\n        /* \"--CODEGEN--\":7327:7334   */\n      dup6\n        /* \"--CODEGEN--\":7323:7346   */\n      sub\n        /* \"--CODEGEN--\":7319:7352   */\n      slt\n        /* \"--CODEGEN--\":7316:7318   */\n      iszero\n      tag_288\n      jumpi\n      dup2\n      dup3\n        /* \"--CODEGEN--\":7355:7367   */\n      revert\n        /* \"--CODEGEN--\":7316:7318   */\n    tag_288:\n        /* \"--CODEGEN--\":2101:2123   */\n      tag_289\n        /* \"--CODEGEN--\":7348:7351   */\n      dup2\n        /* \"--CODEGEN--\":2101:2123   */\n      tag_244\n      jump\t// in\n    tag_289:\n        /* \"--CODEGEN--\":2092:2123   */\n      swap1\n      pop\n        /* \"--CODEGEN--\":2214:2315   */\n      tag_290\n        /* \"--CODEGEN--\":2311:2314   */\n      dup5\n        /* \"--CODEGEN--\":2287:2309   */\n      dup5\n        /* \"--CODEGEN--\":2214:2315   */\n      tag_240\n      jump\t// in\n    tag_290:\n        /* \"--CODEGEN--\":2196:2212   */\n      dup2\n        /* \"--CODEGEN--\":2189:2316   */\n      mstore\n        /* \"--CODEGEN--\":2420:2480   */\n      tag_291\n        /* \"--CODEGEN--\":2476:2479   */\n      dup5\n        /* \"--CODEGEN--\":2387:2389   */\n      0x20\n        /* \"--CODEGEN--\":2456:2465   */\n      dup6\n        /* \"--CODEGEN--\":2452:2474   */\n      add\n        /* \"--CODEGEN--\":2420:2480   */\n      tag_245\n      jump\t// in\n    tag_291:\n        /* \"--CODEGEN--\":2387:2389   */\n      0x20\n        /* \"--CODEGEN--\":2406:2411   */\n      dup3\n        /* \"--CODEGEN--\":2402:2418   */\n      add\n        /* \"--CODEGEN--\":2395:2481   */\n      mstore\n        /* \"--CODEGEN--\":2590:2650   */\n      tag_292\n        /* \"--CODEGEN--\":2646:2649   */\n      dup5\n        /* \"--CODEGEN--\":2557:2559   */\n      0x40\n        /* \"--CODEGEN--\":2626:2635   */\n      dup6\n        /* \"--CODEGEN--\":2622:2644   */\n      add\n        /* \"--CODEGEN--\":2590:2650   */\n      tag_245\n      jump\t// in\n    tag_292:\n        /* \"--CODEGEN--\":2557:2559   */\n      0x40\n        /* \"--CODEGEN--\":2576:2581   */\n      dup3\n        /* \"--CODEGEN--\":2572:2588   */\n      add\n        /* \"--CODEGEN--\":2565:2651   */\n      mstore\n        /* \"--CODEGEN--\":2761:2821   */\n      tag_293\n        /* \"--CODEGEN--\":2817:2820   */\n      dup5\n        /* \"--CODEGEN--\":2728:2730   */\n      0x60\n        /* \"--CODEGEN--\":2797:2806   */\n      dup6\n        /* \"--CODEGEN--\":2793:2815   */\n      add\n        /* \"--CODEGEN--\":2761:2821   */\n      tag_245\n      jump\t// in\n    tag_293:\n        /* \"--CODEGEN--\":2728:2730   */\n      0x60\n        /* \"--CODEGEN--\":2747:2752   */\n      dup3\n        /* \"--CODEGEN--\":2743:2759   */\n      add\n        /* \"--CODEGEN--\":2736:2822   */\n      mstore\n        /* \"--CODEGEN--\":2938:2998   */\n      tag_294\n        /* \"--CODEGEN--\":2994:2997   */\n      dup5\n        /* \"--CODEGEN--\":2904:2907   */\n      0x80\n        /* \"--CODEGEN--\":2974:2983   */\n      dup6\n        /* \"--CODEGEN--\":2970:2992   */\n      add\n        /* \"--CODEGEN--\":2938:2998   */\n      tag_245\n      jump\t// in\n    tag_294:\n        /* \"--CODEGEN--\":2904:2907   */\n      0x80\n        /* \"--CODEGEN--\":2924:2929   */\n      dup3\n        /* \"--CODEGEN--\":2920:2936   */\n      add\n        /* \"--CODEGEN--\":2913:2999   */\n      mstore\n        /* \"--CODEGEN--\":3113:3173   */\n      tag_295\n        /* \"--CODEGEN--\":3169:3172   */\n      dup5\n        /* \"--CODEGEN--\":3079:3082   */\n      0xa0\n        /* \"--CODEGEN--\":3149:3158   */\n      dup6\n        /* \"--CODEGEN--\":3145:3167   */\n      add\n        /* \"--CODEGEN--\":3113:3173   */\n      tag_245\n      jump\t// in\n    tag_295:\n        /* \"--CODEGEN--\":3079:3082   */\n      0xa0\n        /* \"--CODEGEN--\":3099:3104   */\n      dup3\n        /* \"--CODEGEN--\":3095:3111   */\n      add\n        /* \"--CODEGEN--\":3088:3174   */\n      mstore\n        /* \"--CODEGEN--\":3284:3343   */\n      tag_296\n        /* \"--CODEGEN--\":3339:3342   */\n      dup5\n        /* \"--CODEGEN--\":3250:3253   */\n      0xc0\n        /* \"--CODEGEN--\":3319:3328   */\n      dup6\n        /* \"--CODEGEN--\":3315:3337   */\n      add\n        /* \"--CODEGEN--\":3284:3343   */\n      tag_248\n      jump\t// in\n    tag_296:\n        /* \"--CODEGEN--\":3250:3253   */\n      0xc0\n        /* \"--CODEGEN--\":3270:3275   */\n      dup3\n        /* \"--CODEGEN--\":3266:3282   */\n      add\n        /* \"--CODEGEN--\":3259:3344   */\n      mstore\n        /* \"--CODEGEN--\":3448:3508   */\n      tag_297\n        /* \"--CODEGEN--\":3504:3507   */\n      dup5\n        /* \"--CODEGEN--\":3414:3417   */\n      0xe0\n        /* \"--CODEGEN--\":3484:3493   */\n      dup6\n        /* \"--CODEGEN--\":3480:3502   */\n      add\n        /* \"--CODEGEN--\":3448:3508   */\n      tag_236\n      jump\t// in\n    tag_297:\n        /* \"--CODEGEN--\":3414:3417   */\n      0xe0\n        /* \"--CODEGEN--\":3434:3439   */\n      dup3\n        /* \"--CODEGEN--\":3430:3446   */\n      add\n        /* \"--CODEGEN--\":3423:3509   */\n      mstore\n        /* \"--CODEGEN--\":3588:3591   */\n      0x0100\n        /* \"--CODEGEN--\":3624:3684   */\n      tag_298\n        /* \"--CODEGEN--\":3680:3683   */\n      dup6\n        /* \"--CODEGEN--\":3588:3591   */\n      dup3\n        /* \"--CODEGEN--\":3660:3669   */\n      dup7\n        /* \"--CODEGEN--\":3656:3678   */\n      add\n        /* \"--CODEGEN--\":3624:3684   */\n      tag_236\n      jump\t// in\n    tag_298:\n        /* \"--CODEGEN--\":3604:3622   */\n      swap1\n      dup3\n      add\n        /* \"--CODEGEN--\":3597:3685   */\n      mstore\n        /* \"--CODEGEN--\":3766:3769   */\n      0x0120\n        /* \"--CODEGEN--\":3802:3862   */\n      tag_299\n        /* \"--CODEGEN--\":3858:3861   */\n      dup6\n        /* \"--CODEGEN--\":3834:3856   */\n      dup6\n      dup4\n      add\n        /* \"--CODEGEN--\":3802:3862   */\n      tag_236\n      jump\t// in\n    tag_299:\n        /* \"--CODEGEN--\":3782:3800   */\n      swap1\n      dup3\n      add\n        /* \"--CODEGEN--\":3775:3863   */\n      mstore\n        /* \"--CODEGEN--\":3947:3950   */\n      0x0140\n        /* \"--CODEGEN--\":3983:4043   */\n      tag_300\n        /* \"--CODEGEN--\":4039:4042   */\n      dup6\n        /* \"--CODEGEN--\":4015:4037   */\n      dup6\n      dup4\n      add\n        /* \"--CODEGEN--\":3983:4043   */\n      tag_236\n      jump\t// in\n    tag_300:\n        /* \"--CODEGEN--\":3963:3981   */\n      swap1\n      dup3\n      add\n        /* \"--CODEGEN--\":3956:4044   */\n      mstore\n        /* \"--CODEGEN--\":4103:4106   */\n      0x0160\n        /* \"--CODEGEN--\":4139:4197   */\n      tag_301\n        /* \"--CODEGEN--\":4193:4196   */\n      dup6\n        /* \"--CODEGEN--\":4169:4191   */\n      dup6\n      dup4\n      add\n        /* \"--CODEGEN--\":4139:4197   */\n      tag_251\n      jump\t// in\n    tag_301:\n        /* \"--CODEGEN--\":4119:4137   */\n      swap1\n      dup3\n      add\n        /* \"--CODEGEN--\":4112:4198   */\n      mstore\n        /* \"--CODEGEN--\":4123:4128   */\n      swap4\n        /* \"--CODEGEN--\":7310:7526   */\n      swap3\n      pop\n      pop\n      pop\n      jump\t// out\n        /* \"--CODEGEN--\":7879:8142   */\n    tag_76:\n      0x00\n        /* \"--CODEGEN--\":7994:7996   */\n      0x20\n        /* \"--CODEGEN--\":7982:7991   */\n      dup3\n        /* \"--CODEGEN--\":7973:7980   */\n      dup5\n        /* \"--CODEGEN--\":7969:7992   */\n      sub\n        /* \"--CODEGEN--\":7965:7997   */\n      slt\n        /* \"--CODEGEN--\":7962:7964   */\n      iszero\n      tag_306\n      jumpi\n      dup1\n      dup2\n        /* \"--CODEGEN--\":8000:8012   */\n      revert\n        /* \"--CODEGEN--\":7962:7964   */\n    tag_306:\n      pop\n        /* \"--CODEGEN--\":4854:4867   */\n      mload\n      swap2\n        /* \"--CODEGEN--\":7956:8142   */\n      swap1\n      pop\n      jump\t// out\n        /* \"--CODEGEN--\":8149:8410   */\n    tag_107:\n      0x00\n        /* \"--CODEGEN--\":8263:8265   */\n      0x20\n        /* \"--CODEGEN--\":8251:8260   */\n      dup3\n        /* \"--CODEGEN--\":8242:8249   */\n      dup5\n        /* \"--CODEGEN--\":8238:8261   */\n      sub\n        /* \"--CODEGEN--\":8234:8266   */\n      slt\n        /* \"--CODEGEN--\":8231:8233   */\n      iszero\n      tag_308\n      jumpi\n      dup1\n      dup2\n        /* \"--CODEGEN--\":8269:8281   */\n      revert\n        /* \"--CODEGEN--\":8231:8233   */\n    tag_308:\n        /* \"--CODEGEN--\":5000:5006   */\n      dup2\n        /* \"--CODEGEN--\":4994:5007   */\n      mload\n        /* \"--CODEGEN--\":19971:19983   */\n      0xffffffffff\n        /* \"--CODEGEN--\":21277:21282   */\n      dup2\n        /* \"--CODEGEN--\":19960:19984   */\n      and\n        /* \"--CODEGEN--\":21253:21258   */\n      dup2\n        /* \"--CODEGEN--\":21250:21284   */\n      eq\n        /* \"--CODEGEN--\":21240:21242   */\n      tag_256\n      jumpi\n      dup2\n      dup3\n        /* \"--CODEGEN--\":21288:21300   */\n      revert\n        /* \"--CODEGEN--\":10406:10733   */\n    tag_310:\n      0x00\n        /* \"--CODEGEN--\":10541:10546   */\n      dup2\n        /* \"--CODEGEN--\":18522:18534   */\n      mload\n        /* \"--CODEGEN--\":18992:18998   */\n      dup1\n        /* \"--CODEGEN--\":18987:18990   */\n      dup5\n        /* \"--CODEGEN--\":18980:18999   */\n      mstore\n        /* \"--CODEGEN--\":10625:10677   */\n      tag_312\n        /* \"--CODEGEN--\":10670:10676   */\n      dup2\n        /* \"--CODEGEN--\":19029:19033   */\n      0x20\n        /* \"--CODEGEN--\":19024:19027   */\n      dup7\n        /* \"--CODEGEN--\":19020:19034   */\n      add\n        /* \"--CODEGEN--\":19029:19033   */\n      0x20\n        /* \"--CODEGEN--\":10651:10656   */\n      dup7\n        /* \"--CODEGEN--\":10647:10663   */\n      add\n        /* \"--CODEGEN--\":10625:10677   */\n      tag_283\n      jump\t// in\n    tag_312:\n        /* \"--CODEGEN--\":18117:18126   */\n      0x1f\n        /* \"--CODEGEN--\":20783:20797   */\n      add\n      not(0x1f)\n        /* \"--CODEGEN--\":20779:20807   */\n      and\n        /* \"--CODEGEN--\":10689:10728   */\n      swap3\n      swap1\n      swap3\n      add\n        /* \"--CODEGEN--\":19029:19033   */\n      0x20\n        /* \"--CODEGEN--\":10689:10728   */\n      add\n      swap3\n        /* \"--CODEGEN--\":10488:10733   */\n      swap2\n      pop\n      pop\n      jump\t// out\n        /* \"--CODEGEN--\":12006:12228   */\n    tag_53:\n      sub(shl(0xa0, 0x01), 0x01)\n        /* \"--CODEGEN--\":19754:19808   */\n      swap2\n      swap1\n      swap2\n      and\n        /* \"--CODEGEN--\":8748:8785   */\n      dup2\n      mstore\n        /* \"--CODEGEN--\":12133:12135   */\n      0x20\n        /* \"--CODEGEN--\":12118:12136   */\n      add\n      swap1\n        /* \"--CODEGEN--\":12104:12228   */\n      jump\t// out\n        /* \"--CODEGEN--\":12235:12679   */\n    tag_40:\n      sub(shl(0xa0, 0x01), 0x01)\n        /* \"--CODEGEN--\":19754:19808   */\n      swap4\n      dup5\n      and\n        /* \"--CODEGEN--\":8748:8785   */\n      dup2\n      mstore\n        /* \"--CODEGEN--\":19754:19808   */\n      swap2\n      dup4\n      and\n        /* \"--CODEGEN--\":12582:12584   */\n      0x20\n        /* \"--CODEGEN--\":12567:12585   */\n      dup4\n      add\n        /* \"--CODEGEN--\":8748:8785   */\n      mstore\n        /* \"--CODEGEN--\":19754:19808   */\n      swap1\n      swap2\n      and\n        /* \"--CODEGEN--\":12665:12667   */\n      0x40\n        /* \"--CODEGEN--\":12650:12668   */\n      dup3\n      add\n        /* \"--CODEGEN--\":8748:8785   */\n      mstore\n        /* \"--CODEGEN--\":12418:12420   */\n      0x60\n        /* \"--CODEGEN--\":12403:12421   */\n      add\n      swap1\n        /* \"--CODEGEN--\":12389:12679   */\n      jump\t// out\n        /* \"--CODEGEN--\":12686:13164   */\n    tag_35:\n        /* \"--CODEGEN--\":12917:12919   */\n      0x20\n        /* \"--CODEGEN--\":12931:12978   */\n      dup1\n      dup3\n      mstore\n        /* \"--CODEGEN--\":18522:18534   */\n      dup3\n      mload\n        /* \"--CODEGEN--\":12902:12920   */\n      dup3\n      dup3\n      add\n        /* \"--CODEGEN--\":18980:18999   */\n      dup2\n      swap1\n      mstore\n        /* \"--CODEGEN--\":12686:13164   */\n      0x00\n      swap2\n        /* \"--CODEGEN--\":12917:12919   */\n      swap1\n        /* \"--CODEGEN--\":19020:19034   */\n      0x40\n      swap1\n      dup2\n      dup6\n      add\n      swap1\n        /* \"--CODEGEN--\":9475:9492   */\n      dup1\n      dup5\n      mul\n        /* \"--CODEGEN--\":9466:9493   */\n      dup7\n      add\n      dup4\n      add\n        /* \"--CODEGEN--\":18349:18363   */\n      dup8\n      dup6\n      add\n        /* \"--CODEGEN--\":12686:13164   */\n      dup7\n        /* \"--CODEGEN--\":9630:10041   */\n    tag_316:\n        /* \"--CODEGEN--\":9655:9661   */\n      dup4\n        /* \"--CODEGEN--\":9652:9653   */\n      dup2\n        /* \"--CODEGEN--\":9649:9662   */\n      lt\n        /* \"--CODEGEN--\":9630:10041   */\n      iszero\n      tag_318\n      jumpi\n        /* \"--CODEGEN--\":9707:9727   */\n      dup9\n      dup4\n      sub\n      not(0x3f)\n      add\n        /* \"--CODEGEN--\":9695:9728   */\n      dup6\n      mstore\n        /* \"--CODEGEN--\":9756:9769   */\n      dup2\n      mload\n        /* \"--CODEGEN--\":11400:11423   */\n      dup1\n      mload\n        /* \"--CODEGEN--\":11436:11474   */\n      dup8\n      dup6\n      mstore\n        /* \"--CODEGEN--\":11489:11562   */\n      tag_319\n        /* \"--CODEGEN--\":11323:11337   */\n      dup9\n      dup7\n      add\n        /* \"--CODEGEN--\":11400:11423   */\n      dup3\n        /* \"--CODEGEN--\":11489:11562   */\n      tag_310\n      jump\t// in\n    tag_319:\n        /* \"--CODEGEN--\":11644:11660   */\n      swap2\n      dup10\n      add\n        /* \"--CODEGEN--\":11638:11661   */\n      mload\n      sub(shl(0xa0, 0x01), 0x01)\n        /* \"--CODEGEN--\":19754:19808   */\n      and\n        /* \"--CODEGEN--\":11715:11729   */\n      swap5\n      dup10\n      add\n        /* \"--CODEGEN--\":8748:8785   */\n      swap5\n      swap1\n      swap5\n      mstore\n        /* \"--CODEGEN--\":10020:10034   */\n      swap5\n      dup8\n      add\n      swap5\n        /* \"--CODEGEN--\":11481:11562   */\n      swap3\n      pop\n        /* \"--CODEGEN--\":18808:18822   */\n      swap1\n      dup7\n      add\n      swap1\n        /* \"--CODEGEN--\":19645:19679   */\n      0x01\n        /* \"--CODEGEN--\":9670:9679   */\n      add\n        /* \"--CODEGEN--\":9630:10041   */\n      jump(tag_316)\n    tag_318:\n      pop\n        /* \"--CODEGEN--\":12984:13154   */\n      swap1\n      swap9\n        /* \"--CODEGEN--\":12888:13164   */\n      swap8\n      pop\n      pop\n      pop\n      pop\n      pop\n      pop\n      pop\n      pop\n      jump\t// out\n        /* \"--CODEGEN--\":13474:13784   */\n    tag_231:\n      0x00\n        /* \"--CODEGEN--\":13621:13623   */\n      0x20\n        /* \"--CODEGEN--\":13642:13659   */\n      dup3\n        /* \"--CODEGEN--\":13635:13682   */\n      mstore\n        /* \"--CODEGEN--\":13696:13774   */\n      tag_256\n        /* \"--CODEGEN--\":13621:13623   */\n      0x20\n        /* \"--CODEGEN--\":13610:13619   */\n      dup4\n        /* \"--CODEGEN--\":13606:13624   */\n      add\n        /* \"--CODEGEN--\":13760:13766   */\n      dup5\n        /* \"--CODEGEN--\":13696:13774   */\n      tag_310\n      jump\t// in\n        /* \"--CODEGEN--\":13791:14959   */\n    tag_31:\n        /* \"--CODEGEN--\":11840:11877   */\n      swap10\n      dup11\n      mstore\n        /* \"--CODEGEN--\":14305:14307   */\n      0x20\n        /* \"--CODEGEN--\":14290:14308   */\n      dup11\n      add\n        /* \"--CODEGEN--\":11840:11877   */\n      swap9\n      swap1\n      swap9\n      mstore\n        /* \"--CODEGEN--\":14388:14390   */\n      0x40\n        /* \"--CODEGEN--\":14373:14391   */\n      dup10\n      add\n        /* \"--CODEGEN--\":11840:11877   */\n      swap7\n      swap1\n      swap7\n      mstore\n        /* \"--CODEGEN--\":14471:14473   */\n      0x60\n        /* \"--CODEGEN--\":14456:14474   */\n      dup9\n      add\n        /* \"--CODEGEN--\":11840:11877   */\n      swap5\n      swap1\n      swap5\n      mstore\n        /* \"--CODEGEN--\":14554:14557   */\n      0x80\n        /* \"--CODEGEN--\":14539:14558   */\n      dup8\n      add\n        /* \"--CODEGEN--\":11840:11877   */\n      swap3\n      swap1\n      swap3\n      mstore\n        /* \"--CODEGEN--\":19546:19559   */\n      iszero\n        /* \"--CODEGEN--\":19539:19560   */\n      iszero\n        /* \"--CODEGEN--\":14632:14635   */\n      0xa0\n        /* \"--CODEGEN--\":14617:14636   */\n      dup7\n      add\n        /* \"--CODEGEN--\":10153:10187   */\n      mstore\n        /* \"--CODEGEN--\":19546:19559   */\n      iszero\n        /* \"--CODEGEN--\":19539:19560   */\n      iszero\n        /* \"--CODEGEN--\":14710:14713   */\n      0xc0\n        /* \"--CODEGEN--\":14695:14714   */\n      dup6\n      add\n        /* \"--CODEGEN--\":10153:10187   */\n      mstore\n        /* \"--CODEGEN--\":19546:19559   */\n      iszero\n        /* \"--CODEGEN--\":19539:19560   */\n      iszero\n        /* \"--CODEGEN--\":14788:14791   */\n      0xe0\n        /* \"--CODEGEN--\":14773:14792   */\n      dup5\n      add\n        /* \"--CODEGEN--\":10153:10187   */\n      mstore\n        /* \"--CODEGEN--\":19546:19559   */\n      iszero\n        /* \"--CODEGEN--\":19539:19560   */\n      iszero\n        /* \"--CODEGEN--\":14866:14869   */\n      0x0100\n        /* \"--CODEGEN--\":14851:14870   */\n      dup4\n      add\n        /* \"--CODEGEN--\":10153:10187   */\n      mstore\n        /* \"--CODEGEN--\":19546:19559   */\n      iszero\n        /* \"--CODEGEN--\":19539:19560   */\n      iszero\n        /* \"--CODEGEN--\":14944:14947   */\n      0x0120\n        /* \"--CODEGEN--\":14929:14948   */\n      dup3\n      add\n        /* \"--CODEGEN--\":10153:10187   */\n      mstore\n        /* \"--CODEGEN--\":14140:14143   */\n      0x0140\n        /* \"--CODEGEN--\":14125:14144   */\n      add\n      swap1\n        /* \"--CODEGEN--\":14111:14959   */\n      jump\t// out\n        /* \"--CODEGEN--\":14966:16190   */\n    tag_26:\n        /* \"--CODEGEN--\":11840:11877   */\n      swap10\n      dup11\n      mstore\n        /* \"--CODEGEN--\":15508:15510   */\n      0x20\n        /* \"--CODEGEN--\":15493:15511   */\n      dup11\n      add\n        /* \"--CODEGEN--\":11840:11877   */\n      swap9\n      swap1\n      swap9\n      mstore\n        /* \"--CODEGEN--\":15591:15593   */\n      0x40\n        /* \"--CODEGEN--\":15576:15594   */\n      dup10\n      add\n        /* \"--CODEGEN--\":11840:11877   */\n      swap7\n      swap1\n      swap7\n      mstore\n        /* \"--CODEGEN--\":15674:15676   */\n      0x60\n        /* \"--CODEGEN--\":15659:15677   */\n      dup9\n      add\n        /* \"--CODEGEN--\":11840:11877   */\n      swap5\n      swap1\n      swap5\n      mstore\n        /* \"--CODEGEN--\":15757:15760   */\n      0x80\n        /* \"--CODEGEN--\":15742:15761   */\n      dup8\n      add\n        /* \"--CODEGEN--\":11840:11877   */\n      swap3\n      swap1\n      swap3\n      mstore\n        /* \"--CODEGEN--\":15841:15844   */\n      0xa0\n        /* \"--CODEGEN--\":15826:15845   */\n      dup7\n      add\n        /* \"--CODEGEN--\":11840:11877   */\n      mstore\n        /* \"--CODEGEN--\":15925:15928   */\n      0xc0\n        /* \"--CODEGEN--\":15910:15929   */\n      dup6\n      add\n        /* \"--CODEGEN--\":11840:11877   */\n      mstore\n        /* \"--CODEGEN--\":16009:16012   */\n      0xe0\n        /* \"--CODEGEN--\":15994:16013   */\n      dup5\n      add\n        /* \"--CODEGEN--\":11840:11877   */\n      mstore\n        /* \"--CODEGEN--\":16093:16096   */\n      0x0100\n        /* \"--CODEGEN--\":16078:16097   */\n      dup4\n      add\n        /* \"--CODEGEN--\":11840:11877   */\n      mstore\n        /* \"--CODEGEN--\":19971:19983   */\n      0xffffffffff\n        /* \"--CODEGEN--\":19960:19984   */\n      and\n        /* \"--CODEGEN--\":16175:16178   */\n      0x0120\n        /* \"--CODEGEN--\":16160:16179   */\n      dup3\n      add\n        /* \"--CODEGEN--\":11958:11994   */\n      mstore\n        /* \"--CODEGEN--\":15343:15346   */\n      0x0140\n        /* \"--CODEGEN--\":15328:15347   */\n      add\n      swap1\n        /* \"--CODEGEN--\":15314:16190   */\n      jump\t// out\n        /* \"--CODEGEN--\":16197:17297   */\n    tag_20:\n        /* \"--CODEGEN--\":11840:11877   */\n      swap9\n      dup10\n      mstore\n        /* \"--CODEGEN--\":16705:16707   */\n      0x20\n        /* \"--CODEGEN--\":16690:16708   */\n      dup10\n      add\n        /* \"--CODEGEN--\":11840:11877   */\n      swap8\n      swap1\n      swap8\n      mstore\n        /* \"--CODEGEN--\":16788:16790   */\n      0x40\n        /* \"--CODEGEN--\":16773:16791   */\n      dup9\n      add\n        /* \"--CODEGEN--\":11840:11877   */\n      swap6\n      swap1\n      swap6\n      mstore\n        /* \"--CODEGEN--\":16871:16873   */\n      0x60\n        /* \"--CODEGEN--\":16856:16874   */\n      dup8\n      add\n        /* \"--CODEGEN--\":11840:11877   */\n      swap4\n      swap1\n      swap4\n      mstore\n        /* \"--CODEGEN--\":16954:16957   */\n      0x80\n        /* \"--CODEGEN--\":16939:16958   */\n      dup7\n      add\n        /* \"--CODEGEN--\":11840:11877   */\n      swap2\n      swap1\n      swap2\n      mstore\n        /* \"--CODEGEN--\":17038:17041   */\n      0xa0\n        /* \"--CODEGEN--\":17023:17042   */\n      dup6\n      add\n        /* \"--CODEGEN--\":11840:11877   */\n      mstore\n        /* \"--CODEGEN--\":17122:17125   */\n      0xc0\n        /* \"--CODEGEN--\":17107:17126   */\n      dup5\n      add\n        /* \"--CODEGEN--\":11840:11877   */\n      mstore\n        /* \"--CODEGEN--\":19971:19983   */\n      0xffffffffff\n        /* \"--CODEGEN--\":19960:19984   */\n      and\n        /* \"--CODEGEN--\":17204:17207   */\n      0xe0\n        /* \"--CODEGEN--\":17189:17208   */\n      dup4\n      add\n        /* \"--CODEGEN--\":11958:11994   */\n      mstore\n        /* \"--CODEGEN--\":19546:19559   */\n      iszero\n        /* \"--CODEGEN--\":19539:19560   */\n      iszero\n        /* \"--CODEGEN--\":17282:17285   */\n      0x0100\n        /* \"--CODEGEN--\":17267:17286   */\n      dup3\n      add\n        /* \"--CODEGEN--\":10153:10187   */\n      mstore\n        /* \"--CODEGEN--\":16540:16543   */\n      0x0120\n        /* \"--CODEGEN--\":16525:16544   */\n      add\n      swap1\n        /* \"--CODEGEN--\":16511:17297   */\n      jump\t// out\n        /* \"--CODEGEN--\":17304:17560   */\n    tag_244:\n        /* \"--CODEGEN--\":17366:17368   */\n      0x40\n        /* \"--CODEGEN--\":17360:17369   */\n      mload\n        /* \"--CODEGEN--\":17392:17409   */\n      dup2\n      dup2\n      add\n        /* \"--CODEGEN--\":17467:17485   */\n      0xffffffffffffffff\n        /* \"--CODEGEN--\":17452:17486   */\n      dup2\n      gt\n        /* \"--CODEGEN--\":17488:17510   */\n      dup3\n      dup3\n      lt\n        /* \"--CODEGEN--\":17449:17511   */\n      or\n        /* \"--CODEGEN--\":17446:17448   */\n      iszero\n      tag_327\n      jumpi\n        /* \"--CODEGEN--\":17524:17525   */\n      0x00\n      dup1\n        /* \"--CODEGEN--\":17514:17526   */\n      revert\n        /* \"--CODEGEN--\":17446:17448   */\n    tag_327:\n        /* \"--CODEGEN--\":17366:17368   */\n      0x40\n        /* \"--CODEGEN--\":17533:17555   */\n      mstore\n        /* \"--CODEGEN--\":17344:17560   */\n      swap2\n      swap1\n      pop\n      jump\t// out\n        /* \"--CODEGEN--\":20439:20707   */\n    tag_283:\n        /* \"--CODEGEN--\":20504:20505   */\n      0x00\n        /* \"--CODEGEN--\":20511:20612   */\n    tag_329:\n        /* \"--CODEGEN--\":20525:20531   */\n      dup4\n        /* \"--CODEGEN--\":20522:20523   */\n      dup2\n        /* \"--CODEGEN--\":20519:20532   */\n      lt\n        /* \"--CODEGEN--\":20511:20612   */\n      iszero\n      tag_331\n      jumpi\n        /* \"--CODEGEN--\":20592:20603   */\n      dup2\n      dup2\n      add\n        /* \"--CODEGEN--\":20586:20604   */\n      mload\n        /* \"--CODEGEN--\":20573:20584   */\n      dup4\n      dup3\n      add\n        /* \"--CODEGEN--\":20566:20605   */\n      mstore\n        /* \"--CODEGEN--\":20547:20549   */\n      0x20\n        /* \"--CODEGEN--\":20540:20550   */\n      add\n        /* \"--CODEGEN--\":20511:20612   */\n      jump(tag_329)\n    tag_331:\n        /* \"--CODEGEN--\":20627:20633   */\n      dup4\n        /* \"--CODEGEN--\":20624:20625   */\n      dup2\n        /* \"--CODEGEN--\":20621:20634   */\n      gt\n        /* \"--CODEGEN--\":20618:20620   */\n      iszero\n      tag_332\n      jumpi\n        /* \"--CODEGEN--\":20504:20505   */\n      0x00\n        /* \"--CODEGEN--\":20683:20689   */\n      dup5\n        /* \"--CODEGEN--\":20678:20681   */\n      dup5\n        /* \"--CODEGEN--\":20674:20690   */\n      add\n        /* \"--CODEGEN--\":20667:20694   */\n      mstore\n        /* \"--CODEGEN--\":20618:20620   */\n    tag_332:\n      pop\n        /* \"--CODEGEN--\":20488:20707   */\n      pop\n      pop\n      pop\n      jump\t// out\n        /* \"--CODEGEN--\":20820:20937   */\n    tag_239:\n      sub(shl(0xa0, 0x01), 0x01)\n        /* \"--CODEGEN--\":19754:19808   */\n      dup2\n      and\n        /* \"--CODEGEN--\":20879:20914   */\n      dup2\n      eq\n        /* \"--CODEGEN--\":20869:20871   */\n      tag_334\n      jumpi\n        /* \"--CODEGEN--\":20928:20929   */\n      0x00\n      dup1\n        /* \"--CODEGEN--\":20918:20930   */\n      revert\n        /* \"--CODEGEN--\":20869:20871   */\n    tag_334:\n        /* \"--CODEGEN--\":20863:20937   */\n      pop\n      jump\t// out\n\n    auxdata: 0xa26469706673582212201c41a7f0b425c2516185ae19276b7de92f31cae32ce71565f04a7e42a544e50f64736f6c634300060c0033\n}\n",
				"bytecode": {
					"linkReferences": {},
					"object": "60a060405234801561001057600080fd5b50604051611be3380380611be383398101604081905261002f91610044565b60601b6001600160601b031916608052610072565b600060208284031215610055578081fd5b81516001600160a01b038116811461006b578182fd5b9392505050565b60805160601c611b316100b26000398061015b528061019552806102ac52806107a75280610b2b5280610c7b5280610ff952806111295250611b316000f3fe608060405234801561001057600080fd5b506004361061007d5760003560e01c80633e1501411161005b5780633e150141146100f1578063b316ff891461011a578063d2493b6c1461012f578063f561ae41146101515761007d565b80630542975c1461008257806328dd2d01146100a057806335ea6a75146100c8575b600080fd5b61008a610159565b60405161009791906118e3565b60405180910390f35b6100b36100ae3660046115f5565b61017d565b60405161009799989796959493929190611a44565b6100db6100d63660046115b6565b61078e565b6040516100979a999897969594939291906119f8565b6101046100ff3660046115b6565b610b12565b6040516100979a999897969594939291906119a9565b610122610c75565b604051610097919061191a565b61014261013d3660046115b6565b610fea565b604051610097939291906118f7565b610122611123565b7f000000000000000000000000000000000000000000000000000000000000000081565b60008060008060008060008060006101936114b3565b7f00000000000000000000000000000000000000000000000000000000000000006001600160a01b0316630261bf8b6040518163ffffffff1660e01b815260040160206040518083038186803b1580156101ec57600080fd5b505afa158015610200573d6000803e3d6000fd5b505050506040513d601f19601f8201168201806040525081019061022491906115d9565b6001600160a01b03166335ea6a758d6040518263ffffffff1660e01b815260040161024f91906118e3565b6101806040518083038186803b15801561026857600080fd5b505afa15801561027c573d6000803e3d6000fd5b505050506040513d601f19601f820116820180604052508101906102a0919061177f565b90506102aa61151e565b7f00000000000000000000000000000000000000000000000000000000000000006001600160a01b0316630261bf8b6040518163ffffffff1660e01b815260040160206040518083038186803b15801561030357600080fd5b505afa158015610317573d6000803e3d6000fd5b505050506040513d601f19601f8201168201806040525081019061033b91906115d9565b6001600160a01b0316634417a5838d6040518263ffffffff1660e01b815260040161036691906118e3565b60206040518083038186803b15801561037e57600080fd5b505afa158015610392573d6000803e3d6000fd5b505050506040513d601f19601f820116820180604052508101906103b69190611764565b60e08301516040516370a0823160e01b81529192506001600160a01b0316906370a08231906103e9908f906004016118e3565b60206040518083038186803b15801561040157600080fd5b505afa158015610415573d6000803e3d6000fd5b505050506040513d601f19601f82011682018060405250810190610439919061187a565b6101208301516040516370a0823160e01b8152919c506001600160a01b0316906370a082319061046d908f906004016118e3565b60206040518083038186803b15801561048557600080fd5b505afa158015610499573d6000803e3d6000fd5b505050506040513d601f19601f820116820180604052508101906104bd919061187a565b6101008301516040516370a0823160e01b8152919a506001600160a01b0316906370a08231906104f1908f906004016118e3565b60206040518083038186803b15801561050957600080fd5b505afa15801561051d573d6000803e3d6000fd5b505050506040513d601f19601f82011682018060405250810190610541919061187a565b61010083015160405163631a6fd560e11b8152919b506001600160a01b03169063c634dfaa90610575908f906004016118e3565b60206040518083038186803b15801561058d57600080fd5b505afa1580156105a1573d6000803e3d6000fd5b505050506040513d601f19601f820116820180604052508101906105c5919061187a565b610120830151604051630ed1279f60e11b81529199506001600160a01b031690631da24f3e906105f9908f906004016118e3565b60206040518083038186803b15801561061157600080fd5b505afa158015610625573d6000803e3d6000fd5b505050506040513d601f19601f82011682018060405250810190610649919061187a565b965081606001516001600160801b031694508161010001516001600160a01b031663e78c9b3b8d6040518263ffffffff1660e01b815260040161068c91906118e3565b60206040518083038186803b1580156106a457600080fd5b505afa1580156106b8573d6000803e3d6000fd5b505050506040513d601f19601f820116820180604052508101906106dc919061187a565b610100830151604051631e739ae360e21b81529197506001600160a01b0316906379ce6b8c90610710908f906004016118e3565b60206040518083038186803b15801561072857600080fd5b505afa15801561073c573d6000803e3d6000fd5b505050506040513d601f19601f820116820180604052508101906107609190611892565b935061077d82610160015160ff16826113ea90919063ffffffff16565b925050509295985092959850929598565b6000806000806000806000806000806107a56114b3565b7f00000000000000000000000000000000000000000000000000000000000000006001600160a01b0316630261bf8b6040518163ffffffff1660e01b815260040160206040518083038186803b1580156107fe57600080fd5b505afa158015610812573d6000803e3d6000fd5b505050506040513d601f19601f8201168201806040525081019061083691906115d9565b6001600160a01b03166335ea6a758d6040518263ffffffff1660e01b815260040161086191906118e3565b6101806040518083038186803b15801561087a57600080fd5b505afa15801561088e573d6000803e3d6000fd5b505050506040513d601f19601f820116820180604052508101906108b2919061177f565b60e08101516040516370a0823160e01b81529192506001600160a01b038e16916370a08231916108e4916004016118e3565b60206040518083038186803b1580156108fc57600080fd5b505afa158015610910573d6000803e3d6000fd5b505050506040513d601f19601f82011682018060405250810190610934919061187a565b8161010001516001600160a01b03166318160ddd6040518163ffffffff1660e01b815260040160206040518083038186803b15801561097257600080fd5b505afa158015610986573d6000803e3d6000fd5b505050506040513d601f19601f820116820180604052508101906109aa919061187a565b8261012001516001600160a01b03166318160ddd6040518163ffffffff1660e01b815260040160206040518083038186803b1580156109e857600080fd5b505afa1580156109fc573d6000803e3d6000fd5b505050506040513d601f19601f82011682018060405250810190610a20919061187a565b836060015184608001518560a001518661010001516001600160a01b03166390f6fcf26040518163ffffffff1660e01b815260040160206040518083038186803b158015610a6d57600080fd5b505afa158015610a81573d6000803e3d6000fd5b505050506040513d601f19601f82011682018060405250810190610aa5919061187a565b876020015188604001518960c00151866001600160801b03169650856001600160801b03169550846001600160801b03169450826001600160801b03169250816001600160801b031691509a509a509a509a509a509a509a509a509a509a50509193959799509193959799565b600080600080600080600080600080610b2961151e565b7f00000000000000000000000000000000000000000000000000000000000000006001600160a01b0316630261bf8b6040518163ffffffff1660e01b815260040160206040518083038186803b158015610b8257600080fd5b505afa158015610b96573d6000803e3d6000fd5b505050506040513d601f19601f82011682018060405250810190610bba91906115d9565b6001600160a01b031663c44b11f78d6040518263ffffffff1660e01b8152600401610be591906118e3565b60206040518083038186803b158015610bfd57600080fd5b505afa158015610c11573d6000803e3d6000fd5b505050506040513d601f19601f82011682018060405250810190610c359190611764565b9050610c408161144c565b909e50929c50909a5098509650610c5681611477565b9d9f9c9e509a9c999b989a8d15159a9099909850919650945092505050565b606060007f00000000000000000000000000000000000000000000000000000000000000006001600160a01b0316630261bf8b6040518163ffffffff1660e01b815260040160206040518083038186803b158015610cd257600080fd5b505afa158015610ce6573d6000803e3d6000fd5b505050506040513d601f19601f82011682018060405250810190610d0a91906115d9565b90506060816001600160a01b031663d1946dbc6040518163ffffffff1660e01b815260040160006040518083038186803b158015610d4757600080fd5b505afa158015610d5b573d6000803e3d6000fd5b505050506040513d6000823e601f3d908101601f19168201604052610d83919081019061162d565b90506060815167ffffffffffffffff81118015610d9f57600080fd5b50604051908082528060200260200182016040528015610dd957816020015b610dc6611531565b815260200190600190039081610dbe5790505b50905060005b8251811015610fe257739f8f72aa9304c8b593d555f12ef6589cc3a579a26001600160a01b0316838281518110610e1257fe5b60200260200101516001600160a01b03161415610e915760405180604001604052806040518060400160405280600381526020016226a5a960e91b8152508152602001848381518110610e6157fe5b60200260200101516001600160a01b0316815250828281518110610e8157fe5b6020026020010181905250610fda565b73eeeeeeeeeeeeeeeeeeeeeeeeeeeeeeeeeeeeeeee6001600160a01b0316838281518110610ebb57fe5b60200260200101516001600160a01b03161415610f0a5760405180604001604052806040518060400160405280600381526020016208aa8960eb1b8152508152602001848381518110610e6157fe5b6040518060400160405280848381518110610f2157fe5b60200260200101516001600160a01b03166395d89b416040518163ffffffff1660e01b815260040160006040518083038186803b158015610f6157600080fd5b505afa158015610f75573d6000803e3d6000fd5b505050506040513d6000823e601f3d908101601f19168201604052610f9d91908101906116d8565b8152602001848381518110610fae57fe5b60200260200101516001600160a01b0316815250828281518110610fce57fe5b60200260200101819052505b600101610ddf565b509250505090565b6000806000610ff76114b3565b7f00000000000000000000000000000000000000000000000000000000000000006001600160a01b0316630261bf8b6040518163ffffffff1660e01b815260040160206040518083038186803b15801561105057600080fd5b505afa158015611064573d6000803e3d6000fd5b505050506040513d601f19601f8201168201806040525081019061108891906115d9565b6001600160a01b03166335ea6a75866040518263ffffffff1660e01b81526004016110b391906118e3565b6101806040518083038186803b1580156110cc57600080fd5b505afa1580156110e0573d6000803e3d6000fd5b505050506040513d601f19601f82011682018060405250810190611104919061177f565b60e0810151610100820151610120909201519097919650945092505050565b606060007f00000000000000000000000000000000000000000000000000000000000000006001600160a01b0316630261bf8b6040518163ffffffff1660e01b815260040160206040518083038186803b15801561118057600080fd5b505afa158015611194573d6000803e3d6000fd5b505050506040513d601f19601f820116820180604052508101906111b891906115d9565b90506060816001600160a01b031663d1946dbc6040518163ffffffff1660e01b815260040160006040518083038186803b1580156111f557600080fd5b505afa158015611209573d6000803e3d6000fd5b505050506040513d6000823e601f3d908101601f19168201604052611231919081019061162d565b90506060815167ffffffffffffffff8111801561124d57600080fd5b5060405190808252806020026020018201604052801561128757816020015b611274611531565b81526020019060019003908161126c5790505b50905060005b8251811015610fe25761129e6114b3565b846001600160a01b03166335ea6a758584815181106112b957fe5b60200260200101516040518263ffffffff1660e01b81526004016112dd91906118e3565b6101806040518083038186803b1580156112f657600080fd5b505afa15801561130a573d6000803e3d6000fd5b505050506040513d601f19601f8201168201806040525081019061132e919061177f565b905060405180604001604052808260e001516001600160a01b03166395d89b416040518163ffffffff1660e01b815260040160006040518083038186803b15801561137857600080fd5b505afa15801561138c573d6000803e3d6000fd5b505050506040513d6000823e601f3d908101601f191682016040526113b491908101906116d8565b81526020018260e001516001600160a01b03168152508383815181106113d657fe5b60209081029190910101525060010161128d565b60006080821060405180604001604052806002815260200161373760f01b815250906114325760405162461bcd60e51b81526004016114299190611996565b60405180910390fd5b5050815160016002830281019190911c1615155b92915050565b5161ffff80821692601083901c821692602081901c831692603082901c60ff169260409290921c1690565b51670100000000000000811615159167020000000000000082161515916704000000000000008116151591670800000000000000909116151590565b6040518061018001604052806114c761151e565b815260006020820181905260408201819052606082018190526080820181905260a0820181905260c0820181905260e082018190526101008201819052610120820181905261014082018190526101609091015290565b6040518060200160405280600081525090565b60408051808201909152606081526000602082015290565b805161144681611ae3565b600060208284031215611565578081fd5b61156f6020611a8c565b9151825250919050565b80516001600160801b038116811461144657600080fd5b805164ffffffffff8116811461144657600080fd5b805160ff8116811461144657600080fd5b6000602082840312156115c7578081fd5b81356115d281611ae3565b9392505050565b6000602082840312156115ea578081fd5b81516115d281611ae3565b60008060408385031215611607578081fd5b823561161281611ae3565b9150602083013561162281611ae3565b809150509250929050565b6000602080838503121561163f578182fd5b825167ffffffffffffffff80821115611656578384fd5b818501915085601f830112611669578384fd5b815181811115611677578485fd5b8381029150611687848301611a8c565b8181528481019084860184860187018a10156116a1578788fd5b8795505b838610156116cb576116b78a82611549565b8352600195909501949186019186016116a5565b5098975050505050505050565b6000602082840312156116e9578081fd5b815167ffffffffffffffff80821115611700578283fd5b818401915084601f830112611713578283fd5b815181811115611721578384fd5b611734601f8201601f1916602001611a8c565b915080825285602082850101111561174a578384fd5b61175b816020840160208601611ab3565b50949350505050565b600060208284031215611775578081fd5b6115d28383611554565b6000610180808385031215611792578182fd5b61179b81611a8c565b90506117a78484611554565b81526117b68460208501611579565b60208201526117c88460408501611579565b60408201526117da8460608501611579565b60608201526117ec8460808501611579565b60808201526117fe8460a08501611579565b60a08201526118108460c08501611590565b60c08201526118228460e08501611549565b60e082015261010061183685828601611549565b9082015261012061184985858301611549565b9082015261014061185c85858301611549565b9082015261016061186f858583016115a5565b908201529392505050565b60006020828403121561188b578081fd5b5051919050565b6000602082840312156118a3578081fd5b815164ffffffffff811681146115d2578182fd5b600081518084526118cf816020860160208601611ab3565b601f01601f19169290920160200192915050565b6001600160a01b0391909116815260200190565b6001600160a01b0393841681529183166020830152909116604082015260600190565b60208082528251828201819052600091906040908185019080840286018301878501865b8381101561198857888303603f1901855281518051878552611962888601826118b7565b918901516001600160a01b0316948901949094529487019492509086019060010161193e565b509098975050505050505050565b6000602082526115d260208301846118b7565b998a5260208a0198909852604089019690965260608801949094526080870192909252151560a0860152151560c0850152151560e0840152151561010083015215156101208201526101400190565b998a5260208a019890985260408901969096526060880194909452608087019290925260a086015260c085015260e084015261010083015264ffffffffff166101208201526101400190565b988952602089019790975260408801959095526060870193909352608086019190915260a085015260c084015264ffffffffff1660e083015215156101008201526101200190565b60405181810167ffffffffffffffff81118282101715611aab57600080fd5b604052919050565b60005b83811015611ace578181015183820152602001611ab6565b83811115611add576000848401525b50505050565b6001600160a01b0381168114611af857600080fd5b5056fea26469706673582212201c41a7f0b425c2516185ae19276b7de92f31cae32ce71565f04a7e42a544e50f64736f6c634300060c0033",
					"opcodes": "PUSH1 0xA0 PUSH1 0x40 MSTORE CALLVALUE DUP1 ISZERO PUSH2 0x10 JUMPI PUSH1 0x0 DUP1 REVERT JUMPDEST POP PUSH1 0x40 MLOAD PUSH2 0x1BE3 CODESIZE SUB DUP1 PUSH2 0x1BE3 DUP4 CODECOPY DUP2 ADD PUSH1 0x40 DUP2 SWAP1 MSTORE PUSH2 0x2F SWAP2 PUSH2 0x44 JUMP JUMPDEST PUSH1 0x60 SHL PUSH1 0x1 PUSH1 0x1 PUSH1 0x60 SHL SUB NOT AND PUSH1 0x80 MSTORE PUSH2 0x72 JUMP JUMPDEST PUSH1 0x0 PUSH1 0x20 DUP3 DUP5 SUB SLT ISZERO PUSH2 0x55 JUMPI DUP1 DUP2 REVERT JUMPDEST DUP2 MLOAD PUSH1 0x1 PUSH1 0x1 PUSH1 0xA0 SHL SUB DUP2 AND DUP2 EQ PUSH2 0x6B JUMPI DUP2 DUP3 REVERT JUMPDEST SWAP4 SWAP3 POP POP POP JUMP JUMPDEST PUSH1 0x80 MLOAD PUSH1 0x60 SHR PUSH2 0x1B31 PUSH2 0xB2 PUSH1 0x0 CODECOPY DUP1 PUSH2 0x15B MSTORE DUP1 PUSH2 0x195 MSTORE DUP1 PUSH2 0x2AC MSTORE DUP1 PUSH2 0x7A7 MSTORE DUP1 PUSH2 0xB2B MSTORE DUP1 PUSH2 0xC7B MSTORE DUP1 PUSH2 0xFF9 MSTORE DUP1 PUSH2 0x1129 MSTORE POP PUSH2 0x1B31 PUSH1 0x0 RETURN INVALID PUSH1 0x80 PUSH1 0x40 MSTORE CALLVALUE DUP1 ISZERO PUSH2 0x10 JUMPI PUSH1 0x0 DUP1 REVERT JUMPDEST POP PUSH1 0x4 CALLDATASIZE LT PUSH2 0x7D JUMPI PUSH1 0x0 CALLDATALOAD PUSH1 0xE0 SHR DUP1 PUSH4 0x3E150141 GT PUSH2 0x5B JUMPI DUP1 PUSH4 0x3E150141 EQ PUSH2 0xF1 JUMPI DUP1 PUSH4 0xB316FF89 EQ PUSH2 0x11A JUMPI DUP1 PUSH4 0xD2493B6C EQ PUSH2 0x12F JUMPI DUP1 PUSH4 0xF561AE41 EQ PUSH2 0x151 JUMPI PUSH2 0x7D JUMP JUMPDEST DUP1 PUSH4 0x542975C EQ PUSH2 0x82 JUMPI DUP1 PUSH4 0x28DD2D01 EQ PUSH2 0xA0 JUMPI DUP1 PUSH4 0x35EA6A75 EQ PUSH2 0xC8 JUMPI JUMPDEST PUSH1 0x0 DUP1 REVERT JUMPDEST PUSH2 0x8A PUSH2 0x159 JUMP JUMPDEST PUSH1 0x40 MLOAD PUSH2 0x97 SWAP2 SWAP1 PUSH2 0x18E3 JUMP JUMPDEST PUSH1 0x40 MLOAD DUP1 SWAP2 SUB SWAP1 RETURN JUMPDEST PUSH2 0xB3 PUSH2 0xAE CALLDATASIZE PUSH1 0x4 PUSH2 0x15F5 JUMP JUMPDEST PUSH2 0x17D JUMP JUMPDEST PUSH1 0x40 MLOAD PUSH2 0x97 SWAP10 SWAP9 SWAP8 SWAP7 SWAP6 SWAP5 SWAP4 SWAP3 SWAP2 SWAP1 PUSH2 0x1A44 JUMP JUMPDEST PUSH2 0xDB PUSH2 0xD6 CALLDATASIZE PUSH1 0x4 PUSH2 0x15B6 JUMP JUMPDEST PUSH2 0x78E JUMP JUMPDEST PUSH1 0x40 MLOAD PUSH2 0x97 SWAP11 SWAP10 SWAP9 SWAP8 SWAP7 SWAP6 SWAP5 SWAP4 SWAP3 SWAP2 SWAP1 PUSH2 0x19F8 JUMP JUMPDEST PUSH2 0x104 PUSH2 0xFF CALLDATASIZE PUSH1 0x4 PUSH2 0x15B6 JUMP JUMPDEST PUSH2 0xB12 JUMP JUMPDEST PUSH1 0x40 MLOAD PUSH2 0x97 SWAP11 SWAP10 SWAP9 SWAP8 SWAP7 SWAP6 SWAP5 SWAP4 SWAP3 SWAP2 SWAP1 PUSH2 0x19A9 JUMP JUMPDEST PUSH2 0x122 PUSH2 0xC75 JUMP JUMPDEST PUSH1 0x40 MLOAD PUSH2 0x97 SWAP2 SWAP1 PUSH2 0x191A JUMP JUMPDEST PUSH2 0x142 PUSH2 0x13D CALLDATASIZE PUSH1 0x4 PUSH2 0x15B6 JUMP JUMPDEST PUSH2 0xFEA JUMP JUMPDEST PUSH1 0x40 MLOAD PUSH2 0x97 SWAP4 SWAP3 SWAP2 SWAP1 PUSH2 0x18F7 JUMP JUMPDEST PUSH2 0x122 PUSH2 0x1123 JUMP JUMPDEST PUSH32 0x0 DUP2 JUMP JUMPDEST PUSH1 0x0 DUP1 PUSH1 0x0 DUP1 PUSH1 0x0 DUP1 PUSH1 0x0 DUP1 PUSH1 0x0 PUSH2 0x193 PUSH2 0x14B3 JUMP JUMPDEST PUSH32 0x0 PUSH1 0x1 PUSH1 0x1 PUSH1 0xA0 SHL SUB AND PUSH4 0x261BF8B PUSH1 0x40 MLOAD DUP2 PUSH4 0xFFFFFFFF AND PUSH1 0xE0 SHL DUP2 MSTORE PUSH1 0x4 ADD PUSH1 0x20 PUSH1 0x40 MLOAD DUP1 DUP4 SUB DUP2 DUP7 DUP1 EXTCODESIZE ISZERO DUP1 ISZERO PUSH2 0x1EC JUMPI PUSH1 0x0 DUP1 REVERT JUMPDEST POP GAS STATICCALL ISZERO DUP1 ISZERO PUSH2 0x200 JUMPI RETURNDATASIZE PUSH1 0x0 DUP1 RETURNDATACOPY RETURNDATASIZE PUSH1 0x0 REVERT JUMPDEST POP POP POP POP PUSH1 0x40 MLOAD RETURNDATASIZE PUSH1 0x1F NOT PUSH1 0x1F DUP3 ADD AND DUP3 ADD DUP1 PUSH1 0x40 MSTORE POP DUP2 ADD SWAP1 PUSH2 0x224 SWAP2 SWAP1 PUSH2 0x15D9 JUMP JUMPDEST PUSH1 0x1 PUSH1 0x1 PUSH1 0xA0 SHL SUB AND PUSH4 0x35EA6A75 DUP14 PUSH1 0x40 MLOAD DUP3 PUSH4 0xFFFFFFFF AND PUSH1 0xE0 SHL DUP2 MSTORE PUSH1 0x4 ADD PUSH2 0x24F SWAP2 SWAP1 PUSH2 0x18E3 JUMP JUMPDEST PUSH2 0x180 PUSH1 0x40 MLOAD DUP1 DUP4 SUB DUP2 DUP7 DUP1 EXTCODESIZE ISZERO DUP1 ISZERO PUSH2 0x268 JUMPI PUSH1 0x0 DUP1 REVERT JUMPDEST POP GAS STATICCALL ISZERO DUP1 ISZERO PUSH2 0x27C JUMPI RETURNDATASIZE PUSH1 0x0 DUP1 RETURNDATACOPY RETURNDATASIZE PUSH1 0x0 REVERT JUMPDEST POP POP POP POP PUSH1 0x40 MLOAD RETURNDATASIZE PUSH1 0x1F NOT PUSH1 0x1F DUP3 ADD AND DUP3 ADD DUP1 PUSH1 0x40 MSTORE POP DUP2 ADD SWAP1 PUSH2 0x2A0 SWAP2 SWAP1 PUSH2 0x177F JUMP JUMPDEST SWAP1 POP PUSH2 0x2AA PUSH2 0x151E JUMP JUMPDEST PUSH32 0x0 PUSH1 0x1 PUSH1 0x1 PUSH1 0xA0 SHL SUB AND PUSH4 0x261BF8B PUSH1 0x40 MLOAD DUP2 PUSH4 0xFFFFFFFF AND PUSH1 0xE0 SHL DUP2 MSTORE PUSH1 0x4 ADD PUSH1 0x20 PUSH1 0x40 MLOAD DUP1 DUP4 SUB DUP2 DUP7 DUP1 EXTCODESIZE ISZERO DUP1 ISZERO PUSH2 0x303 JUMPI PUSH1 0x0 DUP1 REVERT JUMPDEST POP GAS STATICCALL ISZERO DUP1 ISZERO PUSH2 0x317 JUMPI RETURNDATASIZE PUSH1 0x0 DUP1 RETURNDATACOPY RETURNDATASIZE PUSH1 0x0 REVERT JUMPDEST POP POP POP POP PUSH1 0x40 MLOAD RETURNDATASIZE PUSH1 0x1F NOT PUSH1 0x1F DUP3 ADD AND DUP3 ADD DUP1 PUSH1 0x40 MSTORE POP DUP2 ADD SWAP1 PUSH2 0x33B SWAP2 SWAP1 PUSH2 0x15D9 JUMP JUMPDEST PUSH1 0x1 PUSH1 0x1 PUSH1 0xA0 SHL SUB AND PUSH4 0x4417A583 DUP14 PUSH1 0x40 MLOAD DUP3 PUSH4 0xFFFFFFFF AND PUSH1 0xE0 SHL DUP2 MSTORE PUSH1 0x4 ADD PUSH2 0x366 SWAP2 SWAP1 PUSH2 0x18E3 JUMP JUMPDEST PUSH1 0x20 PUSH1 0x40 MLOAD DUP1 DUP4 SUB DUP2 DUP7 DUP1 EXTCODESIZE ISZERO DUP1 ISZERO PUSH2 0x37E JUMPI PUSH1 0x0 DUP1 REVERT JUMPDEST POP GAS STATICCALL ISZERO DUP1 ISZERO PUSH2 0x392 JUMPI RETURNDATASIZE PUSH1 0x0 DUP1 RETURNDATACOPY RETURNDATASIZE PUSH1 0x0 REVERT JUMPDEST POP POP POP POP PUSH1 0x40 MLOAD RETURNDATASIZE PUSH1 0x1F NOT PUSH1 0x1F DUP3 ADD AND DUP3 ADD DUP1 PUSH1 0x40 MSTORE POP DUP2 ADD SWAP1 PUSH2 0x3B6 SWAP2 SWAP1 PUSH2 0x1764 JUMP JUMPDEST PUSH1 0xE0 DUP4 ADD MLOAD PUSH1 0x40 MLOAD PUSH4 0x70A08231 PUSH1 0xE0 SHL DUP2 MSTORE SWAP2 SWAP3 POP PUSH1 0x1 PUSH1 0x1 PUSH1 0xA0 SHL SUB AND SWAP1 PUSH4 0x70A08231 SWAP1 PUSH2 0x3E9 SWAP1 DUP16 SWAP1 PUSH1 0x4 ADD PUSH2 0x18E3 JUMP JUMPDEST PUSH1 0x20 PUSH1 0x40 MLOAD DUP1 DUP4 SUB DUP2 DUP7 DUP1 EXTCODESIZE ISZERO DUP1 ISZERO PUSH2 0x401 JUMPI PUSH1 0x0 DUP1 REVERT JUMPDEST POP GAS STATICCALL ISZERO DUP1 ISZERO PUSH2 0x415 JUMPI RETURNDATASIZE PUSH1 0x0 DUP1 RETURNDATACOPY RETURNDATASIZE PUSH1 0x0 REVERT JUMPDEST POP POP POP POP PUSH1 0x40 MLOAD RETURNDATASIZE PUSH1 0x1F NOT PUSH1 0x1F DUP3 ADD AND DUP3 ADD DUP1 PUSH1 0x40 MSTORE POP DUP2 ADD SWAP1 PUSH2 0x439 SWAP2 SWAP1 PUSH2 0x187A JUMP JUMPDEST PUSH2 0x120 DUP4 ADD MLOAD PUSH1 0x40 MLOAD PUSH4 0x70A08231 PUSH1 0xE0 SHL DUP2 MSTORE SWAP2 SWAP13 POP PUSH1 0x1 PUSH1 0x1 PUSH1 0xA0 SHL SUB AND SWAP1 PUSH4 0x70A08231 SWAP1 PUSH2 0x46D SWAP1 DUP16 SWAP1 PUSH1 0x4 ADD PUSH2 0x18E3 JUMP JUMPDEST PUSH1 0x20 PUSH1 0x40 MLOAD DUP1 DUP4 SUB DUP2 DUP7 DUP1 EXTCODESIZE ISZERO DUP1 ISZERO PUSH2 0x485 JUMPI PUSH1 0x0 DUP1 REVERT JUMPDEST POP GAS STATICCALL ISZERO DUP1 ISZERO PUSH2 0x499 JUMPI RETURNDATASIZE PUSH1 0x0 DUP1 RETURNDATACOPY RETURNDATASIZE PUSH1 0x0 REVERT JUMPDEST POP POP POP POP PUSH1 0x40 MLOAD RETURNDATASIZE PUSH1 0x1F NOT PUSH1 0x1F DUP3 ADD AND DUP3 ADD DUP1 PUSH1 0x40 MSTORE POP DUP2 ADD SWAP1 PUSH2 0x4BD SWAP2 SWAP1 PUSH2 0x187A JUMP JUMPDEST PUSH2 0x100 DUP4 ADD MLOAD PUSH1 0x40 MLOAD PUSH4 0x70A08231 PUSH1 0xE0 SHL DUP2 MSTORE SWAP2 SWAP11 POP PUSH1 0x1 PUSH1 0x1 PUSH1 0xA0 SHL SUB AND SWAP1 PUSH4 0x70A08231 SWAP1 PUSH2 0x4F1 SWAP1 DUP16 SWAP1 PUSH1 0x4 ADD PUSH2 0x18E3 JUMP JUMPDEST PUSH1 0x20 PUSH1 0x40 MLOAD DUP1 DUP4 SUB DUP2 DUP7 DUP1 EXTCODESIZE ISZERO DUP1 ISZERO PUSH2 0x509 JUMPI PUSH1 0x0 DUP1 REVERT JUMPDEST POP GAS STATICCALL ISZERO DUP1 ISZERO PUSH2 0x51D JUMPI RETURNDATASIZE PUSH1 0x0 DUP1 RETURNDATACOPY RETURNDATASIZE PUSH1 0x0 REVERT JUMPDEST POP POP POP POP PUSH1 0x40 MLOAD RETURNDATASIZE PUSH1 0x1F NOT PUSH1 0x1F DUP3 ADD AND DUP3 ADD DUP1 PUSH1 0x40 MSTORE POP DUP2 ADD SWAP1 PUSH2 0x541 SWAP2 SWAP1 PUSH2 0x187A JUMP JUMPDEST PUSH2 0x100 DUP4 ADD MLOAD PUSH1 0x40 MLOAD PUSH4 0x631A6FD5 PUSH1 0xE1 SHL DUP2 MSTORE SWAP2 SWAP12 POP PUSH1 0x1 PUSH1 0x1 PUSH1 0xA0 SHL SUB AND SWAP1 PUSH4 0xC634DFAA SWAP1 PUSH2 0x575 SWAP1 DUP16 SWAP1 PUSH1 0x4 ADD PUSH2 0x18E3 JUMP JUMPDEST PUSH1 0x20 PUSH1 0x40 MLOAD DUP1 DUP4 SUB DUP2 DUP7 DUP1 EXTCODESIZE ISZERO DUP1 ISZERO PUSH2 0x58D JUMPI PUSH1 0x0 DUP1 REVERT JUMPDEST POP GAS STATICCALL ISZERO DUP1 ISZERO PUSH2 0x5A1 JUMPI RETURNDATASIZE PUSH1 0x0 DUP1 RETURNDATACOPY RETURNDATASIZE PUSH1 0x0 REVERT JUMPDEST POP POP POP POP PUSH1 0x40 MLOAD RETURNDATASIZE PUSH1 0x1F NOT PUSH1 0x1F DUP3 ADD AND DUP3 ADD DUP1 PUSH1 0x40 MSTORE POP DUP2 ADD SWAP1 PUSH2 0x5C5 SWAP2 SWAP1 PUSH2 0x187A JUMP JUMPDEST PUSH2 0x120 DUP4 ADD MLOAD PUSH1 0x40 MLOAD PUSH4 0xED1279F PUSH1 0xE1 SHL DUP2 MSTORE SWAP2 SWAP10 POP PUSH1 0x1 PUSH1 0x1 PUSH1 0xA0 SHL SUB AND SWAP1 PUSH4 0x1DA24F3E SWAP1 PUSH2 0x5F9 SWAP1 DUP16 SWAP1 PUSH1 0x4 ADD PUSH2 0x18E3 JUMP JUMPDEST PUSH1 0x20 PUSH1 0x40 MLOAD DUP1 DUP4 SUB DUP2 DUP7 DUP1 EXTCODESIZE ISZERO DUP1 ISZERO PUSH2 0x611 JUMPI PUSH1 0x0 DUP1 REVERT JUMPDEST POP GAS STATICCALL ISZERO DUP1 ISZERO PUSH2 0x625 JUMPI RETURNDATASIZE PUSH1 0x0 DUP1 RETURNDATACOPY RETURNDATASIZE PUSH1 0x0 REVERT JUMPDEST POP POP POP POP PUSH1 0x40 MLOAD RETURNDATASIZE PUSH1 0x1F NOT PUSH1 0x1F DUP3 ADD AND DUP3 ADD DUP1 PUSH1 0x40 MSTORE POP DUP2 ADD SWAP1 PUSH2 0x649 SWAP2 SWAP1 PUSH2 0x187A JUMP JUMPDEST SWAP7 POP DUP2 PUSH1 0x60 ADD MLOAD PUSH1 0x1 PUSH1 0x1 PUSH1 0x80 SHL SUB AND SWAP5 POP DUP2 PUSH2 0x100 ADD MLOAD PUSH1 0x1 PUSH1 0x1 PUSH1 0xA0 SHL SUB AND PUSH4 0xE78C9B3B DUP14 PUSH1 0x40 MLOAD DUP3 PUSH4 0xFFFFFFFF AND PUSH1 0xE0 SHL DUP2 MSTORE PUSH1 0x4 ADD PUSH2 0x68C SWAP2 SWAP1 PUSH2 0x18E3 JUMP JUMPDEST PUSH1 0x20 PUSH1 0x40 MLOAD DUP1 DUP4 SUB DUP2 DUP7 DUP1 EXTCODESIZE ISZERO DUP1 ISZERO PUSH2 0x6A4 JUMPI PUSH1 0x0 DUP1 REVERT JUMPDEST POP GAS STATICCALL ISZERO DUP1 ISZERO PUSH2 0x6B8 JUMPI RETURNDATASIZE PUSH1 0x0 DUP1 RETURNDATACOPY RETURNDATASIZE PUSH1 0x0 REVERT JUMPDEST POP POP POP POP PUSH1 0x40 MLOAD RETURNDATASIZE PUSH1 0x1F NOT PUSH1 0x1F DUP3 ADD AND DUP3 ADD DUP1 PUSH1 0x40 MSTORE POP DUP2 ADD SWAP1 PUSH2 0x6DC SWAP2 SWAP1 PUSH2 0x187A JUMP JUMPDEST PUSH2 0x100 DUP4 ADD MLOAD PUSH1 0x40 MLOAD PUSH4 0x1E739AE3 PUSH1 0xE2 SHL DUP2 MSTORE SWAP2 SWAP8 POP PUSH1 0x1 PUSH1 0x1 PUSH1 0xA0 SHL SUB AND SWAP1 PUSH4 0x79CE6B8C SWAP1 PUSH2 0x710 SWAP1 DUP16 SWAP1 PUSH1 0x4 ADD PUSH2 0x18E3 JUMP JUMPDEST PUSH1 0x20 PUSH1 0x40 MLOAD DUP1 DUP4 SUB DUP2 DUP7 DUP1 EXTCODESIZE ISZERO DUP1 ISZERO PUSH2 0x728 JUMPI PUSH1 0x0 DUP1 REVERT JUMPDEST POP GAS STATICCALL ISZERO DUP1 ISZERO PUSH2 0x73C JUMPI RETURNDATASIZE PUSH1 0x0 DUP1 RETURNDATACOPY RETURNDATASIZE PUSH1 0x0 REVERT JUMPDEST POP POP POP POP PUSH1 0x40 MLOAD RETURNDATASIZE PUSH1 0x1F NOT PUSH1 0x1F DUP3 ADD AND DUP3 ADD DUP1 PUSH1 0x40 MSTORE POP DUP2 ADD SWAP1 PUSH2 0x760 SWAP2 SWAP1 PUSH2 0x1892 JUMP JUMPDEST SWAP4 POP PUSH2 0x77D DUP3 PUSH2 0x160 ADD MLOAD PUSH1 0xFF AND DUP3 PUSH2 0x13EA SWAP1 SWAP2 SWAP1 PUSH4 0xFFFFFFFF AND JUMP JUMPDEST SWAP3 POP POP POP SWAP3 SWAP6 SWAP9 POP SWAP3 SWAP6 SWAP9 POP SWAP3 SWAP6 SWAP9 JUMP JUMPDEST PUSH1 0x0 DUP1 PUSH1 0x0 DUP1 PUSH1 0x0 DUP1 PUSH1 0x0 DUP1 PUSH1 0x0 DUP1 PUSH2 0x7A5 PUSH2 0x14B3 JUMP JUMPDEST PUSH32 0x0 PUSH1 0x1 PUSH1 0x1 PUSH1 0xA0 SHL SUB AND PUSH4 0x261BF8B PUSH1 0x40 MLOAD DUP2 PUSH4 0xFFFFFFFF AND PUSH1 0xE0 SHL DUP2 MSTORE PUSH1 0x4 ADD PUSH1 0x20 PUSH1 0x40 MLOAD DUP1 DUP4 SUB DUP2 DUP7 DUP1 EXTCODESIZE ISZERO DUP1 ISZERO PUSH2 0x7FE JUMPI PUSH1 0x0 DUP1 REVERT JUMPDEST POP GAS STATICCALL ISZERO DUP1 ISZERO PUSH2 0x812 JUMPI RETURNDATASIZE PUSH1 0x0 DUP1 RETURNDATACOPY RETURNDATASIZE PUSH1 0x0 REVERT JUMPDEST POP POP POP POP PUSH1 0x40 MLOAD RETURNDATASIZE PUSH1 0x1F NOT PUSH1 0x1F DUP3 ADD AND DUP3 ADD DUP1 PUSH1 0x40 MSTORE POP DUP2 ADD SWAP1 PUSH2 0x836 SWAP2 SWAP1 PUSH2 0x15D9 JUMP JUMPDEST PUSH1 0x1 PUSH1 0x1 PUSH1 0xA0 SHL SUB AND PUSH4 0x35EA6A75 DUP14 PUSH1 0x40 MLOAD DUP3 PUSH4 0xFFFFFFFF AND PUSH1 0xE0 SHL DUP2 MSTORE PUSH1 0x4 ADD PUSH2 0x861 SWAP2 SWAP1 PUSH2 0x18E3 JUMP JUMPDEST PUSH2 0x180 PUSH1 0x40 MLOAD DUP1 DUP4 SUB DUP2 DUP7 DUP1 EXTCODESIZE ISZERO DUP1 ISZERO PUSH2 0x87A JUMPI PUSH1 0x0 DUP1 REVERT JUMPDEST POP GAS STATICCALL ISZERO DUP1 ISZERO PUSH2 0x88E JUMPI RETURNDATASIZE PUSH1 0x0 DUP1 RETURNDATACOPY RETURNDATASIZE PUSH1 0x0 REVERT JUMPDEST POP POP POP POP PUSH1 0x40 MLOAD RETURNDATASIZE PUSH1 0x1F NOT PUSH1 0x1F DUP3 ADD AND DUP3 ADD DUP1 PUSH1 0x40 MSTORE POP DUP2 ADD SWAP1 PUSH2 0x8B2 SWAP2 SWAP1 PUSH2 0x177F JUMP JUMPDEST PUSH1 0xE0 DUP2 ADD MLOAD PUSH1 0x40 MLOAD PUSH4 0x70A08231 PUSH1 0xE0 SHL DUP2 MSTORE SWAP2 SWAP3 POP PUSH1 0x1 PUSH1 0x1 PUSH1 0xA0 SHL SUB DUP15 AND SWAP2 PUSH4 0x70A08231 SWAP2 PUSH2 0x8E4 SWAP2 PUSH1 0x4 ADD PUSH2 0x18E3 JUMP JUMPDEST PUSH1 0x20 PUSH1 0x40 MLOAD DUP1 DUP4 SUB DUP2 DUP7 DUP1 EXTCODESIZE ISZERO DUP1 ISZERO PUSH2 0x8FC JUMPI PUSH1 0x0 DUP1 REVERT JUMPDEST POP GAS STATICCALL ISZERO DUP1 ISZERO PUSH2 0x910 JUMPI RETURNDATASIZE PUSH1 0x0 DUP1 RETURNDATACOPY RETURNDATASIZE PUSH1 0x0 REVERT JUMPDEST POP POP POP POP PUSH1 0x40 MLOAD RETURNDATASIZE PUSH1 0x1F NOT PUSH1 0x1F DUP3 ADD AND DUP3 ADD DUP1 PUSH1 0x40 MSTORE POP DUP2 ADD SWAP1 PUSH2 0x934 SWAP2 SWAP1 PUSH2 0x187A JUMP JUMPDEST DUP2 PUSH2 0x100 ADD MLOAD PUSH1 0x1 PUSH1 0x1 PUSH1 0xA0 SHL SUB AND PUSH4 0x18160DDD PUSH1 0x40 MLOAD DUP2 PUSH4 0xFFFFFFFF AND PUSH1 0xE0 SHL DUP2 MSTORE PUSH1 0x4 ADD PUSH1 0x20 PUSH1 0x40 MLOAD DUP1 DUP4 SUB DUP2 DUP7 DUP1 EXTCODESIZE ISZERO DUP1 ISZERO PUSH2 0x972 JUMPI PUSH1 0x0 DUP1 REVERT JUMPDEST POP GAS STATICCALL ISZERO DUP1 ISZERO PUSH2 0x986 JUMPI RETURNDATASIZE PUSH1 0x0 DUP1 RETURNDATACOPY RETURNDATASIZE PUSH1 0x0 REVERT JUMPDEST POP POP POP POP PUSH1 0x40 MLOAD RETURNDATASIZE PUSH1 0x1F NOT PUSH1 0x1F DUP3 ADD AND DUP3 ADD DUP1 PUSH1 0x40 MSTORE POP DUP2 ADD SWAP1 PUSH2 0x9AA SWAP2 SWAP1 PUSH2 0x187A JUMP JUMPDEST DUP3 PUSH2 0x120 ADD MLOAD PUSH1 0x1 PUSH1 0x1 PUSH1 0xA0 SHL SUB AND PUSH4 0x18160DDD PUSH1 0x40 MLOAD DUP2 PUSH4 0xFFFFFFFF AND PUSH1 0xE0 SHL DUP2 MSTORE PUSH1 0x4 ADD PUSH1 0x20 PUSH1 0x40 MLOAD DUP1 DUP4 SUB DUP2 DUP7 DUP1 EXTCODESIZE ISZERO DUP1 ISZERO PUSH2 0x9E8 JUMPI PUSH1 0x0 DUP1 REVERT JUMPDEST POP GAS STATICCALL ISZERO DUP1 ISZERO PUSH2 0x9FC JUMPI RETURNDATASIZE PUSH1 0x0 DUP1 RETURNDATACOPY RETURNDATASIZE PUSH1 0x0 REVERT JUMPDEST POP POP POP POP PUSH1 0x40 MLOAD RETURNDATASIZE PUSH1 0x1F NOT PUSH1 0x1F DUP3 ADD AND DUP3 ADD DUP1 PUSH1 0x40 MSTORE POP DUP2 ADD SWAP1 PUSH2 0xA20 SWAP2 SWAP1 PUSH2 0x187A JUMP JUMPDEST DUP4 PUSH1 0x60 ADD MLOAD DUP5 PUSH1 0x80 ADD MLOAD DUP6 PUSH1 0xA0 ADD MLOAD DUP7 PUSH2 0x100 ADD MLOAD PUSH1 0x1 PUSH1 0x1 PUSH1 0xA0 SHL SUB AND PUSH4 0x90F6FCF2 PUSH1 0x40 MLOAD DUP2 PUSH4 0xFFFFFFFF AND PUSH1 0xE0 SHL DUP2 MSTORE PUSH1 0x4 ADD PUSH1 0x20 PUSH1 0x40 MLOAD DUP1 DUP4 SUB DUP2 DUP7 DUP1 EXTCODESIZE ISZERO DUP1 ISZERO PUSH2 0xA6D JUMPI PUSH1 0x0 DUP1 REVERT JUMPDEST POP GAS STATICCALL ISZERO DUP1 ISZERO PUSH2 0xA81 JUMPI RETURNDATASIZE PUSH1 0x0 DUP1 RETURNDATACOPY RETURNDATASIZE PUSH1 0x0 REVERT JUMPDEST POP POP POP POP PUSH1 0x40 MLOAD RETURNDATASIZE PUSH1 0x1F NOT PUSH1 0x1F DUP3 ADD AND DUP3 ADD DUP1 PUSH1 0x40 MSTORE POP DUP2 ADD SWAP1 PUSH2 0xAA5 SWAP2 SWAP1 PUSH2 0x187A JUMP JUMPDEST DUP8 PUSH1 0x20 ADD MLOAD DUP9 PUSH1 0x40 ADD MLOAD DUP10 PUSH1 0xC0 ADD MLOAD DUP7 PUSH1 0x1 PUSH1 0x1 PUSH1 0x80 SHL SUB AND SWAP7 POP DUP6 PUSH1 0x1 PUSH1 0x1 PUSH1 0x80 SHL SUB AND SWAP6 POP DUP5 PUSH1 0x1 PUSH1 0x1 PUSH1 0x80 SHL SUB AND SWAP5 POP DUP3 PUSH1 0x1 PUSH1 0x1 PUSH1 0x80 SHL SUB AND SWAP3 POP DUP2 PUSH1 0x1 PUSH1 0x1 PUSH1 0x80 SHL SUB AND SWAP2 POP SWAP11 POP SWAP11 POP SWAP11 POP SWAP11 POP SWAP11 POP SWAP11 POP SWAP11 POP SWAP11 POP SWAP11 POP SWAP11 POP POP SWAP2 SWAP4 SWAP6 SWAP8 SWAP10 POP SWAP2 SWAP4 SWAP6 SWAP8 SWAP10 JUMP JUMPDEST PUSH1 0x0 DUP1 PUSH1 0x0 DUP1 PUSH1 0x0 DUP1 PUSH1 0x0 DUP1 PUSH1 0x0 DUP1 PUSH2 0xB29 PUSH2 0x151E JUMP JUMPDEST PUSH32 0x0 PUSH1 0x1 PUSH1 0x1 PUSH1 0xA0 SHL SUB AND PUSH4 0x261BF8B PUSH1 0x40 MLOAD DUP2 PUSH4 0xFFFFFFFF AND PUSH1 0xE0 SHL DUP2 MSTORE PUSH1 0x4 ADD PUSH1 0x20 PUSH1 0x40 MLOAD DUP1 DUP4 SUB DUP2 DUP7 DUP1 EXTCODESIZE ISZERO DUP1 ISZERO PUSH2 0xB82 JUMPI PUSH1 0x0 DUP1 REVERT JUMPDEST POP GAS STATICCALL ISZERO DUP1 ISZERO PUSH2 0xB96 JUMPI RETURNDATASIZE PUSH1 0x0 DUP1 RETURNDATACOPY RETURNDATASIZE PUSH1 0x0 REVERT JUMPDEST POP POP POP POP PUSH1 0x40 MLOAD RETURNDATASIZE PUSH1 0x1F NOT PUSH1 0x1F DUP3 ADD AND DUP3 ADD DUP1 PUSH1 0x40 MSTORE POP DUP2 ADD SWAP1 PUSH2 0xBBA SWAP2 SWAP1 PUSH2 0x15D9 JUMP JUMPDEST PUSH1 0x1 PUSH1 0x1 PUSH1 0xA0 SHL SUB AND PUSH4 0xC44B11F7 DUP14 PUSH1 0x40 MLOAD DUP3 PUSH4 0xFFFFFFFF AND PUSH1 0xE0 SHL DUP2 MSTORE PUSH1 0x4 ADD PUSH2 0xBE5 SWAP2 SWAP1 PUSH2 0x18E3 JUMP JUMPDEST PUSH1 0x20 PUSH1 0x40 MLOAD DUP1 DUP4 SUB DUP2 DUP7 DUP1 EXTCODESIZE ISZERO DUP1 ISZERO PUSH2 0xBFD JUMPI PUSH1 0x0 DUP1 REVERT JUMPDEST POP GAS STATICCALL ISZERO DUP1 ISZERO PUSH2 0xC11 JUMPI RETURNDATASIZE PUSH1 0x0 DUP1 RETURNDATACOPY RETURNDATASIZE PUSH1 0x0 REVERT JUMPDEST POP POP POP POP PUSH1 0x40 MLOAD RETURNDATASIZE PUSH1 0x1F NOT PUSH1 0x1F DUP3 ADD AND DUP3 ADD DUP1 PUSH1 0x40 MSTORE POP DUP2 ADD SWAP1 PUSH2 0xC35 SWAP2 SWAP1 PUSH2 0x1764 JUMP JUMPDEST SWAP1 POP PUSH2 0xC40 DUP2 PUSH2 0x144C JUMP JUMPDEST SWAP1 SWAP15 POP SWAP3 SWAP13 POP SWAP1 SWAP11 POP SWAP9 POP SWAP7 POP PUSH2 0xC56 DUP2 PUSH2 0x1477 JUMP JUMPDEST SWAP14 SWAP16 SWAP13 SWAP15 POP SWAP11 SWAP13 SWAP10 SWAP12 SWAP9 SWAP11 DUP14 ISZERO ISZERO SWAP11 SWAP1 SWAP10 SWAP1 SWAP9 POP SWAP2 SWAP7 POP SWAP5 POP SWAP3 POP POP POP JUMP JUMPDEST PUSH1 0x60 PUSH1 0x0 PUSH32 0x0 PUSH1 0x1 PUSH1 0x1 PUSH1 0xA0 SHL SUB AND PUSH4 0x261BF8B PUSH1 0x40 MLOAD DUP2 PUSH4 0xFFFFFFFF AND PUSH1 0xE0 SHL DUP2 MSTORE PUSH1 0x4 ADD PUSH1 0x20 PUSH1 0x40 MLOAD DUP1 DUP4 SUB DUP2 DUP7 DUP1 EXTCODESIZE ISZERO DUP1 ISZERO PUSH2 0xCD2 JUMPI PUSH1 0x0 DUP1 REVERT JUMPDEST POP GAS STATICCALL ISZERO DUP1 ISZERO PUSH2 0xCE6 JUMPI RETURNDATASIZE PUSH1 0x0 DUP1 RETURNDATACOPY RETURNDATASIZE PUSH1 0x0 REVERT JUMPDEST POP POP POP POP PUSH1 0x40 MLOAD RETURNDATASIZE PUSH1 0x1F NOT PUSH1 0x1F DUP3 ADD AND DUP3 ADD DUP1 PUSH1 0x40 MSTORE POP DUP2 ADD SWAP1 PUSH2 0xD0A SWAP2 SWAP1 PUSH2 0x15D9 JUMP JUMPDEST SWAP1 POP PUSH1 0x60 DUP2 PUSH1 0x1 PUSH1 0x1 PUSH1 0xA0 SHL SUB AND PUSH4 0xD1946DBC PUSH1 0x40 MLOAD DUP2 PUSH4 0xFFFFFFFF AND PUSH1 0xE0 SHL DUP2 MSTORE PUSH1 0x4 ADD PUSH1 0x0 PUSH1 0x40 MLOAD DUP1 DUP4 SUB DUP2 DUP7 DUP1 EXTCODESIZE ISZERO DUP1 ISZERO PUSH2 0xD47 JUMPI PUSH1 0x0 DUP1 REVERT JUMPDEST POP GAS STATICCALL ISZERO DUP1 ISZERO PUSH2 0xD5B JUMPI RETURNDATASIZE PUSH1 0x0 DUP1 RETURNDATACOPY RETURNDATASIZE PUSH1 0x0 REVERT JUMPDEST POP POP POP POP PUSH1 0x40 MLOAD RETURNDATASIZE PUSH1 0x0 DUP3 RETURNDATACOPY PUSH1 0x1F RETURNDATASIZE SWAP1 DUP2 ADD PUSH1 0x1F NOT AND DUP3 ADD PUSH1 0x40 MSTORE PUSH2 0xD83 SWAP2 SWAP1 DUP2 ADD SWAP1 PUSH2 0x162D JUMP JUMPDEST SWAP1 POP PUSH1 0x60 DUP2 MLOAD PUSH8 0xFFFFFFFFFFFFFFFF DUP2 GT DUP1 ISZERO PUSH2 0xD9F JUMPI PUSH1 0x0 DUP1 REVERT JUMPDEST POP PUSH1 0x40 MLOAD SWAP1 DUP1 DUP3 MSTORE DUP1 PUSH1 0x20 MUL PUSH1 0x20 ADD DUP3 ADD PUSH1 0x40 MSTORE DUP1 ISZERO PUSH2 0xDD9 JUMPI DUP2 PUSH1 0x20 ADD JUMPDEST PUSH2 0xDC6 PUSH2 0x1531 JUMP JUMPDEST DUP2 MSTORE PUSH1 0x20 ADD SWAP1 PUSH1 0x1 SWAP1 SUB SWAP1 DUP2 PUSH2 0xDBE JUMPI SWAP1 POP JUMPDEST POP SWAP1 POP PUSH1 0x0 JUMPDEST DUP3 MLOAD DUP2 LT ISZERO PUSH2 0xFE2 JUMPI PUSH20 0x9F8F72AA9304C8B593D555F12EF6589CC3A579A2 PUSH1 0x1 PUSH1 0x1 PUSH1 0xA0 SHL SUB AND DUP4 DUP3 DUP2 MLOAD DUP2 LT PUSH2 0xE12 JUMPI INVALID JUMPDEST PUSH1 0x20 MUL PUSH1 0x20 ADD ADD MLOAD PUSH1 0x1 PUSH1 0x1 PUSH1 0xA0 SHL SUB AND EQ ISZERO PUSH2 0xE91 JUMPI PUSH1 0x40 MLOAD DUP1 PUSH1 0x40 ADD PUSH1 0x40 MSTORE DUP1 PUSH1 0x40 MLOAD DUP1 PUSH1 0x40 ADD PUSH1 0x40 MSTORE DUP1 PUSH1 0x3 DUP2 MSTORE PUSH1 0x20 ADD PUSH3 0x26A5A9 PUSH1 0xE9 SHL DUP2 MSTORE POP DUP2 MSTORE PUSH1 0x20 ADD DUP5 DUP4 DUP2 MLOAD DUP2 LT PUSH2 0xE61 JUMPI INVALID JUMPDEST PUSH1 0x20 MUL PUSH1 0x20 ADD ADD MLOAD PUSH1 0x1 PUSH1 0x1 PUSH1 0xA0 SHL SUB AND DUP2 MSTORE POP DUP3 DUP3 DUP2 MLOAD DUP2 LT PUSH2 0xE81 JUMPI INVALID JUMPDEST PUSH1 0x20 MUL PUSH1 0x20 ADD ADD DUP2 SWAP1 MSTORE POP PUSH2 0xFDA JUMP JUMPDEST PUSH20 0xEEEEEEEEEEEEEEEEEEEEEEEEEEEEEEEEEEEEEEEE PUSH1 0x1 PUSH1 0x1 PUSH1 0xA0 SHL SUB AND DUP4 DUP3 DUP2 MLOAD DUP2 LT PUSH2 0xEBB JUMPI INVALID JUMPDEST PUSH1 0x20 MUL PUSH1 0x20 ADD ADD MLOAD PUSH1 0x1 PUSH1 0x1 PUSH1 0xA0 SHL SUB AND EQ ISZERO PUSH2 0xF0A JUMPI PUSH1 0x40 MLOAD DUP1 PUSH1 0x40 ADD PUSH1 0x40 MSTORE DUP1 PUSH1 0x40 MLOAD DUP1 PUSH1 0x40 ADD PUSH1 0x40 MSTORE DUP1 PUSH1 0x3 DUP2 MSTORE PUSH1 0x20 ADD PUSH3 0x8AA89 PUSH1 0xEB SHL DUP2 MSTORE POP DUP2 MSTORE PUSH1 0x20 ADD DUP5 DUP4 DUP2 MLOAD DUP2 LT PUSH2 0xE61 JUMPI INVALID JUMPDEST PUSH1 0x40 MLOAD DUP1 PUSH1 0x40 ADD PUSH1 0x40 MSTORE DUP1 DUP5 DUP4 DUP2 MLOAD DUP2 LT PUSH2 0xF21 JUMPI INVALID JUMPDEST PUSH1 0x20 MUL PUSH1 0x20 ADD ADD MLOAD PUSH1 0x1 PUSH1 0x1 PUSH1 0xA0 SHL SUB AND PUSH4 0x95D89B41 PUSH1 0x40 MLOAD DUP2 PUSH4 0xFFFFFFFF AND PUSH1 0xE0 SHL DUP2 MSTORE PUSH1 0x4 ADD PUSH1 0x0 PUSH1 0x40 MLOAD DUP1 DUP4 SUB DUP2 DUP7 DUP1 EXTCODESIZE ISZERO DUP1 ISZERO PUSH2 0xF61 JUMPI PUSH1 0x0 DUP1 REVERT JUMPDEST POP GAS STATICCALL ISZERO DUP1 ISZERO PUSH2 0xF75 JUMPI RETURNDATASIZE PUSH1 0x0 DUP1 RETURNDATACOPY RETURNDATASIZE PUSH1 0x0 REVERT JUMPDEST POP POP POP POP PUSH1 0x40 MLOAD RETURNDATASIZE PUSH1 0x0 DUP3 RETURNDATACOPY PUSH1 0x1F RETURNDATASIZE SWAP1 DUP2 ADD PUSH1 0x1F NOT AND DUP3 ADD PUSH1 0x40 MSTORE PUSH2 0xF9D SWAP2 SWAP1 DUP2 ADD SWAP1 PUSH2 0x16D8 JUMP JUMPDEST DUP2 MSTORE PUSH1 0x20 ADD DUP5 DUP4 DUP2 MLOAD DUP2 LT PUSH2 0xFAE JUMPI INVALID JUMPDEST PUSH1 0x20 MUL PUSH1 0x20 ADD ADD MLOAD PUSH1 0x1 PUSH1 0x1 PUSH1 0xA0 SHL SUB AND DUP2 MSTORE POP DUP3 DUP3 DUP2 MLOAD DUP2 LT PUSH2 0xFCE JUMPI INVALID JUMPDEST PUSH1 0x20 MUL PUSH1 0x20 ADD ADD DUP2 SWAP1 MSTORE POP JUMPDEST PUSH1 0x1 ADD PUSH2 0xDDF JUMP JUMPDEST POP SWAP3 POP POP POP SWAP1 JUMP JUMPDEST PUSH1 0x0 DUP1 PUSH1 0x0 PUSH2 0xFF7 PUSH2 0x14B3 JUMP JUMPDEST PUSH32 0x0 PUSH1 0x1 PUSH1 0x1 PUSH1 0xA0 SHL SUB AND PUSH4 0x261BF8B PUSH1 0x40 MLOAD DUP2 PUSH4 0xFFFFFFFF AND PUSH1 0xE0 SHL DUP2 MSTORE PUSH1 0x4 ADD PUSH1 0x20 PUSH1 0x40 MLOAD DUP1 DUP4 SUB DUP2 DUP7 DUP1 EXTCODESIZE ISZERO DUP1 ISZERO PUSH2 0x1050 JUMPI PUSH1 0x0 DUP1 REVERT JUMPDEST POP GAS STATICCALL ISZERO DUP1 ISZERO PUSH2 0x1064 JUMPI RETURNDATASIZE PUSH1 0x0 DUP1 RETURNDATACOPY RETURNDATASIZE PUSH1 0x0 REVERT JUMPDEST POP POP POP POP PUSH1 0x40 MLOAD RETURNDATASIZE PUSH1 0x1F NOT PUSH1 0x1F DUP3 ADD AND DUP3 ADD DUP1 PUSH1 0x40 MSTORE POP DUP2 ADD SWAP1 PUSH2 0x1088 SWAP2 SWAP1 PUSH2 0x15D9 JUMP JUMPDEST PUSH1 0x1 PUSH1 0x1 PUSH1 0xA0 SHL SUB AND PUSH4 0x35EA6A75 DUP7 PUSH1 0x40 MLOAD DUP3 PUSH4 0xFFFFFFFF AND PUSH1 0xE0 SHL DUP2 MSTORE PUSH1 0x4 ADD PUSH2 0x10B3 SWAP2 SWAP1 PUSH2 0x18E3 JUMP JUMPDEST PUSH2 0x180 PUSH1 0x40 MLOAD DUP1 DUP4 SUB DUP2 DUP7 DUP1 EXTCODESIZE ISZERO DUP1 ISZERO PUSH2 0x10CC JUMPI PUSH1 0x0 DUP1 REVERT JUMPDEST POP GAS STATICCALL ISZERO DUP1 ISZERO PUSH2 0x10E0 JUMPI RETURNDATASIZE PUSH1 0x0 DUP1 RETURNDATACOPY RETURNDATASIZE PUSH1 0x0 REVERT JUMPDEST POP POP POP POP PUSH1 0x40 MLOAD RETURNDATASIZE PUSH1 0x1F NOT PUSH1 0x1F DUP3 ADD AND DUP3 ADD DUP1 PUSH1 0x40 MSTORE POP DUP2 ADD SWAP1 PUSH2 0x1104 SWAP2 SWAP1 PUSH2 0x177F JUMP JUMPDEST PUSH1 0xE0 DUP2 ADD MLOAD PUSH2 0x100 DUP3 ADD MLOAD PUSH2 0x120 SWAP1 SWAP3 ADD MLOAD SWAP1 SWAP8 SWAP2 SWAP7 POP SWAP5 POP SWAP3 POP POP POP JUMP JUMPDEST PUSH1 0x60 PUSH1 0x0 PUSH32 0x0 PUSH1 0x1 PUSH1 0x1 PUSH1 0xA0 SHL SUB AND PUSH4 0x261BF8B PUSH1 0x40 MLOAD DUP2 PUSH4 0xFFFFFFFF AND PUSH1 0xE0 SHL DUP2 MSTORE PUSH1 0x4 ADD PUSH1 0x20 PUSH1 0x40 MLOAD DUP1 DUP4 SUB DUP2 DUP7 DUP1 EXTCODESIZE ISZERO DUP1 ISZERO PUSH2 0x1180 JUMPI PUSH1 0x0 DUP1 REVERT JUMPDEST POP GAS STATICCALL ISZERO DUP1 ISZERO PUSH2 0x1194 JUMPI RETURNDATASIZE PUSH1 0x0 DUP1 RETURNDATACOPY RETURNDATASIZE PUSH1 0x0 REVERT JUMPDEST POP POP POP POP PUSH1 0x40 MLOAD RETURNDATASIZE PUSH1 0x1F NOT PUSH1 0x1F DUP3 ADD AND DUP3 ADD DUP1 PUSH1 0x40 MSTORE POP DUP2 ADD SWAP1 PUSH2 0x11B8 SWAP2 SWAP1 PUSH2 0x15D9 JUMP JUMPDEST SWAP1 POP PUSH1 0x60 DUP2 PUSH1 0x1 PUSH1 0x1 PUSH1 0xA0 SHL SUB AND PUSH4 0xD1946DBC PUSH1 0x40 MLOAD DUP2 PUSH4 0xFFFFFFFF AND PUSH1 0xE0 SHL DUP2 MSTORE PUSH1 0x4 ADD PUSH1 0x0 PUSH1 0x40 MLOAD DUP1 DUP4 SUB DUP2 DUP7 DUP1 EXTCODESIZE ISZERO DUP1 ISZERO PUSH2 0x11F5 JUMPI PUSH1 0x0 DUP1 REVERT JUMPDEST POP GAS STATICCALL ISZERO DUP1 ISZERO PUSH2 0x1209 JUMPI RETURNDATASIZE PUSH1 0x0 DUP1 RETURNDATACOPY RETURNDATASIZE PUSH1 0x0 REVERT JUMPDEST POP POP POP POP PUSH1 0x40 MLOAD RETURNDATASIZE PUSH1 0x0 DUP3 RETURNDATACOPY PUSH1 0x1F RETURNDATASIZE SWAP1 DUP2 ADD PUSH1 0x1F NOT AND DUP3 ADD PUSH1 0x40 MSTORE PUSH2 0x1231 SWAP2 SWAP1 DUP2 ADD SWAP1 PUSH2 0x162D JUMP JUMPDEST SWAP1 POP PUSH1 0x60 DUP2 MLOAD PUSH8 0xFFFFFFFFFFFFFFFF DUP2 GT DUP1 ISZERO PUSH2 0x124D JUMPI PUSH1 0x0 DUP1 REVERT JUMPDEST POP PUSH1 0x40 MLOAD SWAP1 DUP1 DUP3 MSTORE DUP1 PUSH1 0x20 MUL PUSH1 0x20 ADD DUP3 ADD PUSH1 0x40 MSTORE DUP1 ISZERO PUSH2 0x1287 JUMPI DUP2 PUSH1 0x20 ADD JUMPDEST PUSH2 0x1274 PUSH2 0x1531 JUMP JUMPDEST DUP2 MSTORE PUSH1 0x20 ADD SWAP1 PUSH1 0x1 SWAP1 SUB SWAP1 DUP2 PUSH2 0x126C JUMPI SWAP1 POP JUMPDEST POP SWAP1 POP PUSH1 0x0 JUMPDEST DUP3 MLOAD DUP2 LT ISZERO PUSH2 0xFE2 JUMPI PUSH2 0x129E PUSH2 0x14B3 JUMP JUMPDEST DUP5 PUSH1 0x1 PUSH1 0x1 PUSH1 0xA0 SHL SUB AND PUSH4 0x35EA6A75 DUP6 DUP5 DUP2 MLOAD DUP2 LT PUSH2 0x12B9 JUMPI INVALID JUMPDEST PUSH1 0x20 MUL PUSH1 0x20 ADD ADD MLOAD PUSH1 0x40 MLOAD DUP3 PUSH4 0xFFFFFFFF AND PUSH1 0xE0 SHL DUP2 MSTORE PUSH1 0x4 ADD PUSH2 0x12DD SWAP2 SWAP1 PUSH2 0x18E3 JUMP JUMPDEST PUSH2 0x180 PUSH1 0x40 MLOAD DUP1 DUP4 SUB DUP2 DUP7 DUP1 EXTCODESIZE ISZERO DUP1 ISZERO PUSH2 0x12F6 JUMPI PUSH1 0x0 DUP1 REVERT JUMPDEST POP GAS STATICCALL ISZERO DUP1 ISZERO PUSH2 0x130A JUMPI RETURNDATASIZE PUSH1 0x0 DUP1 RETURNDATACOPY RETURNDATASIZE PUSH1 0x0 REVERT JUMPDEST POP POP POP POP PUSH1 0x40 MLOAD RETURNDATASIZE PUSH1 0x1F NOT PUSH1 0x1F DUP3 ADD AND DUP3 ADD DUP1 PUSH1 0x40 MSTORE POP DUP2 ADD SWAP1 PUSH2 0x132E SWAP2 SWAP1 PUSH2 0x177F JUMP JUMPDEST SWAP1 POP PUSH1 0x40 MLOAD DUP1 PUSH1 0x40 ADD PUSH1 0x40 MSTORE DUP1 DUP3 PUSH1 0xE0 ADD MLOAD PUSH1 0x1 PUSH1 0x1 PUSH1 0xA0 SHL SUB AND PUSH4 0x95D89B41 PUSH1 0x40 MLOAD DUP2 PUSH4 0xFFFFFFFF AND PUSH1 0xE0 SHL DUP2 MSTORE PUSH1 0x4 ADD PUSH1 0x0 PUSH1 0x40 MLOAD DUP1 DUP4 SUB DUP2 DUP7 DUP1 EXTCODESIZE ISZERO DUP1 ISZERO PUSH2 0x1378 JUMPI PUSH1 0x0 DUP1 REVERT JUMPDEST POP GAS STATICCALL ISZERO DUP1 ISZERO PUSH2 0x138C JUMPI RETURNDATASIZE PUSH1 0x0 DUP1 RETURNDATACOPY RETURNDATASIZE PUSH1 0x0 REVERT JUMPDEST POP POP POP POP PUSH1 0x40 MLOAD RETURNDATASIZE PUSH1 0x0 DUP3 RETURNDATACOPY PUSH1 0x1F RETURNDATASIZE SWAP1 DUP2 ADD PUSH1 0x1F NOT AND DUP3 ADD PUSH1 0x40 MSTORE PUSH2 0x13B4 SWAP2 SWAP1 DUP2 ADD SWAP1 PUSH2 0x16D8 JUMP JUMPDEST DUP2 MSTORE PUSH1 0x20 ADD DUP3 PUSH1 0xE0 ADD MLOAD PUSH1 0x1 PUSH1 0x1 PUSH1 0xA0 SHL SUB AND DUP2 MSTORE POP DUP4 DUP4 DUP2 MLOAD DUP2 LT PUSH2 0x13D6 JUMPI INVALID JUMPDEST PUSH1 0x20 SWAP1 DUP2 MUL SWAP2 SWAP1 SWAP2 ADD ADD MSTORE POP PUSH1 0x1 ADD PUSH2 0x128D JUMP JUMPDEST PUSH1 0x0 PUSH1 0x80 DUP3 LT PUSH1 0x40 MLOAD DUP1 PUSH1 0x40 ADD PUSH1 0x40 MSTORE DUP1 PUSH1 0x2 DUP2 MSTORE PUSH1 0x20 ADD PUSH2 0x3737 PUSH1 0xF0 SHL DUP2 MSTORE POP SWAP1 PUSH2 0x1432 JUMPI PUSH1 0x40 MLOAD PUSH3 0x461BCD PUSH1 0xE5 SHL DUP2 MSTORE PUSH1 0x4 ADD PUSH2 0x1429 SWAP2 SWAP1 PUSH2 0x1996 JUMP JUMPDEST PUSH1 0x40 MLOAD DUP1 SWAP2 SUB SWAP1 REVERT JUMPDEST POP POP DUP2 MLOAD PUSH1 0x1 PUSH1 0x2 DUP4 MUL DUP2 ADD SWAP2 SWAP1 SWAP2 SHR AND ISZERO ISZERO JUMPDEST SWAP3 SWAP2 POP POP JUMP JUMPDEST MLOAD PUSH2 0xFFFF DUP1 DUP3 AND SWAP3 PUSH1 0x10 DUP4 SWAP1 SHR DUP3 AND SWAP3 PUSH1 0x20 DUP2 SWAP1 SHR DUP4 AND SWAP3 PUSH1 0x30 DUP3 SWAP1 SHR PUSH1 0xFF AND SWAP3 PUSH1 0x40 SWAP3 SWAP1 SWAP3 SHR AND SWAP1 JUMP JUMPDEST MLOAD PUSH8 0x100000000000000 DUP2 AND ISZERO ISZERO SWAP2 PUSH8 0x200000000000000 DUP3 AND ISZERO ISZERO SWAP2 PUSH8 0x400000000000000 DUP2 AND ISZERO ISZERO SWAP2 PUSH8 0x800000000000000 SWAP1 SWAP2 AND ISZERO ISZERO SWAP1 JUMP JUMPDEST PUSH1 0x40 MLOAD DUP1 PUSH2 0x180 ADD PUSH1 0x40 MSTORE DUP1 PUSH2 0x14C7 PUSH2 0x151E JUMP JUMPDEST DUP2 MSTORE PUSH1 0x0 PUSH1 0x20 DUP3 ADD DUP2 SWAP1 MSTORE PUSH1 0x40 DUP3 ADD DUP2 SWAP1 MSTORE PUSH1 0x60 DUP3 ADD DUP2 SWAP1 MSTORE PUSH1 0x80 DUP3 ADD DUP2 SWAP1 MSTORE PUSH1 0xA0 DUP3 ADD DUP2 SWAP1 MSTORE PUSH1 0xC0 DUP3 ADD DUP2 SWAP1 MSTORE PUSH1 0xE0 DUP3 ADD DUP2 SWAP1 MSTORE PUSH2 0x100 DUP3 ADD DUP2 SWAP1 MSTORE PUSH2 0x120 DUP3 ADD DUP2 SWAP1 MSTORE PUSH2 0x140 DUP3 ADD DUP2 SWAP1 MSTORE PUSH2 0x160 SWAP1 SWAP2 ADD MSTORE SWAP1 JUMP JUMPDEST PUSH1 0x40 MLOAD DUP1 PUSH1 0x20 ADD PUSH1 0x40 MSTORE DUP1 PUSH1 0x0 DUP2 MSTORE POP SWAP1 JUMP JUMPDEST PUSH1 0x40 DUP1 MLOAD DUP1 DUP3 ADD SWAP1 SWAP2 MSTORE PUSH1 0x60 DUP2 MSTORE PUSH1 0x0 PUSH1 0x20 DUP3 ADD MSTORE SWAP1 JUMP JUMPDEST DUP1 MLOAD PUSH2 0x1446 DUP2 PUSH2 0x1AE3 JUMP JUMPDEST PUSH1 0x0 PUSH1 0x20 DUP3 DUP5 SUB SLT ISZERO PUSH2 0x1565 JUMPI DUP1 DUP2 REVERT JUMPDEST PUSH2 0x156F PUSH1 0x20 PUSH2 0x1A8C JUMP JUMPDEST SWAP2 MLOAD DUP3 MSTORE POP SWAP2 SWAP1 POP JUMP JUMPDEST DUP1 MLOAD PUSH1 0x1 PUSH1 0x1 PUSH1 0x80 SHL SUB DUP2 AND DUP2 EQ PUSH2 0x1446 JUMPI PUSH1 0x0 DUP1 REVERT JUMPDEST DUP1 MLOAD PUSH5 0xFFFFFFFFFF DUP2 AND DUP2 EQ PUSH2 0x1446 JUMPI PUSH1 0x0 DUP1 REVERT JUMPDEST DUP1 MLOAD PUSH1 0xFF DUP2 AND DUP2 EQ PUSH2 0x1446 JUMPI PUSH1 0x0 DUP1 REVERT JUMPDEST PUSH1 0x0 PUSH1 0x20 DUP3 DUP5 SUB SLT ISZERO PUSH2 0x15C7 JUMPI DUP1 DUP2 REVERT JUMPDEST DUP2 CALLDATALOAD PUSH2 0x15D2 DUP2 PUSH2 0x1AE3 JUMP JUMPDEST SWAP4 SWAP3 POP POP POP JUMP JUMPDEST PUSH1 0x0 PUSH1 0x20 DUP3 DUP5 SUB SLT ISZERO PUSH2 0x15EA JUMPI DUP1 DUP2 REVERT JUMPDEST DUP2 MLOAD PUSH2 0x15D2 DUP2 PUSH2 0x1AE3 JUMP JUMPDEST PUSH1 0x0 DUP1 PUSH1 0x40 DUP4 DUP6 SUB SLT ISZERO PUSH2 0x1607 JUMPI DUP1 DUP2 REVERT JUMPDEST DUP3 CALLDATALOAD PUSH2 0x1612 DUP2 PUSH2 0x1AE3 JUMP JUMPDEST SWAP2 POP PUSH1 0x20 DUP4 ADD CALLDATALOAD PUSH2 0x1622 DUP2 PUSH2 0x1AE3 JUMP JUMPDEST DUP1 SWAP2 POP POP SWAP3 POP SWAP3 SWAP1 POP JUMP JUMPDEST PUSH1 0x0 PUSH1 0x20 DUP1 DUP4 DUP6 SUB SLT ISZERO PUSH2 0x163F JUMPI DUP2 DUP3 REVERT JUMPDEST DUP3 MLOAD PUSH8 0xFFFFFFFFFFFFFFFF DUP1 DUP3 GT ISZERO PUSH2 0x1656 JUMPI DUP4 DUP5 REVERT JUMPDEST DUP2 DUP6 ADD SWAP2 POP DUP6 PUSH1 0x1F DUP4 ADD SLT PUSH2 0x1669 JUMPI DUP4 DUP5 REVERT JUMPDEST DUP2 MLOAD DUP2 DUP2 GT ISZERO PUSH2 0x1677 JUMPI DUP5 DUP6 REVERT JUMPDEST DUP4 DUP2 MUL SWAP2 POP PUSH2 0x1687 DUP5 DUP4 ADD PUSH2 0x1A8C JUMP JUMPDEST DUP2 DUP2 MSTORE DUP5 DUP2 ADD SWAP1 DUP5 DUP7 ADD DUP5 DUP7 ADD DUP8 ADD DUP11 LT ISZERO PUSH2 0x16A1 JUMPI DUP8 DUP9 REVERT JUMPDEST DUP8 SWAP6 POP JUMPDEST DUP4 DUP7 LT ISZERO PUSH2 0x16CB JUMPI PUSH2 0x16B7 DUP11 DUP3 PUSH2 0x1549 JUMP JUMPDEST DUP4 MSTORE PUSH1 0x1 SWAP6 SWAP1 SWAP6 ADD SWAP5 SWAP2 DUP7 ADD SWAP2 DUP7 ADD PUSH2 0x16A5 JUMP JUMPDEST POP SWAP9 SWAP8 POP POP POP POP POP POP POP POP JUMP JUMPDEST PUSH1 0x0 PUSH1 0x20 DUP3 DUP5 SUB SLT ISZERO PUSH2 0x16E9 JUMPI DUP1 DUP2 REVERT JUMPDEST DUP2 MLOAD PUSH8 0xFFFFFFFFFFFFFFFF DUP1 DUP3 GT ISZERO PUSH2 0x1700 JUMPI DUP3 DUP4 REVERT JUMPDEST DUP2 DUP5 ADD SWAP2 POP DUP5 PUSH1 0x1F DUP4 ADD SLT PUSH2 0x1713 JUMPI DUP3 DUP4 REVERT JUMPDEST DUP2 MLOAD DUP2 DUP2 GT ISZERO PUSH2 0x1721 JUMPI DUP4 DUP5 REVERT JUMPDEST PUSH2 0x1734 PUSH1 0x1F DUP3 ADD PUSH1 0x1F NOT AND PUSH1 0x20 ADD PUSH2 0x1A8C JUMP JUMPDEST SWAP2 POP DUP1 DUP3 MSTORE DUP6 PUSH1 0x20 DUP3 DUP6 ADD ADD GT ISZERO PUSH2 0x174A JUMPI DUP4 DUP5 REVERT JUMPDEST PUSH2 0x175B DUP2 PUSH1 0x20 DUP5 ADD PUSH1 0x20 DUP7 ADD PUSH2 0x1AB3 JUMP JUMPDEST POP SWAP5 SWAP4 POP POP POP POP JUMP JUMPDEST PUSH1 0x0 PUSH1 0x20 DUP3 DUP5 SUB SLT ISZERO PUSH2 0x1775 JUMPI DUP1 DUP2 REVERT JUMPDEST PUSH2 0x15D2 DUP4 DUP4 PUSH2 0x1554 JUMP JUMPDEST PUSH1 0x0 PUSH2 0x180 DUP1 DUP4 DUP6 SUB SLT ISZERO PUSH2 0x1792 JUMPI DUP2 DUP3 REVERT JUMPDEST PUSH2 0x179B DUP2 PUSH2 0x1A8C JUMP JUMPDEST SWAP1 POP PUSH2 0x17A7 DUP5 DUP5 PUSH2 0x1554 JUMP JUMPDEST DUP2 MSTORE PUSH2 0x17B6 DUP5 PUSH1 0x20 DUP6 ADD PUSH2 0x1579 JUMP JUMPDEST PUSH1 0x20 DUP3 ADD MSTORE PUSH2 0x17C8 DUP5 PUSH1 0x40 DUP6 ADD PUSH2 0x1579 JUMP JUMPDEST PUSH1 0x40 DUP3 ADD MSTORE PUSH2 0x17DA DUP5 PUSH1 0x60 DUP6 ADD PUSH2 0x1579 JUMP JUMPDEST PUSH1 0x60 DUP3 ADD MSTORE PUSH2 0x17EC DUP5 PUSH1 0x80 DUP6 ADD PUSH2 0x1579 JUMP JUMPDEST PUSH1 0x80 DUP3 ADD MSTORE PUSH2 0x17FE DUP5 PUSH1 0xA0 DUP6 ADD PUSH2 0x1579 JUMP JUMPDEST PUSH1 0xA0 DUP3 ADD MSTORE PUSH2 0x1810 DUP5 PUSH1 0xC0 DUP6 ADD PUSH2 0x1590 JUMP JUMPDEST PUSH1 0xC0 DUP3 ADD MSTORE PUSH2 0x1822 DUP5 PUSH1 0xE0 DUP6 ADD PUSH2 0x1549 JUMP JUMPDEST PUSH1 0xE0 DUP3 ADD MSTORE PUSH2 0x100 PUSH2 0x1836 DUP6 DUP3 DUP7 ADD PUSH2 0x1549 JUMP JUMPDEST SWAP1 DUP3 ADD MSTORE PUSH2 0x120 PUSH2 0x1849 DUP6 DUP6 DUP4 ADD PUSH2 0x1549 JUMP JUMPDEST SWAP1 DUP3 ADD MSTORE PUSH2 0x140 PUSH2 0x185C DUP6 DUP6 DUP4 ADD PUSH2 0x1549 JUMP JUMPDEST SWAP1 DUP3 ADD MSTORE PUSH2 0x160 PUSH2 0x186F DUP6 DUP6 DUP4 ADD PUSH2 0x15A5 JUMP JUMPDEST SWAP1 DUP3 ADD MSTORE SWAP4 SWAP3 POP POP POP JUMP JUMPDEST PUSH1 0x0 PUSH1 0x20 DUP3 DUP5 SUB SLT ISZERO PUSH2 0x188B JUMPI DUP1 DUP2 REVERT JUMPDEST POP MLOAD SWAP2 SWAP1 POP JUMP JUMPDEST PUSH1 0x0 PUSH1 0x20 DUP3 DUP5 SUB SLT ISZERO PUSH2 0x18A3 JUMPI DUP1 DUP2 REVERT JUMPDEST DUP2 MLOAD PUSH5 0xFFFFFFFFFF DUP2 AND DUP2 EQ PUSH2 0x15D2 JUMPI DUP2 DUP3 REVERT JUMPDEST PUSH1 0x0 DUP2 MLOAD DUP1 DUP5 MSTORE PUSH2 0x18CF DUP2 PUSH1 0x20 DUP7 ADD PUSH1 0x20 DUP7 ADD PUSH2 0x1AB3 JUMP JUMPDEST PUSH1 0x1F ADD PUSH1 0x1F NOT AND SWAP3 SWAP1 SWAP3 ADD PUSH1 0x20 ADD SWAP3 SWAP2 POP POP JUMP JUMPDEST PUSH1 0x1 PUSH1 0x1 PUSH1 0xA0 SHL SUB SWAP2 SWAP1 SWAP2 AND DUP2 MSTORE PUSH1 0x20 ADD SWAP1 JUMP JUMPDEST PUSH1 0x1 PUSH1 0x1 PUSH1 0xA0 SHL SUB SWAP4 DUP5 AND DUP2 MSTORE SWAP2 DUP4 AND PUSH1 0x20 DUP4 ADD MSTORE SWAP1 SWAP2 AND PUSH1 0x40 DUP3 ADD MSTORE PUSH1 0x60 ADD SWAP1 JUMP JUMPDEST PUSH1 0x20 DUP1 DUP3 MSTORE DUP3 MLOAD DUP3 DUP3 ADD DUP2 SWAP1 MSTORE PUSH1 0x0 SWAP2 SWAP1 PUSH1 0x40 SWAP1 DUP2 DUP6 ADD SWAP1 DUP1 DUP5 MUL DUP7 ADD DUP4 ADD DUP8 DUP6 ADD DUP7 JUMPDEST DUP4 DUP2 LT ISZERO PUSH2 0x1988 JUMPI DUP9 DUP4 SUB PUSH1 0x3F NOT ADD DUP6 MSTORE DUP2 MLOAD DUP1 MLOAD DUP8 DUP6 MSTORE PUSH2 0x1962 DUP9 DUP7 ADD DUP3 PUSH2 0x18B7 JUMP JUMPDEST SWAP2 DUP10 ADD MLOAD PUSH1 0x1 PUSH1 0x1 PUSH1 0xA0 SHL SUB AND SWAP5 DUP10 ADD SWAP5 SWAP1 SWAP5 MSTORE SWAP5 DUP8 ADD SWAP5 SWAP3 POP SWAP1 DUP7 ADD SWAP1 PUSH1 0x1 ADD PUSH2 0x193E JUMP JUMPDEST POP SWAP1 SWAP9 SWAP8 POP POP POP POP POP POP POP POP JUMP JUMPDEST PUSH1 0x0 PUSH1 0x20 DUP3 MSTORE PUSH2 0x15D2 PUSH1 0x20 DUP4 ADD DUP5 PUSH2 0x18B7 JUMP JUMPDEST SWAP10 DUP11 MSTORE PUSH1 0x20 DUP11 ADD SWAP9 SWAP1 SWAP9 MSTORE PUSH1 0x40 DUP10 ADD SWAP7 SWAP1 SWAP7 MSTORE PUSH1 0x60 DUP9 ADD SWAP5 SWAP1 SWAP5 MSTORE PUSH1 0x80 DUP8 ADD SWAP3 SWAP1 SWAP3 MSTORE ISZERO ISZERO PUSH1 0xA0 DUP7 ADD MSTORE ISZERO ISZERO PUSH1 0xC0 DUP6 ADD MSTORE ISZERO ISZERO PUSH1 0xE0 DUP5 ADD MSTORE ISZERO ISZERO PUSH2 0x100 DUP4 ADD MSTORE ISZERO ISZERO PUSH2 0x120 DUP3 ADD MSTORE PUSH2 0x140 ADD SWAP1 JUMP JUMPDEST SWAP10 DUP11 MSTORE PUSH1 0x20 DUP11 ADD SWAP9 SWAP1 SWAP9 MSTORE PUSH1 0x40 DUP10 ADD SWAP7 SWAP1 SWAP7 MSTORE PUSH1 0x60 DUP9 ADD SWAP5 SWAP1 SWAP5 MSTORE PUSH1 0x80 DUP8 ADD SWAP3 SWAP1 SWAP3 MSTORE PUSH1 0xA0 DUP7 ADD MSTORE PUSH1 0xC0 DUP6 ADD MSTORE PUSH1 0xE0 DUP5 ADD MSTORE PUSH2 0x100 DUP4 ADD MSTORE PUSH5 0xFFFFFFFFFF AND PUSH2 0x120 DUP3 ADD MSTORE PUSH2 0x140 ADD SWAP1 JUMP JUMPDEST SWAP9 DUP10 MSTORE PUSH1 0x20 DUP10 ADD SWAP8 SWAP1 SWAP8 MSTORE PUSH1 0x40 DUP9 ADD SWAP6 SWAP1 SWAP6 MSTORE PUSH1 0x60 DUP8 ADD SWAP4 SWAP1 SWAP4 MSTORE PUSH1 0x80 DUP7 ADD SWAP2 SWAP1 SWAP2 MSTORE PUSH1 0xA0 DUP6 ADD MSTORE PUSH1 0xC0 DUP5 ADD MSTORE PUSH5 0xFFFFFFFFFF AND PUSH1 0xE0 DUP4 ADD MSTORE ISZERO ISZERO PUSH2 0x100 DUP3 ADD MSTORE PUSH2 0x120 ADD SWAP1 JUMP JUMPDEST PUSH1 0x40 MLOAD DUP2 DUP2 ADD PUSH8 0xFFFFFFFFFFFFFFFF DUP2 GT DUP3 DUP3 LT OR ISZERO PUSH2 0x1AAB JUMPI PUSH1 0x0 DUP1 REVERT JUMPDEST PUSH1 0x40 MSTORE SWAP2 SWAP1 POP JUMP JUMPDEST PUSH1 0x0 JUMPDEST DUP4 DUP2 LT ISZERO PUSH2 0x1ACE JUMPI DUP2 DUP2 ADD MLOAD DUP4 DUP3 ADD MSTORE PUSH1 0x20 ADD PUSH2 0x1AB6 JUMP JUMPDEST DUP4 DUP2 GT ISZERO PUSH2 0x1ADD JUMPI PUSH1 0x0 DUP5 DUP5 ADD MSTORE JUMPDEST POP POP POP POP JUMP JUMPDEST PUSH1 0x1 PUSH1 0x1 PUSH1 0xA0 SHL SUB DUP2 AND DUP2 EQ PUSH2 0x1AF8 JUMPI PUSH1 0x0 DUP1 REVERT JUMPDEST POP JUMP INVALID LOG2 PUSH5 0x6970667358 0x22 SLT KECCAK256 SHR COINBASE 0xA7 CREATE 0xB4 0x25 0xC2 MLOAD PUSH2 0x85AE NOT 0x27 PUSH12 0x7DE92F31CAE32CE71565F04A PUSH31 0x42A544E50F64736F6C634300060C0033000000000000000000000000000000 "
				},
				"gasEstimates": {
					"creation": {
						"codeDepositCost": "1392200",
						"executionCost": "infinite",
						"totalCost": "infinite"
					},
					"external": {
						"ADDRESSES_PROVIDER()": "infinite",
						"getAllATokens()": "infinite",
						"getAllReservesTokens()": "infinite",
						"getReserveConfigurationData(address)": "infinite",
						"getReserveData(address)": "infinite",
						"getReserveTokensAddresses(address)": "infinite",
						"getUserReserveData(address,address)": "infinite"
					}
				},
				"methodIdentifiers": {
					"ADDRESSES_PROVIDER()": "0542975c",
					"getAllATokens()": "f561ae41",
					"getAllReservesTokens()": "b316ff89",
					"getReserveConfigurationData(address)": "3e150141",
					"getReserveData(address)": "35ea6a75",
					"getReserveTokensAddresses(address)": "d2493b6c",
					"getUserReserveData(address,address)": "28dd2d01"
				}
			},
			"storageLayout": {
				"storage": [],
				"types": null
			},
			"userdoc": {
				"kind": "user",
				"methods": {},
				"version": 1
			}
		}
	}
}