{
	".deps/github/aave/protocol-v2/contracts/protocol/libraries/helpers/Errors.sol": {
		"Errors": {
			"abi": [
				{
					"inputs": [],
					"name": "BORROW_ALLOWANCE_NOT_ENOUGH",
					"outputs": [
						{
							"internalType": "string",
							"name": "",
							"type": "string"
						}
					],
					"stateMutability": "view",
					"type": "function"
				},
				{
					"inputs": [],
					"name": "CALLER_NOT_POOL_ADMIN",
					"outputs": [
						{
							"internalType": "string",
							"name": "",
							"type": "string"
						}
					],
					"stateMutability": "view",
					"type": "function"
				},
				{
					"inputs": [],
					"name": "CT_CALLER_MUST_BE_LENDING_POOL",
					"outputs": [
						{
							"internalType": "string",
							"name": "",
							"type": "string"
						}
					],
					"stateMutability": "view",
					"type": "function"
				},
				{
					"inputs": [],
					"name": "CT_CANNOT_GIVE_ALLOWANCE_TO_HIMSELF",
					"outputs": [
						{
							"internalType": "string",
							"name": "",
							"type": "string"
						}
					],
					"stateMutability": "view",
					"type": "function"
				},
				{
					"inputs": [],
					"name": "CT_INVALID_BURN_AMOUNT",
					"outputs": [
						{
							"internalType": "string",
							"name": "",
							"type": "string"
						}
					],
					"stateMutability": "view",
					"type": "function"
				},
				{
					"inputs": [],
					"name": "CT_INVALID_MINT_AMOUNT",
					"outputs": [
						{
							"internalType": "string",
							"name": "",
							"type": "string"
						}
					],
					"stateMutability": "view",
					"type": "function"
				},
				{
					"inputs": [],
					"name": "CT_TRANSFER_AMOUNT_NOT_GT_0",
					"outputs": [
						{
							"internalType": "string",
							"name": "",
							"type": "string"
						}
					],
					"stateMutability": "view",
					"type": "function"
				},
				{
					"inputs": [],
					"name": "LPAPR_INVALID_ADDRESSES_PROVIDER_ID",
					"outputs": [
						{
							"internalType": "string",
							"name": "",
							"type": "string"
						}
					],
					"stateMutability": "view",
					"type": "function"
				},
				{
					"inputs": [],
					"name": "LPAPR_PROVIDER_NOT_REGISTERED",
					"outputs": [
						{
							"internalType": "string",
							"name": "",
							"type": "string"
						}
					],
					"stateMutability": "view",
					"type": "function"
				},
				{
					"inputs": [],
					"name": "LPCM_COLLATERAL_CANNOT_BE_LIQUIDATED",
					"outputs": [
						{
							"internalType": "string",
							"name": "",
							"type": "string"
						}
					],
					"stateMutability": "view",
					"type": "function"
				},
				{
					"inputs": [],
					"name": "LPCM_HEALTH_FACTOR_NOT_BELOW_THRESHOLD",
					"outputs": [
						{
							"internalType": "string",
							"name": "",
							"type": "string"
						}
					],
					"stateMutability": "view",
					"type": "function"
				},
				{
					"inputs": [],
					"name": "LPCM_NOT_ENOUGH_LIQUIDITY_TO_LIQUIDATE",
					"outputs": [
						{
							"internalType": "string",
							"name": "",
							"type": "string"
						}
					],
					"stateMutability": "view",
					"type": "function"
				},
				{
					"inputs": [],
					"name": "LPCM_NO_ERRORS",
					"outputs": [
						{
							"internalType": "string",
							"name": "",
							"type": "string"
						}
					],
					"stateMutability": "view",
					"type": "function"
				},
				{
					"inputs": [],
					"name": "LPCM_SPECIFIED_CURRENCY_NOT_BORROWED_BY_USER",
					"outputs": [
						{
							"internalType": "string",
							"name": "",
							"type": "string"
						}
					],
					"stateMutability": "view",
					"type": "function"
				},
				{
					"inputs": [],
					"name": "LPC_CALLER_NOT_EMERGENCY_ADMIN",
					"outputs": [
						{
							"internalType": "string",
							"name": "",
							"type": "string"
						}
					],
					"stateMutability": "view",
					"type": "function"
				},
				{
					"inputs": [],
					"name": "LPC_INVALID_ADDRESSES_PROVIDER_ID",
					"outputs": [
						{
							"internalType": "string",
							"name": "",
							"type": "string"
						}
					],
					"stateMutability": "view",
					"type": "function"
				},
				{
					"inputs": [],
					"name": "LPC_INVALID_ATOKEN_POOL_ADDRESS",
					"outputs": [
						{
							"internalType": "string",
							"name": "",
							"type": "string"
						}
					],
					"stateMutability": "view",
					"type": "function"
				},
				{
					"inputs": [],
					"name": "LPC_INVALID_CONFIGURATION",
					"outputs": [
						{
							"internalType": "string",
							"name": "",
							"type": "string"
						}
					],
					"stateMutability": "view",
					"type": "function"
				},
				{
					"inputs": [],
					"name": "LPC_INVALID_STABLE_DEBT_TOKEN_POOL_ADDRESS",
					"outputs": [
						{
							"internalType": "string",
							"name": "",
							"type": "string"
						}
					],
					"stateMutability": "view",
					"type": "function"
				},
				{
					"inputs": [],
					"name": "LPC_INVALID_STABLE_DEBT_TOKEN_UNDERLYING_ADDRESS",
					"outputs": [
						{
							"internalType": "string",
							"name": "",
							"type": "string"
						}
					],
					"stateMutability": "view",
					"type": "function"
				},
				{
					"inputs": [],
					"name": "LPC_INVALID_VARIABLE_DEBT_TOKEN_POOL_ADDRESS",
					"outputs": [
						{
							"internalType": "string",
							"name": "",
							"type": "string"
						}
					],
					"stateMutability": "view",
					"type": "function"
				},
				{
					"inputs": [],
					"name": "LPC_INVALID_VARIABLE_DEBT_TOKEN_UNDERLYING_ADDRESS",
					"outputs": [
						{
							"internalType": "string",
							"name": "",
							"type": "string"
						}
					],
					"stateMutability": "view",
					"type": "function"
				},
				{
					"inputs": [],
					"name": "LPC_RESERVE_LIQUIDITY_NOT_0",
					"outputs": [
						{
							"internalType": "string",
							"name": "",
							"type": "string"
						}
					],
					"stateMutability": "view",
					"type": "function"
				},
				{
					"inputs": [],
					"name": "LP_CALLER_MUST_BE_AN_ATOKEN",
					"outputs": [
						{
							"internalType": "string",
							"name": "",
							"type": "string"
						}
					],
					"stateMutability": "view",
					"type": "function"
				},
				{
					"inputs": [],
					"name": "LP_CALLER_NOT_LENDING_POOL_CONFIGURATOR",
					"outputs": [
						{
							"internalType": "string",
							"name": "",
							"type": "string"
						}
					],
					"stateMutability": "view",
					"type": "function"
				},
				{
					"inputs": [],
					"name": "LP_FAILED_COLLATERAL_SWAP",
					"outputs": [
						{
							"internalType": "string",
							"name": "",
							"type": "string"
						}
					],
					"stateMutability": "view",
					"type": "function"
				},
				{
					"inputs": [],
					"name": "LP_FAILED_REPAY_WITH_COLLATERAL",
					"outputs": [
						{
							"internalType": "string",
							"name": "",
							"type": "string"
						}
					],
					"stateMutability": "view",
					"type": "function"
				},
				{
					"inputs": [],
					"name": "LP_INCONSISTENT_FLASHLOAN_PARAMS",
					"outputs": [
						{
							"internalType": "string",
							"name": "",
							"type": "string"
						}
					],
					"stateMutability": "view",
					"type": "function"
				},
				{
					"inputs": [],
					"name": "LP_INCONSISTENT_PARAMS_LENGTH",
					"outputs": [
						{
							"internalType": "string",
							"name": "",
							"type": "string"
						}
					],
					"stateMutability": "view",
					"type": "function"
				},
				{
					"inputs": [],
					"name": "LP_INCONSISTENT_PROTOCOL_ACTUAL_BALANCE",
					"outputs": [
						{
							"internalType": "string",
							"name": "",
							"type": "string"
						}
					],
					"stateMutability": "view",
					"type": "function"
				},
				{
					"inputs": [],
					"name": "LP_INTEREST_RATE_REBALANCE_CONDITIONS_NOT_MET",
					"outputs": [
						{
							"internalType": "string",
							"name": "",
							"type": "string"
						}
					],
					"stateMutability": "view",
					"type": "function"
				},
				{
					"inputs": [],
					"name": "LP_INVALID_EQUAL_ASSETS_TO_SWAP",
					"outputs": [
						{
							"internalType": "string",
							"name": "",
							"type": "string"
						}
					],
					"stateMutability": "view",
					"type": "function"
				},
				{
					"inputs": [],
					"name": "LP_INVALID_FLASHLOAN_MODE",
					"outputs": [
						{
							"internalType": "string",
							"name": "",
							"type": "string"
						}
					],
					"stateMutability": "view",
					"type": "function"
				},
				{
					"inputs": [],
					"name": "LP_INVALID_FLASH_LOAN_EXECUTOR_RETURN",
					"outputs": [
						{
							"internalType": "string",
							"name": "",
							"type": "string"
						}
					],
					"stateMutability": "view",
					"type": "function"
				},
				{
					"inputs": [],
					"name": "LP_IS_PAUSED",
					"outputs": [
						{
							"internalType": "string",
							"name": "",
							"type": "string"
						}
					],
					"stateMutability": "view",
					"type": "function"
				},
				{
					"inputs": [],
					"name": "LP_LIQUIDATION_CALL_FAILED",
					"outputs": [
						{
							"internalType": "string",
							"name": "",
							"type": "string"
						}
					],
					"stateMutability": "view",
					"type": "function"
				},
				{
					"inputs": [],
					"name": "LP_NOT_CONTRACT",
					"outputs": [
						{
							"internalType": "string",
							"name": "",
							"type": "string"
						}
					],
					"stateMutability": "view",
					"type": "function"
				},
				{
					"inputs": [],
					"name": "LP_NOT_ENOUGH_LIQUIDITY_TO_BORROW",
					"outputs": [
						{
							"internalType": "string",
							"name": "",
							"type": "string"
						}
					],
					"stateMutability": "view",
					"type": "function"
				},
				{
					"inputs": [],
					"name": "LP_NOT_ENOUGH_STABLE_BORROW_BALANCE",
					"outputs": [
						{
							"internalType": "string",
							"name": "",
							"type": "string"
						}
					],
					"stateMutability": "view",
					"type": "function"
				},
				{
					"inputs": [],
					"name": "LP_NO_MORE_RESERVES_ALLOWED",
					"outputs": [
						{
							"internalType": "string",
							"name": "",
							"type": "string"
						}
					],
					"stateMutability": "view",
					"type": "function"
				},
				{
					"inputs": [],
					"name": "LP_REENTRANCY_NOT_ALLOWED",
					"outputs": [
						{
							"internalType": "string",
							"name": "",
							"type": "string"
						}
					],
					"stateMutability": "view",
					"type": "function"
				},
				{
					"inputs": [],
					"name": "LP_REQUESTED_AMOUNT_TOO_SMALL",
					"outputs": [
						{
							"internalType": "string",
							"name": "",
							"type": "string"
						}
					],
					"stateMutability": "view",
					"type": "function"
				},
				{
					"inputs": [],
					"name": "MATH_ADDITION_OVERFLOW",
					"outputs": [
						{
							"internalType": "string",
							"name": "",
							"type": "string"
						}
					],
					"stateMutability": "view",
					"type": "function"
				},
				{
					"inputs": [],
					"name": "MATH_DIVISION_BY_ZERO",
					"outputs": [
						{
							"internalType": "string",
							"name": "",
							"type": "string"
						}
					],
					"stateMutability": "view",
					"type": "function"
				},
				{
					"inputs": [],
					"name": "MATH_MULTIPLICATION_OVERFLOW",
					"outputs": [
						{
							"internalType": "string",
							"name": "",
							"type": "string"
						}
					],
					"stateMutability": "view",
					"type": "function"
				},
				{
					"inputs": [],
					"name": "RC_INVALID_DECIMALS",
					"outputs": [
						{
							"internalType": "string",
							"name": "",
							"type": "string"
						}
					],
					"stateMutability": "view",
					"type": "function"
				},
				{
					"inputs": [],
					"name": "RC_INVALID_LIQ_BONUS",
					"outputs": [
						{
							"internalType": "string",
							"name": "",
							"type": "string"
						}
					],
					"stateMutability": "view",
					"type": "function"
				},
				{
					"inputs": [],
					"name": "RC_INVALID_LIQ_THRESHOLD",
					"outputs": [
						{
							"internalType": "string",
							"name": "",
							"type": "string"
						}
					],
					"stateMutability": "view",
					"type": "function"
				},
				{
					"inputs": [],
					"name": "RC_INVALID_LTV",
					"outputs": [
						{
							"internalType": "string",
							"name": "",
							"type": "string"
						}
					],
					"stateMutability": "view",
					"type": "function"
				},
				{
					"inputs": [],
					"name": "RC_INVALID_RESERVE_FACTOR",
					"outputs": [
						{
							"internalType": "string",
							"name": "",
							"type": "string"
						}
					],
					"stateMutability": "view",
					"type": "function"
				},
				{
					"inputs": [],
					"name": "RL_LIQUIDITY_INDEX_OVERFLOW",
					"outputs": [
						{
							"internalType": "string",
							"name": "",
							"type": "string"
						}
					],
					"stateMutability": "view",
					"type": "function"
				},
				{
					"inputs": [],
					"name": "RL_LIQUIDITY_RATE_OVERFLOW",
					"outputs": [
						{
							"internalType": "string",
							"name": "",
							"type": "string"
						}
					],
					"stateMutability": "view",
					"type": "function"
				},
				{
					"inputs": [],
					"name": "RL_RESERVE_ALREADY_INITIALIZED",
					"outputs": [
						{
							"internalType": "string",
							"name": "",
							"type": "string"
						}
					],
					"stateMutability": "view",
					"type": "function"
				},
				{
					"inputs": [],
					"name": "RL_STABLE_BORROW_RATE_OVERFLOW",
					"outputs": [
						{
							"internalType": "string",
							"name": "",
							"type": "string"
						}
					],
					"stateMutability": "view",
					"type": "function"
				},
				{
					"inputs": [],
					"name": "RL_VARIABLE_BORROW_INDEX_OVERFLOW",
					"outputs": [
						{
							"internalType": "string",
							"name": "",
							"type": "string"
						}
					],
					"stateMutability": "view",
					"type": "function"
				},
				{
					"inputs": [],
					"name": "RL_VARIABLE_BORROW_RATE_OVERFLOW",
					"outputs": [
						{
							"internalType": "string",
							"name": "",
							"type": "string"
						}
					],
					"stateMutability": "view",
					"type": "function"
				},
				{
					"inputs": [],
					"name": "SDT_BURN_EXCEEDS_BALANCE",
					"outputs": [
						{
							"internalType": "string",
							"name": "",
							"type": "string"
						}
					],
					"stateMutability": "view",
					"type": "function"
				},
				{
					"inputs": [],
					"name": "SDT_STABLE_DEBT_OVERFLOW",
					"outputs": [
						{
							"internalType": "string",
							"name": "",
							"type": "string"
						}
					],
					"stateMutability": "view",
					"type": "function"
				},
				{
					"inputs": [],
					"name": "UL_INVALID_INDEX",
					"outputs": [
						{
							"internalType": "string",
							"name": "",
							"type": "string"
						}
					],
					"stateMutability": "view",
					"type": "function"
				},
				{
					"inputs": [],
					"name": "VL_AMOUNT_BIGGER_THAN_MAX_LOAN_SIZE_STABLE",
					"outputs": [
						{
							"internalType": "string",
							"name": "",
							"type": "string"
						}
					],
					"stateMutability": "view",
					"type": "function"
				},
				{
					"inputs": [],
					"name": "VL_BORROWING_NOT_ENABLED",
					"outputs": [
						{
							"internalType": "string",
							"name": "",
							"type": "string"
						}
					],
					"stateMutability": "view",
					"type": "function"
				},
				{
					"inputs": [],
					"name": "VL_COLLATERAL_BALANCE_IS_0",
					"outputs": [
						{
							"internalType": "string",
							"name": "",
							"type": "string"
						}
					],
					"stateMutability": "view",
					"type": "function"
				},
				{
					"inputs": [],
					"name": "VL_COLLATERAL_CANNOT_COVER_NEW_BORROW",
					"outputs": [
						{
							"internalType": "string",
							"name": "",
							"type": "string"
						}
					],
					"stateMutability": "view",
					"type": "function"
				},
				{
					"inputs": [],
					"name": "VL_COLLATERAL_SAME_AS_BORROWING_CURRENCY",
					"outputs": [
						{
							"internalType": "string",
							"name": "",
							"type": "string"
						}
					],
					"stateMutability": "view",
					"type": "function"
				},
				{
					"inputs": [],
					"name": "VL_CURRENT_AVAILABLE_LIQUIDITY_NOT_ENOUGH",
					"outputs": [
						{
							"internalType": "string",
							"name": "",
							"type": "string"
						}
					],
					"stateMutability": "view",
					"type": "function"
				},
				{
					"inputs": [],
					"name": "VL_DEPOSIT_ALREADY_IN_USE",
					"outputs": [
						{
							"internalType": "string",
							"name": "",
							"type": "string"
						}
					],
					"stateMutability": "view",
					"type": "function"
				},
				{
					"inputs": [],
					"name": "VL_HEALTH_FACTOR_LOWER_THAN_LIQUIDATION_THRESHOLD",
					"outputs": [
						{
							"internalType": "string",
							"name": "",
							"type": "string"
						}
					],
					"stateMutability": "view",
					"type": "function"
				},
				{
					"inputs": [],
					"name": "VL_INCONSISTENT_FLASHLOAN_PARAMS",
					"outputs": [
						{
							"internalType": "string",
							"name": "",
							"type": "string"
						}
					],
					"stateMutability": "view",
					"type": "function"
				},
				{
					"inputs": [],
					"name": "VL_INVALID_AMOUNT",
					"outputs": [
						{
							"internalType": "string",
							"name": "",
							"type": "string"
						}
					],
					"stateMutability": "view",
					"type": "function"
				},
				{
					"inputs": [],
					"name": "VL_INVALID_INTEREST_RATE_MODE_SELECTED",
					"outputs": [
						{
							"internalType": "string",
							"name": "",
							"type": "string"
						}
					],
					"stateMutability": "view",
					"type": "function"
				},
				{
					"inputs": [],
					"name": "VL_NOT_ENOUGH_AVAILABLE_USER_BALANCE",
					"outputs": [
						{
							"internalType": "string",
							"name": "",
							"type": "string"
						}
					],
					"stateMutability": "view",
					"type": "function"
				},
				{
					"inputs": [],
					"name": "VL_NO_ACTIVE_RESERVE",
					"outputs": [
						{
							"internalType": "string",
							"name": "",
							"type": "string"
						}
					],
					"stateMutability": "view",
					"type": "function"
				},
				{
					"inputs": [],
					"name": "VL_NO_DEBT_OF_SELECTED_TYPE",
					"outputs": [
						{
							"internalType": "string",
							"name": "",
							"type": "string"
						}
					],
					"stateMutability": "view",
					"type": "function"
				},
				{
					"inputs": [],
					"name": "VL_NO_EXPLICIT_AMOUNT_TO_REPAY_ON_BEHALF",
					"outputs": [
						{
							"internalType": "string",
							"name": "",
							"type": "string"
						}
					],
					"stateMutability": "view",
					"type": "function"
				},
				{
					"inputs": [],
					"name": "VL_NO_STABLE_RATE_LOAN_IN_RESERVE",
					"outputs": [
						{
							"internalType": "string",
							"name": "",
							"type": "string"
						}
					],
					"stateMutability": "view",
					"type": "function"
				},
				{
					"inputs": [],
					"name": "VL_NO_VARIABLE_RATE_LOAN_IN_RESERVE",
					"outputs": [
						{
							"internalType": "string",
							"name": "",
							"type": "string"
						}
					],
					"stateMutability": "view",
					"type": "function"
				},
				{
					"inputs": [],
					"name": "VL_RESERVE_FROZEN",
					"outputs": [
						{
							"internalType": "string",
							"name": "",
							"type": "string"
						}
					],
					"stateMutability": "view",
					"type": "function"
				},
				{
					"inputs": [],
					"name": "VL_STABLE_BORROWING_NOT_ENABLED",
					"outputs": [
						{
							"internalType": "string",
							"name": "",
							"type": "string"
						}
					],
					"stateMutability": "view",
					"type": "function"
				},
				{
					"inputs": [],
					"name": "VL_TRANSFER_NOT_ALLOWED",
					"outputs": [
						{
							"internalType": "string",
							"name": "",
							"type": "string"
						}
					],
					"stateMutability": "view",
					"type": "function"
				},
				{
					"inputs": [],
					"name": "VL_UNDERLYING_BALANCE_NOT_GREATER_THAN_0",
					"outputs": [
						{
							"internalType": "string",
							"name": "",
							"type": "string"
						}
					],
					"stateMutability": "view",
					"type": "function"
				}
			],
			"devdoc": {
				"author": "Aave",
				"details": "Error messages prefix glossary:  - VL = ValidationLogic  - MATH = Math libraries  - CT = Common errors between tokens (AToken, VariableDebtToken and StableDebtToken)  - AT = AToken  - SDT = StableDebtToken  - VDT = VariableDebtToken  - LP = LendingPool  - LPAPR = LendingPoolAddressesProviderRegistry  - LPC = LendingPoolConfiguration  - RL = ReserveLogic  - LPCM = LendingPoolCollateralManager  - P = Pausable",
				"kind": "dev",
				"methods": {},
				"title": "Errors library",
				"version": 1
			},
			"evm": {
				"assembly": "    /* \".deps/github/aave/protocol-v2/contracts/protocol/libraries/helpers/Errors.sol\":660:8924  library Errors {... */\n  dataSize(sub_0)\n  dataOffset(sub_0)\n  0x0b\n  dup3\n  dup3\n  dup3\n  codecopy\n  dup1\n  mload\n  0x00\n  byte\n  0x73\n  eq\n  tag_1\n  jumpi\n  invalid\ntag_1:\n  mstore(0x00, address)\n  0x73\n  dup2\n  mstore8\n  dup3\n  dup2\n  return\nstop\n\nsub_0: assembly {\n        /* \".deps/github/aave/protocol-v2/contracts/protocol/libraries/helpers/Errors.sol\":660:8924  library Errors {... */\n      eq(address, deployTimeAddress())\n      mstore(0x40, 0x80)\n      jumpi(tag_1, lt(calldatasize, 0x04))\n      shr(0xe0, calldataload(0x00))\n      dup1\n      0x6ba4271f\n      gt\n      tag_82\n      jumpi\n      dup1\n      0xcdad445a\n      gt\n      tag_83\n      jumpi\n      dup1\n      0xe2c16d69\n      gt\n      tag_84\n      jumpi\n      dup1\n      0xf11c6720\n      gt\n      tag_85\n      jumpi\n      dup1\n      0xf11c6720\n      eq\n      tag_77\n      jumpi\n      dup1\n      0xf3d9cc11\n      eq\n      tag_78\n      jumpi\n      dup1\n      0xf902735d\n      eq\n      tag_79\n      jumpi\n      dup1\n      0xfb681def\n      eq\n      tag_80\n      jumpi\n      dup1\n      0xfe75fd26\n      eq\n      tag_81\n      jumpi\n      jump(tag_1)\n    tag_85:\n      dup1\n      0xe2c16d69\n      eq\n      tag_72\n      jumpi\n      dup1\n      0xe6632748\n      eq\n      tag_73\n      jumpi\n      dup1\n      0xe7bf91b3\n      eq\n      tag_74\n      jumpi\n      dup1\n      0xeca85d3a\n      eq\n      tag_75\n      jumpi\n      dup1\n      0xf0473259\n      eq\n      tag_76\n      jumpi\n      jump(tag_1)\n    tag_84:\n      dup1\n      0xd7510e0c\n      gt\n      tag_86\n      jumpi\n      dup1\n      0xd7510e0c\n      eq\n      tag_67\n      jumpi\n      dup1\n      0xd7b079aa\n      eq\n      tag_68\n      jumpi\n      dup1\n      0xdaf23547\n      eq\n      tag_69\n      jumpi\n      dup1\n      0xe0d7dfd7\n      eq\n      tag_70\n      jumpi\n      dup1\n      0xe29425dc\n      eq\n      tag_71\n      jumpi\n      jump(tag_1)\n    tag_86:\n      dup1\n      0xcdad445a\n      eq\n      tag_62\n      jumpi\n      dup1\n      0xd3e370ee\n      eq\n      tag_63\n      jumpi\n      dup1\n      0xd44e8e88\n      eq\n      tag_64\n      jumpi\n      dup1\n      0xd57bb964\n      eq\n      tag_65\n      jumpi\n      dup1\n      0xd6f681b6\n      eq\n      tag_66\n      jumpi\n      jump(tag_1)\n    tag_83:\n      dup1\n      0xa39ed4ff\n      gt\n      tag_87\n      jumpi\n      dup1\n      0xb89652cd\n      gt\n      tag_88\n      jumpi\n      dup1\n      0xb89652cd\n      eq\n      tag_57\n      jumpi\n      dup1\n      0xbd013f5b\n      eq\n      tag_58\n      jumpi\n      dup1\n      0xc09e2618\n      eq\n      tag_59\n      jumpi\n      dup1\n      0xc2d628df\n      eq\n      tag_60\n      jumpi\n      dup1\n      0xcc5fc44c\n      eq\n      tag_61\n      jumpi\n      jump(tag_1)\n    tag_88:\n      dup1\n      0xa39ed4ff\n      eq\n      tag_52\n      jumpi\n      dup1\n      0xa8440241\n      eq\n      tag_53\n      jumpi\n      dup1\n      0xac753236\n      eq\n      tag_54\n      jumpi\n      dup1\n      0xb36a2cf3\n      eq\n      tag_55\n      jumpi\n      dup1\n      0xb72e40c7\n      eq\n      tag_56\n      jumpi\n      jump(tag_1)\n    tag_87:\n      dup1\n      0x7865a627\n      gt\n      tag_89\n      jumpi\n      dup1\n      0x7865a627\n      eq\n      tag_47\n      jumpi\n      dup1\n      0x871938a8\n      eq\n      tag_48\n      jumpi\n      dup1\n      0x91a9fb18\n      eq\n      tag_49\n      jumpi\n      dup1\n      0x9be4f03a\n      eq\n      tag_50\n      jumpi\n      dup1\n      0xa2fbc8ad\n      eq\n      tag_51\n      jumpi\n      jump(tag_1)\n    tag_89:\n      dup1\n      0x6ba4271f\n      eq\n      tag_42\n      jumpi\n      dup1\n      0x6d422aa1\n      eq\n      tag_43\n      jumpi\n      dup1\n      0x708b8dd3\n      eq\n      tag_44\n      jumpi\n      dup1\n      0x71a629da\n      eq\n      tag_45\n      jumpi\n      dup1\n      0x76f19030\n      eq\n      tag_46\n      jumpi\n      jump(tag_1)\n    tag_82:\n      dup1\n      0x3aa786a8\n      gt\n      tag_90\n      jumpi\n      dup1\n      0x4a529f91\n      gt\n      tag_91\n      jumpi\n      dup1\n      0x614cf6a1\n      gt\n      tag_92\n      jumpi\n      dup1\n      0x614cf6a1\n      eq\n      tag_37\n      jumpi\n      dup1\n      0x637a5a12\n      eq\n      tag_38\n      jumpi\n      dup1\n      0x6422b257\n      eq\n      tag_39\n      jumpi\n      dup1\n      0x65344799\n      eq\n      tag_40\n      jumpi\n      dup1\n      0x6ab5e615\n      eq\n      tag_41\n      jumpi\n      jump(tag_1)\n    tag_92:\n      dup1\n      0x4a529f91\n      eq\n      tag_32\n      jumpi\n      dup1\n      0x4fe4f1ab\n      eq\n      tag_33\n      jumpi\n      dup1\n      0x55bab12c\n      eq\n      tag_34\n      jumpi\n      dup1\n      0x5a9786d4\n      eq\n      tag_35\n      jumpi\n      dup1\n      0x5e869ff1\n      eq\n      tag_36\n      jumpi\n      jump(tag_1)\n    tag_91:\n      dup1\n      0x4349e3d8\n      gt\n      tag_93\n      jumpi\n      dup1\n      0x4349e3d8\n      eq\n      tag_27\n      jumpi\n      dup1\n      0x44942004\n      eq\n      tag_28\n      jumpi\n      dup1\n      0x44dc4f70\n      eq\n      tag_29\n      jumpi\n      dup1\n      0x47d25300\n      eq\n      tag_30\n      jumpi\n      dup1\n      0x4927c63a\n      eq\n      tag_31\n      jumpi\n      jump(tag_1)\n    tag_93:\n      dup1\n      0x3aa786a8\n      eq\n      tag_22\n      jumpi\n      dup1\n      0x3b5d25aa\n      eq\n      tag_23\n      jumpi\n      dup1\n      0x3f5d6ec8\n      eq\n      tag_24\n      jumpi\n      dup1\n      0x407374a4\n      eq\n      tag_25\n      jumpi\n      dup1\n      0x41b40ba5\n      eq\n      tag_26\n      jumpi\n      jump(tag_1)\n    tag_90:\n      dup1\n      0x22a6f08e\n      gt\n      tag_94\n      jumpi\n      dup1\n      0x333e8ea8\n      gt\n      tag_95\n      jumpi\n      dup1\n      0x333e8ea8\n      eq\n      tag_17\n      jumpi\n      dup1\n      0x35a9d21d\n      eq\n      tag_18\n      jumpi\n      dup1\n      0x36565ab1\n      eq\n      tag_19\n      jumpi\n      dup1\n      0x3872b0ad\n      eq\n      tag_20\n      jumpi\n      dup1\n      0x390f34ba\n      eq\n      tag_21\n      jumpi\n      jump(tag_1)\n    tag_95:\n      dup1\n      0x22a6f08e\n      eq\n      tag_12\n      jumpi\n      dup1\n      0x2ace698a\n      eq\n      tag_13\n      jumpi\n      dup1\n      0x2b34c349\n      eq\n      tag_14\n      jumpi\n      dup1\n      0x2b9c57f6\n      eq\n      tag_15\n      jumpi\n      dup1\n      0x2ea347b0\n      eq\n      tag_16\n      jumpi\n      jump(tag_1)\n    tag_94:\n      dup1\n      0x1291a38b\n      gt\n      tag_96\n      jumpi\n      dup1\n      0x1291a38b\n      eq\n      tag_7\n      jumpi\n      dup1\n      0x179476c5\n      eq\n      tag_8\n      jumpi\n      dup1\n      0x1befa78d\n      eq\n      tag_9\n      jumpi\n      dup1\n      0x1ea7c604\n      eq\n      tag_10\n      jumpi\n      dup1\n      0x1ec68b1d\n      eq\n      tag_11\n      jumpi\n      jump(tag_1)\n    tag_96:\n      dup1\n      0x02454ad3\n      eq\n      tag_2\n      jumpi\n      dup1\n      0x029d2344\n      eq\n      tag_3\n      jumpi\n      dup1\n      0x06f355ad\n      eq\n      tag_4\n      jumpi\n      dup1\n      0x0b8fd588\n      eq\n      tag_5\n      jumpi\n      dup1\n      0x0f5ee482\n      eq\n      tag_6\n      jumpi\n    tag_1:\n      0x00\n      dup1\n      revert\n        /* \".deps/github/aave/protocol-v2/contracts/protocol/libraries/helpers/Errors.sol\":8375:8421  string public constant UL_INVALID_INDEX = '77' */\n    tag_2:\n      tag_97\n      tag_98\n      jump\t// in\n    tag_97:\n      0x40\n      dup1\n      mload\n      0x20\n      dup1\n      dup3\n      mstore\n      dup4\n      mload\n      dup2\n      dup4\n      add\n      mstore\n      dup4\n      mload\n      swap2\n      swap3\n      dup4\n      swap3\n      swap1\n      dup4\n      add\n      swap2\n      dup6\n      add\n      swap1\n      dup1\n      dup4\n      dup4\n      0x00\n    tag_99:\n      dup4\n      dup2\n      lt\n      iszero\n      tag_101\n      jumpi\n      dup2\n      dup2\n      add\n      mload\n      dup4\n      dup3\n      add\n      mstore\n      0x20\n      add\n      jump(tag_99)\n    tag_101:\n      pop\n      pop\n      pop\n      pop\n      swap1\n      pop\n      swap1\n      dup2\n      add\n      swap1\n      0x1f\n      and\n      dup1\n      iszero\n      tag_102\n      jumpi\n      dup1\n      dup3\n      sub\n      dup1\n      mload\n      0x01\n      dup4\n      0x20\n      sub\n      0x0100\n      exp\n      sub\n      not\n      and\n      dup2\n      mstore\n      0x20\n      add\n      swap2\n      pop\n    tag_102:\n      pop\n      swap3\n      pop\n      pop\n      pop\n      mload(0x40)\n      dup1\n      swap2\n      sub\n      swap1\n      return\n        /* \".deps/github/aave/protocol-v2/contracts/protocol/libraries/helpers/Errors.sol\":6542:6600  string public constant MATH_MULTIPLICATION_OVERFLOW = '48' */\n    tag_3:\n      tag_97\n      tag_104\n      jump\t// in\n        /* \".deps/github/aave/protocol-v2/contracts/protocol/libraries/helpers/Errors.sol\":4406:4471  string public constant CT_CANNOT_GIVE_ALLOWANCE_TO_HIMSELF = '30' */\n    tag_4:\n      tag_97\n      tag_110\n      jump\t// in\n        /* \".deps/github/aave/protocol-v2/contracts/protocol/libraries/helpers/Errors.sol\":3949:4018  string public constant LP_INCONSISTENT_PROTOCOL_ACTUAL_BALANCE = '26' */\n    tag_5:\n      tag_97\n      tag_116\n      jump\t// in\n        /* \".deps/github/aave/protocol-v2/contracts/protocol/libraries/helpers/Errors.sol\":6604:6656  string public constant MATH_ADDITION_OVERFLOW = '49' */\n    tag_6:\n      tag_97\n      tag_122\n      jump\t// in\n        /* \".deps/github/aave/protocol-v2/contracts/protocol/libraries/helpers/Errors.sol\":7236:7288  string public constant CT_INVALID_MINT_AMOUNT = '56' */\n    tag_7:\n      tag_97\n      tag_128\n      jump\t// in\n        /* \".deps/github/aave/protocol-v2/contracts/protocol/libraries/helpers/Errors.sol\":1226:1296  string public constant VL_CURRENT_AVAILABLE_LIQUIDITY_NOT_ENOUGH = '4' */\n    tag_8:\n      tag_97\n      tag_134\n      jump\t// in\n        /* \".deps/github/aave/protocol-v2/contracts/protocol/libraries/helpers/Errors.sol\":8532:8586  string public constant SDT_BURN_EXCEEDS_BALANCE = '80' */\n    tag_9:\n      tag_97\n      tag_140\n      jump\t// in\n        /* \".deps/github/aave/protocol-v2/contracts/protocol/libraries/helpers/Errors.sol\":6386:6430  string public constant LPCM_NO_ERRORS = '46' */\n    tag_10:\n      tag_97\n      tag_146\n      jump\t// in\n        /* \".deps/github/aave/protocol-v2/contracts/protocol/libraries/helpers/Errors.sol\":1848:1927  string public constant VL_HEALTH_FACTOR_LOWER_THAN_LIQUIDATION_THRESHOLD = '10' */\n    tag_11:\n      tag_97\n      tag_152\n      jump\t// in\n        /* \".deps/github/aave/protocol-v2/contracts/protocol/libraries/helpers/Errors.sol\":3708:3771  string public constant LP_NOT_ENOUGH_LIQUIDITY_TO_BORROW = '24' */\n    tag_12:\n      tag_97\n      tag_158\n      jump\t// in\n        /* \".deps/github/aave/protocol-v2/contracts/protocol/libraries/helpers/Errors.sol\":1991:2058  string public constant VL_COLLATERAL_CANNOT_COVER_NEW_BORROW = '11' */\n    tag_13:\n      tag_97\n      tag_164\n      jump\t// in\n        /* \".deps/github/aave/protocol-v2/contracts/protocol/libraries/helpers/Errors.sol\":4220:4282  string public constant LP_INCONSISTENT_FLASHLOAN_PARAMS = '28' */\n    tag_14:\n      tag_97\n      tag_170\n      jump\t// in\n        /* \".deps/github/aave/protocol-v2/contracts/protocol/libraries/helpers/Errors.sol\":7382:7434  string public constant CT_INVALID_BURN_AMOUNT = '58' */\n    tag_15:\n      tag_97\n      tag_176\n      jump\t// in\n        /* \".deps/github/aave/protocol-v2/contracts/protocol/libraries/helpers/Errors.sol\":7022:7084  string public constant RL_VARIABLE_BORROW_RATE_OVERFLOW = '54' */\n    tag_16:\n      tag_97\n      tag_182\n      jump\t// in\n        /* \".deps/github/aave/protocol-v2/contracts/protocol/libraries/helpers/Errors.sol\":8177:8242  string public constant LPAPR_INVALID_ADDRESSES_PROVIDER_ID = '72' */\n    tag_17:\n      tag_97\n      tag_188\n      jump\t// in\n        /* \".deps/github/aave/protocol-v2/contracts/protocol/libraries/helpers/Errors.sol\":3114:3184  string public constant VL_UNDERLYING_BALANCE_NOT_GREATER_THAN_0 = '19' */\n    tag_18:\n      tag_97\n      tag_194\n      jump\t// in\n        /* \".deps/github/aave/protocol-v2/contracts/protocol/libraries/helpers/Errors.sol\":1557:1610  string public constant VL_BORROWING_NOT_ENABLED = '7' */\n    tag_19:\n      tag_97\n      tag_200\n      jump\t// in\n        /* \".deps/github/aave/protocol-v2/contracts/protocol/libraries/helpers/Errors.sol\":5341:5421  string public constant LPC_INVALID_VARIABLE_DEBT_TOKEN_UNDERLYING_ADDRESS = '39' */\n    tag_20:\n      tag_97\n      tag_206\n      jump\t// in\n        /* \".deps/github/aave/protocol-v2/contracts/protocol/libraries/helpers/Errors.sol\":3830:3889  string public constant LP_REQUESTED_AMOUNT_TOO_SMALL = '25' */\n    tag_21:\n      tag_97\n      tag_212\n      jump\t// in\n        /* \".deps/github/aave/protocol-v2/contracts/protocol/libraries/helpers/Errors.sol\":2358:2430  string public constant VL_AMOUNT_BIGGER_THAN_MAX_LOAN_SIZE_STABLE = '14' */\n    tag_22:\n      tag_97\n      tag_218\n      jump\t// in\n        /* \".deps/github/aave/protocol-v2/contracts/protocol/libraries/helpers/Errors.sol\":1644:1711  string public constant VL_INVALID_INTEREST_RATE_MODE_SELECTED = '8' */\n    tag_23:\n      tag_97\n      tag_224\n      jump\t// in\n        /* \".deps/github/aave/protocol-v2/contracts/protocol/libraries/helpers/Errors.sol\":8065:8114  string public constant RC_INVALID_DECIMALS = '70' */\n    tag_24:\n      tag_97\n      tag_230\n      jump\t// in\n        /* \".deps/github/aave/protocol-v2/contracts/protocol/libraries/helpers/Errors.sol\":6013:6079  string public constant LPCM_COLLATERAL_CANNOT_BE_LIQUIDATED = '43' */\n    tag_25:\n      tag_97\n      tag_236\n      jump\t// in\n        /* \".deps/github/aave/protocol-v2/contracts/protocol/libraries/helpers/Errors.sol\":5211:5289  string public constant LPC_INVALID_STABLE_DEBT_TOKEN_UNDERLYING_ADDRESS = '38' */\n    tag_26:\n      tag_97\n      tag_242\n      jump\t// in\n        /* \".deps/github/aave/protocol-v2/contracts/protocol/libraries/helpers/Errors.sol\":6660:6711  string public constant MATH_DIVISION_BY_ZERO = '50' */\n    tag_27:\n      tag_97\n      tag_248\n      jump\t// in\n        /* \".deps/github/aave/protocol-v2/contracts/protocol/libraries/helpers/Errors.sol\":6814:6877  string public constant RL_VARIABLE_BORROW_INDEX_OVERFLOW = '52' */\n    tag_28:\n      tag_97\n      tag_254\n      jump\t// in\n        /* \".deps/github/aave/protocol-v2/contracts/protocol/libraries/helpers/Errors.sol\":3356:3421  string public constant LP_NOT_ENOUGH_STABLE_BORROW_BALANCE = '21' */\n    tag_29:\n      tag_97\n      tag_260\n      jump\t// in\n        /* \".deps/github/aave/protocol-v2/contracts/protocol/libraries/helpers/Errors.sol\":5588:5643  string public constant LPC_INVALID_CONFIGURATION = '75' */\n    tag_30:\n      tag_97\n      tag_266\n      jump\t// in\n        /* \".deps/github/aave/protocol-v2/contracts/protocol/libraries/helpers/Errors.sol\":2120:2181  string public constant VL_STABLE_BORROWING_NOT_ENABLED = '12' */\n    tag_31:\n      tag_97\n      tag_272\n      jump\t// in\n        /* \".deps/github/aave/protocol-v2/contracts/protocol/libraries/helpers/Errors.sol\":3619:3675  string public constant LP_LIQUIDATION_CALL_FAILED = '23' */\n    tag_32:\n      tag_97\n      tag_278\n      jump\t// in\n        /* \".deps/github/aave/protocol-v2/contracts/protocol/libraries/helpers/Errors.sol\":6715:6772  string public constant RL_LIQUIDITY_INDEX_OVERFLOW = '51' */\n    tag_33:\n      tag_97\n      tag_284\n      jump\t// in\n        /* \".deps/github/aave/protocol-v2/contracts/protocol/libraries/helpers/Errors.sol\":7463:7518  string public constant LP_FAILED_COLLATERAL_SWAP = '60' */\n    tag_34:\n      tag_97\n      tag_290\n      jump\t// in\n        /* \".deps/github/aave/protocol-v2/contracts/protocol/libraries/helpers/Errors.sol\":5473:5536  string public constant LPC_INVALID_ADDRESSES_PROVIDER_ID = '40' */\n    tag_35:\n      tag_97\n      tag_296\n      jump\t// in\n        /* \".deps/github/aave/protocol-v2/contracts/protocol/libraries/helpers/Errors.sol\":8011:8061  string public constant RC_INVALID_LIQ_BONUS = '69' */\n    tag_36:\n      tag_97\n      tag_302\n      jump\t// in\n        /* \".deps/github/aave/protocol-v2/contracts/protocol/libraries/helpers/Errors.sol\":7905:7949  string public constant RC_INVALID_LTV = '67' */\n    tag_37:\n      tag_97\n      tag_308\n      jump\t// in\n        /* \".deps/github/aave/protocol-v2/contracts/protocol/libraries/helpers/Errors.sol\":8425:8470  string public constant LP_NOT_CONTRACT = '78' */\n    tag_38:\n      tag_97\n      tag_314\n      jump\t// in\n        /* \".deps/github/aave/protocol-v2/contracts/protocol/libraries/helpers/Errors.sol\":2834:2897  string public constant VL_NO_STABLE_RATE_LOAN_IN_RESERVE = '17' */\n    tag_39:\n      tag_97\n      tag_320\n      jump\t// in\n        /* \".deps/github/aave/protocol-v2/contracts/protocol/libraries/helpers/Errors.sol\":4739:4796  string public constant LPC_RESERVE_LIQUIDITY_NOT_0 = '34' */\n    tag_40:\n      tag_97\n      tag_326\n      jump\t// in\n        /* \".deps/github/aave/protocol-v2/contracts/protocol/libraries/helpers/Errors.sol\":2972:3037  string public constant VL_NO_VARIABLE_RATE_LOAN_IN_RESERVE = '18' */\n    tag_41:\n      tag_97\n      tag_332\n      jump\t// in\n        /* \".deps/github/aave/protocol-v2/contracts/protocol/libraries/helpers/Errors.sol\":4286:4346  string public constant CT_CALLER_MUST_BE_LENDING_POOL = '29' */\n    tag_42:\n      tag_97\n      tag_338\n      jump\t// in\n        /* \".deps/github/aave/protocol-v2/contracts/protocol/libraries/helpers/Errors.sol\":7131:7191  string public constant RL_STABLE_BORROW_RATE_OVERFLOW = '55' */\n    tag_43:\n      tag_97\n      tag_344\n      jump\t// in\n        /* \".deps/github/aave/protocol-v2/contracts/protocol/libraries/helpers/Errors.sol\":1756:1811  string public constant VL_COLLATERAL_BALANCE_IS_0 = '9' */\n    tag_44:\n      tag_97\n      tag_350\n      jump\t// in\n        /* \".deps/github/aave/protocol-v2/contracts/protocol/libraries/helpers/Errors.sol\":6131:6205  string public constant LPCM_SPECIFIED_CURRENCY_NOT_BORROWED_BY_USER = '44' */\n    tag_45:\n      tag_97\n      tag_356\n      jump\t// in\n        /* \".deps/github/aave/protocol-v2/contracts/protocol/libraries/helpers/Errors.sol\":7773:7830  string public constant LP_NO_MORE_RESERVES_ALLOWED = '65' */\n    tag_46:\n      tag_97\n      tag_362\n      jump\t// in\n        /* \".deps/github/aave/protocol-v2/contracts/protocol/libraries/helpers/Errors.sol\":1022:1071  string public constant VL_NO_ACTIVE_RESERVE = '2' */\n    tag_47:\n      tag_97\n      tag_368\n      jump\t// in\n        /* \".deps/github/aave/protocol-v2/contracts/protocol/libraries/helpers/Errors.sol\":937:983  string public constant VL_INVALID_AMOUNT = '1' */\n    tag_48:\n      tag_97\n      tag_374\n      jump\t// in\n        /* \".deps/github/aave/protocol-v2/contracts/protocol/libraries/helpers/Errors.sol\":2513:2570  string public constant VL_NO_DEBT_OF_SELECTED_TYPE = '15' */\n    tag_49:\n      tag_97\n      tag_380\n      jump\t// in\n        /* \".deps/github/aave/protocol-v2/contracts/protocol/libraries/helpers/Errors.sol\":8118:8173  string public constant RC_INVALID_RESERVE_FACTOR = '71' */\n    tag_50:\n      tag_97\n      tag_386\n      jump\t// in\n        /* \".deps/github/aave/protocol-v2/contracts/protocol/libraries/helpers/Errors.sol\":4518:4575  string public constant CT_TRANSFER_AMOUNT_NOT_GT_0 = '31' */\n    tag_51:\n      tag_97\n      tag_392\n      jump\t// in\n        /* \".deps/github/aave/protocol-v2/contracts/protocol/libraries/helpers/Errors.sol\":2217:2287  string public constant VL_COLLATERAL_SAME_AS_BORROWING_CURRENCY = '13' */\n    tag_52:\n      tag_97\n      tag_398\n      jump\t// in\n        /* \".deps/github/aave/protocol-v2/contracts/protocol/libraries/helpers/Errors.sol\":1341:1406  string public constant VL_NOT_ENOUGH_AVAILABLE_USER_BALANCE = '5' */\n    tag_53:\n      tag_97\n      tag_404\n      jump\t// in\n        /* \".deps/github/aave/protocol-v2/contracts/protocol/libraries/helpers/Errors.sol\":697:748  string public constant CALLER_NOT_POOL_ADMIN = '33' */\n    tag_54:\n      tag_97\n      tag_410\n      jump\t// in\n        /* \".deps/github/aave/protocol-v2/contracts/protocol/libraries/helpers/Errors.sol\":4078:4147  string public constant LP_CALLER_NOT_LENDING_POOL_CONFIGURATOR = '27' */\n    tag_55:\n      tag_97\n      tag_416\n      jump\t// in\n        /* \".deps/github/aave/protocol-v2/contracts/protocol/libraries/helpers/Errors.sol\":8312:8371  string public constant LP_INCONSISTENT_PARAMS_LENGTH = '74' */\n    tag_56:\n      tag_97\n      tag_422\n      jump\t// in\n        /* \".deps/github/aave/protocol-v2/contracts/protocol/libraries/helpers/Errors.sol\":3487:3562  string public constant LP_INTEREST_RATE_REBALANCE_CONDITIONS_NOT_MET = '22' */\n    tag_57:\n      tag_97\n      tag_428\n      jump\t// in\n        /* \".deps/github/aave/protocol-v2/contracts/protocol/libraries/helpers/Errors.sol\":7953:8007  string public constant RC_INVALID_LIQ_THRESHOLD = '68' */\n    tag_58:\n      tag_97\n      tag_434\n      jump\t// in\n        /* \".deps/github/aave/protocol-v2/contracts/protocol/libraries/helpers/Errors.sol\":5085:5159  string public constant LPC_INVALID_VARIABLE_DEBT_TOKEN_POOL_ADDRESS = '37' */\n    tag_59:\n      tag_97\n      tag_440\n      jump\t// in\n        /* \".deps/github/aave/protocol-v2/contracts/protocol/libraries/helpers/Errors.sol\":7522:7583  string public constant LP_INVALID_EQUAL_ASSETS_TO_SWAP = '61' */\n    tag_60:\n      tag_97\n      tag_446\n      jump\t// in\n        /* \".deps/github/aave/protocol-v2/contracts/protocol/libraries/helpers/Errors.sol\":6257:6325  string public constant LPCM_NOT_ENOUGH_LIQUIDITY_TO_LIQUIDATE = '45' */\n    tag_61:\n      tag_97\n      tag_452\n      jump\t// in\n        /* \".deps/github/aave/protocol-v2/contracts/protocol/libraries/helpers/Errors.sol\":8474:8528  string public constant SDT_STABLE_DEBT_OVERFLOW = '79' */\n    tag_62:\n      tag_97\n      tag_458\n      jump\t// in\n        /* \".deps/github/aave/protocol-v2/contracts/protocol/libraries/helpers/Errors.sol\":5692:5752  string public constant LPC_CALLER_NOT_EMERGENCY_ADMIN = '76' */\n    tag_63:\n      tag_97\n      tag_464\n      jump\t// in\n        /* \".deps/github/aave/protocol-v2/contracts/protocol/libraries/helpers/Errors.sol\":7834:7901  string public constant LP_INVALID_FLASH_LOAN_EXECUTOR_RETURN = '66' */\n    tag_64:\n      tag_97\n      tag_470\n      jump\t// in\n        /* \".deps/github/aave/protocol-v2/contracts/protocol/libraries/helpers/Errors.sol\":7707:7749  string public constant LP_IS_PAUSED = '64' */\n    tag_65:\n      tag_97\n      tag_476\n      jump\t// in\n        /* \".deps/github/aave/protocol-v2/contracts/protocol/libraries/helpers/Errors.sol\":5800:5859  string public constant LPAPR_PROVIDER_NOT_REGISTERED = '41' */\n    tag_66:\n      tag_97\n      tag_482\n      jump\t// in\n        /* \".deps/github/aave/protocol-v2/contracts/protocol/libraries/helpers/Errors.sol\":1114:1160  string public constant VL_RESERVE_FROZEN = '3' */\n    tag_67:\n      tag_97\n      tag_488\n      jump\t// in\n        /* \".deps/github/aave/protocol-v2/contracts/protocol/libraries/helpers/Errors.sol\":8246:8308  string public constant VL_INCONSISTENT_FLASHLOAN_PARAMS = '73' */\n    tag_68:\n      tag_97\n      tag_494\n      jump\t// in\n        /* \".deps/github/aave/protocol-v2/contracts/protocol/libraries/helpers/Errors.sol\":2687:2757  string public constant VL_NO_EXPLICIT_AMOUNT_TO_REPAY_ON_BEHALF = '16' */\n    tag_69:\n      tag_97\n      tag_500\n      jump\t// in\n        /* \".deps/github/aave/protocol-v2/contracts/protocol/libraries/helpers/Errors.sol\":4961:5033  string public constant LPC_INVALID_STABLE_DEBT_TOKEN_POOL_ADDRESS = '36' */\n    tag_70:\n      tag_97\n      tag_506\n      jump\t// in\n        /* \".deps/github/aave/protocol-v2/contracts/protocol/libraries/helpers/Errors.sol\":3243:3298  string public constant VL_DEPOSIT_ALREADY_IN_USE = '20' */\n    tag_71:\n      tag_97\n      tag_512\n      jump\t// in\n        /* \".deps/github/aave/protocol-v2/contracts/protocol/libraries/helpers/Errors.sol\":791:848  string public constant BORROW_ALLOWANCE_NOT_ENOUGH = '59' */\n    tag_72:\n      tag_97\n      tag_518\n      jump\t// in\n        /* \".deps/github/aave/protocol-v2/contracts/protocol/libraries/helpers/Errors.sol\":7317:7378  string public constant LP_FAILED_REPAY_WITH_COLLATERAL = '57' */\n    tag_73:\n      tag_97\n      tag_524\n      jump\t// in\n        /* \".deps/github/aave/protocol-v2/contracts/protocol/libraries/helpers/Errors.sol\":6449:6504  string public constant LP_INVALID_FLASHLOAN_MODE = '47' */\n    tag_74:\n      tag_97\n      tag_530\n      jump\t// in\n        /* \".deps/github/aave/protocol-v2/contracts/protocol/libraries/helpers/Errors.sol\":7646:7703  string public constant LP_CALLER_MUST_BE_AN_ATOKEN = '63' */\n    tag_75:\n      tag_97\n      tag_536\n      jump\t// in\n        /* \".deps/github/aave/protocol-v2/contracts/protocol/libraries/helpers/Errors.sol\":4848:4909  string public constant LPC_INVALID_ATOKEN_POOL_ADDRESS = '35' */\n    tag_76:\n      tag_97\n      tag_542\n      jump\t// in\n        /* \".deps/github/aave/protocol-v2/contracts/protocol/libraries/helpers/Errors.sol\":6925:6981  string public constant RL_LIQUIDITY_RATE_OVERFLOW = '53' */\n    tag_77:\n      tag_97\n      tag_548\n      jump\t// in\n        /* \".deps/github/aave/protocol-v2/contracts/protocol/libraries/helpers/Errors.sol\":1468:1520  string public constant VL_TRANSFER_NOT_ALLOWED = '6' */\n    tag_78:\n      tag_97\n      tag_554\n      jump\t// in\n        /* \".deps/github/aave/protocol-v2/contracts/protocol/libraries/helpers/Errors.sol\":7587:7642  string public constant LP_REENTRANCY_NOT_ALLOWED = '62' */\n    tag_79:\n      tag_97\n      tag_560\n      jump\t// in\n        /* \".deps/github/aave/protocol-v2/contracts/protocol/libraries/helpers/Errors.sol\":5895:5963  string public constant LPCM_HEALTH_FACTOR_NOT_BELOW_THRESHOLD = '42' */\n    tag_80:\n      tag_97\n      tag_566\n      jump\t// in\n        /* \".deps/github/aave/protocol-v2/contracts/protocol/libraries/helpers/Errors.sol\":4633:4693  string public constant RL_RESERVE_ALREADY_INITIALIZED = '32' */\n    tag_81:\n      tag_97\n      tag_572\n      jump\t// in\n        /* \".deps/github/aave/protocol-v2/contracts/protocol/libraries/helpers/Errors.sol\":8375:8421  string public constant UL_INVALID_INDEX = '77' */\n    tag_98:\n      mload(0x40)\n      dup1\n      0x40\n      add\n      0x40\n      mstore\n      dup1\n      0x02\n      dup2\n      mstore\n      0x20\n      add\n      shl(0xf0, 0x3737)\n      dup2\n      mstore\n      pop\n      dup2\n      jump\t// out\n        /* \".deps/github/aave/protocol-v2/contracts/protocol/libraries/helpers/Errors.sol\":6542:6600  string public constant MATH_MULTIPLICATION_OVERFLOW = '48' */\n    tag_104:\n      mload(0x40)\n      dup1\n      0x40\n      add\n      0x40\n      mstore\n      dup1\n      0x02\n      dup2\n      mstore\n      0x20\n      add\n      shl(0xf3, 0x0687)\n      dup2\n      mstore\n      pop\n      dup2\n      jump\t// out\n        /* \".deps/github/aave/protocol-v2/contracts/protocol/libraries/helpers/Errors.sol\":4406:4471  string public constant CT_CANNOT_GIVE_ALLOWANCE_TO_HIMSELF = '30' */\n    tag_110:\n      mload(0x40)\n      dup1\n      0x40\n      add\n      0x40\n      mstore\n      dup1\n      0x02\n      dup2\n      mstore\n      0x20\n      add\n      shl(0xf4, 0x0333)\n      dup2\n      mstore\n      pop\n      dup2\n      jump\t// out\n        /* \".deps/github/aave/protocol-v2/contracts/protocol/libraries/helpers/Errors.sol\":3949:4018  string public constant LP_INCONSISTENT_PROTOCOL_ACTUAL_BALANCE = '26' */\n    tag_116:\n      mload(0x40)\n      dup1\n      0x40\n      add\n      0x40\n      mstore\n      dup1\n      0x02\n      dup2\n      mstore\n      0x20\n      add\n      shl(0xf1, 0x191b)\n      dup2\n      mstore\n      pop\n      dup2\n      jump\t// out\n        /* \".deps/github/aave/protocol-v2/contracts/protocol/libraries/helpers/Errors.sol\":6604:6656  string public constant MATH_ADDITION_OVERFLOW = '49' */\n    tag_122:\n      mload(0x40)\n      dup1\n      0x40\n      add\n      0x40\n      mstore\n      dup1\n      0x02\n      dup2\n      mstore\n      0x20\n      add\n      shl(0xf0, 0x3439)\n      dup2\n      mstore\n      pop\n      dup2\n      jump\t// out\n        /* \".deps/github/aave/protocol-v2/contracts/protocol/libraries/helpers/Errors.sol\":7236:7288  string public constant CT_INVALID_MINT_AMOUNT = '56' */\n    tag_128:\n      mload(0x40)\n      dup1\n      0x40\n      add\n      0x40\n      mstore\n      dup1\n      0x02\n      dup2\n      mstore\n      0x20\n      add\n      shl(0xf1, 0x1a9b)\n      dup2\n      mstore\n      pop\n      dup2\n      jump\t// out\n        /* \".deps/github/aave/protocol-v2/contracts/protocol/libraries/helpers/Errors.sol\":1226:1296  string public constant VL_CURRENT_AVAILABLE_LIQUIDITY_NOT_ENOUGH = '4' */\n    tag_134:\n      mload(0x40)\n      dup1\n      0x40\n      add\n      0x40\n      mstore\n      dup1\n      0x01\n      dup2\n      mstore\n      0x20\n      add\n      shl(0xfa, 0x0d)\n      dup2\n      mstore\n      pop\n      dup2\n      jump\t// out\n        /* \".deps/github/aave/protocol-v2/contracts/protocol/libraries/helpers/Errors.sol\":8532:8586  string public constant SDT_BURN_EXCEEDS_BALANCE = '80' */\n    tag_140:\n      mload(0x40)\n      dup1\n      0x40\n      add\n      0x40\n      mstore\n      dup1\n      0x02\n      dup2\n      mstore\n      0x20\n      add\n      shl(0xf4, 0x0383)\n      dup2\n      mstore\n      pop\n      dup2\n      jump\t// out\n        /* \".deps/github/aave/protocol-v2/contracts/protocol/libraries/helpers/Errors.sol\":6386:6430  string public constant LPCM_NO_ERRORS = '46' */\n    tag_146:\n      mload(0x40)\n      dup1\n      0x40\n      add\n      0x40\n      mstore\n      dup1\n      0x02\n      dup2\n      mstore\n      0x20\n      add\n      shl(0xf1, 0x1a1b)\n      dup2\n      mstore\n      pop\n      dup2\n      jump\t// out\n        /* \".deps/github/aave/protocol-v2/contracts/protocol/libraries/helpers/Errors.sol\":1848:1927  string public constant VL_HEALTH_FACTOR_LOWER_THAN_LIQUIDATION_THRESHOLD = '10' */\n    tag_152:\n      mload(0x40)\n      dup1\n      0x40\n      add\n      0x40\n      mstore\n      dup1\n      0x02\n      dup2\n      mstore\n      0x20\n      add\n      shl(0xf4, 0x0313)\n      dup2\n      mstore\n      pop\n      dup2\n      jump\t// out\n        /* \".deps/github/aave/protocol-v2/contracts/protocol/libraries/helpers/Errors.sol\":3708:3771  string public constant LP_NOT_ENOUGH_LIQUIDITY_TO_BORROW = '24' */\n    tag_158:\n      mload(0x40)\n      dup1\n      0x40\n      add\n      0x40\n      mstore\n      dup1\n      0x02\n      dup2\n      mstore\n      0x20\n      add\n      shl(0xf2, 0x0c8d)\n      dup2\n      mstore\n      pop\n      dup2\n      jump\t// out\n        /* \".deps/github/aave/protocol-v2/contracts/protocol/libraries/helpers/Errors.sol\":1991:2058  string public constant VL_COLLATERAL_CANNOT_COVER_NEW_BORROW = '11' */\n    tag_164:\n      mload(0x40)\n      dup1\n      0x40\n      add\n      0x40\n      mstore\n      dup1\n      0x02\n      dup2\n      mstore\n      0x20\n      add\n      shl(0xf0, 0x3131)\n      dup2\n      mstore\n      pop\n      dup2\n      jump\t// out\n        /* \".deps/github/aave/protocol-v2/contracts/protocol/libraries/helpers/Errors.sol\":4220:4282  string public constant LP_INCONSISTENT_FLASHLOAN_PARAMS = '28' */\n    tag_170:\n      mload(0x40)\n      dup1\n      0x40\n      add\n      0x40\n      mstore\n      dup1\n      0x02\n      dup2\n      mstore\n      0x20\n      add\n      shl(0xf3, 0x0647)\n      dup2\n      mstore\n      pop\n      dup2\n      jump\t// out\n        /* \".deps/github/aave/protocol-v2/contracts/protocol/libraries/helpers/Errors.sol\":7382:7434  string public constant CT_INVALID_BURN_AMOUNT = '58' */\n    tag_176:\n      mload(0x40)\n      dup1\n      0x40\n      add\n      0x40\n      mstore\n      dup1\n      0x02\n      dup2\n      mstore\n      0x20\n      add\n      shl(0xf3, 0x06a7)\n      dup2\n      mstore\n      pop\n      dup2\n      jump\t// out\n        /* \".deps/github/aave/protocol-v2/contracts/protocol/libraries/helpers/Errors.sol\":7022:7084  string public constant RL_VARIABLE_BORROW_RATE_OVERFLOW = '54' */\n    tag_182:\n      mload(0x40)\n      dup1\n      0x40\n      add\n      0x40\n      mstore\n      dup1\n      0x02\n      dup2\n      mstore\n      0x20\n      add\n      shl(0xf2, 0x0d4d)\n      dup2\n      mstore\n      pop\n      dup2\n      jump\t// out\n        /* \".deps/github/aave/protocol-v2/contracts/protocol/libraries/helpers/Errors.sol\":8177:8242  string public constant LPAPR_INVALID_ADDRESSES_PROVIDER_ID = '72' */\n    tag_188:\n      mload(0x40)\n      dup1\n      0x40\n      add\n      0x40\n      mstore\n      dup1\n      0x02\n      dup2\n      mstore\n      0x20\n      add\n      shl(0xf1, 0x1b99)\n      dup2\n      mstore\n      pop\n      dup2\n      jump\t// out\n        /* \".deps/github/aave/protocol-v2/contracts/protocol/libraries/helpers/Errors.sol\":3114:3184  string public constant VL_UNDERLYING_BALANCE_NOT_GREATER_THAN_0 = '19' */\n    tag_194:\n      mload(0x40)\n      dup1\n      0x40\n      add\n      0x40\n      mstore\n      dup1\n      0x02\n      dup2\n      mstore\n      0x20\n      add\n      shl(0xf0, 0x3139)\n      dup2\n      mstore\n      pop\n      dup2\n      jump\t// out\n        /* \".deps/github/aave/protocol-v2/contracts/protocol/libraries/helpers/Errors.sol\":1557:1610  string public constant VL_BORROWING_NOT_ENABLED = '7' */\n    tag_200:\n      mload(0x40)\n      dup1\n      0x40\n      add\n      0x40\n      mstore\n      dup1\n      0x01\n      dup2\n      mstore\n      0x20\n      add\n      shl(0xf8, 0x37)\n      dup2\n      mstore\n      pop\n      dup2\n      jump\t// out\n        /* \".deps/github/aave/protocol-v2/contracts/protocol/libraries/helpers/Errors.sol\":5341:5421  string public constant LPC_INVALID_VARIABLE_DEBT_TOKEN_UNDERLYING_ADDRESS = '39' */\n    tag_206:\n      mload(0x40)\n      dup1\n      0x40\n      add\n      0x40\n      mstore\n      dup1\n      0x02\n      dup2\n      mstore\n      0x20\n      add\n      shl(0xf0, 0x3339)\n      dup2\n      mstore\n      pop\n      dup2\n      jump\t// out\n        /* \".deps/github/aave/protocol-v2/contracts/protocol/libraries/helpers/Errors.sol\":3830:3889  string public constant LP_REQUESTED_AMOUNT_TOO_SMALL = '25' */\n    tag_212:\n      mload(0x40)\n      dup1\n      0x40\n      add\n      0x40\n      mstore\n      dup1\n      0x02\n      dup2\n      mstore\n      0x20\n      add\n      shl(0xf0, 0x3235)\n      dup2\n      mstore\n      pop\n      dup2\n      jump\t// out\n        /* \".deps/github/aave/protocol-v2/contracts/protocol/libraries/helpers/Errors.sol\":2358:2430  string public constant VL_AMOUNT_BIGGER_THAN_MAX_LOAN_SIZE_STABLE = '14' */\n    tag_218:\n      mload(0x40)\n      dup1\n      0x40\n      add\n      0x40\n      mstore\n      dup1\n      0x02\n      dup2\n      mstore\n      0x20\n      add\n      shl(0xf2, 0x0c4d)\n      dup2\n      mstore\n      pop\n      dup2\n      jump\t// out\n        /* \".deps/github/aave/protocol-v2/contracts/protocol/libraries/helpers/Errors.sol\":1644:1711  string public constant VL_INVALID_INTEREST_RATE_MODE_SELECTED = '8' */\n    tag_224:\n      mload(0x40)\n      dup1\n      0x40\n      add\n      0x40\n      mstore\n      dup1\n      0x01\n      dup2\n      mstore\n      0x20\n      add\n      shl(0xfb, 0x07)\n      dup2\n      mstore\n      pop\n      dup2\n      jump\t// out\n        /* \".deps/github/aave/protocol-v2/contracts/protocol/libraries/helpers/Errors.sol\":8065:8114  string public constant RC_INVALID_DECIMALS = '70' */\n    tag_230:\n      mload(0x40)\n      dup1\n      0x40\n      add\n      0x40\n      mstore\n      dup1\n      0x02\n      dup2\n      mstore\n      0x20\n      add\n      shl(0xf4, 0x0373)\n      dup2\n      mstore\n      pop\n      dup2\n      jump\t// out\n        /* \".deps/github/aave/protocol-v2/contracts/protocol/libraries/helpers/Errors.sol\":6013:6079  string public constant LPCM_COLLATERAL_CANNOT_BE_LIQUIDATED = '43' */\n    tag_236:\n      mload(0x40)\n      dup1\n      0x40\n      add\n      0x40\n      mstore\n      dup1\n      0x02\n      dup2\n      mstore\n      0x20\n      add\n      shl(0xf0, 0x3433)\n      dup2\n      mstore\n      pop\n      dup2\n      jump\t// out\n        /* \".deps/github/aave/protocol-v2/contracts/protocol/libraries/helpers/Errors.sol\":5211:5289  string public constant LPC_INVALID_STABLE_DEBT_TOKEN_UNDERLYING_ADDRESS = '38' */\n    tag_242:\n      mload(0x40)\n      dup1\n      0x40\n      add\n      0x40\n      mstore\n      dup1\n      0x02\n      dup2\n      mstore\n      0x20\n      add\n      shl(0xf3, 0x0667)\n      dup2\n      mstore\n      pop\n      dup2\n      jump\t// out\n        /* \".deps/github/aave/protocol-v2/contracts/protocol/libraries/helpers/Errors.sol\":6660:6711  string public constant MATH_DIVISION_BY_ZERO = '50' */\n    tag_248:\n      mload(0x40)\n      dup1\n      0x40\n      add\n      0x40\n      mstore\n      dup1\n      0x02\n      dup2\n      mstore\n      0x20\n      add\n      shl(0xf4, 0x0353)\n      dup2\n      mstore\n      pop\n      dup2\n      jump\t// out\n        /* \".deps/github/aave/protocol-v2/contracts/protocol/libraries/helpers/Errors.sol\":6814:6877  string public constant RL_VARIABLE_BORROW_INDEX_OVERFLOW = '52' */\n    tag_254:\n      mload(0x40)\n      dup1\n      0x40\n      add\n      0x40\n      mstore\n      dup1\n      0x02\n      dup2\n      mstore\n      0x20\n      add\n      shl(0xf1, 0x1a99)\n      dup2\n      mstore\n      pop\n      dup2\n      jump\t// out\n        /* \".deps/github/aave/protocol-v2/contracts/protocol/libraries/helpers/Errors.sol\":3356:3421  string public constant LP_NOT_ENOUGH_STABLE_BORROW_BALANCE = '21' */\n    tag_260:\n      mload(0x40)\n      dup1\n      0x40\n      add\n      0x40\n      mstore\n      dup1\n      0x02\n      dup2\n      mstore\n      0x20\n      add\n      shl(0xf0, 0x3231)\n      dup2\n      mstore\n      pop\n      dup2\n      jump\t// out\n        /* \".deps/github/aave/protocol-v2/contracts/protocol/libraries/helpers/Errors.sol\":5588:5643  string public constant LPC_INVALID_CONFIGURATION = '75' */\n    tag_266:\n      mload(0x40)\n      dup1\n      0x40\n      add\n      0x40\n      mstore\n      dup1\n      0x02\n      dup2\n      mstore\n      0x20\n      add\n      shl(0xf0, 0x3735)\n      dup2\n      mstore\n      pop\n      dup2\n      jump\t// out\n        /* \".deps/github/aave/protocol-v2/contracts/protocol/libraries/helpers/Errors.sol\":2120:2181  string public constant VL_STABLE_BORROWING_NOT_ENABLED = '12' */\n    tag_272:\n      mload(0x40)\n      dup1\n      0x40\n      add\n      0x40\n      mstore\n      dup1\n      0x02\n      dup2\n      mstore\n      0x20\n      add\n      shl(0xf1, 0x1899)\n      dup2\n      mstore\n      pop\n      dup2\n      jump\t// out\n        /* \".deps/github/aave/protocol-v2/contracts/protocol/libraries/helpers/Errors.sol\":3619:3675  string public constant LP_LIQUIDATION_CALL_FAILED = '23' */\n    tag_278:\n      mload(0x40)\n      dup1\n      0x40\n      add\n      0x40\n      mstore\n      dup1\n      0x02\n      dup2\n      mstore\n      0x20\n      add\n      shl(0xf0, 0x3233)\n      dup2\n      mstore\n      pop\n      dup2\n      jump\t// out\n        /* \".deps/github/aave/protocol-v2/contracts/protocol/libraries/helpers/Errors.sol\":6715:6772  string public constant RL_LIQUIDITY_INDEX_OVERFLOW = '51' */\n    tag_284:\n      mload(0x40)\n      dup1\n      0x40\n      add\n      0x40\n      mstore\n      dup1\n      0x02\n      dup2\n      mstore\n      0x20\n      add\n      shl(0xf0, 0x3531)\n      dup2\n      mstore\n      pop\n      dup2\n      jump\t// out\n        /* \".deps/github/aave/protocol-v2/contracts/protocol/libraries/helpers/Errors.sol\":7463:7518  string public constant LP_FAILED_COLLATERAL_SWAP = '60' */\n    tag_290:\n      mload(0x40)\n      dup1\n      0x40\n      add\n      0x40\n      mstore\n      dup1\n      0x02\n      dup2\n      mstore\n      0x20\n      add\n      shl(0xf4, 0x0363)\n      dup2\n      mstore\n      pop\n      dup2\n      jump\t// out\n        /* \".deps/github/aave/protocol-v2/contracts/protocol/libraries/helpers/Errors.sol\":5473:5536  string public constant LPC_INVALID_ADDRESSES_PROVIDER_ID = '40' */\n    tag_296:\n      mload(0x40)\n      dup1\n      0x40\n      add\n      0x40\n      mstore\n      dup1\n      0x02\n      dup2\n      mstore\n      0x20\n      add\n      shl(0xf4, 0x0343)\n      dup2\n      mstore\n      pop\n      dup2\n      jump\t// out\n        /* \".deps/github/aave/protocol-v2/contracts/protocol/libraries/helpers/Errors.sol\":8011:8061  string public constant RC_INVALID_LIQ_BONUS = '69' */\n    tag_302:\n      mload(0x40)\n      dup1\n      0x40\n      add\n      0x40\n      mstore\n      dup1\n      0x02\n      dup2\n      mstore\n      0x20\n      add\n      shl(0xf0, 0x3639)\n      dup2\n      mstore\n      pop\n      dup2\n      jump\t// out\n        /* \".deps/github/aave/protocol-v2/contracts/protocol/libraries/helpers/Errors.sol\":7905:7949  string public constant RC_INVALID_LTV = '67' */\n    tag_308:\n      mload(0x40)\n      dup1\n      0x40\n      add\n      0x40\n      mstore\n      dup1\n      0x02\n      dup2\n      mstore\n      0x20\n      add\n      shl(0xf0, 0x3637)\n      dup2\n      mstore\n      pop\n      dup2\n      jump\t// out\n        /* \".deps/github/aave/protocol-v2/contracts/protocol/libraries/helpers/Errors.sol\":8425:8470  string public constant LP_NOT_CONTRACT = '78' */\n    tag_314:\n      mload(0x40)\n      dup1\n      0x40\n      add\n      0x40\n      mstore\n      dup1\n      0x02\n      dup2\n      mstore\n      0x20\n      add\n      shl(0xf3, 0x06e7)\n      dup2\n      mstore\n      pop\n      dup2\n      jump\t// out\n        /* \".deps/github/aave/protocol-v2/contracts/protocol/libraries/helpers/Errors.sol\":2834:2897  string public constant VL_NO_STABLE_RATE_LOAN_IN_RESERVE = '17' */\n    tag_320:\n      mload(0x40)\n      dup1\n      0x40\n      add\n      0x40\n      mstore\n      dup1\n      0x02\n      dup2\n      mstore\n      0x20\n      add\n      shl(0xf0, 0x3137)\n      dup2\n      mstore\n      pop\n      dup2\n      jump\t// out\n        /* \".deps/github/aave/protocol-v2/contracts/protocol/libraries/helpers/Errors.sol\":4739:4796  string public constant LPC_RESERVE_LIQUIDITY_NOT_0 = '34' */\n    tag_326:\n      mload(0x40)\n      dup1\n      0x40\n      add\n      0x40\n      mstore\n      dup1\n      0x02\n      dup2\n      mstore\n      0x20\n      add\n      shl(0xf2, 0x0ccd)\n      dup2\n      mstore\n      pop\n      dup2\n      jump\t// out\n        /* \".deps/github/aave/protocol-v2/contracts/protocol/libraries/helpers/Errors.sol\":2972:3037  string public constant VL_NO_VARIABLE_RATE_LOAN_IN_RESERVE = '18' */\n    tag_332:\n      mload(0x40)\n      dup1\n      0x40\n      add\n      0x40\n      mstore\n      dup1\n      0x02\n      dup2\n      mstore\n      0x20\n      add\n      shl(0xf3, 0x0627)\n      dup2\n      mstore\n      pop\n      dup2\n      jump\t// out\n        /* \".deps/github/aave/protocol-v2/contracts/protocol/libraries/helpers/Errors.sol\":4286:4346  string public constant CT_CALLER_MUST_BE_LENDING_POOL = '29' */\n    tag_338:\n      mload(0x40)\n      dup1\n      0x40\n      add\n      0x40\n      mstore\n      dup1\n      0x02\n      dup2\n      mstore\n      0x20\n      add\n      shl(0xf0, 0x3239)\n      dup2\n      mstore\n      pop\n      dup2\n      jump\t// out\n        /* \".deps/github/aave/protocol-v2/contracts/protocol/libraries/helpers/Errors.sol\":7131:7191  string public constant RL_STABLE_BORROW_RATE_OVERFLOW = '55' */\n    tag_344:\n      mload(0x40)\n      dup1\n      0x40\n      add\n      0x40\n      mstore\n      dup1\n      0x02\n      dup2\n      mstore\n      0x20\n      add\n      shl(0xf0, 0x3535)\n      dup2\n      mstore\n      pop\n      dup2\n      jump\t// out\n        /* \".deps/github/aave/protocol-v2/contracts/protocol/libraries/helpers/Errors.sol\":1756:1811  string public constant VL_COLLATERAL_BALANCE_IS_0 = '9' */\n    tag_350:\n      mload(0x40)\n      dup1\n      0x40\n      add\n      0x40\n      mstore\n      dup1\n      0x01\n      dup2\n      mstore\n      0x20\n      add\n      shl(0xf8, 0x39)\n      dup2\n      mstore\n      pop\n      dup2\n      jump\t// out\n        /* \".deps/github/aave/protocol-v2/contracts/protocol/libraries/helpers/Errors.sol\":6131:6205  string public constant LPCM_SPECIFIED_CURRENCY_NOT_BORROWED_BY_USER = '44' */\n    tag_356:\n      mload(0x40)\n      dup1\n      0x40\n      add\n      0x40\n      mstore\n      dup1\n      0x02\n      dup2\n      mstore\n      0x20\n      add\n      shl(0xf2, 0x0d0d)\n      dup2\n      mstore\n      pop\n      dup2\n      jump\t// out\n        /* \".deps/github/aave/protocol-v2/contracts/protocol/libraries/helpers/Errors.sol\":7773:7830  string public constant LP_NO_MORE_RESERVES_ALLOWED = '65' */\n    tag_362:\n      mload(0x40)\n      dup1\n      0x40\n      add\n      0x40\n      mstore\n      dup1\n      0x02\n      dup2\n      mstore\n      0x20\n      add\n      shl(0xf0, 0x3635)\n      dup2\n      mstore\n      pop\n      dup2\n      jump\t// out\n        /* \".deps/github/aave/protocol-v2/contracts/protocol/libraries/helpers/Errors.sol\":1022:1071  string public constant VL_NO_ACTIVE_RESERVE = '2' */\n    tag_368:\n      mload(0x40)\n      dup1\n      0x40\n      add\n      0x40\n      mstore\n      dup1\n      0x01\n      dup2\n      mstore\n      0x20\n      add\n      shl(0xf9, 0x19)\n      dup2\n      mstore\n      pop\n      dup2\n      jump\t// out\n        /* \".deps/github/aave/protocol-v2/contracts/protocol/libraries/helpers/Errors.sol\":937:983  string public constant VL_INVALID_AMOUNT = '1' */\n    tag_374:\n      mload(0x40)\n      dup1\n      0x40\n      add\n      0x40\n      mstore\n      dup1\n      0x01\n      dup2\n      mstore\n      0x20\n      add\n      shl(0xf8, 0x31)\n      dup2\n      mstore\n      pop\n      dup2\n      jump\t// out\n        /* \".deps/github/aave/protocol-v2/contracts/protocol/libraries/helpers/Errors.sol\":2513:2570  string public constant VL_NO_DEBT_OF_SELECTED_TYPE = '15' */\n    tag_380:\n      mload(0x40)\n      dup1\n      0x40\n      add\n      0x40\n      mstore\n      dup1\n      0x02\n      dup2\n      mstore\n      0x20\n      add\n      shl(0xf0, 0x3135)\n      dup2\n      mstore\n      pop\n      dup2\n      jump\t// out\n        /* \".deps/github/aave/protocol-v2/contracts/protocol/libraries/helpers/Errors.sol\":8118:8173  string public constant RC_INVALID_RESERVE_FACTOR = '71' */\n    tag_386:\n      mload(0x40)\n      dup1\n      0x40\n      add\n      0x40\n      mstore\n      dup1\n      0x02\n      dup2\n      mstore\n      0x20\n      add\n      shl(0xf0, 0x3731)\n      dup2\n      mstore\n      pop\n      dup2\n      jump\t// out\n        /* \".deps/github/aave/protocol-v2/contracts/protocol/libraries/helpers/Errors.sol\":4518:4575  string public constant CT_TRANSFER_AMOUNT_NOT_GT_0 = '31' */\n    tag_392:\n      mload(0x40)\n      dup1\n      0x40\n      add\n      0x40\n      mstore\n      dup1\n      0x02\n      dup2\n      mstore\n      0x20\n      add\n      shl(0xf0, 0x3331)\n      dup2\n      mstore\n      pop\n      dup2\n      jump\t// out\n        /* \".deps/github/aave/protocol-v2/contracts/protocol/libraries/helpers/Errors.sol\":2217:2287  string public constant VL_COLLATERAL_SAME_AS_BORROWING_CURRENCY = '13' */\n    tag_398:\n      mload(0x40)\n      dup1\n      0x40\n      add\n      0x40\n      mstore\n      dup1\n      0x02\n      dup2\n      mstore\n      0x20\n      add\n      shl(0xf0, 0x3133)\n      dup2\n      mstore\n      pop\n      dup2\n      jump\t// out\n        /* \".deps/github/aave/protocol-v2/contracts/protocol/libraries/helpers/Errors.sol\":1341:1406  string public constant VL_NOT_ENOUGH_AVAILABLE_USER_BALANCE = '5' */\n    tag_404:\n      mload(0x40)\n      dup1\n      0x40\n      add\n      0x40\n      mstore\n      dup1\n      0x01\n      dup2\n      mstore\n      0x20\n      add\n      shl(0xf8, 0x35)\n      dup2\n      mstore\n      pop\n      dup2\n      jump\t// out\n        /* \".deps/github/aave/protocol-v2/contracts/protocol/libraries/helpers/Errors.sol\":697:748  string public constant CALLER_NOT_POOL_ADMIN = '33' */\n    tag_410:\n      mload(0x40)\n      dup1\n      0x40\n      add\n      0x40\n      mstore\n      dup1\n      0x02\n      dup2\n      mstore\n      0x20\n      add\n      shl(0xf0, 0x3333)\n      dup2\n      mstore\n      pop\n      dup2\n      jump\t// out\n        /* \".deps/github/aave/protocol-v2/contracts/protocol/libraries/helpers/Errors.sol\":4078:4147  string public constant LP_CALLER_NOT_LENDING_POOL_CONFIGURATOR = '27' */\n    tag_416:\n      mload(0x40)\n      dup1\n      0x40\n      add\n      0x40\n      mstore\n      dup1\n      0x02\n      dup2\n      mstore\n      0x20\n      add\n      shl(0xf0, 0x3237)\n      dup2\n      mstore\n      pop\n      dup2\n      jump\t// out\n        /* \".deps/github/aave/protocol-v2/contracts/protocol/libraries/helpers/Errors.sol\":8312:8371  string public constant LP_INCONSISTENT_PARAMS_LENGTH = '74' */\n    tag_422:\n      mload(0x40)\n      dup1\n      0x40\n      add\n      0x40\n      mstore\n      dup1\n      0x02\n      dup2\n      mstore\n      0x20\n      add\n      shl(0xf2, 0x0dcd)\n      dup2\n      mstore\n      pop\n      dup2\n      jump\t// out\n        /* \".deps/github/aave/protocol-v2/contracts/protocol/libraries/helpers/Errors.sol\":3487:3562  string public constant LP_INTEREST_RATE_REBALANCE_CONDITIONS_NOT_MET = '22' */\n    tag_428:\n      mload(0x40)\n      dup1\n      0x40\n      add\n      0x40\n      mstore\n      dup1\n      0x02\n      dup2\n      mstore\n      0x20\n      add\n      shl(0xf1, 0x1919)\n      dup2\n      mstore\n      pop\n      dup2\n      jump\t// out\n        /* \".deps/github/aave/protocol-v2/contracts/protocol/libraries/helpers/Errors.sol\":7953:8007  string public constant RC_INVALID_LIQ_THRESHOLD = '68' */\n    tag_434:\n      mload(0x40)\n      dup1\n      0x40\n      add\n      0x40\n      mstore\n      dup1\n      0x02\n      dup2\n      mstore\n      0x20\n      add\n      shl(0xf3, 0x06c7)\n      dup2\n      mstore\n      pop\n      dup2\n      jump\t// out\n        /* \".deps/github/aave/protocol-v2/contracts/protocol/libraries/helpers/Errors.sol\":5085:5159  string public constant LPC_INVALID_VARIABLE_DEBT_TOKEN_POOL_ADDRESS = '37' */\n    tag_440:\n      mload(0x40)\n      dup1\n      0x40\n      add\n      0x40\n      mstore\n      dup1\n      0x02\n      dup2\n      mstore\n      0x20\n      add\n      shl(0xf0, 0x3337)\n      dup2\n      mstore\n      pop\n      dup2\n      jump\t// out\n        /* \".deps/github/aave/protocol-v2/contracts/protocol/libraries/helpers/Errors.sol\":7522:7583  string public constant LP_INVALID_EQUAL_ASSETS_TO_SWAP = '61' */\n    tag_446:\n      mload(0x40)\n      dup1\n      0x40\n      add\n      0x40\n      mstore\n      dup1\n      0x02\n      dup2\n      mstore\n      0x20\n      add\n      shl(0xf0, 0x3631)\n      dup2\n      mstore\n      pop\n      dup2\n      jump\t// out\n        /* \".deps/github/aave/protocol-v2/contracts/protocol/libraries/helpers/Errors.sol\":6257:6325  string public constant LPCM_NOT_ENOUGH_LIQUIDITY_TO_LIQUIDATE = '45' */\n    tag_452:\n      mload(0x40)\n      dup1\n      0x40\n      add\n      0x40\n      mstore\n      dup1\n      0x02\n      dup2\n      mstore\n      0x20\n      add\n      shl(0xf0, 0x3435)\n      dup2\n      mstore\n      pop\n      dup2\n      jump\t// out\n        /* \".deps/github/aave/protocol-v2/contracts/protocol/libraries/helpers/Errors.sol\":8474:8528  string public constant SDT_STABLE_DEBT_OVERFLOW = '79' */\n    tag_458:\n      mload(0x40)\n      dup1\n      0x40\n      add\n      0x40\n      mstore\n      dup1\n      0x02\n      dup2\n      mstore\n      0x20\n      add\n      shl(0xf0, 0x3739)\n      dup2\n      mstore\n      pop\n      dup2\n      jump\t// out\n        /* \".deps/github/aave/protocol-v2/contracts/protocol/libraries/helpers/Errors.sol\":5692:5752  string public constant LPC_CALLER_NOT_EMERGENCY_ADMIN = '76' */\n    tag_464:\n      mload(0x40)\n      dup1\n      0x40\n      add\n      0x40\n      mstore\n      dup1\n      0x02\n      dup2\n      mstore\n      0x20\n      add\n      shl(0xf1, 0x1b9b)\n      dup2\n      mstore\n      pop\n      dup2\n      jump\t// out\n        /* \".deps/github/aave/protocol-v2/contracts/protocol/libraries/helpers/Errors.sol\":7834:7901  string public constant LP_INVALID_FLASH_LOAN_EXECUTOR_RETURN = '66' */\n    tag_470:\n      mload(0x40)\n      dup1\n      0x40\n      add\n      0x40\n      mstore\n      dup1\n      0x02\n      dup2\n      mstore\n      0x20\n      add\n      shl(0xf1, 0x1b1b)\n      dup2\n      mstore\n      pop\n      dup2\n      jump\t// out\n        /* \".deps/github/aave/protocol-v2/contracts/protocol/libraries/helpers/Errors.sol\":7707:7749  string public constant LP_IS_PAUSED = '64' */\n    tag_476:\n      mload(0x40)\n      dup1\n      0x40\n      add\n      0x40\n      mstore\n      dup1\n      0x02\n      dup2\n      mstore\n      0x20\n      add\n      shl(0xf2, 0x0d8d)\n      dup2\n      mstore\n      pop\n      dup2\n      jump\t// out\n        /* \".deps/github/aave/protocol-v2/contracts/protocol/libraries/helpers/Errors.sol\":5800:5859  string public constant LPAPR_PROVIDER_NOT_REGISTERED = '41' */\n    tag_482:\n      mload(0x40)\n      dup1\n      0x40\n      add\n      0x40\n      mstore\n      dup1\n      0x02\n      dup2\n      mstore\n      0x20\n      add\n      shl(0xf0, 0x3431)\n      dup2\n      mstore\n      pop\n      dup2\n      jump\t// out\n        /* \".deps/github/aave/protocol-v2/contracts/protocol/libraries/helpers/Errors.sol\":1114:1160  string public constant VL_RESERVE_FROZEN = '3' */\n    tag_488:\n      mload(0x40)\n      dup1\n      0x40\n      add\n      0x40\n      mstore\n      dup1\n      0x01\n      dup2\n      mstore\n      0x20\n      add\n      shl(0xf8, 0x33)\n      dup2\n      mstore\n      pop\n      dup2\n      jump\t// out\n        /* \".deps/github/aave/protocol-v2/contracts/protocol/libraries/helpers/Errors.sol\":8246:8308  string public constant VL_INCONSISTENT_FLASHLOAN_PARAMS = '73' */\n    tag_494:\n      mload(0x40)\n      dup1\n      0x40\n      add\n      0x40\n      mstore\n      dup1\n      0x02\n      dup2\n      mstore\n      0x20\n      add\n      shl(0xf0, 0x3733)\n      dup2\n      mstore\n      pop\n      dup2\n      jump\t// out\n        /* \".deps/github/aave/protocol-v2/contracts/protocol/libraries/helpers/Errors.sol\":2687:2757  string public constant VL_NO_EXPLICIT_AMOUNT_TO_REPAY_ON_BEHALF = '16' */\n    tag_500:\n      mload(0x40)\n      dup1\n      0x40\n      add\n      0x40\n      mstore\n      dup1\n      0x02\n      dup2\n      mstore\n      0x20\n      add\n      shl(0xf1, 0x189b)\n      dup2\n      mstore\n      pop\n      dup2\n      jump\t// out\n        /* \".deps/github/aave/protocol-v2/contracts/protocol/libraries/helpers/Errors.sol\":4961:5033  string public constant LPC_INVALID_STABLE_DEBT_TOKEN_POOL_ADDRESS = '36' */\n    tag_506:\n      mload(0x40)\n      dup1\n      0x40\n      add\n      0x40\n      mstore\n      dup1\n      0x02\n      dup2\n      mstore\n      0x20\n      add\n      shl(0xf1, 0x199b)\n      dup2\n      mstore\n      pop\n      dup2\n      jump\t// out\n        /* \".deps/github/aave/protocol-v2/contracts/protocol/libraries/helpers/Errors.sol\":3243:3298  string public constant VL_DEPOSIT_ALREADY_IN_USE = '20' */\n    tag_512:\n      mload(0x40)\n      dup1\n      0x40\n      add\n      0x40\n      mstore\n      dup1\n      0x02\n      dup2\n      mstore\n      0x20\n      add\n      shl(0xf4, 0x0323)\n      dup2\n      mstore\n      pop\n      dup2\n      jump\t// out\n        /* \".deps/github/aave/protocol-v2/contracts/protocol/libraries/helpers/Errors.sol\":791:848  string public constant BORROW_ALLOWANCE_NOT_ENOUGH = '59' */\n    tag_518:\n      mload(0x40)\n      dup1\n      0x40\n      add\n      0x40\n      mstore\n      dup1\n      0x02\n      dup2\n      mstore\n      0x20\n      add\n      shl(0xf0, 0x3539)\n      dup2\n      mstore\n      pop\n      dup2\n      jump\t// out\n        /* \".deps/github/aave/protocol-v2/contracts/protocol/libraries/helpers/Errors.sol\":7317:7378  string public constant LP_FAILED_REPAY_WITH_COLLATERAL = '57' */\n    tag_524:\n      mload(0x40)\n      dup1\n      0x40\n      add\n      0x40\n      mstore\n      dup1\n      0x02\n      dup2\n      mstore\n      0x20\n      add\n      shl(0xf0, 0x3537)\n      dup2\n      mstore\n      pop\n      dup2\n      jump\t// out\n        /* \".deps/github/aave/protocol-v2/contracts/protocol/libraries/helpers/Errors.sol\":6449:6504  string public constant LP_INVALID_FLASHLOAN_MODE = '47' */\n    tag_530:\n      mload(0x40)\n      dup1\n      0x40\n      add\n      0x40\n      mstore\n      dup1\n      0x02\n      dup2\n      mstore\n      0x20\n      add\n      shl(0xf0, 0x3437)\n      dup2\n      mstore\n      pop\n      dup2\n      jump\t// out\n        /* \".deps/github/aave/protocol-v2/contracts/protocol/libraries/helpers/Errors.sol\":7646:7703  string public constant LP_CALLER_MUST_BE_AN_ATOKEN = '63' */\n    tag_536:\n      mload(0x40)\n      dup1\n      0x40\n      add\n      0x40\n      mstore\n      dup1\n      0x02\n      dup2\n      mstore\n      0x20\n      add\n      shl(0xf0, 0x3633)\n      dup2\n      mstore\n      pop\n      dup2\n      jump\t// out\n        /* \".deps/github/aave/protocol-v2/contracts/protocol/libraries/helpers/Errors.sol\":4848:4909  string public constant LPC_INVALID_ATOKEN_POOL_ADDRESS = '35' */\n    tag_542:\n      mload(0x40)\n      dup1\n      0x40\n      add\n      0x40\n      mstore\n      dup1\n      0x02\n      dup2\n      mstore\n      0x20\n      add\n      shl(0xf0, 0x3335)\n      dup2\n      mstore\n      pop\n      dup2\n      jump\t// out\n        /* \".deps/github/aave/protocol-v2/contracts/protocol/libraries/helpers/Errors.sol\":6925:6981  string public constant RL_LIQUIDITY_RATE_OVERFLOW = '53' */\n    tag_548:\n      mload(0x40)\n      dup1\n      0x40\n      add\n      0x40\n      mstore\n      dup1\n      0x02\n      dup2\n      mstore\n      0x20\n      add\n      shl(0xf0, 0x3533)\n      dup2\n      mstore\n      pop\n      dup2\n      jump\t// out\n        /* \".deps/github/aave/protocol-v2/contracts/protocol/libraries/helpers/Errors.sol\":1468:1520  string public constant VL_TRANSFER_NOT_ALLOWED = '6' */\n    tag_554:\n      mload(0x40)\n      dup1\n      0x40\n      add\n      0x40\n      mstore\n      dup1\n      0x01\n      dup2\n      mstore\n      0x20\n      add\n      shl(0xf9, 0x1b)\n      dup2\n      mstore\n      pop\n      dup2\n      jump\t// out\n        /* \".deps/github/aave/protocol-v2/contracts/protocol/libraries/helpers/Errors.sol\":7587:7642  string public constant LP_REENTRANCY_NOT_ALLOWED = '62' */\n    tag_560:\n      mload(0x40)\n      dup1\n      0x40\n      add\n      0x40\n      mstore\n      dup1\n      0x02\n      dup2\n      mstore\n      0x20\n      add\n      shl(0xf1, 0x1b19)\n      dup2\n      mstore\n      pop\n      dup2\n      jump\t// out\n        /* \".deps/github/aave/protocol-v2/contracts/protocol/libraries/helpers/Errors.sol\":5895:5963  string public constant LPCM_HEALTH_FACTOR_NOT_BELOW_THRESHOLD = '42' */\n    tag_566:\n      mload(0x40)\n      dup1\n      0x40\n      add\n      0x40\n      mstore\n      dup1\n      0x02\n      dup2\n      mstore\n      0x20\n      add\n      shl(0xf1, 0x1a19)\n      dup2\n      mstore\n      pop\n      dup2\n      jump\t// out\n        /* \".deps/github/aave/protocol-v2/contracts/protocol/libraries/helpers/Errors.sol\":4633:4693  string public constant RL_RESERVE_ALREADY_INITIALIZED = '32' */\n    tag_572:\n      mload(0x40)\n      dup1\n      0x40\n      add\n      0x40\n      mstore\n      dup1\n      0x02\n      dup2\n      mstore\n      0x20\n      add\n      shl(0xf1, 0x1999)\n      dup2\n      mstore\n      pop\n      dup2\n      jump\t// out\n\n    auxdata: 0xa2646970667358221220f61877be2d654d93055b28e82dbe85f24529e82fd9427bdbd53a54403a3f26ff64736f6c634300060c0033\n}\n",
				"bytecode": {
					"linkReferences": {},
					"object": "611111610026600b82828239805160001a60731461001957fe5b30600052607381538281f3fe730000000000000000000000000000000000000000301460806040526004361061048a5760003560e01c80636ba4271f11610261578063cdad445a11610150578063e2c16d69116100cd578063f11c672011610091578063f11c67201461075c578063f3d9cc1114610764578063f902735d1461076c578063fb681def14610774578063fe75fd261461077c5761048a565b8063e2c16d6914610734578063e66327481461073c578063e7bf91b314610744578063eca85d3a1461074c578063f0473259146107545761048a565b8063d7510e0c11610114578063d7510e0c1461070c578063d7b079aa14610714578063daf235471461071c578063e0d7dfd714610724578063e29425dc1461072c5761048a565b8063cdad445a146106e4578063d3e370ee146106ec578063d44e8e88146106f4578063d57bb964146106fc578063d6f681b6146107045761048a565b8063a39ed4ff116101de578063b89652cd116101a2578063b89652cd146106bc578063bd013f5b146106c4578063c09e2618146106cc578063c2d628df146106d4578063cc5fc44c146106dc5761048a565b8063a39ed4ff14610694578063a84402411461069c578063ac753236146106a4578063b36a2cf3146106ac578063b72e40c7146106b45761048a565b80637865a627116102255780637865a6271461066c578063871938a81461067457806391a9fb181461067c5780639be4f03a14610684578063a2fbc8ad1461068c5761048a565b80636ba4271f146106445780636d422aa11461064c578063708b8dd31461065457806371a629da1461065c57806376f19030146106645761048a565b80633aa786a81161037d5780634a529f91116102fa578063614cf6a1116102be578063614cf6a11461061c578063637a5a12146106245780636422b2571461062c57806365344799146106345780636ab5e6151461063c5761048a565b80634a529f91146105f45780634fe4f1ab146105fc57806355bab12c146106045780635a9786d41461060c5780635e869ff1146106145761048a565b80634349e3d8116103415780634349e3d8146105cc57806344942004146105d457806344dc4f70146105dc57806347d25300146105e45780634927c63a146105ec5761048a565b80633aa786a8146105a45780633b5d25aa146105ac5780633f5d6ec8146105b4578063407374a4146105bc57806341b40ba5146105c45761048a565b806322a6f08e1161040b578063333e8ea8116103cf578063333e8ea81461057c57806335a9d21d1461058457806336565ab11461058c5780633872b0ad14610594578063390f34ba1461059c5761048a565b806322a6f08e146105545780632ace698a1461055c5780632b34c349146105645780632b9c57f61461056c5780632ea347b0146105745761048a565b80631291a38b116104525780631291a38b1461052c578063179476c5146105345780631befa78d1461053c5780631ea7c604146105445780631ec68b1d1461054c5761048a565b806302454ad31461048f578063029d23441461050c57806306f355ad146105145780630b8fd5881461051c5780630f5ee48214610524575b600080fd5b610497610784565b6040805160208082528351818301528351919283929083019185019080838360005b838110156104d15781810151838201526020016104b9565b50505050905090810190601f1680156104fe5780820380516001836020036101000a031916815260200191505b509250505060405180910390f35b6104976107a2565b6104976107c0565b6104976107de565b6104976107fc565b61049761081a565b610497610838565b610497610855565b610497610873565b610497610891565b6104976108af565b6104976108cd565b6104976108eb565b610497610909565b610497610927565b610497610945565b610497610963565b610497610981565b61049761099e565b6104976109bc565b6104976109da565b6104976109f8565b610497610a15565b610497610a33565b610497610a51565b610497610a6f565b610497610a8d565b610497610aab565b610497610ac9565b610497610ae7565b610497610b05565b610497610b23565b610497610b41565b610497610b5f565b610497610b7d565b610497610b9b565b610497610bb9565b610497610bd7565b610497610bf5565b610497610c13565b610497610c31565b610497610c4f565b610497610c6d565b610497610c8a565b610497610ca8565b610497610cc6565b610497610ce3565b610497610d00565b610497610d1e565b610497610d3c565b610497610d5a565b610497610d78565b610497610d95565b610497610db3565b610497610dd1565b610497610def565b610497610e0d565b610497610e2b565b610497610e49565b610497610e67565b610497610e85565b610497610ea3565b610497610ec1565b610497610edf565b610497610efd565b610497610f1b565b610497610f38565b610497610f56565b610497610f74565b610497610f92565b610497610fb0565b610497610fce565b610497610fec565b61049761100a565b610497611028565b610497611046565b610497611064565b610497611081565b61049761109f565b6104976110bd565b60405180604001604052806002815260200161373760f01b81525081565b60405180604001604052806002815260200161068760f31b81525081565b60405180604001604052806002815260200161033360f41b81525081565b60405180604001604052806002815260200161191b60f11b81525081565b60405180604001604052806002815260200161343960f01b81525081565b604051806040016040528060028152602001611a9b60f11b81525081565b604051806040016040528060018152602001600d60fa1b81525081565b60405180604001604052806002815260200161038360f41b81525081565b604051806040016040528060028152602001611a1b60f11b81525081565b60405180604001604052806002815260200161031360f41b81525081565b604051806040016040528060028152602001610c8d60f21b81525081565b60405180604001604052806002815260200161313160f01b81525081565b60405180604001604052806002815260200161064760f31b81525081565b6040518060400160405280600281526020016106a760f31b81525081565b604051806040016040528060028152602001610d4d60f21b81525081565b604051806040016040528060028152602001611b9960f11b81525081565b60405180604001604052806002815260200161313960f01b81525081565b604051806040016040528060018152602001603760f81b81525081565b60405180604001604052806002815260200161333960f01b81525081565b60405180604001604052806002815260200161323560f01b81525081565b604051806040016040528060028152602001610c4d60f21b81525081565b604051806040016040528060018152602001600760fb1b81525081565b60405180604001604052806002815260200161037360f41b81525081565b60405180604001604052806002815260200161343360f01b81525081565b60405180604001604052806002815260200161066760f31b81525081565b60405180604001604052806002815260200161035360f41b81525081565b604051806040016040528060028152602001611a9960f11b81525081565b60405180604001604052806002815260200161323160f01b81525081565b60405180604001604052806002815260200161373560f01b81525081565b60405180604001604052806002815260200161189960f11b81525081565b60405180604001604052806002815260200161323360f01b81525081565b60405180604001604052806002815260200161353160f01b81525081565b60405180604001604052806002815260200161036360f41b81525081565b60405180604001604052806002815260200161034360f41b81525081565b60405180604001604052806002815260200161363960f01b81525081565b60405180604001604052806002815260200161363760f01b81525081565b6040518060400160405280600281526020016106e760f31b81525081565b60405180604001604052806002815260200161313760f01b81525081565b604051806040016040528060028152602001610ccd60f21b81525081565b60405180604001604052806002815260200161062760f31b81525081565b60405180604001604052806002815260200161323960f01b81525081565b60405180604001604052806002815260200161353560f01b81525081565b604051806040016040528060018152602001603960f81b81525081565b604051806040016040528060028152602001610d0d60f21b81525081565b60405180604001604052806002815260200161363560f01b81525081565b604051806040016040528060018152602001601960f91b81525081565b604051806040016040528060018152602001603160f81b81525081565b60405180604001604052806002815260200161313560f01b81525081565b60405180604001604052806002815260200161373160f01b81525081565b60405180604001604052806002815260200161333160f01b81525081565b60405180604001604052806002815260200161313360f01b81525081565b604051806040016040528060018152602001603560f81b81525081565b60405180604001604052806002815260200161333360f01b81525081565b60405180604001604052806002815260200161323760f01b81525081565b604051806040016040528060028152602001610dcd60f21b81525081565b60405180604001604052806002815260200161191960f11b81525081565b6040518060400160405280600281526020016106c760f31b81525081565b60405180604001604052806002815260200161333760f01b81525081565b60405180604001604052806002815260200161363160f01b81525081565b60405180604001604052806002815260200161343560f01b81525081565b60405180604001604052806002815260200161373960f01b81525081565b604051806040016040528060028152602001611b9b60f11b81525081565b604051806040016040528060028152602001611b1b60f11b81525081565b604051806040016040528060028152602001610d8d60f21b81525081565b60405180604001604052806002815260200161343160f01b81525081565b604051806040016040528060018152602001603360f81b81525081565b60405180604001604052806002815260200161373360f01b81525081565b60405180604001604052806002815260200161189b60f11b81525081565b60405180604001604052806002815260200161199b60f11b81525081565b60405180604001604052806002815260200161032360f41b81525081565b60405180604001604052806002815260200161353960f01b81525081565b60405180604001604052806002815260200161353760f01b81525081565b60405180604001604052806002815260200161343760f01b81525081565b60405180604001604052806002815260200161363360f01b81525081565b60405180604001604052806002815260200161333560f01b81525081565b60405180604001604052806002815260200161353360f01b81525081565b604051806040016040528060018152602001601b60f91b81525081565b604051806040016040528060028152602001611b1960f11b81525081565b604051806040016040528060028152602001611a1960f11b81525081565b60405180604001604052806002815260200161199960f11b8152508156fea2646970667358221220f61877be2d654d93055b28e82dbe85f24529e82fd9427bdbd53a54403a3f26ff64736f6c634300060c0033",
					"opcodes": "PUSH2 0x1111 PUSH2 0x26 PUSH1 0xB DUP3 DUP3 DUP3 CODECOPY DUP1 MLOAD PUSH1 0x0 BYTE PUSH1 0x73 EQ PUSH2 0x19 JUMPI INVALID JUMPDEST ADDRESS PUSH1 0x0 MSTORE PUSH1 0x73 DUP2 MSTORE8 DUP3 DUP2 RETURN INVALID PUSH20 0x0 ADDRESS EQ PUSH1 0x80 PUSH1 0x40 MSTORE PUSH1 0x4 CALLDATASIZE LT PUSH2 0x48A JUMPI PUSH1 0x0 CALLDATALOAD PUSH1 0xE0 SHR DUP1 PUSH4 0x6BA4271F GT PUSH2 0x261 JUMPI DUP1 PUSH4 0xCDAD445A GT PUSH2 0x150 JUMPI DUP1 PUSH4 0xE2C16D69 GT PUSH2 0xCD JUMPI DUP1 PUSH4 0xF11C6720 GT PUSH2 0x91 JUMPI DUP1 PUSH4 0xF11C6720 EQ PUSH2 0x75C JUMPI DUP1 PUSH4 0xF3D9CC11 EQ PUSH2 0x764 JUMPI DUP1 PUSH4 0xF902735D EQ PUSH2 0x76C JUMPI DUP1 PUSH4 0xFB681DEF EQ PUSH2 0x774 JUMPI DUP1 PUSH4 0xFE75FD26 EQ PUSH2 0x77C JUMPI PUSH2 0x48A JUMP JUMPDEST DUP1 PUSH4 0xE2C16D69 EQ PUSH2 0x734 JUMPI DUP1 PUSH4 0xE6632748 EQ PUSH2 0x73C JUMPI DUP1 PUSH4 0xE7BF91B3 EQ PUSH2 0x744 JUMPI DUP1 PUSH4 0xECA85D3A EQ PUSH2 0x74C JUMPI DUP1 PUSH4 0xF0473259 EQ PUSH2 0x754 JUMPI PUSH2 0x48A JUMP JUMPDEST DUP1 PUSH4 0xD7510E0C GT PUSH2 0x114 JUMPI DUP1 PUSH4 0xD7510E0C EQ PUSH2 0x70C JUMPI DUP1 PUSH4 0xD7B079AA EQ PUSH2 0x714 JUMPI DUP1 PUSH4 0xDAF23547 EQ PUSH2 0x71C JUMPI DUP1 PUSH4 0xE0D7DFD7 EQ PUSH2 0x724 JUMPI DUP1 PUSH4 0xE29425DC EQ PUSH2 0x72C JUMPI PUSH2 0x48A JUMP JUMPDEST DUP1 PUSH4 0xCDAD445A EQ PUSH2 0x6E4 JUMPI DUP1 PUSH4 0xD3E370EE EQ PUSH2 0x6EC JUMPI DUP1 PUSH4 0xD44E8E88 EQ PUSH2 0x6F4 JUMPI DUP1 PUSH4 0xD57BB964 EQ PUSH2 0x6FC JUMPI DUP1 PUSH4 0xD6F681B6 EQ PUSH2 0x704 JUMPI PUSH2 0x48A JUMP JUMPDEST DUP1 PUSH4 0xA39ED4FF GT PUSH2 0x1DE JUMPI DUP1 PUSH4 0xB89652CD GT PUSH2 0x1A2 JUMPI DUP1 PUSH4 0xB89652CD EQ PUSH2 0x6BC JUMPI DUP1 PUSH4 0xBD013F5B EQ PUSH2 0x6C4 JUMPI DUP1 PUSH4 0xC09E2618 EQ PUSH2 0x6CC JUMPI DUP1 PUSH4 0xC2D628DF EQ PUSH2 0x6D4 JUMPI DUP1 PUSH4 0xCC5FC44C EQ PUSH2 0x6DC JUMPI PUSH2 0x48A JUMP JUMPDEST DUP1 PUSH4 0xA39ED4FF EQ PUSH2 0x694 JUMPI DUP1 PUSH4 0xA8440241 EQ PUSH2 0x69C JUMPI DUP1 PUSH4 0xAC753236 EQ PUSH2 0x6A4 JUMPI DUP1 PUSH4 0xB36A2CF3 EQ PUSH2 0x6AC JUMPI DUP1 PUSH4 0xB72E40C7 EQ PUSH2 0x6B4 JUMPI PUSH2 0x48A JUMP JUMPDEST DUP1 PUSH4 0x7865A627 GT PUSH2 0x225 JUMPI DUP1 PUSH4 0x7865A627 EQ PUSH2 0x66C JUMPI DUP1 PUSH4 0x871938A8 EQ PUSH2 0x674 JUMPI DUP1 PUSH4 0x91A9FB18 EQ PUSH2 0x67C JUMPI DUP1 PUSH4 0x9BE4F03A EQ PUSH2 0x684 JUMPI DUP1 PUSH4 0xA2FBC8AD EQ PUSH2 0x68C JUMPI PUSH2 0x48A JUMP JUMPDEST DUP1 PUSH4 0x6BA4271F EQ PUSH2 0x644 JUMPI DUP1 PUSH4 0x6D422AA1 EQ PUSH2 0x64C JUMPI DUP1 PUSH4 0x708B8DD3 EQ PUSH2 0x654 JUMPI DUP1 PUSH4 0x71A629DA EQ PUSH2 0x65C JUMPI DUP1 PUSH4 0x76F19030 EQ PUSH2 0x664 JUMPI PUSH2 0x48A JUMP JUMPDEST DUP1 PUSH4 0x3AA786A8 GT PUSH2 0x37D JUMPI DUP1 PUSH4 0x4A529F91 GT PUSH2 0x2FA JUMPI DUP1 PUSH4 0x614CF6A1 GT PUSH2 0x2BE JUMPI DUP1 PUSH4 0x614CF6A1 EQ PUSH2 0x61C JUMPI DUP1 PUSH4 0x637A5A12 EQ PUSH2 0x624 JUMPI DUP1 PUSH4 0x6422B257 EQ PUSH2 0x62C JUMPI DUP1 PUSH4 0x65344799 EQ PUSH2 0x634 JUMPI DUP1 PUSH4 0x6AB5E615 EQ PUSH2 0x63C JUMPI PUSH2 0x48A JUMP JUMPDEST DUP1 PUSH4 0x4A529F91 EQ PUSH2 0x5F4 JUMPI DUP1 PUSH4 0x4FE4F1AB EQ PUSH2 0x5FC JUMPI DUP1 PUSH4 0x55BAB12C EQ PUSH2 0x604 JUMPI DUP1 PUSH4 0x5A9786D4 EQ PUSH2 0x60C JUMPI DUP1 PUSH4 0x5E869FF1 EQ PUSH2 0x614 JUMPI PUSH2 0x48A JUMP JUMPDEST DUP1 PUSH4 0x4349E3D8 GT PUSH2 0x341 JUMPI DUP1 PUSH4 0x4349E3D8 EQ PUSH2 0x5CC JUMPI DUP1 PUSH4 0x44942004 EQ PUSH2 0x5D4 JUMPI DUP1 PUSH4 0x44DC4F70 EQ PUSH2 0x5DC JUMPI DUP1 PUSH4 0x47D25300 EQ PUSH2 0x5E4 JUMPI DUP1 PUSH4 0x4927C63A EQ PUSH2 0x5EC JUMPI PUSH2 0x48A JUMP JUMPDEST DUP1 PUSH4 0x3AA786A8 EQ PUSH2 0x5A4 JUMPI DUP1 PUSH4 0x3B5D25AA EQ PUSH2 0x5AC JUMPI DUP1 PUSH4 0x3F5D6EC8 EQ PUSH2 0x5B4 JUMPI DUP1 PUSH4 0x407374A4 EQ PUSH2 0x5BC JUMPI DUP1 PUSH4 0x41B40BA5 EQ PUSH2 0x5C4 JUMPI PUSH2 0x48A JUMP JUMPDEST DUP1 PUSH4 0x22A6F08E GT PUSH2 0x40B JUMPI DUP1 PUSH4 0x333E8EA8 GT PUSH2 0x3CF JUMPI DUP1 PUSH4 0x333E8EA8 EQ PUSH2 0x57C JUMPI DUP1 PUSH4 0x35A9D21D EQ PUSH2 0x584 JUMPI DUP1 PUSH4 0x36565AB1 EQ PUSH2 0x58C JUMPI DUP1 PUSH4 0x3872B0AD EQ PUSH2 0x594 JUMPI DUP1 PUSH4 0x390F34BA EQ PUSH2 0x59C JUMPI PUSH2 0x48A JUMP JUMPDEST DUP1 PUSH4 0x22A6F08E EQ PUSH2 0x554 JUMPI DUP1 PUSH4 0x2ACE698A EQ PUSH2 0x55C JUMPI DUP1 PUSH4 0x2B34C349 EQ PUSH2 0x564 JUMPI DUP1 PUSH4 0x2B9C57F6 EQ PUSH2 0x56C JUMPI DUP1 PUSH4 0x2EA347B0 EQ PUSH2 0x574 JUMPI PUSH2 0x48A JUMP JUMPDEST DUP1 PUSH4 0x1291A38B GT PUSH2 0x452 JUMPI DUP1 PUSH4 0x1291A38B EQ PUSH2 0x52C JUMPI DUP1 PUSH4 0x179476C5 EQ PUSH2 0x534 JUMPI DUP1 PUSH4 0x1BEFA78D EQ PUSH2 0x53C JUMPI DUP1 PUSH4 0x1EA7C604 EQ PUSH2 0x544 JUMPI DUP1 PUSH4 0x1EC68B1D EQ PUSH2 0x54C JUMPI PUSH2 0x48A JUMP JUMPDEST DUP1 PUSH4 0x2454AD3 EQ PUSH2 0x48F JUMPI DUP1 PUSH4 0x29D2344 EQ PUSH2 0x50C JUMPI DUP1 PUSH4 0x6F355AD EQ PUSH2 0x514 JUMPI DUP1 PUSH4 0xB8FD588 EQ PUSH2 0x51C JUMPI DUP1 PUSH4 0xF5EE482 EQ PUSH2 0x524 JUMPI JUMPDEST PUSH1 0x0 DUP1 REVERT JUMPDEST PUSH2 0x497 PUSH2 0x784 JUMP JUMPDEST PUSH1 0x40 DUP1 MLOAD PUSH1 0x20 DUP1 DUP3 MSTORE DUP4 MLOAD DUP2 DUP4 ADD MSTORE DUP4 MLOAD SWAP2 SWAP3 DUP4 SWAP3 SWAP1 DUP4 ADD SWAP2 DUP6 ADD SWAP1 DUP1 DUP4 DUP4 PUSH1 0x0 JUMPDEST DUP4 DUP2 LT ISZERO PUSH2 0x4D1 JUMPI DUP2 DUP2 ADD MLOAD DUP4 DUP3 ADD MSTORE PUSH1 0x20 ADD PUSH2 0x4B9 JUMP JUMPDEST POP POP POP POP SWAP1 POP SWAP1 DUP2 ADD SWAP1 PUSH1 0x1F AND DUP1 ISZERO PUSH2 0x4FE JUMPI DUP1 DUP3 SUB DUP1 MLOAD PUSH1 0x1 DUP4 PUSH1 0x20 SUB PUSH2 0x100 EXP SUB NOT AND DUP2 MSTORE PUSH1 0x20 ADD SWAP2 POP JUMPDEST POP SWAP3 POP POP POP PUSH1 0x40 MLOAD DUP1 SWAP2 SUB SWAP1 RETURN JUMPDEST PUSH2 0x497 PUSH2 0x7A2 JUMP JUMPDEST PUSH2 0x497 PUSH2 0x7C0 JUMP JUMPDEST PUSH2 0x497 PUSH2 0x7DE JUMP JUMPDEST PUSH2 0x497 PUSH2 0x7FC JUMP JUMPDEST PUSH2 0x497 PUSH2 0x81A JUMP JUMPDEST PUSH2 0x497 PUSH2 0x838 JUMP JUMPDEST PUSH2 0x497 PUSH2 0x855 JUMP JUMPDEST PUSH2 0x497 PUSH2 0x873 JUMP JUMPDEST PUSH2 0x497 PUSH2 0x891 JUMP JUMPDEST PUSH2 0x497 PUSH2 0x8AF JUMP JUMPDEST PUSH2 0x497 PUSH2 0x8CD JUMP JUMPDEST PUSH2 0x497 PUSH2 0x8EB JUMP JUMPDEST PUSH2 0x497 PUSH2 0x909 JUMP JUMPDEST PUSH2 0x497 PUSH2 0x927 JUMP JUMPDEST PUSH2 0x497 PUSH2 0x945 JUMP JUMPDEST PUSH2 0x497 PUSH2 0x963 JUMP JUMPDEST PUSH2 0x497 PUSH2 0x981 JUMP JUMPDEST PUSH2 0x497 PUSH2 0x99E JUMP JUMPDEST PUSH2 0x497 PUSH2 0x9BC JUMP JUMPDEST PUSH2 0x497 PUSH2 0x9DA JUMP JUMPDEST PUSH2 0x497 PUSH2 0x9F8 JUMP JUMPDEST PUSH2 0x497 PUSH2 0xA15 JUMP JUMPDEST PUSH2 0x497 PUSH2 0xA33 JUMP JUMPDEST PUSH2 0x497 PUSH2 0xA51 JUMP JUMPDEST PUSH2 0x497 PUSH2 0xA6F JUMP JUMPDEST PUSH2 0x497 PUSH2 0xA8D JUMP JUMPDEST PUSH2 0x497 PUSH2 0xAAB JUMP JUMPDEST PUSH2 0x497 PUSH2 0xAC9 JUMP JUMPDEST PUSH2 0x497 PUSH2 0xAE7 JUMP JUMPDEST PUSH2 0x497 PUSH2 0xB05 JUMP JUMPDEST PUSH2 0x497 PUSH2 0xB23 JUMP JUMPDEST PUSH2 0x497 PUSH2 0xB41 JUMP JUMPDEST PUSH2 0x497 PUSH2 0xB5F JUMP JUMPDEST PUSH2 0x497 PUSH2 0xB7D JUMP JUMPDEST PUSH2 0x497 PUSH2 0xB9B JUMP JUMPDEST PUSH2 0x497 PUSH2 0xBB9 JUMP JUMPDEST PUSH2 0x497 PUSH2 0xBD7 JUMP JUMPDEST PUSH2 0x497 PUSH2 0xBF5 JUMP JUMPDEST PUSH2 0x497 PUSH2 0xC13 JUMP JUMPDEST PUSH2 0x497 PUSH2 0xC31 JUMP JUMPDEST PUSH2 0x497 PUSH2 0xC4F JUMP JUMPDEST PUSH2 0x497 PUSH2 0xC6D JUMP JUMPDEST PUSH2 0x497 PUSH2 0xC8A JUMP JUMPDEST PUSH2 0x497 PUSH2 0xCA8 JUMP JUMPDEST PUSH2 0x497 PUSH2 0xCC6 JUMP JUMPDEST PUSH2 0x497 PUSH2 0xCE3 JUMP JUMPDEST PUSH2 0x497 PUSH2 0xD00 JUMP JUMPDEST PUSH2 0x497 PUSH2 0xD1E JUMP JUMPDEST PUSH2 0x497 PUSH2 0xD3C JUMP JUMPDEST PUSH2 0x497 PUSH2 0xD5A JUMP JUMPDEST PUSH2 0x497 PUSH2 0xD78 JUMP JUMPDEST PUSH2 0x497 PUSH2 0xD95 JUMP JUMPDEST PUSH2 0x497 PUSH2 0xDB3 JUMP JUMPDEST PUSH2 0x497 PUSH2 0xDD1 JUMP JUMPDEST PUSH2 0x497 PUSH2 0xDEF JUMP JUMPDEST PUSH2 0x497 PUSH2 0xE0D JUMP JUMPDEST PUSH2 0x497 PUSH2 0xE2B JUMP JUMPDEST PUSH2 0x497 PUSH2 0xE49 JUMP JUMPDEST PUSH2 0x497 PUSH2 0xE67 JUMP JUMPDEST PUSH2 0x497 PUSH2 0xE85 JUMP JUMPDEST PUSH2 0x497 PUSH2 0xEA3 JUMP JUMPDEST PUSH2 0x497 PUSH2 0xEC1 JUMP JUMPDEST PUSH2 0x497 PUSH2 0xEDF JUMP JUMPDEST PUSH2 0x497 PUSH2 0xEFD JUMP JUMPDEST PUSH2 0x497 PUSH2 0xF1B JUMP JUMPDEST PUSH2 0x497 PUSH2 0xF38 JUMP JUMPDEST PUSH2 0x497 PUSH2 0xF56 JUMP JUMPDEST PUSH2 0x497 PUSH2 0xF74 JUMP JUMPDEST PUSH2 0x497 PUSH2 0xF92 JUMP JUMPDEST PUSH2 0x497 PUSH2 0xFB0 JUMP JUMPDEST PUSH2 0x497 PUSH2 0xFCE JUMP JUMPDEST PUSH2 0x497 PUSH2 0xFEC JUMP JUMPDEST PUSH2 0x497 PUSH2 0x100A JUMP JUMPDEST PUSH2 0x497 PUSH2 0x1028 JUMP JUMPDEST PUSH2 0x497 PUSH2 0x1046 JUMP JUMPDEST PUSH2 0x497 PUSH2 0x1064 JUMP JUMPDEST PUSH2 0x497 PUSH2 0x1081 JUMP JUMPDEST PUSH2 0x497 PUSH2 0x109F JUMP JUMPDEST PUSH2 0x497 PUSH2 0x10BD JUMP JUMPDEST PUSH1 0x40 MLOAD DUP1 PUSH1 0x40 ADD PUSH1 0x40 MSTORE DUP1 PUSH1 0x2 DUP2 MSTORE PUSH1 0x20 ADD PUSH2 0x3737 PUSH1 0xF0 SHL DUP2 MSTORE POP DUP2 JUMP JUMPDEST PUSH1 0x40 MLOAD DUP1 PUSH1 0x40 ADD PUSH1 0x40 MSTORE DUP1 PUSH1 0x2 DUP2 MSTORE PUSH1 0x20 ADD PUSH2 0x687 PUSH1 0xF3 SHL DUP2 MSTORE POP DUP2 JUMP JUMPDEST PUSH1 0x40 MLOAD DUP1 PUSH1 0x40 ADD PUSH1 0x40 MSTORE DUP1 PUSH1 0x2 DUP2 MSTORE PUSH1 0x20 ADD PUSH2 0x333 PUSH1 0xF4 SHL DUP2 MSTORE POP DUP2 JUMP JUMPDEST PUSH1 0x40 MLOAD DUP1 PUSH1 0x40 ADD PUSH1 0x40 MSTORE DUP1 PUSH1 0x2 DUP2 MSTORE PUSH1 0x20 ADD PUSH2 0x191B PUSH1 0xF1 SHL DUP2 MSTORE POP DUP2 JUMP JUMPDEST PUSH1 0x40 MLOAD DUP1 PUSH1 0x40 ADD PUSH1 0x40 MSTORE DUP1 PUSH1 0x2 DUP2 MSTORE PUSH1 0x20 ADD PUSH2 0x3439 PUSH1 0xF0 SHL DUP2 MSTORE POP DUP2 JUMP JUMPDEST PUSH1 0x40 MLOAD DUP1 PUSH1 0x40 ADD PUSH1 0x40 MSTORE DUP1 PUSH1 0x2 DUP2 MSTORE PUSH1 0x20 ADD PUSH2 0x1A9B PUSH1 0xF1 SHL DUP2 MSTORE POP DUP2 JUMP JUMPDEST PUSH1 0x40 MLOAD DUP1 PUSH1 0x40 ADD PUSH1 0x40 MSTORE DUP1 PUSH1 0x1 DUP2 MSTORE PUSH1 0x20 ADD PUSH1 0xD PUSH1 0xFA SHL DUP2 MSTORE POP DUP2 JUMP JUMPDEST PUSH1 0x40 MLOAD DUP1 PUSH1 0x40 ADD PUSH1 0x40 MSTORE DUP1 PUSH1 0x2 DUP2 MSTORE PUSH1 0x20 ADD PUSH2 0x383 PUSH1 0xF4 SHL DUP2 MSTORE POP DUP2 JUMP JUMPDEST PUSH1 0x40 MLOAD DUP1 PUSH1 0x40 ADD PUSH1 0x40 MSTORE DUP1 PUSH1 0x2 DUP2 MSTORE PUSH1 0x20 ADD PUSH2 0x1A1B PUSH1 0xF1 SHL DUP2 MSTORE POP DUP2 JUMP JUMPDEST PUSH1 0x40 MLOAD DUP1 PUSH1 0x40 ADD PUSH1 0x40 MSTORE DUP1 PUSH1 0x2 DUP2 MSTORE PUSH1 0x20 ADD PUSH2 0x313 PUSH1 0xF4 SHL DUP2 MSTORE POP DUP2 JUMP JUMPDEST PUSH1 0x40 MLOAD DUP1 PUSH1 0x40 ADD PUSH1 0x40 MSTORE DUP1 PUSH1 0x2 DUP2 MSTORE PUSH1 0x20 ADD PUSH2 0xC8D PUSH1 0xF2 SHL DUP2 MSTORE POP DUP2 JUMP JUMPDEST PUSH1 0x40 MLOAD DUP1 PUSH1 0x40 ADD PUSH1 0x40 MSTORE DUP1 PUSH1 0x2 DUP2 MSTORE PUSH1 0x20 ADD PUSH2 0x3131 PUSH1 0xF0 SHL DUP2 MSTORE POP DUP2 JUMP JUMPDEST PUSH1 0x40 MLOAD DUP1 PUSH1 0x40 ADD PUSH1 0x40 MSTORE DUP1 PUSH1 0x2 DUP2 MSTORE PUSH1 0x20 ADD PUSH2 0x647 PUSH1 0xF3 SHL DUP2 MSTORE POP DUP2 JUMP JUMPDEST PUSH1 0x40 MLOAD DUP1 PUSH1 0x40 ADD PUSH1 0x40 MSTORE DUP1 PUSH1 0x2 DUP2 MSTORE PUSH1 0x20 ADD PUSH2 0x6A7 PUSH1 0xF3 SHL DUP2 MSTORE POP DUP2 JUMP JUMPDEST PUSH1 0x40 MLOAD DUP1 PUSH1 0x40 ADD PUSH1 0x40 MSTORE DUP1 PUSH1 0x2 DUP2 MSTORE PUSH1 0x20 ADD PUSH2 0xD4D PUSH1 0xF2 SHL DUP2 MSTORE POP DUP2 JUMP JUMPDEST PUSH1 0x40 MLOAD DUP1 PUSH1 0x40 ADD PUSH1 0x40 MSTORE DUP1 PUSH1 0x2 DUP2 MSTORE PUSH1 0x20 ADD PUSH2 0x1B99 PUSH1 0xF1 SHL DUP2 MSTORE POP DUP2 JUMP JUMPDEST PUSH1 0x40 MLOAD DUP1 PUSH1 0x40 ADD PUSH1 0x40 MSTORE DUP1 PUSH1 0x2 DUP2 MSTORE PUSH1 0x20 ADD PUSH2 0x3139 PUSH1 0xF0 SHL DUP2 MSTORE POP DUP2 JUMP JUMPDEST PUSH1 0x40 MLOAD DUP1 PUSH1 0x40 ADD PUSH1 0x40 MSTORE DUP1 PUSH1 0x1 DUP2 MSTORE PUSH1 0x20 ADD PUSH1 0x37 PUSH1 0xF8 SHL DUP2 MSTORE POP DUP2 JUMP JUMPDEST PUSH1 0x40 MLOAD DUP1 PUSH1 0x40 ADD PUSH1 0x40 MSTORE DUP1 PUSH1 0x2 DUP2 MSTORE PUSH1 0x20 ADD PUSH2 0x3339 PUSH1 0xF0 SHL DUP2 MSTORE POP DUP2 JUMP JUMPDEST PUSH1 0x40 MLOAD DUP1 PUSH1 0x40 ADD PUSH1 0x40 MSTORE DUP1 PUSH1 0x2 DUP2 MSTORE PUSH1 0x20 ADD PUSH2 0x3235 PUSH1 0xF0 SHL DUP2 MSTORE POP DUP2 JUMP JUMPDEST PUSH1 0x40 MLOAD DUP1 PUSH1 0x40 ADD PUSH1 0x40 MSTORE DUP1 PUSH1 0x2 DUP2 MSTORE PUSH1 0x20 ADD PUSH2 0xC4D PUSH1 0xF2 SHL DUP2 MSTORE POP DUP2 JUMP JUMPDEST PUSH1 0x40 MLOAD DUP1 PUSH1 0x40 ADD PUSH1 0x40 MSTORE DUP1 PUSH1 0x1 DUP2 MSTORE PUSH1 0x20 ADD PUSH1 0x7 PUSH1 0xFB SHL DUP2 MSTORE POP DUP2 JUMP JUMPDEST PUSH1 0x40 MLOAD DUP1 PUSH1 0x40 ADD PUSH1 0x40 MSTORE DUP1 PUSH1 0x2 DUP2 MSTORE PUSH1 0x20 ADD PUSH2 0x373 PUSH1 0xF4 SHL DUP2 MSTORE POP DUP2 JUMP JUMPDEST PUSH1 0x40 MLOAD DUP1 PUSH1 0x40 ADD PUSH1 0x40 MSTORE DUP1 PUSH1 0x2 DUP2 MSTORE PUSH1 0x20 ADD PUSH2 0x3433 PUSH1 0xF0 SHL DUP2 MSTORE POP DUP2 JUMP JUMPDEST PUSH1 0x40 MLOAD DUP1 PUSH1 0x40 ADD PUSH1 0x40 MSTORE DUP1 PUSH1 0x2 DUP2 MSTORE PUSH1 0x20 ADD PUSH2 0x667 PUSH1 0xF3 SHL DUP2 MSTORE POP DUP2 JUMP JUMPDEST PUSH1 0x40 MLOAD DUP1 PUSH1 0x40 ADD PUSH1 0x40 MSTORE DUP1 PUSH1 0x2 DUP2 MSTORE PUSH1 0x20 ADD PUSH2 0x353 PUSH1 0xF4 SHL DUP2 MSTORE POP DUP2 JUMP JUMPDEST PUSH1 0x40 MLOAD DUP1 PUSH1 0x40 ADD PUSH1 0x40 MSTORE DUP1 PUSH1 0x2 DUP2 MSTORE PUSH1 0x20 ADD PUSH2 0x1A99 PUSH1 0xF1 SHL DUP2 MSTORE POP DUP2 JUMP JUMPDEST PUSH1 0x40 MLOAD DUP1 PUSH1 0x40 ADD PUSH1 0x40 MSTORE DUP1 PUSH1 0x2 DUP2 MSTORE PUSH1 0x20 ADD PUSH2 0x3231 PUSH1 0xF0 SHL DUP2 MSTORE POP DUP2 JUMP JUMPDEST PUSH1 0x40 MLOAD DUP1 PUSH1 0x40 ADD PUSH1 0x40 MSTORE DUP1 PUSH1 0x2 DUP2 MSTORE PUSH1 0x20 ADD PUSH2 0x3735 PUSH1 0xF0 SHL DUP2 MSTORE POP DUP2 JUMP JUMPDEST PUSH1 0x40 MLOAD DUP1 PUSH1 0x40 ADD PUSH1 0x40 MSTORE DUP1 PUSH1 0x2 DUP2 MSTORE PUSH1 0x20 ADD PUSH2 0x1899 PUSH1 0xF1 SHL DUP2 MSTORE POP DUP2 JUMP JUMPDEST PUSH1 0x40 MLOAD DUP1 PUSH1 0x40 ADD PUSH1 0x40 MSTORE DUP1 PUSH1 0x2 DUP2 MSTORE PUSH1 0x20 ADD PUSH2 0x3233 PUSH1 0xF0 SHL DUP2 MSTORE POP DUP2 JUMP JUMPDEST PUSH1 0x40 MLOAD DUP1 PUSH1 0x40 ADD PUSH1 0x40 MSTORE DUP1 PUSH1 0x2 DUP2 MSTORE PUSH1 0x20 ADD PUSH2 0x3531 PUSH1 0xF0 SHL DUP2 MSTORE POP DUP2 JUMP JUMPDEST PUSH1 0x40 MLOAD DUP1 PUSH1 0x40 ADD PUSH1 0x40 MSTORE DUP1 PUSH1 0x2 DUP2 MSTORE PUSH1 0x20 ADD PUSH2 0x363 PUSH1 0xF4 SHL DUP2 MSTORE POP DUP2 JUMP JUMPDEST PUSH1 0x40 MLOAD DUP1 PUSH1 0x40 ADD PUSH1 0x40 MSTORE DUP1 PUSH1 0x2 DUP2 MSTORE PUSH1 0x20 ADD PUSH2 0x343 PUSH1 0xF4 SHL DUP2 MSTORE POP DUP2 JUMP JUMPDEST PUSH1 0x40 MLOAD DUP1 PUSH1 0x40 ADD PUSH1 0x40 MSTORE DUP1 PUSH1 0x2 DUP2 MSTORE PUSH1 0x20 ADD PUSH2 0x3639 PUSH1 0xF0 SHL DUP2 MSTORE POP DUP2 JUMP JUMPDEST PUSH1 0x40 MLOAD DUP1 PUSH1 0x40 ADD PUSH1 0x40 MSTORE DUP1 PUSH1 0x2 DUP2 MSTORE PUSH1 0x20 ADD PUSH2 0x3637 PUSH1 0xF0 SHL DUP2 MSTORE POP DUP2 JUMP JUMPDEST PUSH1 0x40 MLOAD DUP1 PUSH1 0x40 ADD PUSH1 0x40 MSTORE DUP1 PUSH1 0x2 DUP2 MSTORE PUSH1 0x20 ADD PUSH2 0x6E7 PUSH1 0xF3 SHL DUP2 MSTORE POP DUP2 JUMP JUMPDEST PUSH1 0x40 MLOAD DUP1 PUSH1 0x40 ADD PUSH1 0x40 MSTORE DUP1 PUSH1 0x2 DUP2 MSTORE PUSH1 0x20 ADD PUSH2 0x3137 PUSH1 0xF0 SHL DUP2 MSTORE POP DUP2 JUMP JUMPDEST PUSH1 0x40 MLOAD DUP1 PUSH1 0x40 ADD PUSH1 0x40 MSTORE DUP1 PUSH1 0x2 DUP2 MSTORE PUSH1 0x20 ADD PUSH2 0xCCD PUSH1 0xF2 SHL DUP2 MSTORE POP DUP2 JUMP JUMPDEST PUSH1 0x40 MLOAD DUP1 PUSH1 0x40 ADD PUSH1 0x40 MSTORE DUP1 PUSH1 0x2 DUP2 MSTORE PUSH1 0x20 ADD PUSH2 0x627 PUSH1 0xF3 SHL DUP2 MSTORE POP DUP2 JUMP JUMPDEST PUSH1 0x40 MLOAD DUP1 PUSH1 0x40 ADD PUSH1 0x40 MSTORE DUP1 PUSH1 0x2 DUP2 MSTORE PUSH1 0x20 ADD PUSH2 0x3239 PUSH1 0xF0 SHL DUP2 MSTORE POP DUP2 JUMP JUMPDEST PUSH1 0x40 MLOAD DUP1 PUSH1 0x40 ADD PUSH1 0x40 MSTORE DUP1 PUSH1 0x2 DUP2 MSTORE PUSH1 0x20 ADD PUSH2 0x3535 PUSH1 0xF0 SHL DUP2 MSTORE POP DUP2 JUMP JUMPDEST PUSH1 0x40 MLOAD DUP1 PUSH1 0x40 ADD PUSH1 0x40 MSTORE DUP1 PUSH1 0x1 DUP2 MSTORE PUSH1 0x20 ADD PUSH1 0x39 PUSH1 0xF8 SHL DUP2 MSTORE POP DUP2 JUMP JUMPDEST PUSH1 0x40 MLOAD DUP1 PUSH1 0x40 ADD PUSH1 0x40 MSTORE DUP1 PUSH1 0x2 DUP2 MSTORE PUSH1 0x20 ADD PUSH2 0xD0D PUSH1 0xF2 SHL DUP2 MSTORE POP DUP2 JUMP JUMPDEST PUSH1 0x40 MLOAD DUP1 PUSH1 0x40 ADD PUSH1 0x40 MSTORE DUP1 PUSH1 0x2 DUP2 MSTORE PUSH1 0x20 ADD PUSH2 0x3635 PUSH1 0xF0 SHL DUP2 MSTORE POP DUP2 JUMP JUMPDEST PUSH1 0x40 MLOAD DUP1 PUSH1 0x40 ADD PUSH1 0x40 MSTORE DUP1 PUSH1 0x1 DUP2 MSTORE PUSH1 0x20 ADD PUSH1 0x19 PUSH1 0xF9 SHL DUP2 MSTORE POP DUP2 JUMP JUMPDEST PUSH1 0x40 MLOAD DUP1 PUSH1 0x40 ADD PUSH1 0x40 MSTORE DUP1 PUSH1 0x1 DUP2 MSTORE PUSH1 0x20 ADD PUSH1 0x31 PUSH1 0xF8 SHL DUP2 MSTORE POP DUP2 JUMP JUMPDEST PUSH1 0x40 MLOAD DUP1 PUSH1 0x40 ADD PUSH1 0x40 MSTORE DUP1 PUSH1 0x2 DUP2 MSTORE PUSH1 0x20 ADD PUSH2 0x3135 PUSH1 0xF0 SHL DUP2 MSTORE POP DUP2 JUMP JUMPDEST PUSH1 0x40 MLOAD DUP1 PUSH1 0x40 ADD PUSH1 0x40 MSTORE DUP1 PUSH1 0x2 DUP2 MSTORE PUSH1 0x20 ADD PUSH2 0x3731 PUSH1 0xF0 SHL DUP2 MSTORE POP DUP2 JUMP JUMPDEST PUSH1 0x40 MLOAD DUP1 PUSH1 0x40 ADD PUSH1 0x40 MSTORE DUP1 PUSH1 0x2 DUP2 MSTORE PUSH1 0x20 ADD PUSH2 0x3331 PUSH1 0xF0 SHL DUP2 MSTORE POP DUP2 JUMP JUMPDEST PUSH1 0x40 MLOAD DUP1 PUSH1 0x40 ADD PUSH1 0x40 MSTORE DUP1 PUSH1 0x2 DUP2 MSTORE PUSH1 0x20 ADD PUSH2 0x3133 PUSH1 0xF0 SHL DUP2 MSTORE POP DUP2 JUMP JUMPDEST PUSH1 0x40 MLOAD DUP1 PUSH1 0x40 ADD PUSH1 0x40 MSTORE DUP1 PUSH1 0x1 DUP2 MSTORE PUSH1 0x20 ADD PUSH1 0x35 PUSH1 0xF8 SHL DUP2 MSTORE POP DUP2 JUMP JUMPDEST PUSH1 0x40 MLOAD DUP1 PUSH1 0x40 ADD PUSH1 0x40 MSTORE DUP1 PUSH1 0x2 DUP2 MSTORE PUSH1 0x20 ADD PUSH2 0x3333 PUSH1 0xF0 SHL DUP2 MSTORE POP DUP2 JUMP JUMPDEST PUSH1 0x40 MLOAD DUP1 PUSH1 0x40 ADD PUSH1 0x40 MSTORE DUP1 PUSH1 0x2 DUP2 MSTORE PUSH1 0x20 ADD PUSH2 0x3237 PUSH1 0xF0 SHL DUP2 MSTORE POP DUP2 JUMP JUMPDEST PUSH1 0x40 MLOAD DUP1 PUSH1 0x40 ADD PUSH1 0x40 MSTORE DUP1 PUSH1 0x2 DUP2 MSTORE PUSH1 0x20 ADD PUSH2 0xDCD PUSH1 0xF2 SHL DUP2 MSTORE POP DUP2 JUMP JUMPDEST PUSH1 0x40 MLOAD DUP1 PUSH1 0x40 ADD PUSH1 0x40 MSTORE DUP1 PUSH1 0x2 DUP2 MSTORE PUSH1 0x20 ADD PUSH2 0x1919 PUSH1 0xF1 SHL DUP2 MSTORE POP DUP2 JUMP JUMPDEST PUSH1 0x40 MLOAD DUP1 PUSH1 0x40 ADD PUSH1 0x40 MSTORE DUP1 PUSH1 0x2 DUP2 MSTORE PUSH1 0x20 ADD PUSH2 0x6C7 PUSH1 0xF3 SHL DUP2 MSTORE POP DUP2 JUMP JUMPDEST PUSH1 0x40 MLOAD DUP1 PUSH1 0x40 ADD PUSH1 0x40 MSTORE DUP1 PUSH1 0x2 DUP2 MSTORE PUSH1 0x20 ADD PUSH2 0x3337 PUSH1 0xF0 SHL DUP2 MSTORE POP DUP2 JUMP JUMPDEST PUSH1 0x40 MLOAD DUP1 PUSH1 0x40 ADD PUSH1 0x40 MSTORE DUP1 PUSH1 0x2 DUP2 MSTORE PUSH1 0x20 ADD PUSH2 0x3631 PUSH1 0xF0 SHL DUP2 MSTORE POP DUP2 JUMP JUMPDEST PUSH1 0x40 MLOAD DUP1 PUSH1 0x40 ADD PUSH1 0x40 MSTORE DUP1 PUSH1 0x2 DUP2 MSTORE PUSH1 0x20 ADD PUSH2 0x3435 PUSH1 0xF0 SHL DUP2 MSTORE POP DUP2 JUMP JUMPDEST PUSH1 0x40 MLOAD DUP1 PUSH1 0x40 ADD PUSH1 0x40 MSTORE DUP1 PUSH1 0x2 DUP2 MSTORE PUSH1 0x20 ADD PUSH2 0x3739 PUSH1 0xF0 SHL DUP2 MSTORE POP DUP2 JUMP JUMPDEST PUSH1 0x40 MLOAD DUP1 PUSH1 0x40 ADD PUSH1 0x40 MSTORE DUP1 PUSH1 0x2 DUP2 MSTORE PUSH1 0x20 ADD PUSH2 0x1B9B PUSH1 0xF1 SHL DUP2 MSTORE POP DUP2 JUMP JUMPDEST PUSH1 0x40 MLOAD DUP1 PUSH1 0x40 ADD PUSH1 0x40 MSTORE DUP1 PUSH1 0x2 DUP2 MSTORE PUSH1 0x20 ADD PUSH2 0x1B1B PUSH1 0xF1 SHL DUP2 MSTORE POP DUP2 JUMP JUMPDEST PUSH1 0x40 MLOAD DUP1 PUSH1 0x40 ADD PUSH1 0x40 MSTORE DUP1 PUSH1 0x2 DUP2 MSTORE PUSH1 0x20 ADD PUSH2 0xD8D PUSH1 0xF2 SHL DUP2 MSTORE POP DUP2 JUMP JUMPDEST PUSH1 0x40 MLOAD DUP1 PUSH1 0x40 ADD PUSH1 0x40 MSTORE DUP1 PUSH1 0x2 DUP2 MSTORE PUSH1 0x20 ADD PUSH2 0x3431 PUSH1 0xF0 SHL DUP2 MSTORE POP DUP2 JUMP JUMPDEST PUSH1 0x40 MLOAD DUP1 PUSH1 0x40 ADD PUSH1 0x40 MSTORE DUP1 PUSH1 0x1 DUP2 MSTORE PUSH1 0x20 ADD PUSH1 0x33 PUSH1 0xF8 SHL DUP2 MSTORE POP DUP2 JUMP JUMPDEST PUSH1 0x40 MLOAD DUP1 PUSH1 0x40 ADD PUSH1 0x40 MSTORE DUP1 PUSH1 0x2 DUP2 MSTORE PUSH1 0x20 ADD PUSH2 0x3733 PUSH1 0xF0 SHL DUP2 MSTORE POP DUP2 JUMP JUMPDEST PUSH1 0x40 MLOAD DUP1 PUSH1 0x40 ADD PUSH1 0x40 MSTORE DUP1 PUSH1 0x2 DUP2 MSTORE PUSH1 0x20 ADD PUSH2 0x189B PUSH1 0xF1 SHL DUP2 MSTORE POP DUP2 JUMP JUMPDEST PUSH1 0x40 MLOAD DUP1 PUSH1 0x40 ADD PUSH1 0x40 MSTORE DUP1 PUSH1 0x2 DUP2 MSTORE PUSH1 0x20 ADD PUSH2 0x199B PUSH1 0xF1 SHL DUP2 MSTORE POP DUP2 JUMP JUMPDEST PUSH1 0x40 MLOAD DUP1 PUSH1 0x40 ADD PUSH1 0x40 MSTORE DUP1 PUSH1 0x2 DUP2 MSTORE PUSH1 0x20 ADD PUSH2 0x323 PUSH1 0xF4 SHL DUP2 MSTORE POP DUP2 JUMP JUMPDEST PUSH1 0x40 MLOAD DUP1 PUSH1 0x40 ADD PUSH1 0x40 MSTORE DUP1 PUSH1 0x2 DUP2 MSTORE PUSH1 0x20 ADD PUSH2 0x3539 PUSH1 0xF0 SHL DUP2 MSTORE POP DUP2 JUMP JUMPDEST PUSH1 0x40 MLOAD DUP1 PUSH1 0x40 ADD PUSH1 0x40 MSTORE DUP1 PUSH1 0x2 DUP2 MSTORE PUSH1 0x20 ADD PUSH2 0x3537 PUSH1 0xF0 SHL DUP2 MSTORE POP DUP2 JUMP JUMPDEST PUSH1 0x40 MLOAD DUP1 PUSH1 0x40 ADD PUSH1 0x40 MSTORE DUP1 PUSH1 0x2 DUP2 MSTORE PUSH1 0x20 ADD PUSH2 0x3437 PUSH1 0xF0 SHL DUP2 MSTORE POP DUP2 JUMP JUMPDEST PUSH1 0x40 MLOAD DUP1 PUSH1 0x40 ADD PUSH1 0x40 MSTORE DUP1 PUSH1 0x2 DUP2 MSTORE PUSH1 0x20 ADD PUSH2 0x3633 PUSH1 0xF0 SHL DUP2 MSTORE POP DUP2 JUMP JUMPDEST PUSH1 0x40 MLOAD DUP1 PUSH1 0x40 ADD PUSH1 0x40 MSTORE DUP1 PUSH1 0x2 DUP2 MSTORE PUSH1 0x20 ADD PUSH2 0x3335 PUSH1 0xF0 SHL DUP2 MSTORE POP DUP2 JUMP JUMPDEST PUSH1 0x40 MLOAD DUP1 PUSH1 0x40 ADD PUSH1 0x40 MSTORE DUP1 PUSH1 0x2 DUP2 MSTORE PUSH1 0x20 ADD PUSH2 0x3533 PUSH1 0xF0 SHL DUP2 MSTORE POP DUP2 JUMP JUMPDEST PUSH1 0x40 MLOAD DUP1 PUSH1 0x40 ADD PUSH1 0x40 MSTORE DUP1 PUSH1 0x1 DUP2 MSTORE PUSH1 0x20 ADD PUSH1 0x1B PUSH1 0xF9 SHL DUP2 MSTORE POP DUP2 JUMP JUMPDEST PUSH1 0x40 MLOAD DUP1 PUSH1 0x40 ADD PUSH1 0x40 MSTORE DUP1 PUSH1 0x2 DUP2 MSTORE PUSH1 0x20 ADD PUSH2 0x1B19 PUSH1 0xF1 SHL DUP2 MSTORE POP DUP2 JUMP JUMPDEST PUSH1 0x40 MLOAD DUP1 PUSH1 0x40 ADD PUSH1 0x40 MSTORE DUP1 PUSH1 0x2 DUP2 MSTORE PUSH1 0x20 ADD PUSH2 0x1A19 PUSH1 0xF1 SHL DUP2 MSTORE POP DUP2 JUMP JUMPDEST PUSH1 0x40 MLOAD DUP1 PUSH1 0x40 ADD PUSH1 0x40 MSTORE DUP1 PUSH1 0x2 DUP2 MSTORE PUSH1 0x20 ADD PUSH2 0x1999 PUSH1 0xF1 SHL DUP2 MSTORE POP DUP2 JUMP INVALID LOG2 PUSH5 0x6970667358 0x22 SLT KECCAK256 0xF6 XOR PUSH24 0xBE2D654D93055B28E82DBE85F24529E82FD9427BDBD53A54 BLOCKHASH GASPRICE EXTCODEHASH 0x26 SELFDESTRUCT PUSH5 0x736F6C6343 STOP MOD 0xC STOP CALLER "
				},
				"gasEstimates": {
					"creation": {
						"codeDepositCost": "873800",
						"executionCost": "934",
						"totalCost": "874734"
					},
					"external": {
						"BORROW_ALLOWANCE_NOT_ENOUGH()": "infinite",
						"CALLER_NOT_POOL_ADMIN()": "infinite",
						"CT_CALLER_MUST_BE_LENDING_POOL()": "infinite",
						"CT_CANNOT_GIVE_ALLOWANCE_TO_HIMSELF()": "infinite",
						"CT_INVALID_BURN_AMOUNT()": "infinite",
						"CT_INVALID_MINT_AMOUNT()": "infinite",
						"CT_TRANSFER_AMOUNT_NOT_GT_0()": "infinite",
						"LPAPR_INVALID_ADDRESSES_PROVIDER_ID()": "infinite",
						"LPAPR_PROVIDER_NOT_REGISTERED()": "infinite",
						"LPCM_COLLATERAL_CANNOT_BE_LIQUIDATED()": "infinite",
						"LPCM_HEALTH_FACTOR_NOT_BELOW_THRESHOLD()": "infinite",
						"LPCM_NOT_ENOUGH_LIQUIDITY_TO_LIQUIDATE()": "infinite",
						"LPCM_NO_ERRORS()": "infinite",
						"LPCM_SPECIFIED_CURRENCY_NOT_BORROWED_BY_USER()": "infinite",
						"LPC_CALLER_NOT_EMERGENCY_ADMIN()": "infinite",
						"LPC_INVALID_ADDRESSES_PROVIDER_ID()": "infinite",
						"LPC_INVALID_ATOKEN_POOL_ADDRESS()": "infinite",
						"LPC_INVALID_CONFIGURATION()": "infinite",
						"LPC_INVALID_STABLE_DEBT_TOKEN_POOL_ADDRESS()": "infinite",
						"LPC_INVALID_STABLE_DEBT_TOKEN_UNDERLYING_ADDRESS()": "infinite",
						"LPC_INVALID_VARIABLE_DEBT_TOKEN_POOL_ADDRESS()": "infinite",
						"LPC_INVALID_VARIABLE_DEBT_TOKEN_UNDERLYING_ADDRESS()": "infinite",
						"LPC_RESERVE_LIQUIDITY_NOT_0()": "infinite",
						"LP_CALLER_MUST_BE_AN_ATOKEN()": "infinite",
						"LP_CALLER_NOT_LENDING_POOL_CONFIGURATOR()": "infinite",
						"LP_FAILED_COLLATERAL_SWAP()": "infinite",
						"LP_FAILED_REPAY_WITH_COLLATERAL()": "infinite",
						"LP_INCONSISTENT_FLASHLOAN_PARAMS()": "infinite",
						"LP_INCONSISTENT_PARAMS_LENGTH()": "infinite",
						"LP_INCONSISTENT_PROTOCOL_ACTUAL_BALANCE()": "infinite",
						"LP_INTEREST_RATE_REBALANCE_CONDITIONS_NOT_MET()": "infinite",
						"LP_INVALID_EQUAL_ASSETS_TO_SWAP()": "infinite",
						"LP_INVALID_FLASHLOAN_MODE()": "infinite",
						"LP_INVALID_FLASH_LOAN_EXECUTOR_RETURN()": "infinite",
						"LP_IS_PAUSED()": "infinite",
						"LP_LIQUIDATION_CALL_FAILED()": "infinite",
						"LP_NOT_CONTRACT()": "infinite",
						"LP_NOT_ENOUGH_LIQUIDITY_TO_BORROW()": "infinite",
						"LP_NOT_ENOUGH_STABLE_BORROW_BALANCE()": "infinite",
						"LP_NO_MORE_RESERVES_ALLOWED()": "infinite",
						"LP_REENTRANCY_NOT_ALLOWED()": "infinite",
						"LP_REQUESTED_AMOUNT_TOO_SMALL()": "infinite",
						"MATH_ADDITION_OVERFLOW()": "infinite",
						"MATH_DIVISION_BY_ZERO()": "infinite",
						"MATH_MULTIPLICATION_OVERFLOW()": "infinite",
						"RC_INVALID_DECIMALS()": "infinite",
						"RC_INVALID_LIQ_BONUS()": "infinite",
						"RC_INVALID_LIQ_THRESHOLD()": "infinite",
						"RC_INVALID_LTV()": "infinite",
						"RC_INVALID_RESERVE_FACTOR()": "infinite",
						"RL_LIQUIDITY_INDEX_OVERFLOW()": "infinite",
						"RL_LIQUIDITY_RATE_OVERFLOW()": "infinite",
						"RL_RESERVE_ALREADY_INITIALIZED()": "infinite",
						"RL_STABLE_BORROW_RATE_OVERFLOW()": "infinite",
						"RL_VARIABLE_BORROW_INDEX_OVERFLOW()": "infinite",
						"RL_VARIABLE_BORROW_RATE_OVERFLOW()": "infinite",
						"SDT_BURN_EXCEEDS_BALANCE()": "infinite",
						"SDT_STABLE_DEBT_OVERFLOW()": "infinite",
						"UL_INVALID_INDEX()": "infinite",
						"VL_AMOUNT_BIGGER_THAN_MAX_LOAN_SIZE_STABLE()": "infinite",
						"VL_BORROWING_NOT_ENABLED()": "infinite",
						"VL_COLLATERAL_BALANCE_IS_0()": "infinite",
						"VL_COLLATERAL_CANNOT_COVER_NEW_BORROW()": "infinite",
						"VL_COLLATERAL_SAME_AS_BORROWING_CURRENCY()": "infinite",
						"VL_CURRENT_AVAILABLE_LIQUIDITY_NOT_ENOUGH()": "infinite",
						"VL_DEPOSIT_ALREADY_IN_USE()": "infinite",
						"VL_HEALTH_FACTOR_LOWER_THAN_LIQUIDATION_THRESHOLD()": "infinite",
						"VL_INCONSISTENT_FLASHLOAN_PARAMS()": "infinite",
						"VL_INVALID_AMOUNT()": "infinite",
						"VL_INVALID_INTEREST_RATE_MODE_SELECTED()": "infinite",
						"VL_NOT_ENOUGH_AVAILABLE_USER_BALANCE()": "infinite",
						"VL_NO_ACTIVE_RESERVE()": "infinite",
						"VL_NO_DEBT_OF_SELECTED_TYPE()": "infinite",
						"VL_NO_EXPLICIT_AMOUNT_TO_REPAY_ON_BEHALF()": "infinite",
						"VL_NO_STABLE_RATE_LOAN_IN_RESERVE()": "infinite",
						"VL_NO_VARIABLE_RATE_LOAN_IN_RESERVE()": "infinite",
						"VL_RESERVE_FROZEN()": "infinite",
						"VL_STABLE_BORROWING_NOT_ENABLED()": "infinite",
						"VL_TRANSFER_NOT_ALLOWED()": "infinite",
						"VL_UNDERLYING_BALANCE_NOT_GREATER_THAN_0()": "infinite"
					}
				},
				"methodIdentifiers": {
					"BORROW_ALLOWANCE_NOT_ENOUGH()": "e2c16d69",
					"CALLER_NOT_POOL_ADMIN()": "ac753236",
					"CT_CALLER_MUST_BE_LENDING_POOL()": "6ba4271f",
					"CT_CANNOT_GIVE_ALLOWANCE_TO_HIMSELF()": "06f355ad",
					"CT_INVALID_BURN_AMOUNT()": "2b9c57f6",
					"CT_INVALID_MINT_AMOUNT()": "1291a38b",
					"CT_TRANSFER_AMOUNT_NOT_GT_0()": "a2fbc8ad",
					"LPAPR_INVALID_ADDRESSES_PROVIDER_ID()": "333e8ea8",
					"LPAPR_PROVIDER_NOT_REGISTERED()": "d6f681b6",
					"LPCM_COLLATERAL_CANNOT_BE_LIQUIDATED()": "407374a4",
					"LPCM_HEALTH_FACTOR_NOT_BELOW_THRESHOLD()": "fb681def",
					"LPCM_NOT_ENOUGH_LIQUIDITY_TO_LIQUIDATE()": "cc5fc44c",
					"LPCM_NO_ERRORS()": "1ea7c604",
					"LPCM_SPECIFIED_CURRENCY_NOT_BORROWED_BY_USER()": "71a629da",
					"LPC_CALLER_NOT_EMERGENCY_ADMIN()": "d3e370ee",
					"LPC_INVALID_ADDRESSES_PROVIDER_ID()": "5a9786d4",
					"LPC_INVALID_ATOKEN_POOL_ADDRESS()": "f0473259",
					"LPC_INVALID_CONFIGURATION()": "47d25300",
					"LPC_INVALID_STABLE_DEBT_TOKEN_POOL_ADDRESS()": "e0d7dfd7",
					"LPC_INVALID_STABLE_DEBT_TOKEN_UNDERLYING_ADDRESS()": "41b40ba5",
					"LPC_INVALID_VARIABLE_DEBT_TOKEN_POOL_ADDRESS()": "c09e2618",
					"LPC_INVALID_VARIABLE_DEBT_TOKEN_UNDERLYING_ADDRESS()": "3872b0ad",
					"LPC_RESERVE_LIQUIDITY_NOT_0()": "65344799",
					"LP_CALLER_MUST_BE_AN_ATOKEN()": "eca85d3a",
					"LP_CALLER_NOT_LENDING_POOL_CONFIGURATOR()": "b36a2cf3",
					"LP_FAILED_COLLATERAL_SWAP()": "55bab12c",
					"LP_FAILED_REPAY_WITH_COLLATERAL()": "e6632748",
					"LP_INCONSISTENT_FLASHLOAN_PARAMS()": "2b34c349",
					"LP_INCONSISTENT_PARAMS_LENGTH()": "b72e40c7",
					"LP_INCONSISTENT_PROTOCOL_ACTUAL_BALANCE()": "0b8fd588",
					"LP_INTEREST_RATE_REBALANCE_CONDITIONS_NOT_MET()": "b89652cd",
					"LP_INVALID_EQUAL_ASSETS_TO_SWAP()": "c2d628df",
					"LP_INVALID_FLASHLOAN_MODE()": "e7bf91b3",
					"LP_INVALID_FLASH_LOAN_EXECUTOR_RETURN()": "d44e8e88",
					"LP_IS_PAUSED()": "d57bb964",
					"LP_LIQUIDATION_CALL_FAILED()": "4a529f91",
					"LP_NOT_CONTRACT()": "637a5a12",
					"LP_NOT_ENOUGH_LIQUIDITY_TO_BORROW()": "22a6f08e",
					"LP_NOT_ENOUGH_STABLE_BORROW_BALANCE()": "44dc4f70",
					"LP_NO_MORE_RESERVES_ALLOWED()": "76f19030",
					"LP_REENTRANCY_NOT_ALLOWED()": "f902735d",
					"LP_REQUESTED_AMOUNT_TOO_SMALL()": "390f34ba",
					"MATH_ADDITION_OVERFLOW()": "0f5ee482",
					"MATH_DIVISION_BY_ZERO()": "4349e3d8",
					"MATH_MULTIPLICATION_OVERFLOW()": "029d2344",
					"RC_INVALID_DECIMALS()": "3f5d6ec8",
					"RC_INVALID_LIQ_BONUS()": "5e869ff1",
					"RC_INVALID_LIQ_THRESHOLD()": "bd013f5b",
					"RC_INVALID_LTV()": "614cf6a1",
					"RC_INVALID_RESERVE_FACTOR()": "9be4f03a",
					"RL_LIQUIDITY_INDEX_OVERFLOW()": "4fe4f1ab",
					"RL_LIQUIDITY_RATE_OVERFLOW()": "f11c6720",
					"RL_RESERVE_ALREADY_INITIALIZED()": "fe75fd26",
					"RL_STABLE_BORROW_RATE_OVERFLOW()": "6d422aa1",
					"RL_VARIABLE_BORROW_INDEX_OVERFLOW()": "44942004",
					"RL_VARIABLE_BORROW_RATE_OVERFLOW()": "2ea347b0",
					"SDT_BURN_EXCEEDS_BALANCE()": "1befa78d",
					"SDT_STABLE_DEBT_OVERFLOW()": "cdad445a",
					"UL_INVALID_INDEX()": "02454ad3",
					"VL_AMOUNT_BIGGER_THAN_MAX_LOAN_SIZE_STABLE()": "3aa786a8",
					"VL_BORROWING_NOT_ENABLED()": "36565ab1",
					"VL_COLLATERAL_BALANCE_IS_0()": "708b8dd3",
					"VL_COLLATERAL_CANNOT_COVER_NEW_BORROW()": "2ace698a",
					"VL_COLLATERAL_SAME_AS_BORROWING_CURRENCY()": "a39ed4ff",
					"VL_CURRENT_AVAILABLE_LIQUIDITY_NOT_ENOUGH()": "179476c5",
					"VL_DEPOSIT_ALREADY_IN_USE()": "e29425dc",
					"VL_HEALTH_FACTOR_LOWER_THAN_LIQUIDATION_THRESHOLD()": "1ec68b1d",
					"VL_INCONSISTENT_FLASHLOAN_PARAMS()": "d7b079aa",
					"VL_INVALID_AMOUNT()": "871938a8",
					"VL_INVALID_INTEREST_RATE_MODE_SELECTED()": "3b5d25aa",
					"VL_NOT_ENOUGH_AVAILABLE_USER_BALANCE()": "a8440241",
					"VL_NO_ACTIVE_RESERVE()": "7865a627",
					"VL_NO_DEBT_OF_SELECTED_TYPE()": "91a9fb18",
					"VL_NO_EXPLICIT_AMOUNT_TO_REPAY_ON_BEHALF()": "daf23547",
					"VL_NO_STABLE_RATE_LOAN_IN_RESERVE()": "6422b257",
					"VL_NO_VARIABLE_RATE_LOAN_IN_RESERVE()": "6ab5e615",
					"VL_RESERVE_FROZEN()": "d7510e0c",
					"VL_STABLE_BORROWING_NOT_ENABLED()": "4927c63a",
					"VL_TRANSFER_NOT_ALLOWED()": "f3d9cc11",
					"VL_UNDERLYING_BALANCE_NOT_GREATER_THAN_0()": "35a9d21d"
				}
			},
			"storageLayout": {
				"storage": [],
				"types": null
			},
			"userdoc": {
				"kind": "user",
				"methods": {},
				"notice": "Defines the error messages emitted by the different contracts of the Aave protocol",
				"version": 1
			}
		}
	}
}