{
	"Azve/VerifySig.sol": {
		"VerifySig": {
			"abi": [
				{
					"inputs": [
						{
							"internalType": "address",
							"name": "_signer",
							"type": "address"
						},
						{
							"internalType": "string",
							"name": "_message",
							"type": "string"
						},
						{
							"internalType": "bytes",
							"name": "_sig",
							"type": "bytes"
						}
					],
					"name": "Verify",
					"outputs": [
						{
							"internalType": "bool",
							"name": "",
							"type": "bool"
						}
					],
					"stateMutability": "pure",
					"type": "function"
				},
				{
					"inputs": [
						{
							"internalType": "bytes32",
							"name": "_messageHash",
							"type": "bytes32"
						}
					],
					"name": "ethGetMessageHash",
					"outputs": [
						{
							"internalType": "bytes",
							"name": "",
							"type": "bytes"
						}
					],
					"stateMutability": "pure",
					"type": "function"
				},
				{
					"inputs": [
						{
							"internalType": "string",
							"name": "_message",
							"type": "string"
						}
					],
					"name": "getMessageHash",
					"outputs": [
						{
							"internalType": "bytes32",
							"name": "",
							"type": "bytes32"
						}
					],
					"stateMutability": "pure",
					"type": "function"
				},
				{
					"inputs": [
						{
							"internalType": "bytes",
							"name": "_ethSignedMessage",
							"type": "bytes"
						},
						{
							"internalType": "bytes",
							"name": "_sig",
							"type": "bytes"
						}
					],
					"name": "recover",
					"outputs": [
						{
							"internalType": "address",
							"name": "",
							"type": "address"
						}
					],
					"stateMutability": "pure",
					"type": "function"
				}
			],
			"devdoc": {
				"kind": "dev",
				"methods": {},
				"version": 1
			},
			"evm": {
				"assembly": "    /* \"Azve/VerifySig.sol\":57:1344  contract VerifySig{... */\n  mstore(0x40, 0x80)\n  callvalue\n  dup1\n  iszero\n  tag_1\n  jumpi\n  0x00\n  dup1\n  revert\ntag_1:\n  pop\n  dataSize(sub_0)\n  dup1\n  dataOffset(sub_0)\n  0x00\n  codecopy\n  0x00\n  return\nstop\n\nsub_0: assembly {\n        /* \"Azve/VerifySig.sol\":57:1344  contract VerifySig{... */\n      mstore(0x40, 0x80)\n      callvalue\n      dup1\n      iszero\n      tag_1\n      jumpi\n      0x00\n      dup1\n      revert\n    tag_1:\n      pop\n      jumpi(tag_2, lt(calldatasize, 0x04))\n      shr(0xe0, calldataload(0x00))\n      dup1\n      0x08aa07d3\n      eq\n      tag_3\n      jumpi\n      dup1\n      0x1ed13d1b\n      eq\n      tag_4\n      jumpi\n      dup1\n      0x41ef0aca\n      eq\n      tag_5\n      jumpi\n      dup1\n      0xb446f3b2\n      eq\n      tag_6\n      jumpi\n    tag_2:\n      0x00\n      dup1\n      revert\n        /* \"Azve/VerifySig.sol\":211:499  function Verify(address _signer, string memory _message, bytes memory _sig) public pure returns(bool) {... */\n    tag_3:\n      tag_7\n      tag_8\n      calldatasize\n      0x04\n      tag_9\n      jump\t// in\n    tag_8:\n      tag_10\n      jump\t// in\n    tag_7:\n      mload(0x40)\n        /* \"#utility.yul\":1756:1770   */\n      swap1\n      iszero\n        /* \"#utility.yul\":1749:1771   */\n      iszero\n        /* \"#utility.yul\":1731:1772   */\n      dup2\n      mstore\n        /* \"#utility.yul\":1719:1721   */\n      0x20\n        /* \"#utility.yul\":1704:1722   */\n      add\n        /* \"Azve/VerifySig.sol\":211:499  function Verify(address _signer, string memory _message, bytes memory _sig) public pure returns(bool) {... */\n    tag_11:\n      mload(0x40)\n      dup1\n      swap2\n      sub\n      swap1\n      return\n        /* \"Azve/VerifySig.sol\":797:1080  function recover(bytes memory _ethSignedMessage, bytes memory _sig) public pure returns (address) {... */\n    tag_4:\n      tag_13\n      tag_14\n      calldatasize\n      0x04\n      tag_15\n      jump\t// in\n    tag_14:\n      tag_16\n      jump\t// in\n    tag_13:\n      mload(0x40)\n      sub(shl(0xa0, 0x01), 0x01)\n        /* \"#utility.yul\":2493:2525   */\n      swap1\n      swap2\n      and\n        /* \"#utility.yul\":2475:2526   */\n      dup2\n      mstore\n        /* \"#utility.yul\":2463:2465   */\n      0x20\n        /* \"#utility.yul\":2448:2466   */\n      add\n        /* \"Azve/VerifySig.sol\":797:1080  function recover(bytes memory _ethSignedMessage, bytes memory _sig) public pure returns (address) {... */\n      tag_11\n        /* \"#utility.yul\":2329:2532   */\n      jump\n        /* \"Azve/VerifySig.sol\":632:794  function ethGetMessageHash(bytes32 _messageHash) public pure returns(bytes memory){... */\n    tag_5:\n      tag_19\n      tag_20\n      calldatasize\n      0x04\n      tag_21\n      jump\t// in\n    tag_20:\n      tag_22\n      jump\t// in\n    tag_19:\n      mload(0x40)\n      tag_11\n      swap2\n      swap1\n      tag_24\n      jump\t// in\n        /* \"Azve/VerifySig.sol\":501:630  function getMessageHash(string memory _message) public pure returns(bytes32){... */\n    tag_6:\n      tag_25\n      tag_26\n      calldatasize\n      0x04\n      tag_27\n      jump\t// in\n    tag_26:\n      tag_28\n      jump\t// in\n    tag_25:\n      mload(0x40)\n        /* \"#utility.yul\":3849:3874   */\n      swap1\n      dup2\n      mstore\n        /* \"#utility.yul\":3837:3839   */\n      0x20\n        /* \"#utility.yul\":3822:3840   */\n      add\n        /* \"Azve/VerifySig.sol\":501:630  function getMessageHash(string memory _message) public pure returns(bytes32){... */\n      tag_11\n        /* \"#utility.yul\":3703:3880   */\n      jump\n        /* \"Azve/VerifySig.sol\":211:499  function Verify(address _signer, string memory _message, bytes memory _sig) public pure returns(bool) {... */\n    tag_10:\n        /* \"Azve/VerifySig.sol\":307:311  bool */\n      0x00\n        /* \"Azve/VerifySig.sol\":319:338  bytes32 messageHash */\n      dup1\n        /* \"Azve/VerifySig.sol\":341:365  getMessageHash(_message) */\n      tag_32\n        /* \"Azve/VerifySig.sol\":356:364  _message */\n      dup5\n        /* \"Azve/VerifySig.sol\":341:355  getMessageHash */\n      tag_28\n        /* \"Azve/VerifySig.sol\":341:365  getMessageHash(_message) */\n      jump\t// in\n    tag_32:\n        /* \"Azve/VerifySig.sol\":319:365  bytes32 messageHash = getMessageHash(_message) */\n      swap1\n      pop\n        /* \"Azve/VerifySig.sol\":371:404  bytes memory ethSignedMessageHash */\n      0x00\n        /* \"Azve/VerifySig.sol\":407:437  ethGetMessageHash(messageHash) */\n      tag_33\n        /* \"Azve/VerifySig.sol\":425:436  messageHash */\n      dup3\n        /* \"Azve/VerifySig.sol\":407:424  ethGetMessageHash */\n      tag_22\n        /* \"Azve/VerifySig.sol\":407:437  ethGetMessageHash(messageHash) */\n      jump\t// in\n    tag_33:\n        /* \"Azve/VerifySig.sol\":371:437  bytes memory ethSignedMessageHash = ethGetMessageHash(messageHash) */\n      swap1\n      pop\n        /* \"Azve/VerifySig.sol\":489:496  _signer */\n      dup6\n      sub(shl(0xa0, 0x01), 0x01)\n        /* \"Azve/VerifySig.sol\":450:496  recover(ethSignedMessageHash, _sig) == _signer */\n      and\n        /* \"Azve/VerifySig.sol\":450:485  recover(ethSignedMessageHash, _sig) */\n      tag_34\n        /* \"Azve/VerifySig.sol\":458:478  ethSignedMessageHash */\n      dup3\n        /* \"Azve/VerifySig.sol\":480:484  _sig */\n      dup7\n        /* \"Azve/VerifySig.sol\":450:457  recover */\n      tag_16\n        /* \"Azve/VerifySig.sol\":450:485  recover(ethSignedMessageHash, _sig) */\n      jump\t// in\n    tag_34:\n      sub(shl(0xa0, 0x01), 0x01)\n        /* \"Azve/VerifySig.sol\":450:496  recover(ethSignedMessageHash, _sig) == _signer */\n      and\n      eq\n      swap7\n        /* \"Azve/VerifySig.sol\":211:499  function Verify(address _signer, string memory _message, bytes memory _sig) public pure returns(bool) {... */\n      swap6\n      pop\n      pop\n      pop\n      pop\n      pop\n      pop\n      jump\t// out\n        /* \"Azve/VerifySig.sol\":797:1080  function recover(bytes memory _ethSignedMessage, bytes memory _sig) public pure returns (address) {... */\n    tag_16:\n        /* \"Azve/VerifySig.sol\":886:893  address */\n      0x00\n        /* \"Azve/VerifySig.sol\":902:911  bytes32 r */\n      dup1\n        /* \"Azve/VerifySig.sol\":913:922  bytes32 s */\n      0x00\n        /* \"Azve/VerifySig.sol\":924:931  uint8 v */\n      dup1\n        /* \"Azve/VerifySig.sol\":935:947  _split(_sig) */\n      tag_36\n        /* \"Azve/VerifySig.sol\":942:946  _sig */\n      dup6\n        /* \"Azve/VerifySig.sol\":935:941  _split */\n      tag_37\n        /* \"Azve/VerifySig.sol\":935:947  _split(_sig) */\n      jump\t// in\n    tag_36:\n        /* \"Azve/VerifySig.sol\":901:947  (bytes32 r, bytes32 s, uint8 v) = _split(_sig) */\n      swap3\n      pop\n      swap3\n      pop\n      swap3\n      pop\n        /* \"Azve/VerifySig.sol\":953:981  bytes32 ethSignedMessageHash */\n      0x00\n        /* \"Azve/VerifySig.sol\":995:1012  _ethSignedMessage */\n      dup7\n        /* \"Azve/VerifySig.sol\":984:1024  abi.decode(_ethSignedMessage, (bytes32)) */\n      dup1\n      0x20\n      add\n      swap1\n      mload\n      dup2\n      add\n      swap1\n      tag_38\n      swap2\n      swap1\n      tag_39\n      jump\t// in\n    tag_38:\n        /* \"Azve/VerifySig.sol\":1037:1077  ecrecover(ethSignedMessageHash, v, r, s) */\n      0x40\n      dup1\n      mload\n      0x00\n      dup2\n      mstore\n      0x20\n      dup2\n      add\n      dup1\n      dup4\n      mstore\n        /* \"#utility.yul\":4301:4326   */\n      dup4\n      swap1\n      mstore\n        /* \"#utility.yul\":4374:4378   */\n      0xff\n        /* \"#utility.yul\":4362:4379   */\n      dup6\n      and\n        /* \"#utility.yul\":4342:4360   */\n      swap2\n      dup2\n      add\n        /* \"#utility.yul\":4335:4380   */\n      swap2\n      swap1\n      swap2\n      mstore\n        /* \"#utility.yul\":4396:4414   */\n      0x60\n      dup2\n      add\n        /* \"#utility.yul\":4389:4423   */\n      dup7\n      swap1\n      mstore\n        /* \"#utility.yul\":4439:4457   */\n      0x80\n      dup2\n      add\n        /* \"#utility.yul\":4432:4466   */\n      dup6\n      swap1\n      mstore\n        /* \"Azve/VerifySig.sol\":953:1024  bytes32 ethSignedMessageHash = abi.decode(_ethSignedMessage, (bytes32)) */\n      swap1\n      swap2\n      pop\n        /* \"Azve/VerifySig.sol\":1037:1077  ecrecover(ethSignedMessageHash, v, r, s) */\n      0x01\n      swap1\n        /* \"#utility.yul\":4273:4292   */\n      0xa0\n      add\n        /* \"Azve/VerifySig.sol\":1037:1077  ecrecover(ethSignedMessageHash, v, r, s) */\n      0x20\n      mload(0x40)\n      0x20\n      dup2\n      sub\n      swap1\n      dup1\n      dup5\n      sub\n      swap1\n      dup6\n      gas\n      staticcall\n      iszero\n      dup1\n      iszero\n      tag_43\n      jumpi\n      returndatasize\n      0x00\n      dup1\n      returndatacopy\n      revert(0x00, returndatasize)\n    tag_43:\n      pop\n      pop\n      mload(add(not(0x1f), mload(0x40)))\n      swap9\n        /* \"Azve/VerifySig.sol\":797:1080  function recover(bytes memory _ethSignedMessage, bytes memory _sig) public pure returns (address) {... */\n      swap8\n      pop\n      pop\n      pop\n      pop\n      pop\n      pop\n      pop\n      pop\n      jump\t// out\n        /* \"Azve/VerifySig.sol\":632:794  function ethGetMessageHash(bytes32 _messageHash) public pure returns(bytes memory){... */\n    tag_22:\n        /* \"Azve/VerifySig.sol\":727:791  abi.encodePacked(\"\\x19Ethereum Signed Message:\\n\", _messageHash) */\n      0x40\n      dup1\n      mload\n        /* \"#utility.yul\":4719:4785   */\n      0x19457468657265756d205369676e6564204d6573736167653a0a000000000000\n        /* \"Azve/VerifySig.sol\":727:791  abi.encodePacked(\"\\x19Ethereum Signed Message:\\n\", _messageHash) */\n      0x20\n      dup3\n      add\n        /* \"#utility.yul\":4707:4786   */\n      mstore\n        /* \"#utility.yul\":4802:4814   */\n      0x3a\n      dup1\n      dup3\n      add\n        /* \"#utility.yul\":4795:4823   */\n      swap4\n      swap1\n      swap4\n      mstore\n        /* \"Azve/VerifySig.sol\":727:791  abi.encodePacked(\"\\x19Ethereum Signed Message:\\n\", _messageHash) */\n      dup2\n      mload\n      dup1\n      dup3\n      sub\n      swap1\n      swap4\n      add\n      dup4\n      mstore\n        /* \"#utility.yul\":4839:4851   */\n      0x5a\n      add\n        /* \"Azve/VerifySig.sol\":727:791  abi.encodePacked(\"\\x19Ethereum Signed Message:\\n\", _messageHash) */\n      swap1\n      mstore\n      swap1\n        /* \"Azve/VerifySig.sol\":632:794  function ethGetMessageHash(bytes32 _messageHash) public pure returns(bytes memory){... */\n      jump\t// out\n        /* \"Azve/VerifySig.sol\":501:630  function getMessageHash(string memory _message) public pure returns(bytes32){... */\n    tag_28:\n        /* \"Azve/VerifySig.sol\":569:576  bytes32 */\n      0x00\n        /* \"Azve/VerifySig.sol\":617:625  _message */\n      dup2\n        /* \"Azve/VerifySig.sol\":600:626  abi.encodePacked(_message) */\n      add(0x20, mload(0x40))\n      tag_48\n      swap2\n      swap1\n      tag_49\n      jump\t// in\n    tag_48:\n      mload(0x40)\n      0x20\n      dup2\n      dup4\n      sub\n      sub\n      dup2\n      mstore\n      swap1\n      0x40\n      mstore\n        /* \"Azve/VerifySig.sol\":590:627  keccak256(abi.encodePacked(_message)) */\n      dup1\n      mload\n      swap1\n      0x20\n      add\n      keccak256\n        /* \"Azve/VerifySig.sol\":583:627  return keccak256(abi.encodePacked(_message)) */\n      swap1\n      pop\n        /* \"Azve/VerifySig.sol\":501:630  function getMessageHash(string memory _message) public pure returns(bytes32){... */\n      swap2\n      swap1\n      pop\n      jump\t// out\n        /* \"Azve/VerifySig.sol\":1082:1341  function _split(bytes memory _sig) internal pure returns(bytes32 r, bytes32 s, uint8 v){... */\n    tag_37:\n        /* \"Azve/VerifySig.sol\":1139:1148  bytes32 r */\n      0x00\n        /* \"Azve/VerifySig.sol\":1150:1159  bytes32 s */\n      dup1\n        /* \"Azve/VerifySig.sol\":1161:1168  uint8 v */\n      0x00\n        /* \"Azve/VerifySig.sol\":1179:1183  _sig */\n      dup4\n        /* \"Azve/VerifySig.sol\":1179:1190  _sig.length */\n      mload\n        /* \"Azve/VerifySig.sol\":1192:1194  65 */\n      0x41\n        /* \"Azve/VerifySig.sol\":1179:1194  _sig.length==65 */\n      eq\n        /* \"Azve/VerifySig.sol\":1171:1225  require(_sig.length==65, \"invalid signature strength\") */\n      tag_51\n      jumpi\n      mload(0x40)\n      shl(0xe5, 0x461bcd)\n      dup2\n      mstore\n        /* \"#utility.yul\":5358:5360   */\n      0x20\n        /* \"Azve/VerifySig.sol\":1171:1225  require(_sig.length==65, \"invalid signature strength\") */\n      0x04\n      dup3\n      add\n        /* \"#utility.yul\":5340:5361   */\n      mstore\n        /* \"#utility.yul\":5397:5399   */\n      0x1a\n        /* \"#utility.yul\":5377:5395   */\n      0x24\n      dup3\n      add\n        /* \"#utility.yul\":5370:5400   */\n      mstore\n        /* \"#utility.yul\":5436:5464   */\n      0x696e76616c6964207369676e617475726520737472656e677468000000000000\n        /* \"#utility.yul\":5416:5434   */\n      0x44\n      dup3\n      add\n        /* \"#utility.yul\":5409:5465   */\n      mstore\n        /* \"#utility.yul\":5482:5500   */\n      0x64\n      add\n        /* \"Azve/VerifySig.sol\":1171:1225  require(_sig.length==65, \"invalid signature strength\") */\n      mload(0x40)\n      dup1\n      swap2\n      sub\n      swap1\n      revert\n    tag_51:\n      pop\n      pop\n      pop\n        /* \"Azve/VerifySig.sol\":1263:1265  32 */\n      0x20\n        /* \"Azve/VerifySig.sol\":1253:1266  add(_sig, 32) */\n      dup2\n      add\n        /* \"Azve/VerifySig.sol\":1247:1267  mload(add(_sig, 32)) */\n      mload\n        /* \"Azve/VerifySig.sol\":1293:1295  64 */\n      0x40\n        /* \"Azve/VerifySig.sol\":1283:1296  add(_sig, 64) */\n      dup3\n      add\n        /* \"Azve/VerifySig.sol\":1277:1297  mload(add(_sig, 64)) */\n      mload\n        /* \"Azve/VerifySig.sol\":1331:1333  96 */\n      0x60\n        /* \"Azve/VerifySig.sol\":1321:1334  add(_sig, 96) */\n      swap1\n      swap3\n      add\n        /* \"Azve/VerifySig.sol\":1315:1335  mload(add(_sig, 96)) */\n      mload\n        /* \"Azve/VerifySig.sol\":1247:1267  mload(add(_sig, 32)) */\n      swap1\n      swap3\n        /* \"Azve/VerifySig.sol\":1312:1313  0 */\n      0x00\n        /* \"Azve/VerifySig.sol\":1307:1336  byte(0, mload(add(_sig, 96))) */\n      swap2\n      swap1\n      swap2\n      byte\n      swap1\n        /* \"Azve/VerifySig.sol\":1082:1341  function _split(bytes memory _sig) internal pure returns(bytes32 r, bytes32 s, uint8 v){... */\n      jump\t// out\n        /* \"#utility.yul\":14:141   */\n    tag_54:\n        /* \"#utility.yul\":75:85   */\n      0x4e487b71\n        /* \"#utility.yul\":70:73   */\n      0xe0\n        /* \"#utility.yul\":66:86   */\n      shl\n        /* \"#utility.yul\":63:64   */\n      0x00\n        /* \"#utility.yul\":56:87   */\n      mstore\n        /* \"#utility.yul\":106:110   */\n      0x41\n        /* \"#utility.yul\":103:104   */\n      0x04\n        /* \"#utility.yul\":96:111   */\n      mstore\n        /* \"#utility.yul\":130:134   */\n      0x24\n        /* \"#utility.yul\":127:128   */\n      0x00\n        /* \"#utility.yul\":120:135   */\n      revert\n        /* \"#utility.yul\":146:865   */\n    tag_55:\n        /* \"#utility.yul\":189:194   */\n      0x00\n        /* \"#utility.yul\":242:245   */\n      dup3\n        /* \"#utility.yul\":235:239   */\n      0x1f\n        /* \"#utility.yul\":227:233   */\n      dup4\n        /* \"#utility.yul\":223:240   */\n      add\n        /* \"#utility.yul\":219:246   */\n      slt\n        /* \"#utility.yul\":209:264   */\n      tag_60\n      jumpi\n        /* \"#utility.yul\":260:261   */\n      0x00\n        /* \"#utility.yul\":257:258   */\n      dup1\n        /* \"#utility.yul\":250:262   */\n      revert\n        /* \"#utility.yul\":209:264   */\n    tag_60:\n        /* \"#utility.yul\":296:302   */\n      dup2\n        /* \"#utility.yul\":283:303   */\n      calldataload\n        /* \"#utility.yul\":322:340   */\n      0xffffffffffffffff\n        /* \"#utility.yul\":359:361   */\n      dup1\n        /* \"#utility.yul\":355:357   */\n      dup3\n        /* \"#utility.yul\":352:362   */\n      gt\n        /* \"#utility.yul\":349:385   */\n      iszero\n      tag_62\n      jumpi\n        /* \"#utility.yul\":365:383   */\n      tag_62\n      tag_54\n      jump\t// in\n    tag_62:\n        /* \"#utility.yul\":440:442   */\n      0x40\n        /* \"#utility.yul\":434:443   */\n      mload\n        /* \"#utility.yul\":408:410   */\n      0x1f\n        /* \"#utility.yul\":494:507   */\n      dup4\n      add\n      not(0x1f)\n        /* \"#utility.yul\":490:512   */\n      swap1\n      dup2\n      and\n        /* \"#utility.yul\":514:516   */\n      0x3f\n        /* \"#utility.yul\":486:517   */\n      add\n        /* \"#utility.yul\":482:522   */\n      and\n        /* \"#utility.yul\":470:523   */\n      dup2\n      add\n      swap1\n        /* \"#utility.yul\":538:556   */\n      dup3\n      dup3\n      gt\n        /* \"#utility.yul\":558:580   */\n      dup2\n      dup4\n      lt\n        /* \"#utility.yul\":535:581   */\n      or\n        /* \"#utility.yul\":532:604   */\n      iszero\n      tag_64\n      jumpi\n        /* \"#utility.yul\":584:602   */\n      tag_64\n      tag_54\n      jump\t// in\n    tag_64:\n        /* \"#utility.yul\":624:634   */\n      dup2\n        /* \"#utility.yul\":620:622   */\n      0x40\n        /* \"#utility.yul\":613:635   */\n      mstore\n        /* \"#utility.yul\":659:661   */\n      dup4\n        /* \"#utility.yul\":651:657   */\n      dup2\n        /* \"#utility.yul\":644:662   */\n      mstore\n        /* \"#utility.yul\":705:708   */\n      dup7\n        /* \"#utility.yul\":698:702   */\n      0x20\n        /* \"#utility.yul\":693:695   */\n      dup6\n        /* \"#utility.yul\":685:691   */\n      dup9\n        /* \"#utility.yul\":681:696   */\n      add\n        /* \"#utility.yul\":677:703   */\n      add\n        /* \"#utility.yul\":674:709   */\n      gt\n        /* \"#utility.yul\":671:726   */\n      iszero\n      tag_65\n      jumpi\n        /* \"#utility.yul\":722:723   */\n      0x00\n        /* \"#utility.yul\":719:720   */\n      dup1\n        /* \"#utility.yul\":712:724   */\n      revert\n        /* \"#utility.yul\":671:726   */\n    tag_65:\n        /* \"#utility.yul\":786:788   */\n      dup4\n        /* \"#utility.yul\":779:783   */\n      0x20\n        /* \"#utility.yul\":771:777   */\n      dup8\n        /* \"#utility.yul\":767:784   */\n      add\n        /* \"#utility.yul\":760:764   */\n      0x20\n        /* \"#utility.yul\":752:758   */\n      dup4\n        /* \"#utility.yul\":748:765   */\n      add\n        /* \"#utility.yul\":735:789   */\n      calldatacopy\n        /* \"#utility.yul\":833:834   */\n      0x00\n        /* \"#utility.yul\":826:830   */\n      0x20\n        /* \"#utility.yul\":821:823   */\n      dup6\n        /* \"#utility.yul\":813:819   */\n      dup4\n        /* \"#utility.yul\":809:824   */\n      add\n        /* \"#utility.yul\":805:831   */\n      add\n        /* \"#utility.yul\":798:835   */\n      mstore\n        /* \"#utility.yul\":853:859   */\n      dup1\n        /* \"#utility.yul\":844:859   */\n      swap5\n      pop\n      pop\n      pop\n      pop\n      pop\n        /* \"#utility.yul\":146:865   */\n      swap3\n      swap2\n      pop\n      pop\n      jump\t// out\n        /* \"#utility.yul\":870:1586   */\n    tag_9:\n        /* \"#utility.yul\":966:972   */\n      0x00\n        /* \"#utility.yul\":974:980   */\n      dup1\n        /* \"#utility.yul\":982:988   */\n      0x00\n        /* \"#utility.yul\":1035:1037   */\n      0x60\n        /* \"#utility.yul\":1023:1032   */\n      dup5\n        /* \"#utility.yul\":1014:1021   */\n      dup7\n        /* \"#utility.yul\":1010:1033   */\n      sub\n        /* \"#utility.yul\":1006:1038   */\n      slt\n        /* \"#utility.yul\":1003:1055   */\n      iszero\n      tag_67\n      jumpi\n        /* \"#utility.yul\":1051:1052   */\n      0x00\n        /* \"#utility.yul\":1048:1049   */\n      dup1\n        /* \"#utility.yul\":1041:1053   */\n      revert\n        /* \"#utility.yul\":1003:1055   */\n    tag_67:\n        /* \"#utility.yul\":1077:1100   */\n      dup4\n      calldataload\n      sub(shl(0xa0, 0x01), 0x01)\n        /* \"#utility.yul\":1129:1160   */\n      dup2\n      and\n        /* \"#utility.yul\":1119:1161   */\n      dup2\n      eq\n        /* \"#utility.yul\":1109:1179   */\n      tag_68\n      jumpi\n        /* \"#utility.yul\":1175:1176   */\n      0x00\n        /* \"#utility.yul\":1172:1173   */\n      dup1\n        /* \"#utility.yul\":1165:1177   */\n      revert\n        /* \"#utility.yul\":1109:1179   */\n    tag_68:\n        /* \"#utility.yul\":1198:1203   */\n      swap3\n      pop\n        /* \"#utility.yul\":1254:1256   */\n      0x20\n        /* \"#utility.yul\":1239:1257   */\n      dup5\n      add\n        /* \"#utility.yul\":1226:1258   */\n      calldataload\n        /* \"#utility.yul\":1277:1295   */\n      0xffffffffffffffff\n        /* \"#utility.yul\":1307:1321   */\n      dup1\n      dup3\n      gt\n        /* \"#utility.yul\":1304:1338   */\n      iszero\n      tag_69\n      jumpi\n        /* \"#utility.yul\":1334:1335   */\n      0x00\n        /* \"#utility.yul\":1331:1332   */\n      dup1\n        /* \"#utility.yul\":1324:1336   */\n      revert\n        /* \"#utility.yul\":1304:1338   */\n    tag_69:\n        /* \"#utility.yul\":1357:1407   */\n      tag_70\n        /* \"#utility.yul\":1399:1406   */\n      dup8\n        /* \"#utility.yul\":1390:1396   */\n      dup4\n        /* \"#utility.yul\":1379:1388   */\n      dup9\n        /* \"#utility.yul\":1375:1397   */\n      add\n        /* \"#utility.yul\":1357:1407   */\n      tag_55\n      jump\t// in\n    tag_70:\n        /* \"#utility.yul\":1347:1407   */\n      swap4\n      pop\n        /* \"#utility.yul\":1460:1462   */\n      0x40\n        /* \"#utility.yul\":1449:1458   */\n      dup7\n        /* \"#utility.yul\":1445:1463   */\n      add\n        /* \"#utility.yul\":1432:1464   */\n      calldataload\n        /* \"#utility.yul\":1416:1464   */\n      swap2\n      pop\n        /* \"#utility.yul\":1489:1491   */\n      dup1\n        /* \"#utility.yul\":1479:1487   */\n      dup3\n        /* \"#utility.yul\":1476:1492   */\n      gt\n        /* \"#utility.yul\":1473:1509   */\n      iszero\n      tag_71\n      jumpi\n        /* \"#utility.yul\":1505:1506   */\n      0x00\n        /* \"#utility.yul\":1502:1503   */\n      dup1\n        /* \"#utility.yul\":1495:1507   */\n      revert\n        /* \"#utility.yul\":1473:1509   */\n    tag_71:\n      pop\n        /* \"#utility.yul\":1528:1580   */\n      tag_72\n        /* \"#utility.yul\":1572:1579   */\n      dup7\n        /* \"#utility.yul\":1561:1569   */\n      dup3\n        /* \"#utility.yul\":1550:1559   */\n      dup8\n        /* \"#utility.yul\":1546:1570   */\n      add\n        /* \"#utility.yul\":1528:1580   */\n      tag_55\n      jump\t// in\n    tag_72:\n        /* \"#utility.yul\":1518:1580   */\n      swap2\n      pop\n      pop\n        /* \"#utility.yul\":870:1586   */\n      swap3\n      pop\n      swap3\n      pop\n      swap3\n      jump\t// out\n        /* \"#utility.yul\":1783:2324   */\n    tag_15:\n        /* \"#utility.yul\":1869:1875   */\n      0x00\n        /* \"#utility.yul\":1877:1883   */\n      dup1\n        /* \"#utility.yul\":1930:1932   */\n      0x40\n        /* \"#utility.yul\":1918:1927   */\n      dup4\n        /* \"#utility.yul\":1909:1916   */\n      dup6\n        /* \"#utility.yul\":1905:1928   */\n      sub\n        /* \"#utility.yul\":1901:1933   */\n      slt\n        /* \"#utility.yul\":1898:1950   */\n      iszero\n      tag_75\n      jumpi\n        /* \"#utility.yul\":1946:1947   */\n      0x00\n        /* \"#utility.yul\":1943:1944   */\n      dup1\n        /* \"#utility.yul\":1936:1948   */\n      revert\n        /* \"#utility.yul\":1898:1950   */\n    tag_75:\n        /* \"#utility.yul\":1986:1995   */\n      dup3\n        /* \"#utility.yul\":1973:1996   */\n      calldataload\n        /* \"#utility.yul\":2015:2033   */\n      0xffffffffffffffff\n        /* \"#utility.yul\":2056:2058   */\n      dup1\n        /* \"#utility.yul\":2048:2054   */\n      dup3\n        /* \"#utility.yul\":2045:2059   */\n      gt\n        /* \"#utility.yul\":2042:2076   */\n      iszero\n      tag_76\n      jumpi\n        /* \"#utility.yul\":2072:2073   */\n      0x00\n        /* \"#utility.yul\":2069:2070   */\n      dup1\n        /* \"#utility.yul\":2062:2074   */\n      revert\n        /* \"#utility.yul\":2042:2076   */\n    tag_76:\n        /* \"#utility.yul\":2095:2145   */\n      tag_77\n        /* \"#utility.yul\":2137:2144   */\n      dup7\n        /* \"#utility.yul\":2128:2134   */\n      dup4\n        /* \"#utility.yul\":2117:2126   */\n      dup8\n        /* \"#utility.yul\":2113:2135   */\n      add\n        /* \"#utility.yul\":2095:2145   */\n      tag_55\n      jump\t// in\n    tag_77:\n        /* \"#utility.yul\":2085:2145   */\n      swap4\n      pop\n        /* \"#utility.yul\":2198:2200   */\n      0x20\n        /* \"#utility.yul\":2187:2196   */\n      dup6\n        /* \"#utility.yul\":2183:2201   */\n      add\n        /* \"#utility.yul\":2170:2202   */\n      calldataload\n        /* \"#utility.yul\":2154:2202   */\n      swap2\n      pop\n        /* \"#utility.yul\":2227:2229   */\n      dup1\n        /* \"#utility.yul\":2217:2225   */\n      dup3\n        /* \"#utility.yul\":2214:2230   */\n      gt\n        /* \"#utility.yul\":2211:2247   */\n      iszero\n      tag_78\n      jumpi\n        /* \"#utility.yul\":2243:2244   */\n      0x00\n        /* \"#utility.yul\":2240:2241   */\n      dup1\n        /* \"#utility.yul\":2233:2245   */\n      revert\n        /* \"#utility.yul\":2211:2247   */\n    tag_78:\n      pop\n        /* \"#utility.yul\":2266:2318   */\n      tag_79\n        /* \"#utility.yul\":2310:2317   */\n      dup6\n        /* \"#utility.yul\":2299:2307   */\n      dup3\n        /* \"#utility.yul\":2288:2297   */\n      dup7\n        /* \"#utility.yul\":2284:2308   */\n      add\n        /* \"#utility.yul\":2266:2318   */\n      tag_55\n      jump\t// in\n    tag_79:\n        /* \"#utility.yul\":2256:2318   */\n      swap2\n      pop\n      pop\n        /* \"#utility.yul\":1783:2324   */\n      swap3\n      pop\n      swap3\n      swap1\n      pop\n      jump\t// out\n        /* \"#utility.yul\":2537:2717   */\n    tag_21:\n        /* \"#utility.yul\":2596:2602   */\n      0x00\n        /* \"#utility.yul\":2649:2651   */\n      0x20\n        /* \"#utility.yul\":2637:2646   */\n      dup3\n        /* \"#utility.yul\":2628:2635   */\n      dup5\n        /* \"#utility.yul\":2624:2647   */\n      sub\n        /* \"#utility.yul\":2620:2652   */\n      slt\n        /* \"#utility.yul\":2617:2669   */\n      iszero\n      tag_82\n      jumpi\n        /* \"#utility.yul\":2665:2666   */\n      0x00\n        /* \"#utility.yul\":2662:2663   */\n      dup1\n        /* \"#utility.yul\":2655:2667   */\n      revert\n        /* \"#utility.yul\":2617:2669   */\n    tag_82:\n      pop\n        /* \"#utility.yul\":2688:2711   */\n      calldataload\n      swap2\n        /* \"#utility.yul\":2537:2717   */\n      swap1\n      pop\n      jump\t// out\n        /* \"#utility.yul\":2722:2972   */\n    tag_56:\n        /* \"#utility.yul\":2807:2808   */\n      0x00\n        /* \"#utility.yul\":2817:2930   */\n    tag_84:\n        /* \"#utility.yul\":2831:2837   */\n      dup4\n        /* \"#utility.yul\":2828:2829   */\n      dup2\n        /* \"#utility.yul\":2825:2838   */\n      lt\n        /* \"#utility.yul\":2817:2930   */\n      iszero\n      tag_86\n      jumpi\n        /* \"#utility.yul\":2907:2918   */\n      dup2\n      dup2\n      add\n        /* \"#utility.yul\":2901:2919   */\n      mload\n        /* \"#utility.yul\":2888:2899   */\n      dup4\n      dup3\n      add\n        /* \"#utility.yul\":2881:2920   */\n      mstore\n        /* \"#utility.yul\":2853:2855   */\n      0x20\n        /* \"#utility.yul\":2846:2856   */\n      add\n        /* \"#utility.yul\":2817:2930   */\n      jump(tag_84)\n    tag_86:\n      pop\n      pop\n        /* \"#utility.yul\":2964:2965   */\n      0x00\n        /* \"#utility.yul\":2946:2962   */\n      swap2\n      add\n        /* \"#utility.yul\":2939:2966   */\n      mstore\n        /* \"#utility.yul\":2722:2972   */\n      jump\t// out\n        /* \"#utility.yul\":2977:3371   */\n    tag_24:\n        /* \"#utility.yul\":3124:3126   */\n      0x20\n        /* \"#utility.yul\":3113:3122   */\n      dup2\n        /* \"#utility.yul\":3106:3127   */\n      mstore\n        /* \"#utility.yul\":3087:3091   */\n      0x00\n        /* \"#utility.yul\":3156:3162   */\n      dup3\n        /* \"#utility.yul\":3150:3163   */\n      mload\n        /* \"#utility.yul\":3199:3205   */\n      dup1\n        /* \"#utility.yul\":3194:3196   */\n      0x20\n        /* \"#utility.yul\":3183:3192   */\n      dup5\n        /* \"#utility.yul\":3179:3197   */\n      add\n        /* \"#utility.yul\":3172:3206   */\n      mstore\n        /* \"#utility.yul\":3215:3294   */\n      tag_88\n        /* \"#utility.yul\":3287:3293   */\n      dup2\n        /* \"#utility.yul\":3282:3284   */\n      0x40\n        /* \"#utility.yul\":3271:3280   */\n      dup6\n        /* \"#utility.yul\":3267:3285   */\n      add\n        /* \"#utility.yul\":3262:3264   */\n      0x20\n        /* \"#utility.yul\":3254:3260   */\n      dup8\n        /* \"#utility.yul\":3250:3265   */\n      add\n        /* \"#utility.yul\":3215:3294   */\n      tag_56\n      jump\t// in\n    tag_88:\n        /* \"#utility.yul\":3355:3357   */\n      0x1f\n        /* \"#utility.yul\":3334:3349   */\n      add\n      not(0x1f)\n        /* \"#utility.yul\":3330:3359   */\n      and\n        /* \"#utility.yul\":3315:3360   */\n      swap2\n      swap1\n      swap2\n      add\n        /* \"#utility.yul\":3362:3364   */\n      0x40\n        /* \"#utility.yul\":3311:3365   */\n      add\n      swap3\n        /* \"#utility.yul\":2977:3371   */\n      swap2\n      pop\n      pop\n      jump\t// out\n        /* \"#utility.yul\":3376:3698   */\n    tag_27:\n        /* \"#utility.yul\":3445:3451   */\n      0x00\n        /* \"#utility.yul\":3498:3500   */\n      0x20\n        /* \"#utility.yul\":3486:3495   */\n      dup3\n        /* \"#utility.yul\":3477:3484   */\n      dup5\n        /* \"#utility.yul\":3473:3496   */\n      sub\n        /* \"#utility.yul\":3469:3501   */\n      slt\n        /* \"#utility.yul\":3466:3518   */\n      iszero\n      tag_90\n      jumpi\n        /* \"#utility.yul\":3514:3515   */\n      0x00\n        /* \"#utility.yul\":3511:3512   */\n      dup1\n        /* \"#utility.yul\":3504:3516   */\n      revert\n        /* \"#utility.yul\":3466:3518   */\n    tag_90:\n        /* \"#utility.yul\":3554:3563   */\n      dup2\n        /* \"#utility.yul\":3541:3564   */\n      calldataload\n        /* \"#utility.yul\":3587:3605   */\n      0xffffffffffffffff\n        /* \"#utility.yul\":3579:3585   */\n      dup2\n        /* \"#utility.yul\":3576:3606   */\n      gt\n        /* \"#utility.yul\":3573:3623   */\n      iszero\n      tag_91\n      jumpi\n        /* \"#utility.yul\":3619:3620   */\n      0x00\n        /* \"#utility.yul\":3616:3617   */\n      dup1\n        /* \"#utility.yul\":3609:3621   */\n      revert\n        /* \"#utility.yul\":3573:3623   */\n    tag_91:\n        /* \"#utility.yul\":3642:3692   */\n      tag_92\n        /* \"#utility.yul\":3684:3691   */\n      dup5\n        /* \"#utility.yul\":3675:3681   */\n      dup3\n        /* \"#utility.yul\":3664:3673   */\n      dup6\n        /* \"#utility.yul\":3660:3682   */\n      add\n        /* \"#utility.yul\":3642:3692   */\n      tag_55\n      jump\t// in\n    tag_92:\n        /* \"#utility.yul\":3632:3692   */\n      swap5\n        /* \"#utility.yul\":3376:3698   */\n      swap4\n      pop\n      pop\n      pop\n      pop\n      jump\t// out\n        /* \"#utility.yul\":3885:4069   */\n    tag_39:\n        /* \"#utility.yul\":3955:3961   */\n      0x00\n        /* \"#utility.yul\":4008:4010   */\n      0x20\n        /* \"#utility.yul\":3996:4005   */\n      dup3\n        /* \"#utility.yul\":3987:3994   */\n      dup5\n        /* \"#utility.yul\":3983:4006   */\n      sub\n        /* \"#utility.yul\":3979:4011   */\n      slt\n        /* \"#utility.yul\":3976:4028   */\n      iszero\n      tag_95\n      jumpi\n        /* \"#utility.yul\":4024:4025   */\n      0x00\n        /* \"#utility.yul\":4021:4022   */\n      dup1\n        /* \"#utility.yul\":4014:4026   */\n      revert\n        /* \"#utility.yul\":3976:4028   */\n    tag_95:\n      pop\n        /* \"#utility.yul\":4047:4063   */\n      mload\n      swap2\n        /* \"#utility.yul\":3885:4069   */\n      swap1\n      pop\n      jump\t// out\n        /* \"#utility.yul\":4862:5151   */\n    tag_49:\n        /* \"#utility.yul\":4993:4996   */\n      0x00\n        /* \"#utility.yul\":5031:5037   */\n      dup3\n        /* \"#utility.yul\":5025:5038   */\n      mload\n        /* \"#utility.yul\":5047:5113   */\n      tag_99\n        /* \"#utility.yul\":5106:5112   */\n      dup2\n        /* \"#utility.yul\":5101:5104   */\n      dup5\n        /* \"#utility.yul\":5094:5098   */\n      0x20\n        /* \"#utility.yul\":5086:5092   */\n      dup8\n        /* \"#utility.yul\":5082:5099   */\n      add\n        /* \"#utility.yul\":5047:5113   */\n      tag_56\n      jump\t// in\n    tag_99:\n        /* \"#utility.yul\":5129:5145   */\n      swap2\n      swap1\n      swap2\n      add\n      swap3\n        /* \"#utility.yul\":4862:5151   */\n      swap2\n      pop\n      pop\n      jump\t// out\n\n    auxdata: 0xa26469706673582212203d8fb49cfc2c16b0b4415c5222e86c2a50323a98ab6492791fcf563f6a6f5c6b64736f6c63430008180033\n}\n",
				"bytecode": {
					"linkReferences": {},
					"object": "608060405234801561000f575f80fd5b506105238061001d5f395ff3fe608060405234801561000f575f80fd5b506004361061004a575f3560e01c806308aa07d31461004e5780631ed13d1b1461007657806341ef0aca146100a1578063b446f3b2146100c1575b5f80fd5b61006161005c36600461033a565b6100e2565b60405190151581526020015b60405180910390f35b6100896100843660046103b6565b610123565b6040516001600160a01b03909116815260200161006d565b6100b46100af366004610416565b6101b4565b60405161006d919061044f565b6100d46100cf366004610481565b6101f9565b60405190815260200161006d565b5f806100ed846101f9565b90505f6100f9826101b4565b9050856001600160a01b031661010f8286610123565b6001600160a01b0316149695505050505050565b5f805f8061013085610228565b9250925092505f8680602001905181019061014b91906104bb565b604080515f81526020810180835283905260ff851691810191909152606081018690526080810185905290915060019060a0016020604051602081039080840390855afa15801561019e573d5f803e3d5ffd5b5050604051601f19015198975050505050505050565b604080517f19457468657265756d205369676e6564204d6573736167653a0a0000000000006020820152603a8082019390935281518082039093018352605a01905290565b5f8160405160200161020b91906104d2565b604051602081830303815290604052805190602001209050919050565b5f805f83516041146102805760405162461bcd60e51b815260206004820152601a60248201527f696e76616c6964207369676e617475726520737472656e677468000000000000604482015260640160405180910390fd5b5050506020810151604082015160609092015190925f9190911a90565b634e487b7160e01b5f52604160045260245ffd5b5f82601f8301126102c0575f80fd5b813567ffffffffffffffff808211156102db576102db61029d565b604051601f8301601f19908116603f011681019082821181831017156103035761030361029d565b8160405283815286602085880101111561031b575f80fd5b836020870160208301375f602085830101528094505050505092915050565b5f805f6060848603121561034c575f80fd5b83356001600160a01b0381168114610362575f80fd5b9250602084013567ffffffffffffffff8082111561037e575f80fd5b61038a878388016102b1565b9350604086013591508082111561039f575f80fd5b506103ac868287016102b1565b9150509250925092565b5f80604083850312156103c7575f80fd5b823567ffffffffffffffff808211156103de575f80fd5b6103ea868387016102b1565b935060208501359150808211156103ff575f80fd5b5061040c858286016102b1565b9150509250929050565b5f60208284031215610426575f80fd5b5035919050565b5f5b8381101561044757818101518382015260200161042f565b50505f910152565b602081525f825180602084015261046d81604085016020870161042d565b601f01601f19169190910160400192915050565b5f60208284031215610491575f80fd5b813567ffffffffffffffff8111156104a7575f80fd5b6104b3848285016102b1565b949350505050565b5f602082840312156104cb575f80fd5b5051919050565b5f82516104e381846020870161042d565b919091019291505056fea26469706673582212203d8fb49cfc2c16b0b4415c5222e86c2a50323a98ab6492791fcf563f6a6f5c6b64736f6c63430008180033",
					"opcodes": "PUSH1 0x80 PUSH1 0x40 MSTORE CALLVALUE DUP1 ISZERO PUSH2 0xF JUMPI PUSH0 DUP1 REVERT JUMPDEST POP PUSH2 0x523 DUP1 PUSH2 0x1D PUSH0 CODECOPY PUSH0 RETURN INVALID PUSH1 0x80 PUSH1 0x40 MSTORE CALLVALUE DUP1 ISZERO PUSH2 0xF JUMPI PUSH0 DUP1 REVERT JUMPDEST POP PUSH1 0x4 CALLDATASIZE LT PUSH2 0x4A JUMPI PUSH0 CALLDATALOAD PUSH1 0xE0 SHR DUP1 PUSH4 0x8AA07D3 EQ PUSH2 0x4E JUMPI DUP1 PUSH4 0x1ED13D1B EQ PUSH2 0x76 JUMPI DUP1 PUSH4 0x41EF0ACA EQ PUSH2 0xA1 JUMPI DUP1 PUSH4 0xB446F3B2 EQ PUSH2 0xC1 JUMPI JUMPDEST PUSH0 DUP1 REVERT JUMPDEST PUSH2 0x61 PUSH2 0x5C CALLDATASIZE PUSH1 0x4 PUSH2 0x33A JUMP JUMPDEST PUSH2 0xE2 JUMP JUMPDEST PUSH1 0x40 MLOAD SWAP1 ISZERO ISZERO DUP2 MSTORE PUSH1 0x20 ADD JUMPDEST PUSH1 0x40 MLOAD DUP1 SWAP2 SUB SWAP1 RETURN JUMPDEST PUSH2 0x89 PUSH2 0x84 CALLDATASIZE PUSH1 0x4 PUSH2 0x3B6 JUMP JUMPDEST PUSH2 0x123 JUMP JUMPDEST PUSH1 0x40 MLOAD PUSH1 0x1 PUSH1 0x1 PUSH1 0xA0 SHL SUB SWAP1 SWAP2 AND DUP2 MSTORE PUSH1 0x20 ADD PUSH2 0x6D JUMP JUMPDEST PUSH2 0xB4 PUSH2 0xAF CALLDATASIZE PUSH1 0x4 PUSH2 0x416 JUMP JUMPDEST PUSH2 0x1B4 JUMP JUMPDEST PUSH1 0x40 MLOAD PUSH2 0x6D SWAP2 SWAP1 PUSH2 0x44F JUMP JUMPDEST PUSH2 0xD4 PUSH2 0xCF CALLDATASIZE PUSH1 0x4 PUSH2 0x481 JUMP JUMPDEST PUSH2 0x1F9 JUMP JUMPDEST PUSH1 0x40 MLOAD SWAP1 DUP2 MSTORE PUSH1 0x20 ADD PUSH2 0x6D JUMP JUMPDEST PUSH0 DUP1 PUSH2 0xED DUP5 PUSH2 0x1F9 JUMP JUMPDEST SWAP1 POP PUSH0 PUSH2 0xF9 DUP3 PUSH2 0x1B4 JUMP JUMPDEST SWAP1 POP DUP6 PUSH1 0x1 PUSH1 0x1 PUSH1 0xA0 SHL SUB AND PUSH2 0x10F DUP3 DUP7 PUSH2 0x123 JUMP JUMPDEST PUSH1 0x1 PUSH1 0x1 PUSH1 0xA0 SHL SUB AND EQ SWAP7 SWAP6 POP POP POP POP POP POP JUMP JUMPDEST PUSH0 DUP1 PUSH0 DUP1 PUSH2 0x130 DUP6 PUSH2 0x228 JUMP JUMPDEST SWAP3 POP SWAP3 POP SWAP3 POP PUSH0 DUP7 DUP1 PUSH1 0x20 ADD SWAP1 MLOAD DUP2 ADD SWAP1 PUSH2 0x14B SWAP2 SWAP1 PUSH2 0x4BB JUMP JUMPDEST PUSH1 0x40 DUP1 MLOAD PUSH0 DUP2 MSTORE PUSH1 0x20 DUP2 ADD DUP1 DUP4 MSTORE DUP4 SWAP1 MSTORE PUSH1 0xFF DUP6 AND SWAP2 DUP2 ADD SWAP2 SWAP1 SWAP2 MSTORE PUSH1 0x60 DUP2 ADD DUP7 SWAP1 MSTORE PUSH1 0x80 DUP2 ADD DUP6 SWAP1 MSTORE SWAP1 SWAP2 POP PUSH1 0x1 SWAP1 PUSH1 0xA0 ADD PUSH1 0x20 PUSH1 0x40 MLOAD PUSH1 0x20 DUP2 SUB SWAP1 DUP1 DUP5 SUB SWAP1 DUP6 GAS STATICCALL ISZERO DUP1 ISZERO PUSH2 0x19E JUMPI RETURNDATASIZE PUSH0 DUP1 RETURNDATACOPY RETURNDATASIZE PUSH0 REVERT JUMPDEST POP POP PUSH1 0x40 MLOAD PUSH1 0x1F NOT ADD MLOAD SWAP9 SWAP8 POP POP POP POP POP POP POP POP JUMP JUMPDEST PUSH1 0x40 DUP1 MLOAD PUSH32 0x19457468657265756D205369676E6564204D6573736167653A0A000000000000 PUSH1 0x20 DUP3 ADD MSTORE PUSH1 0x3A DUP1 DUP3 ADD SWAP4 SWAP1 SWAP4 MSTORE DUP2 MLOAD DUP1 DUP3 SUB SWAP1 SWAP4 ADD DUP4 MSTORE PUSH1 0x5A ADD SWAP1 MSTORE SWAP1 JUMP JUMPDEST PUSH0 DUP2 PUSH1 0x40 MLOAD PUSH1 0x20 ADD PUSH2 0x20B SWAP2 SWAP1 PUSH2 0x4D2 JUMP JUMPDEST PUSH1 0x40 MLOAD PUSH1 0x20 DUP2 DUP4 SUB SUB DUP2 MSTORE SWAP1 PUSH1 0x40 MSTORE DUP1 MLOAD SWAP1 PUSH1 0x20 ADD KECCAK256 SWAP1 POP SWAP2 SWAP1 POP JUMP JUMPDEST PUSH0 DUP1 PUSH0 DUP4 MLOAD PUSH1 0x41 EQ PUSH2 0x280 JUMPI PUSH1 0x40 MLOAD PUSH3 0x461BCD PUSH1 0xE5 SHL DUP2 MSTORE PUSH1 0x20 PUSH1 0x4 DUP3 ADD MSTORE PUSH1 0x1A PUSH1 0x24 DUP3 ADD MSTORE PUSH32 0x696E76616C6964207369676E617475726520737472656E677468000000000000 PUSH1 0x44 DUP3 ADD MSTORE PUSH1 0x64 ADD PUSH1 0x40 MLOAD DUP1 SWAP2 SUB SWAP1 REVERT JUMPDEST POP POP POP PUSH1 0x20 DUP2 ADD MLOAD PUSH1 0x40 DUP3 ADD MLOAD PUSH1 0x60 SWAP1 SWAP3 ADD MLOAD SWAP1 SWAP3 PUSH0 SWAP2 SWAP1 SWAP2 BYTE SWAP1 JUMP JUMPDEST PUSH4 0x4E487B71 PUSH1 0xE0 SHL PUSH0 MSTORE PUSH1 0x41 PUSH1 0x4 MSTORE PUSH1 0x24 PUSH0 REVERT JUMPDEST PUSH0 DUP3 PUSH1 0x1F DUP4 ADD SLT PUSH2 0x2C0 JUMPI PUSH0 DUP1 REVERT JUMPDEST DUP2 CALLDATALOAD PUSH8 0xFFFFFFFFFFFFFFFF DUP1 DUP3 GT ISZERO PUSH2 0x2DB JUMPI PUSH2 0x2DB PUSH2 0x29D JUMP JUMPDEST PUSH1 0x40 MLOAD PUSH1 0x1F DUP4 ADD PUSH1 0x1F NOT SWAP1 DUP2 AND PUSH1 0x3F ADD AND DUP2 ADD SWAP1 DUP3 DUP3 GT DUP2 DUP4 LT OR ISZERO PUSH2 0x303 JUMPI PUSH2 0x303 PUSH2 0x29D JUMP JUMPDEST DUP2 PUSH1 0x40 MSTORE DUP4 DUP2 MSTORE DUP7 PUSH1 0x20 DUP6 DUP9 ADD ADD GT ISZERO PUSH2 0x31B JUMPI PUSH0 DUP1 REVERT JUMPDEST DUP4 PUSH1 0x20 DUP8 ADD PUSH1 0x20 DUP4 ADD CALLDATACOPY PUSH0 PUSH1 0x20 DUP6 DUP4 ADD ADD MSTORE DUP1 SWAP5 POP POP POP POP POP SWAP3 SWAP2 POP POP JUMP JUMPDEST PUSH0 DUP1 PUSH0 PUSH1 0x60 DUP5 DUP7 SUB SLT ISZERO PUSH2 0x34C JUMPI PUSH0 DUP1 REVERT JUMPDEST DUP4 CALLDATALOAD PUSH1 0x1 PUSH1 0x1 PUSH1 0xA0 SHL SUB DUP2 AND DUP2 EQ PUSH2 0x362 JUMPI PUSH0 DUP1 REVERT JUMPDEST SWAP3 POP PUSH1 0x20 DUP5 ADD CALLDATALOAD PUSH8 0xFFFFFFFFFFFFFFFF DUP1 DUP3 GT ISZERO PUSH2 0x37E JUMPI PUSH0 DUP1 REVERT JUMPDEST PUSH2 0x38A DUP8 DUP4 DUP9 ADD PUSH2 0x2B1 JUMP JUMPDEST SWAP4 POP PUSH1 0x40 DUP7 ADD CALLDATALOAD SWAP2 POP DUP1 DUP3 GT ISZERO PUSH2 0x39F JUMPI PUSH0 DUP1 REVERT JUMPDEST POP PUSH2 0x3AC DUP7 DUP3 DUP8 ADD PUSH2 0x2B1 JUMP JUMPDEST SWAP2 POP POP SWAP3 POP SWAP3 POP SWAP3 JUMP JUMPDEST PUSH0 DUP1 PUSH1 0x40 DUP4 DUP6 SUB SLT ISZERO PUSH2 0x3C7 JUMPI PUSH0 DUP1 REVERT JUMPDEST DUP3 CALLDATALOAD PUSH8 0xFFFFFFFFFFFFFFFF DUP1 DUP3 GT ISZERO PUSH2 0x3DE JUMPI PUSH0 DUP1 REVERT JUMPDEST PUSH2 0x3EA DUP7 DUP4 DUP8 ADD PUSH2 0x2B1 JUMP JUMPDEST SWAP4 POP PUSH1 0x20 DUP6 ADD CALLDATALOAD SWAP2 POP DUP1 DUP3 GT ISZERO PUSH2 0x3FF JUMPI PUSH0 DUP1 REVERT JUMPDEST POP PUSH2 0x40C DUP6 DUP3 DUP7 ADD PUSH2 0x2B1 JUMP JUMPDEST SWAP2 POP POP SWAP3 POP SWAP3 SWAP1 POP JUMP JUMPDEST PUSH0 PUSH1 0x20 DUP3 DUP5 SUB SLT ISZERO PUSH2 0x426 JUMPI PUSH0 DUP1 REVERT JUMPDEST POP CALLDATALOAD SWAP2 SWAP1 POP JUMP JUMPDEST PUSH0 JUMPDEST DUP4 DUP2 LT ISZERO PUSH2 0x447 JUMPI DUP2 DUP2 ADD MLOAD DUP4 DUP3 ADD MSTORE PUSH1 0x20 ADD PUSH2 0x42F JUMP JUMPDEST POP POP PUSH0 SWAP2 ADD MSTORE JUMP JUMPDEST PUSH1 0x20 DUP2 MSTORE PUSH0 DUP3 MLOAD DUP1 PUSH1 0x20 DUP5 ADD MSTORE PUSH2 0x46D DUP2 PUSH1 0x40 DUP6 ADD PUSH1 0x20 DUP8 ADD PUSH2 0x42D JUMP JUMPDEST PUSH1 0x1F ADD PUSH1 0x1F NOT AND SWAP2 SWAP1 SWAP2 ADD PUSH1 0x40 ADD SWAP3 SWAP2 POP POP JUMP JUMPDEST PUSH0 PUSH1 0x20 DUP3 DUP5 SUB SLT ISZERO PUSH2 0x491 JUMPI PUSH0 DUP1 REVERT JUMPDEST DUP2 CALLDATALOAD PUSH8 0xFFFFFFFFFFFFFFFF DUP2 GT ISZERO PUSH2 0x4A7 JUMPI PUSH0 DUP1 REVERT JUMPDEST PUSH2 0x4B3 DUP5 DUP3 DUP6 ADD PUSH2 0x2B1 JUMP JUMPDEST SWAP5 SWAP4 POP POP POP POP JUMP JUMPDEST PUSH0 PUSH1 0x20 DUP3 DUP5 SUB SLT ISZERO PUSH2 0x4CB JUMPI PUSH0 DUP1 REVERT JUMPDEST POP MLOAD SWAP2 SWAP1 POP JUMP JUMPDEST PUSH0 DUP3 MLOAD PUSH2 0x4E3 DUP2 DUP5 PUSH1 0x20 DUP8 ADD PUSH2 0x42D JUMP JUMPDEST SWAP2 SWAP1 SWAP2 ADD SWAP3 SWAP2 POP POP JUMP INVALID LOG2 PUSH5 0x6970667358 0x22 SLT KECCAK256 RETURNDATASIZE DUP16 0xB4 SWAP13 0xFC 0x2C AND 0xB0 0xB4 COINBASE TLOAD MSTORE 0x22 0xE8 PUSH13 0x2A50323A98AB6492791FCF563F PUSH11 0x6F5C6B64736F6C63430008 XOR STOP CALLER "
				},
				"gasEstimates": {
					"creation": {
						"codeDepositCost": "263000",
						"executionCost": "304",
						"totalCost": "263304"
					},
					"external": {
						"Verify(address,string,bytes)": "infinite",
						"ethGetMessageHash(bytes32)": "infinite",
						"getMessageHash(string)": "infinite",
						"recover(bytes,bytes)": "infinite"
					},
					"internal": {
						"_split(bytes memory)": "infinite"
					}
				},
				"methodIdentifiers": {
					"Verify(address,string,bytes)": "08aa07d3",
					"ethGetMessageHash(bytes32)": "41ef0aca",
					"getMessageHash(string)": "b446f3b2",
					"recover(bytes,bytes)": "1ed13d1b"
				}
			},
			"storageLayout": {
				"storage": [],
				"types": null
			},
			"userdoc": {
				"kind": "user",
				"methods": {},
				"version": 1
			}
		}
	}
}