{
	"data": {
		"bytecode": {
			"linkReferences": {},
			"object": "608060408190525f80546001600160a01b03191673012bac54348c0e635dcac9d5fb99f06f24136c9a90811790915563026b1d5f60e01b82529063026b1d5f90608490602090600481865afa1580156200005b573d5f803e3d5ffd5b505050506040513d601f19601f820116820180604052508101906200008191906200015e565b600180546001600160a01b0319166001600160a01b039283161790555f546040805163026b1d5f60e01b81529051919092169163026b1d5f9160048083019260209291908290030181865afa158015620000dd573d5f803e3d5ffd5b505050506040513d601f19601f820116820180604052508101906200010391906200015e565b600280546001600160a01b03929092166001600160a01b0319909216919091179055600380546001600160b01b0319167388541670e55cc00beefd87eb59edd1b7c511ac9a17905534801562000157575f80fd5b506200018d565b5f602082840312156200016f575f80fd5b81516001600160a01b038116811462000186575f80fd5b9392505050565b6122e8806200019b5f395ff3fe608060405234801561000f575f80fd5b5060043610610127575f3560e01c8063845612f3116100a9578063b2bc64d21161006e578063b2bc64d214610277578063b6eaca561461028a578063be4b17721461029d578063c829755f146102b0578063fe04345a146102b8575f80fd5b8063845612f314610218578063898775be1461022b578063920f5c841461023e578063a873345314610251578063adf9686114610264575f80fd5b8063473ffd68116100ef578063473ffd68146101b9578063608684ae146101cc578063629813fe146101df578063638a0133146101f2578063819faf7b14610205575f80fd5b806315c562021461012b5780631b11d0ff146101405780631eda2b501461016857806320b81c0f1461017b5780633f2864051461018e575b5f80fd5b61013e610139366004611920565b6102e0565b005b61015361014e3660046119c4565b61054e565b60405190151581526020015b60405180910390f35b61013e610176366004611a3b565b610654565b61013e610189366004611a72565b6106fe565b6002546101a1906001600160a01b031681565b6040516001600160a01b03909116815260200161015f565b61013e6101c7366004611ab9565b6107f7565b61013e6101da366004611ae3565b6108a0565b61013e6101ed366004611b21565b610a28565b61013e610200366004611b63565b610b19565b6003546101a1906001600160a01b031681565b61013e610226366004611bcc565b610c2c565b61013e610239366004611ced565b610d96565b61015361024c366004611dff565b610f80565b61013e61025f366004611ed0565b6110f4565b61013e610272366004611f0f565b611341565b61013e610285366004611f3c565b611408565b61013e610298366004611fa0565b61165d565b61013e6102ab366004611fee565b611718565b61013e61180a565b6003546102cd90600160a01b900461ffff1681565b60405161ffff909116815260200161015f565b5f5b8181101561047d578282828181106102fc576102fc612011565b90506020020160208101906103119190612025565b6001600160a01b031663095ea7b384848481811061033157610331612011565b90506020020160208101906103469190612025565b85858581811061035857610358612011565b905060200201602081019061036d9190612025565b6001600160a01b03166370a0823187878781811061038d5761038d612011565b90506020020160208101906103a29190612025565b6040516001600160e01b031960e084901b1681526001600160a01b039091166004820152602401602060405180830381865afa1580156103e4573d5f803e3d5ffd5b505050506040513d601f19601f820116820180604052508101906104089190612040565b6040516001600160e01b031960e085901b1681526001600160a01b03909216600483015260248201526044016020604051808303815f875af1158015610450573d5f803e3d5ffd5b505050506040513d601f19601f820116820180604052508101906104749190612057565b506001016102e2565b505f8054906101000a90046001600160a01b03166001600160a01b031663026b1d5f6040518163ffffffff1660e01b8152600401602060405180830381865afa1580156104cc573d5f803e3d5ffd5b505050506040513d601f19601f820116820180604052508101906104f09190612072565b6001600160a01b0316639cd1999683836040518363ffffffff1660e01b815260040161051d92919061208d565b5f604051808303815f87803b158015610534575f80fd5b505af1158015610546573d5f803e3d5ffd5b505050505050565b5f866001600160a01b031663095ea7b35f8054906101000a90046001600160a01b03166001600160a01b031663026b1d5f6040518163ffffffff1660e01b8152600401602060405180830381865afa1580156105ac573d5f803e3d5ffd5b505050506040513d601f19601f820116820180604052508101906105d09190612072565b6105da888a6120e3565b6040516001600160e01b031960e085901b1681526001600160a01b03909216600483015260248201526044016020604051808303815f875af1158015610622573d5f803e3d5ffd5b505050506040513d601f19601f820116820180604052508101906106469190612057565b506001979650505050505050565b5f8054906101000a90046001600160a01b03166001600160a01b031663026b1d5f6040518163ffffffff1660e01b8152600401602060405180830381865afa1580156106a2573d5f803e3d5ffd5b505050506040513d601f19601f820116820180604052508101906106c69190612072565b60405163668891c160e11b81526001600160a01b0384811660048301528381166024830152919091169063cd1123829060440161051d565b5f8054906101000a90046001600160a01b03166001600160a01b031663026b1d5f6040518163ffffffff1660e01b8152600401602060405180830381865afa15801561074c573d5f803e3d5ffd5b505050506040513d601f19601f820116820180604052508101906107709190612072565b60035460405163a415bcad60e01b81526001600160a01b0384811660048301526024820188905260448201879052600160a01b90920461ffff166064820152848216608482015291169063a415bcad9060a4015b5f604051808303815f87803b1580156107db575f80fd5b505af11580156107ed573d5f803e3d5ffd5b5050505050505050565b5f8054906101000a90046001600160a01b03166001600160a01b031663026b1d5f6040518163ffffffff1660e01b8152600401602060405180830381865afa158015610845573d5f803e3d5ffd5b505050506040513d601f19601f820116820180604052508101906108699190612072565b604051634a5d44d160e11b81526001600160a01b0384811660048301526024820184905291909116906394ba89a29060440161051d565b60408051602081019091525f815260646108bb8360026120fc565b6108c59190612113565b6040516370a0823160e01b81526001600160a01b03851660048201819052906370a0823190602401602060405180830381865afa158015610908573d5f803e3d5ffd5b505050506040513d601f19601f8201168201806040525081019061092c9190612040565b116109735760405162461bcd60e51b8152602060048201526012602482015271696e73756666696369656e742066756e647360701b60448201526064015b60405180910390fd5b5f8054906101000a90046001600160a01b03166001600160a01b031663026b1d5f6040518163ffffffff1660e01b8152600401602060405180830381865afa1580156109c1573d5f803e3d5ffd5b505050506040513d601f19601f820116820180604052508101906109e59190612072565b6001600160a01b03166342b0b77c85858585600360149054906101000a900461ffff166040518663ffffffff1660e01b81526004016107c4959493929190612175565b5f8054906101000a90046001600160a01b03166001600160a01b031663026b1d5f6040518163ffffffff1660e01b8152600401602060405180830381865afa158015610a76573d5f803e3d5ffd5b505050506040513d601f19601f82011682018060405250810190610a9a9190612072565b604051630b6b65f560e21b81526001600160a01b03858116600483015260248201859052604482018490529190911690632dad97d4906064016020604051808303815f875af1158015610aef573d5f803e3d5ffd5b505050506040513d601f19601f82011682018060405250810190610b139190612040565b50505050565b5f8054906101000a90046001600160a01b03166001600160a01b031663026b1d5f6040518163ffffffff1660e01b8152600401602060405180830381865afa158015610b67573d5f803e3d5ffd5b505050506040513d601f19601f82011682018060405250810190610b8b9190612072565b600354604051622c205f60e41b81526001600160a01b038a81166004830152602482018990528981166044830152600160a01b90920461ffff1660648201526084810187905260ff861660a482015260c4810185905260e481018490529116906302c205f090610104015b5f604051808303815f87803b158015610c0d575f80fd5b505af1158015610c1f573d5f803e3d5ffd5b5050505050505050505050565b60405163095ea7b360e01b81526001600160a01b03851660048201819052602482018590529063095ea7b3906044016020604051808303815f875af1158015610c77573d5f803e3d5ffd5b505050506040513d601f19601f82011682018060405250810190610c9b9190612057565b505f8054906101000a90046001600160a01b03166001600160a01b031663026b1d5f6040518163ffffffff1660e01b8152600401602060405180830381865afa158015610cea573d5f803e3d5ffd5b505050506040513d601f19601f82011682018060405250810190610d0e9190612072565b60405163573ade8160e01b81526001600160a01b03868116600483015260248201869052604482018590528381166064830152919091169063573ade81906084016020604051808303815f875af1158015610d6b573d5f803e3d5ffd5b505050506040513d601f19601f82011682018060405250810190610d8f9190612040565b5050505050565b60408051602081019091525f8082525b8551811015610ed6576064868281518110610dc357610dc3612011565b60200260200101516002610dd791906120fc565b610de19190612113565b878281518110610df357610df3612011565b60200260200101516001600160a01b03166370a08231898481518110610e1b57610e1b612011565b60200260200101516040518263ffffffff1660e01b8152600401610e4e91906001600160a01b0391909116815260200190565b602060405180830381865afa158015610e69573d5f803e3d5ffd5b505050506040513d601f19601f82011682018060405250810190610e8d9190612040565b11610ece5760405162461bcd60e51b81526020600482015260116024820152706973756666696369656e742066756e647360781b604482015260640161096a565b600101610da6565b505f8054906101000a90046001600160a01b03166001600160a01b031663026b1d5f6040518163ffffffff1660e01b8152600401602060405180830381865afa158015610f25573d5f803e3d5ffd5b505050506040513d601f19601f82011682018060405250810190610f499190612072565b6001600160a01b031663ab9c4b5d888888888887896040518863ffffffff1660e01b8152600401610bf697969594939291906121f7565b5f805b878110156110e3578a8a82818110610f9d57610f9d612011565b9050602002016020810190610fb29190612025565b6001600160a01b031663095ea7b35f8054906101000a90046001600160a01b03166001600160a01b031663026b1d5f6040518163ffffffff1660e01b8152600401602060405180830381865afa15801561100e573d5f803e3d5ffd5b505050506040513d601f19601f820116820180604052508101906110329190612072565b89898581811061104457611044612011565b905060200201358c8c8681811061105d5761105d612011565b9050602002013561106e91906120e3565b6040516001600160e01b031960e085901b1681526001600160a01b03909216600483015260248201526044016020604051808303815f875af11580156110b6573d5f803e3d5ffd5b505050506040513d601f19601f820116820180604052508101906110da9190612057565b50600101610f83565b5060019a9950505050505050505050565b6003546040516323b872dd60e01b8152336004820152306024820152604481018490526001600160a01b03909116906323b872dd906064016020604051808303815f875af1158015611148573d5f803e3d5ffd5b505050506040513d601f19601f8201168201806040525081019061116c9190612057565b506003545f546040805163026b1d5f60e01b815290516001600160a01b039384169363095ea7b393169163026b1d5f9160048083019260209291908290030181865afa1580156111be573d5f803e3d5ffd5b505050506040513d601f19601f820116820180604052508101906111e29190612072565b6040516001600160e01b031960e084901b1681526001600160a01b039091166004820152602481018590526044016020604051808303815f875af115801561122c573d5f803e3d5ffd5b505050506040513d601f19601f820116820180604052508101906112509190612057565b505f8054906101000a90046001600160a01b03166001600160a01b031663026b1d5f6040518163ffffffff1660e01b8152600401602060405180830381865afa15801561129f573d5f803e3d5ffd5b505050506040513d601f19601f820116820180604052508101906112c39190612072565b60035460405163617ba03760e01b81526001600160a01b038681166004830152602482018690528481166044830152600160a01b90920461ffff16606482015291169063617ba037906084015f604051808303815f87803b158015611326575f80fd5b505af1158015611338573d5f803e3d5ffd5b50505050505050565b5f8054906101000a90046001600160a01b03166001600160a01b031663026b1d5f6040518163ffffffff1660e01b8152600401602060405180830381865afa15801561138f573d5f803e3d5ffd5b505050506040513d601f19601f820116820180604052508101906113b39190612072565b6040516328530a4760e01b815260ff831660048201526001600160a01b0391909116906328530a47906024015f604051808303815f87803b1580156113f6575f80fd5b505af1158015610d8f573d5f803e3d5ffd5b6040516323b872dd60e01b81526001600160a01b038481166004830152306024830152604482018490528616906323b872dd906064016020604051808303815f875af115801561145a573d5f803e3d5ffd5b505050506040513d601f19601f8201168201806040525081019061147e9190612057565b50846001600160a01b031663095ea7b35f8054906101000a90046001600160a01b03166001600160a01b031663026b1d5f6040518163ffffffff1660e01b8152600401602060405180830381865afa1580156114dc573d5f803e3d5ffd5b505050506040513d601f19601f820116820180604052508101906115009190612072565b6040516001600160e01b031960e084901b1681526001600160a01b039091166004820152602481018590526044016020604051808303815f875af115801561154a573d5f803e3d5ffd5b505050506040513d601f19601f8201168201806040525081019061156e9190612057565b505f8054906101000a90046001600160a01b03166001600160a01b031663026b1d5f6040518163ffffffff1660e01b8152600401602060405180830381865afa1580156115bd573d5f803e3d5ffd5b505050506040513d601f19601f820116820180604052508101906115e19190612072565b60405162a718a960e01b81526001600160a01b03878116600483015286811660248301528581166044830152606482018590528315156084830152919091169062a718a99060a4015f604051808303815f87803b158015611640575f80fd5b505af1158015611652573d5f803e3d5ffd5b505050505050505050565b5f8054906101000a90046001600160a01b03166001600160a01b031663026b1d5f6040518163ffffffff1660e01b8152600401602060405180830381865afa1580156116ab573d5f803e3d5ffd5b505050506040513d601f19601f820116820180604052508101906116cf9190612072565b6040516369a933a560e01b81526001600160a01b03868116600483015260248201869052848116604483015261ffff8416606483015291909116906369a933a5906084016107c4565b5f8054906101000a90046001600160a01b03166001600160a01b031663026b1d5f6040518163ffffffff1660e01b8152600401602060405180830381865afa158015611766573d5f803e3d5ffd5b505050506040513d601f19601f8201168201806040525081019061178a9190612072565b600354604051631a4ca37b60e21b81526001600160a01b0391821660048201526024810185905283821660448201529116906369328dec906064016020604051808303815f875af11580156117e1573d5f803e3d5ffd5b505050506040513d601f19601f820116820180604052508101906118059190612040565b505050565b5f8054906101000a90046001600160a01b03166001600160a01b031663026b1d5f6040518163ffffffff1660e01b8152600401602060405180830381865afa158015611858573d5f803e3d5ffd5b505050506040513d601f19601f8201168201806040525081019061187c9190612072565b600354604051635a3b74b960e01b81526001600160a01b03918216600482015260016024820152911690635a3b74b9906044015f604051808303815f87803b1580156118c6575f80fd5b505af1158015610b13573d5f803e3d5ffd5b5f8083601f8401126118e8575f80fd5b50813567ffffffffffffffff8111156118ff575f80fd5b6020830191508360208260051b8501011115611919575f80fd5b9250929050565b5f8060208385031215611931575f80fd5b823567ffffffffffffffff811115611947575f80fd5b611953858286016118d8565b90969095509350505050565b6001600160a01b0381168114611973575f80fd5b50565b80356119818161195f565b919050565b5f8083601f840112611996575f80fd5b50813567ffffffffffffffff8111156119ad575f80fd5b602083019150836020828501011115611919575f80fd5b5f805f805f8060a087890312156119d9575f80fd5b86356119e48161195f565b955060208701359450604087013593506060870135611a028161195f565b9250608087013567ffffffffffffffff811115611a1d575f80fd5b611a2989828a01611986565b979a9699509497509295939492505050565b5f8060408385031215611a4c575f80fd5b8235611a578161195f565b91506020830135611a678161195f565b809150509250929050565b5f805f8060808587031215611a85575f80fd5b84359350602085013592506040850135611a9e8161195f565b91506060850135611aae8161195f565b939692955090935050565b5f8060408385031215611aca575f80fd5b8235611ad58161195f565b946020939093013593505050565b5f805f60608486031215611af5575f80fd5b8335611b008161195f565b92506020840135611b108161195f565b929592945050506040919091013590565b5f805f60608486031215611b33575f80fd5b8335611b3e8161195f565b95602085013595506040909401359392505050565b803560ff81168114611981575f80fd5b5f805f805f805f60e0888a031215611b79575f80fd5b8735611b848161195f565b96506020880135611b948161195f565b95506040880135945060608801359350611bb060808901611b53565b925060a0880135915060c0880135905092959891949750929550565b5f805f8060808587031215611bdf575f80fd5b8435611bea8161195f565b935060208501359250604085013591506060850135611aae8161195f565b634e487b7160e01b5f52604160045260245ffd5b604051601f8201601f1916810167ffffffffffffffff81118282101715611c4557611c45611c08565b604052919050565b5f67ffffffffffffffff821115611c6657611c66611c08565b5060051b60200190565b5f82601f830112611c7f575f80fd5b81356020611c94611c8f83611c4d565b611c1c565b8083825260208201915060208460051b870101935086841115611cb5575f80fd5b602086015b84811015611cd15780358352918301918301611cba565b509695505050505050565b803561ffff81168114611981575f80fd5b5f805f805f8060c08789031215611d02575f80fd5b8635611d0d8161195f565b955060208781013567ffffffffffffffff80821115611d2a575f80fd5b818a0191508a601f830112611d3d575f80fd5b8135611d4b611c8f82611c4d565b81815260059190911b8301840190848101908d831115611d69575f80fd5b938501935b82851015611d90578435611d818161195f565b82529385019390850190611d6e565b9950505060408a0135925080831115611da7575f80fd5b611db38b848c01611c70565b965060608a0135925080831115611dc8575f80fd5b5050611dd689828a01611c70565b935050611de560808801611976565b9150611df360a08801611cdc565b90509295509295509295565b5f805f805f805f805f60a08a8c031215611e17575f80fd5b893567ffffffffffffffff80821115611e2e575f80fd5b611e3a8d838e016118d8565b909b50995060208c0135915080821115611e52575f80fd5b611e5e8d838e016118d8565b909950975060408c0135915080821115611e76575f80fd5b611e828d838e016118d8565b909750955060608c01359150611e978261195f565b90935060808b01359080821115611eac575f80fd5b50611eb98c828d01611986565b915080935050809150509295985092959850929598565b5f805f60608486031215611ee2575f80fd5b8335611eed8161195f565b9250602084013591506040840135611f048161195f565b809150509250925092565b5f60208284031215611f1f575f80fd5b611f2882611b53565b9392505050565b8015158114611973575f80fd5b5f805f805f60a08688031215611f50575f80fd5b8535611f5b8161195f565b94506020860135611f6b8161195f565b93506040860135611f7b8161195f565b9250606086013591506080860135611f9281611f2f565b809150509295509295909350565b5f805f8060808587031215611fb3575f80fd5b8435611fbe8161195f565b9350602085013592506040850135611fd58161195f565b9150611fe360608601611cdc565b905092959194509250565b5f8060408385031215611fff575f80fd5b823591506020830135611a678161195f565b634e487b7160e01b5f52603260045260245ffd5b5f60208284031215612035575f80fd5b8135611f288161195f565b5f60208284031215612050575f80fd5b5051919050565b5f60208284031215612067575f80fd5b8151611f2881611f2f565b5f60208284031215612082575f80fd5b8151611f288161195f565b60208082528181018390525f908460408401835b86811015611cd15782356120b48161195f565b6001600160a01b0316825291830191908301906001016120a1565b634e487b7160e01b5f52601160045260245ffd5b808201808211156120f6576120f66120cf565b92915050565b80820281158282048414176120f6576120f66120cf565b5f8261212d57634e487b7160e01b5f52601260045260245ffd5b500490565b5f81518084525f5b818110156121565760208185018101518683018201520161213a565b505f602082860101526020601f19601f83011685010191505092915050565b6001600160a01b038681168252851660208201526040810184905260a0606082018190525f906121a790830185612132565b905061ffff831660808301529695505050505050565b5f815180845260208085019450602084015f5b838110156121ec578151875295820195908201906001016121d0565b509495945050505050565b6001600160a01b03888116825260e0602080840182905289519184018290525f928a820192909190610100860190855b81811015612245578551851683529483019491830191600101612227565b50508581036040870152612259818c6121bd565b9350505050828103606084015261227081886121bd565b6001600160a01b0387166080850152905082810360a08401526122938186612132565b9150506122a660c083018461ffff169052565b9897505050505050505056fea26469706673582212206ae1bae2cff77b7ed62291ec115c4170da988b2a62a92401f5a1a5e76be280b164736f6c63430008180033",
			"opcodes": "PUSH1 0x80 PUSH1 0x40 DUP2 SWAP1 MSTORE PUSH0 DUP1 SLOAD PUSH1 0x1 PUSH1 0x1 PUSH1 0xA0 SHL SUB NOT AND PUSH20 0x12BAC54348C0E635DCAC9D5FB99F06F24136C9A SWAP1 DUP2 OR SWAP1 SWAP2 SSTORE PUSH4 0x26B1D5F PUSH1 0xE0 SHL DUP3 MSTORE SWAP1 PUSH4 0x26B1D5F SWAP1 PUSH1 0x84 SWAP1 PUSH1 0x20 SWAP1 PUSH1 0x4 DUP2 DUP7 GAS STATICCALL ISZERO DUP1 ISZERO PUSH3 0x5B JUMPI RETURNDATASIZE PUSH0 DUP1 RETURNDATACOPY RETURNDATASIZE PUSH0 REVERT JUMPDEST POP POP POP POP PUSH1 0x40 MLOAD RETURNDATASIZE PUSH1 0x1F NOT PUSH1 0x1F DUP3 ADD AND DUP3 ADD DUP1 PUSH1 0x40 MSTORE POP DUP2 ADD SWAP1 PUSH3 0x81 SWAP2 SWAP1 PUSH3 0x15E JUMP JUMPDEST PUSH1 0x1 DUP1 SLOAD PUSH1 0x1 PUSH1 0x1 PUSH1 0xA0 SHL SUB NOT AND PUSH1 0x1 PUSH1 0x1 PUSH1 0xA0 SHL SUB SWAP3 DUP4 AND OR SWAP1 SSTORE PUSH0 SLOAD PUSH1 0x40 DUP1 MLOAD PUSH4 0x26B1D5F PUSH1 0xE0 SHL DUP2 MSTORE SWAP1 MLOAD SWAP2 SWAP1 SWAP3 AND SWAP2 PUSH4 0x26B1D5F SWAP2 PUSH1 0x4 DUP1 DUP4 ADD SWAP3 PUSH1 0x20 SWAP3 SWAP2 SWAP1 DUP3 SWAP1 SUB ADD DUP2 DUP7 GAS STATICCALL ISZERO DUP1 ISZERO PUSH3 0xDD JUMPI RETURNDATASIZE PUSH0 DUP1 RETURNDATACOPY RETURNDATASIZE PUSH0 REVERT JUMPDEST POP POP POP POP PUSH1 0x40 MLOAD RETURNDATASIZE PUSH1 0x1F NOT PUSH1 0x1F DUP3 ADD AND DUP3 ADD DUP1 PUSH1 0x40 MSTORE POP DUP2 ADD SWAP1 PUSH3 0x103 SWAP2 SWAP1 PUSH3 0x15E JUMP JUMPDEST PUSH1 0x2 DUP1 SLOAD PUSH1 0x1 PUSH1 0x1 PUSH1 0xA0 SHL SUB SWAP3 SWAP1 SWAP3 AND PUSH1 0x1 PUSH1 0x1 PUSH1 0xA0 SHL SUB NOT SWAP1 SWAP3 AND SWAP2 SWAP1 SWAP2 OR SWAP1 SSTORE PUSH1 0x3 DUP1 SLOAD PUSH1 0x1 PUSH1 0x1 PUSH1 0xB0 SHL SUB NOT AND PUSH20 0x88541670E55CC00BEEFD87EB59EDD1B7C511AC9A OR SWAP1 SSTORE CALLVALUE DUP1 ISZERO PUSH3 0x157 JUMPI PUSH0 DUP1 REVERT JUMPDEST POP PUSH3 0x18D JUMP JUMPDEST PUSH0 PUSH1 0x20 DUP3 DUP5 SUB SLT ISZERO PUSH3 0x16F JUMPI PUSH0 DUP1 REVERT JUMPDEST DUP2 MLOAD PUSH1 0x1 PUSH1 0x1 PUSH1 0xA0 SHL SUB DUP2 AND DUP2 EQ PUSH3 0x186 JUMPI PUSH0 DUP1 REVERT JUMPDEST SWAP4 SWAP3 POP POP POP JUMP JUMPDEST PUSH2 0x22E8 DUP1 PUSH3 0x19B PUSH0 CODECOPY PUSH0 RETURN INVALID PUSH1 0x80 PUSH1 0x40 MSTORE CALLVALUE DUP1 ISZERO PUSH2 0xF JUMPI PUSH0 DUP1 REVERT JUMPDEST POP PUSH1 0x4 CALLDATASIZE LT PUSH2 0x127 JUMPI PUSH0 CALLDATALOAD PUSH1 0xE0 SHR DUP1 PUSH4 0x845612F3 GT PUSH2 0xA9 JUMPI DUP1 PUSH4 0xB2BC64D2 GT PUSH2 0x6E JUMPI DUP1 PUSH4 0xB2BC64D2 EQ PUSH2 0x277 JUMPI DUP1 PUSH4 0xB6EACA56 EQ PUSH2 0x28A JUMPI DUP1 PUSH4 0xBE4B1772 EQ PUSH2 0x29D JUMPI DUP1 PUSH4 0xC829755F EQ PUSH2 0x2B0 JUMPI DUP1 PUSH4 0xFE04345A EQ PUSH2 0x2B8 JUMPI PUSH0 DUP1 REVERT JUMPDEST DUP1 PUSH4 0x845612F3 EQ PUSH2 0x218 JUMPI DUP1 PUSH4 0x898775BE EQ PUSH2 0x22B JUMPI DUP1 PUSH4 0x920F5C84 EQ PUSH2 0x23E JUMPI DUP1 PUSH4 0xA8733453 EQ PUSH2 0x251 JUMPI DUP1 PUSH4 0xADF96861 EQ PUSH2 0x264 JUMPI PUSH0 DUP1 REVERT JUMPDEST DUP1 PUSH4 0x473FFD68 GT PUSH2 0xEF JUMPI DUP1 PUSH4 0x473FFD68 EQ PUSH2 0x1B9 JUMPI DUP1 PUSH4 0x608684AE EQ PUSH2 0x1CC JUMPI DUP1 PUSH4 0x629813FE EQ PUSH2 0x1DF JUMPI DUP1 PUSH4 0x638A0133 EQ PUSH2 0x1F2 JUMPI DUP1 PUSH4 0x819FAF7B EQ PUSH2 0x205 JUMPI PUSH0 DUP1 REVERT JUMPDEST DUP1 PUSH4 0x15C56202 EQ PUSH2 0x12B JUMPI DUP1 PUSH4 0x1B11D0FF EQ PUSH2 0x140 JUMPI DUP1 PUSH4 0x1EDA2B50 EQ PUSH2 0x168 JUMPI DUP1 PUSH4 0x20B81C0F EQ PUSH2 0x17B JUMPI DUP1 PUSH4 0x3F286405 EQ PUSH2 0x18E JUMPI JUMPDEST PUSH0 DUP1 REVERT JUMPDEST PUSH2 0x13E PUSH2 0x139 CALLDATASIZE PUSH1 0x4 PUSH2 0x1920 JUMP JUMPDEST PUSH2 0x2E0 JUMP JUMPDEST STOP JUMPDEST PUSH2 0x153 PUSH2 0x14E CALLDATASIZE PUSH1 0x4 PUSH2 0x19C4 JUMP JUMPDEST PUSH2 0x54E JUMP JUMPDEST PUSH1 0x40 MLOAD SWAP1 ISZERO ISZERO DUP2 MSTORE PUSH1 0x20 ADD JUMPDEST PUSH1 0x40 MLOAD DUP1 SWAP2 SUB SWAP1 RETURN JUMPDEST PUSH2 0x13E PUSH2 0x176 CALLDATASIZE PUSH1 0x4 PUSH2 0x1A3B JUMP JUMPDEST PUSH2 0x654 JUMP JUMPDEST PUSH2 0x13E PUSH2 0x189 CALLDATASIZE PUSH1 0x4 PUSH2 0x1A72 JUMP JUMPDEST PUSH2 0x6FE JUMP JUMPDEST PUSH1 0x2 SLOAD PUSH2 0x1A1 SWAP1 PUSH1 0x1 PUSH1 0x1 PUSH1 0xA0 SHL SUB AND DUP2 JUMP JUMPDEST PUSH1 0x40 MLOAD PUSH1 0x1 PUSH1 0x1 PUSH1 0xA0 SHL SUB SWAP1 SWAP2 AND DUP2 MSTORE PUSH1 0x20 ADD PUSH2 0x15F JUMP JUMPDEST PUSH2 0x13E PUSH2 0x1C7 CALLDATASIZE PUSH1 0x4 PUSH2 0x1AB9 JUMP JUMPDEST PUSH2 0x7F7 JUMP JUMPDEST PUSH2 0x13E PUSH2 0x1DA CALLDATASIZE PUSH1 0x4 PUSH2 0x1AE3 JUMP JUMPDEST PUSH2 0x8A0 JUMP JUMPDEST PUSH2 0x13E PUSH2 0x1ED CALLDATASIZE PUSH1 0x4 PUSH2 0x1B21 JUMP JUMPDEST PUSH2 0xA28 JUMP JUMPDEST PUSH2 0x13E PUSH2 0x200 CALLDATASIZE PUSH1 0x4 PUSH2 0x1B63 JUMP JUMPDEST PUSH2 0xB19 JUMP JUMPDEST PUSH1 0x3 SLOAD PUSH2 0x1A1 SWAP1 PUSH1 0x1 PUSH1 0x1 PUSH1 0xA0 SHL SUB AND DUP2 JUMP JUMPDEST PUSH2 0x13E PUSH2 0x226 CALLDATASIZE PUSH1 0x4 PUSH2 0x1BCC JUMP JUMPDEST PUSH2 0xC2C JUMP JUMPDEST PUSH2 0x13E PUSH2 0x239 CALLDATASIZE PUSH1 0x4 PUSH2 0x1CED JUMP JUMPDEST PUSH2 0xD96 JUMP JUMPDEST PUSH2 0x153 PUSH2 0x24C CALLDATASIZE PUSH1 0x4 PUSH2 0x1DFF JUMP JUMPDEST PUSH2 0xF80 JUMP JUMPDEST PUSH2 0x13E PUSH2 0x25F CALLDATASIZE PUSH1 0x4 PUSH2 0x1ED0 JUMP JUMPDEST PUSH2 0x10F4 JUMP JUMPDEST PUSH2 0x13E PUSH2 0x272 CALLDATASIZE PUSH1 0x4 PUSH2 0x1F0F JUMP JUMPDEST PUSH2 0x1341 JUMP JUMPDEST PUSH2 0x13E PUSH2 0x285 CALLDATASIZE PUSH1 0x4 PUSH2 0x1F3C JUMP JUMPDEST PUSH2 0x1408 JUMP JUMPDEST PUSH2 0x13E PUSH2 0x298 CALLDATASIZE PUSH1 0x4 PUSH2 0x1FA0 JUMP JUMPDEST PUSH2 0x165D JUMP JUMPDEST PUSH2 0x13E PUSH2 0x2AB CALLDATASIZE PUSH1 0x4 PUSH2 0x1FEE JUMP JUMPDEST PUSH2 0x1718 JUMP JUMPDEST PUSH2 0x13E PUSH2 0x180A JUMP JUMPDEST PUSH1 0x3 SLOAD PUSH2 0x2CD SWAP1 PUSH1 0x1 PUSH1 0xA0 SHL SWAP1 DIV PUSH2 0xFFFF AND DUP2 JUMP JUMPDEST PUSH1 0x40 MLOAD PUSH2 0xFFFF SWAP1 SWAP2 AND DUP2 MSTORE PUSH1 0x20 ADD PUSH2 0x15F JUMP JUMPDEST PUSH0 JUMPDEST DUP2 DUP2 LT ISZERO PUSH2 0x47D JUMPI DUP3 DUP3 DUP3 DUP2 DUP2 LT PUSH2 0x2FC JUMPI PUSH2 0x2FC PUSH2 0x2011 JUMP JUMPDEST SWAP1 POP PUSH1 0x20 MUL ADD PUSH1 0x20 DUP2 ADD SWAP1 PUSH2 0x311 SWAP2 SWAP1 PUSH2 0x2025 JUMP JUMPDEST PUSH1 0x1 PUSH1 0x1 PUSH1 0xA0 SHL SUB AND PUSH4 0x95EA7B3 DUP5 DUP5 DUP5 DUP2 DUP2 LT PUSH2 0x331 JUMPI PUSH2 0x331 PUSH2 0x2011 JUMP JUMPDEST SWAP1 POP PUSH1 0x20 MUL ADD PUSH1 0x20 DUP2 ADD SWAP1 PUSH2 0x346 SWAP2 SWAP1 PUSH2 0x2025 JUMP JUMPDEST DUP6 DUP6 DUP6 DUP2 DUP2 LT PUSH2 0x358 JUMPI PUSH2 0x358 PUSH2 0x2011 JUMP JUMPDEST SWAP1 POP PUSH1 0x20 MUL ADD PUSH1 0x20 DUP2 ADD SWAP1 PUSH2 0x36D SWAP2 SWAP1 PUSH2 0x2025 JUMP JUMPDEST PUSH1 0x1 PUSH1 0x1 PUSH1 0xA0 SHL SUB AND PUSH4 0x70A08231 DUP8 DUP8 DUP8 DUP2 DUP2 LT PUSH2 0x38D JUMPI PUSH2 0x38D PUSH2 0x2011 JUMP JUMPDEST SWAP1 POP PUSH1 0x20 MUL ADD PUSH1 0x20 DUP2 ADD SWAP1 PUSH2 0x3A2 SWAP2 SWAP1 PUSH2 0x2025 JUMP JUMPDEST PUSH1 0x40 MLOAD PUSH1 0x1 PUSH1 0x1 PUSH1 0xE0 SHL SUB NOT PUSH1 0xE0 DUP5 SWAP1 SHL AND DUP2 MSTORE PUSH1 0x1 PUSH1 0x1 PUSH1 0xA0 SHL SUB SWAP1 SWAP2 AND PUSH1 0x4 DUP3 ADD MSTORE PUSH1 0x24 ADD PUSH1 0x20 PUSH1 0x40 MLOAD DUP1 DUP4 SUB DUP2 DUP7 GAS STATICCALL ISZERO DUP1 ISZERO PUSH2 0x3E4 JUMPI RETURNDATASIZE PUSH0 DUP1 RETURNDATACOPY RETURNDATASIZE PUSH0 REVERT JUMPDEST POP POP POP POP PUSH1 0x40 MLOAD RETURNDATASIZE PUSH1 0x1F NOT PUSH1 0x1F DUP3 ADD AND DUP3 ADD DUP1 PUSH1 0x40 MSTORE POP DUP2 ADD SWAP1 PUSH2 0x408 SWAP2 SWAP1 PUSH2 0x2040 JUMP JUMPDEST PUSH1 0x40 MLOAD PUSH1 0x1 PUSH1 0x1 PUSH1 0xE0 SHL SUB NOT PUSH1 0xE0 DUP6 SWAP1 SHL AND DUP2 MSTORE PUSH1 0x1 PUSH1 0x1 PUSH1 0xA0 SHL SUB SWAP1 SWAP3 AND PUSH1 0x4 DUP4 ADD MSTORE PUSH1 0x24 DUP3 ADD MSTORE PUSH1 0x44 ADD PUSH1 0x20 PUSH1 0x40 MLOAD DUP1 DUP4 SUB DUP2 PUSH0 DUP8 GAS CALL ISZERO DUP1 ISZERO PUSH2 0x450 JUMPI RETURNDATASIZE PUSH0 DUP1 RETURNDATACOPY RETURNDATASIZE PUSH0 REVERT JUMPDEST POP POP POP POP PUSH1 0x40 MLOAD RETURNDATASIZE PUSH1 0x1F NOT PUSH1 0x1F DUP3 ADD AND DUP3 ADD DUP1 PUSH1 0x40 MSTORE POP DUP2 ADD SWAP1 PUSH2 0x474 SWAP2 SWAP1 PUSH2 0x2057 JUMP JUMPDEST POP PUSH1 0x1 ADD PUSH2 0x2E2 JUMP JUMPDEST POP PUSH0 DUP1 SLOAD SWAP1 PUSH2 0x100 EXP SWAP1 DIV PUSH1 0x1 PUSH1 0x1 PUSH1 0xA0 SHL SUB AND PUSH1 0x1 PUSH1 0x1 PUSH1 0xA0 SHL SUB AND PUSH4 0x26B1D5F PUSH1 0x40 MLOAD DUP2 PUSH4 0xFFFFFFFF AND PUSH1 0xE0 SHL DUP2 MSTORE PUSH1 0x4 ADD PUSH1 0x20 PUSH1 0x40 MLOAD DUP1 DUP4 SUB DUP2 DUP7 GAS STATICCALL ISZERO DUP1 ISZERO PUSH2 0x4CC JUMPI RETURNDATASIZE PUSH0 DUP1 RETURNDATACOPY RETURNDATASIZE PUSH0 REVERT JUMPDEST POP POP POP POP PUSH1 0x40 MLOAD RETURNDATASIZE PUSH1 0x1F NOT PUSH1 0x1F DUP3 ADD AND DUP3 ADD DUP1 PUSH1 0x40 MSTORE POP DUP2 ADD SWAP1 PUSH2 0x4F0 SWAP2 SWAP1 PUSH2 0x2072 JUMP JUMPDEST PUSH1 0x1 PUSH1 0x1 PUSH1 0xA0 SHL SUB AND PUSH4 0x9CD19996 DUP4 DUP4 PUSH1 0x40 MLOAD DUP4 PUSH4 0xFFFFFFFF AND PUSH1 0xE0 SHL DUP2 MSTORE PUSH1 0x4 ADD PUSH2 0x51D SWAP3 SWAP2 SWAP1 PUSH2 0x208D JUMP JUMPDEST PUSH0 PUSH1 0x40 MLOAD DUP1 DUP4 SUB DUP2 PUSH0 DUP8 DUP1 EXTCODESIZE ISZERO DUP1 ISZERO PUSH2 0x534 JUMPI PUSH0 DUP1 REVERT JUMPDEST POP GAS CALL ISZERO DUP1 ISZERO PUSH2 0x546 JUMPI RETURNDATASIZE PUSH0 DUP1 RETURNDATACOPY RETURNDATASIZE PUSH0 REVERT JUMPDEST POP POP POP POP POP POP JUMP JUMPDEST PUSH0 DUP7 PUSH1 0x1 PUSH1 0x1 PUSH1 0xA0 SHL SUB AND PUSH4 0x95EA7B3 PUSH0 DUP1 SLOAD SWAP1 PUSH2 0x100 EXP SWAP1 DIV PUSH1 0x1 PUSH1 0x1 PUSH1 0xA0 SHL SUB AND PUSH1 0x1 PUSH1 0x1 PUSH1 0xA0 SHL SUB AND PUSH4 0x26B1D5F PUSH1 0x40 MLOAD DUP2 PUSH4 0xFFFFFFFF AND PUSH1 0xE0 SHL DUP2 MSTORE PUSH1 0x4 ADD PUSH1 0x20 PUSH1 0x40 MLOAD DUP1 DUP4 SUB DUP2 DUP7 GAS STATICCALL ISZERO DUP1 ISZERO PUSH2 0x5AC JUMPI RETURNDATASIZE PUSH0 DUP1 RETURNDATACOPY RETURNDATASIZE PUSH0 REVERT JUMPDEST POP POP POP POP PUSH1 0x40 MLOAD RETURNDATASIZE PUSH1 0x1F NOT PUSH1 0x1F DUP3 ADD AND DUP3 ADD DUP1 PUSH1 0x40 MSTORE POP DUP2 ADD SWAP1 PUSH2 0x5D0 SWAP2 SWAP1 PUSH2 0x2072 JUMP JUMPDEST PUSH2 0x5DA DUP9 DUP11 PUSH2 0x20E3 JUMP JUMPDEST PUSH1 0x40 MLOAD PUSH1 0x1 PUSH1 0x1 PUSH1 0xE0 SHL SUB NOT PUSH1 0xE0 DUP6 SWAP1 SHL AND DUP2 MSTORE PUSH1 0x1 PUSH1 0x1 PUSH1 0xA0 SHL SUB SWAP1 SWAP3 AND PUSH1 0x4 DUP4 ADD MSTORE PUSH1 0x24 DUP3 ADD MSTORE PUSH1 0x44 ADD PUSH1 0x20 PUSH1 0x40 MLOAD DUP1 DUP4 SUB DUP2 PUSH0 DUP8 GAS CALL ISZERO DUP1 ISZERO PUSH2 0x622 JUMPI RETURNDATASIZE PUSH0 DUP1 RETURNDATACOPY RETURNDATASIZE PUSH0 REVERT JUMPDEST POP POP POP POP PUSH1 0x40 MLOAD RETURNDATASIZE PUSH1 0x1F NOT PUSH1 0x1F DUP3 ADD AND DUP3 ADD DUP1 PUSH1 0x40 MSTORE POP DUP2 ADD SWAP1 PUSH2 0x646 SWAP2 SWAP1 PUSH2 0x2057 JUMP JUMPDEST POP PUSH1 0x1 SWAP8 SWAP7 POP POP POP POP POP POP POP JUMP JUMPDEST PUSH0 DUP1 SLOAD SWAP1 PUSH2 0x100 EXP SWAP1 DIV PUSH1 0x1 PUSH1 0x1 PUSH1 0xA0 SHL SUB AND PUSH1 0x1 PUSH1 0x1 PUSH1 0xA0 SHL SUB AND PUSH4 0x26B1D5F PUSH1 0x40 MLOAD DUP2 PUSH4 0xFFFFFFFF AND PUSH1 0xE0 SHL DUP2 MSTORE PUSH1 0x4 ADD PUSH1 0x20 PUSH1 0x40 MLOAD DUP1 DUP4 SUB DUP2 DUP7 GAS STATICCALL ISZERO DUP1 ISZERO PUSH2 0x6A2 JUMPI RETURNDATASIZE PUSH0 DUP1 RETURNDATACOPY RETURNDATASIZE PUSH0 REVERT JUMPDEST POP POP POP POP PUSH1 0x40 MLOAD RETURNDATASIZE PUSH1 0x1F NOT PUSH1 0x1F DUP3 ADD AND DUP3 ADD DUP1 PUSH1 0x40 MSTORE POP DUP2 ADD SWAP1 PUSH2 0x6C6 SWAP2 SWAP1 PUSH2 0x2072 JUMP JUMPDEST PUSH1 0x40 MLOAD PUSH4 0x668891C1 PUSH1 0xE1 SHL DUP2 MSTORE PUSH1 0x1 PUSH1 0x1 PUSH1 0xA0 SHL SUB DUP5 DUP2 AND PUSH1 0x4 DUP4 ADD MSTORE DUP4 DUP2 AND PUSH1 0x24 DUP4 ADD MSTORE SWAP2 SWAP1 SWAP2 AND SWAP1 PUSH4 0xCD112382 SWAP1 PUSH1 0x44 ADD PUSH2 0x51D JUMP JUMPDEST PUSH0 DUP1 SLOAD SWAP1 PUSH2 0x100 EXP SWAP1 DIV PUSH1 0x1 PUSH1 0x1 PUSH1 0xA0 SHL SUB AND PUSH1 0x1 PUSH1 0x1 PUSH1 0xA0 SHL SUB AND PUSH4 0x26B1D5F PUSH1 0x40 MLOAD DUP2 PUSH4 0xFFFFFFFF AND PUSH1 0xE0 SHL DUP2 MSTORE PUSH1 0x4 ADD PUSH1 0x20 PUSH1 0x40 MLOAD DUP1 DUP4 SUB DUP2 DUP7 GAS STATICCALL ISZERO DUP1 ISZERO PUSH2 0x74C JUMPI RETURNDATASIZE PUSH0 DUP1 RETURNDATACOPY RETURNDATASIZE PUSH0 REVERT JUMPDEST POP POP POP POP PUSH1 0x40 MLOAD RETURNDATASIZE PUSH1 0x1F NOT PUSH1 0x1F DUP3 ADD AND DUP3 ADD DUP1 PUSH1 0x40 MSTORE POP DUP2 ADD SWAP1 PUSH2 0x770 SWAP2 SWAP1 PUSH2 0x2072 JUMP JUMPDEST PUSH1 0x3 SLOAD PUSH1 0x40 MLOAD PUSH4 0xA415BCAD PUSH1 0xE0 SHL DUP2 MSTORE PUSH1 0x1 PUSH1 0x1 PUSH1 0xA0 SHL SUB DUP5 DUP2 AND PUSH1 0x4 DUP4 ADD MSTORE PUSH1 0x24 DUP3 ADD DUP9 SWAP1 MSTORE PUSH1 0x44 DUP3 ADD DUP8 SWAP1 MSTORE PUSH1 0x1 PUSH1 0xA0 SHL SWAP1 SWAP3 DIV PUSH2 0xFFFF AND PUSH1 0x64 DUP3 ADD MSTORE DUP5 DUP3 AND PUSH1 0x84 DUP3 ADD MSTORE SWAP2 AND SWAP1 PUSH4 0xA415BCAD SWAP1 PUSH1 0xA4 ADD JUMPDEST PUSH0 PUSH1 0x40 MLOAD DUP1 DUP4 SUB DUP2 PUSH0 DUP8 DUP1 EXTCODESIZE ISZERO DUP1 ISZERO PUSH2 0x7DB JUMPI PUSH0 DUP1 REVERT JUMPDEST POP GAS CALL ISZERO DUP1 ISZERO PUSH2 0x7ED JUMPI RETURNDATASIZE PUSH0 DUP1 RETURNDATACOPY RETURNDATASIZE PUSH0 REVERT JUMPDEST POP POP POP POP POP POP POP POP JUMP JUMPDEST PUSH0 DUP1 SLOAD SWAP1 PUSH2 0x100 EXP SWAP1 DIV PUSH1 0x1 PUSH1 0x1 PUSH1 0xA0 SHL SUB AND PUSH1 0x1 PUSH1 0x1 PUSH1 0xA0 SHL SUB AND PUSH4 0x26B1D5F PUSH1 0x40 MLOAD DUP2 PUSH4 0xFFFFFFFF AND PUSH1 0xE0 SHL DUP2 MSTORE PUSH1 0x4 ADD PUSH1 0x20 PUSH1 0x40 MLOAD DUP1 DUP4 SUB DUP2 DUP7 GAS STATICCALL ISZERO DUP1 ISZERO PUSH2 0x845 JUMPI RETURNDATASIZE PUSH0 DUP1 RETURNDATACOPY RETURNDATASIZE PUSH0 REVERT JUMPDEST POP POP POP POP PUSH1 0x40 MLOAD RETURNDATASIZE PUSH1 0x1F NOT PUSH1 0x1F DUP3 ADD AND DUP3 ADD DUP1 PUSH1 0x40 MSTORE POP DUP2 ADD SWAP1 PUSH2 0x869 SWAP2 SWAP1 PUSH2 0x2072 JUMP JUMPDEST PUSH1 0x40 MLOAD PUSH4 0x4A5D44D1 PUSH1 0xE1 SHL DUP2 MSTORE PUSH1 0x1 PUSH1 0x1 PUSH1 0xA0 SHL SUB DUP5 DUP2 AND PUSH1 0x4 DUP4 ADD MSTORE PUSH1 0x24 DUP3 ADD DUP5 SWAP1 MSTORE SWAP2 SWAP1 SWAP2 AND SWAP1 PUSH4 0x94BA89A2 SWAP1 PUSH1 0x44 ADD PUSH2 0x51D JUMP JUMPDEST PUSH1 0x40 DUP1 MLOAD PUSH1 0x20 DUP2 ADD SWAP1 SWAP2 MSTORE PUSH0 DUP2 MSTORE PUSH1 0x64 PUSH2 0x8BB DUP4 PUSH1 0x2 PUSH2 0x20FC JUMP JUMPDEST PUSH2 0x8C5 SWAP2 SWAP1 PUSH2 0x2113 JUMP JUMPDEST PUSH1 0x40 MLOAD PUSH4 0x70A08231 PUSH1 0xE0 SHL DUP2 MSTORE PUSH1 0x1 PUSH1 0x1 PUSH1 0xA0 SHL SUB DUP6 AND PUSH1 0x4 DUP3 ADD DUP2 SWAP1 MSTORE SWAP1 PUSH4 0x70A08231 SWAP1 PUSH1 0x24 ADD PUSH1 0x20 PUSH1 0x40 MLOAD DUP1 DUP4 SUB DUP2 DUP7 GAS STATICCALL ISZERO DUP1 ISZERO PUSH2 0x908 JUMPI RETURNDATASIZE PUSH0 DUP1 RETURNDATACOPY RETURNDATASIZE PUSH0 REVERT JUMPDEST POP POP POP POP PUSH1 0x40 MLOAD RETURNDATASIZE PUSH1 0x1F NOT PUSH1 0x1F DUP3 ADD AND DUP3 ADD DUP1 PUSH1 0x40 MSTORE POP DUP2 ADD SWAP1 PUSH2 0x92C SWAP2 SWAP1 PUSH2 0x2040 JUMP JUMPDEST GT PUSH2 0x973 JUMPI PUSH1 0x40 MLOAD PUSH3 0x461BCD PUSH1 0xE5 SHL DUP2 MSTORE PUSH1 0x20 PUSH1 0x4 DUP3 ADD MSTORE PUSH1 0x12 PUSH1 0x24 DUP3 ADD MSTORE PUSH18 0x696E73756666696369656E742066756E6473 PUSH1 0x70 SHL PUSH1 0x44 DUP3 ADD MSTORE PUSH1 0x64 ADD JUMPDEST PUSH1 0x40 MLOAD DUP1 SWAP2 SUB SWAP1 REVERT JUMPDEST PUSH0 DUP1 SLOAD SWAP1 PUSH2 0x100 EXP SWAP1 DIV PUSH1 0x1 PUSH1 0x1 PUSH1 0xA0 SHL SUB AND PUSH1 0x1 PUSH1 0x1 PUSH1 0xA0 SHL SUB AND PUSH4 0x26B1D5F PUSH1 0x40 MLOAD DUP2 PUSH4 0xFFFFFFFF AND PUSH1 0xE0 SHL DUP2 MSTORE PUSH1 0x4 ADD PUSH1 0x20 PUSH1 0x40 MLOAD DUP1 DUP4 SUB DUP2 DUP7 GAS STATICCALL ISZERO DUP1 ISZERO PUSH2 0x9C1 JUMPI RETURNDATASIZE PUSH0 DUP1 RETURNDATACOPY RETURNDATASIZE PUSH0 REVERT JUMPDEST POP POP POP POP PUSH1 0x40 MLOAD RETURNDATASIZE PUSH1 0x1F NOT PUSH1 0x1F DUP3 ADD AND DUP3 ADD DUP1 PUSH1 0x40 MSTORE POP DUP2 ADD SWAP1 PUSH2 0x9E5 SWAP2 SWAP1 PUSH2 0x2072 JUMP JUMPDEST PUSH1 0x1 PUSH1 0x1 PUSH1 0xA0 SHL SUB AND PUSH4 0x42B0B77C DUP6 DUP6 DUP6 DUP6 PUSH1 0x3 PUSH1 0x14 SWAP1 SLOAD SWAP1 PUSH2 0x100 EXP SWAP1 DIV PUSH2 0xFFFF AND PUSH1 0x40 MLOAD DUP7 PUSH4 0xFFFFFFFF AND PUSH1 0xE0 SHL DUP2 MSTORE PUSH1 0x4 ADD PUSH2 0x7C4 SWAP6 SWAP5 SWAP4 SWAP3 SWAP2 SWAP1 PUSH2 0x2175 JUMP JUMPDEST PUSH0 DUP1 SLOAD SWAP1 PUSH2 0x100 EXP SWAP1 DIV PUSH1 0x1 PUSH1 0x1 PUSH1 0xA0 SHL SUB AND PUSH1 0x1 PUSH1 0x1 PUSH1 0xA0 SHL SUB AND PUSH4 0x26B1D5F PUSH1 0x40 MLOAD DUP2 PUSH4 0xFFFFFFFF AND PUSH1 0xE0 SHL DUP2 MSTORE PUSH1 0x4 ADD PUSH1 0x20 PUSH1 0x40 MLOAD DUP1 DUP4 SUB DUP2 DUP7 GAS STATICCALL ISZERO DUP1 ISZERO PUSH2 0xA76 JUMPI RETURNDATASIZE PUSH0 DUP1 RETURNDATACOPY RETURNDATASIZE PUSH0 REVERT JUMPDEST POP POP POP POP PUSH1 0x40 MLOAD RETURNDATASIZE PUSH1 0x1F NOT PUSH1 0x1F DUP3 ADD AND DUP3 ADD DUP1 PUSH1 0x40 MSTORE POP DUP2 ADD SWAP1 PUSH2 0xA9A SWAP2 SWAP1 PUSH2 0x2072 JUMP JUMPDEST PUSH1 0x40 MLOAD PUSH4 0xB6B65F5 PUSH1 0xE2 SHL DUP2 MSTORE PUSH1 0x1 PUSH1 0x1 PUSH1 0xA0 SHL SUB DUP6 DUP2 AND PUSH1 0x4 DUP4 ADD MSTORE PUSH1 0x24 DUP3 ADD DUP6 SWAP1 MSTORE PUSH1 0x44 DUP3 ADD DUP5 SWAP1 MSTORE SWAP2 SWAP1 SWAP2 AND SWAP1 PUSH4 0x2DAD97D4 SWAP1 PUSH1 0x64 ADD PUSH1 0x20 PUSH1 0x40 MLOAD DUP1 DUP4 SUB DUP2 PUSH0 DUP8 GAS CALL ISZERO DUP1 ISZERO PUSH2 0xAEF JUMPI RETURNDATASIZE PUSH0 DUP1 RETURNDATACOPY RETURNDATASIZE PUSH0 REVERT JUMPDEST POP POP POP POP PUSH1 0x40 MLOAD RETURNDATASIZE PUSH1 0x1F NOT PUSH1 0x1F DUP3 ADD AND DUP3 ADD DUP1 PUSH1 0x40 MSTORE POP DUP2 ADD SWAP1 PUSH2 0xB13 SWAP2 SWAP1 PUSH2 0x2040 JUMP JUMPDEST POP POP POP POP JUMP JUMPDEST PUSH0 DUP1 SLOAD SWAP1 PUSH2 0x100 EXP SWAP1 DIV PUSH1 0x1 PUSH1 0x1 PUSH1 0xA0 SHL SUB AND PUSH1 0x1 PUSH1 0x1 PUSH1 0xA0 SHL SUB AND PUSH4 0x26B1D5F PUSH1 0x40 MLOAD DUP2 PUSH4 0xFFFFFFFF AND PUSH1 0xE0 SHL DUP2 MSTORE PUSH1 0x4 ADD PUSH1 0x20 PUSH1 0x40 MLOAD DUP1 DUP4 SUB DUP2 DUP7 GAS STATICCALL ISZERO DUP1 ISZERO PUSH2 0xB67 JUMPI RETURNDATASIZE PUSH0 DUP1 RETURNDATACOPY RETURNDATASIZE PUSH0 REVERT JUMPDEST POP POP POP POP PUSH1 0x40 MLOAD RETURNDATASIZE PUSH1 0x1F NOT PUSH1 0x1F DUP3 ADD AND DUP3 ADD DUP1 PUSH1 0x40 MSTORE POP DUP2 ADD SWAP1 PUSH2 0xB8B SWAP2 SWAP1 PUSH2 0x2072 JUMP JUMPDEST PUSH1 0x3 SLOAD PUSH1 0x40 MLOAD PUSH3 0x2C205F PUSH1 0xE4 SHL DUP2 MSTORE PUSH1 0x1 PUSH1 0x1 PUSH1 0xA0 SHL SUB DUP11 DUP2 AND PUSH1 0x4 DUP4 ADD MSTORE PUSH1 0x24 DUP3 ADD DUP10 SWAP1 MSTORE DUP10 DUP2 AND PUSH1 0x44 DUP4 ADD MSTORE PUSH1 0x1 PUSH1 0xA0 SHL SWAP1 SWAP3 DIV PUSH2 0xFFFF AND PUSH1 0x64 DUP3 ADD MSTORE PUSH1 0x84 DUP2 ADD DUP8 SWAP1 MSTORE PUSH1 0xFF DUP7 AND PUSH1 0xA4 DUP3 ADD MSTORE PUSH1 0xC4 DUP2 ADD DUP6 SWAP1 MSTORE PUSH1 0xE4 DUP2 ADD DUP5 SWAP1 MSTORE SWAP2 AND SWAP1 PUSH4 0x2C205F0 SWAP1 PUSH2 0x104 ADD JUMPDEST PUSH0 PUSH1 0x40 MLOAD DUP1 DUP4 SUB DUP2 PUSH0 DUP8 DUP1 EXTCODESIZE ISZERO DUP1 ISZERO PUSH2 0xC0D JUMPI PUSH0 DUP1 REVERT JUMPDEST POP GAS CALL ISZERO DUP1 ISZERO PUSH2 0xC1F JUMPI RETURNDATASIZE PUSH0 DUP1 RETURNDATACOPY RETURNDATASIZE PUSH0 REVERT JUMPDEST POP POP POP POP POP POP POP POP POP POP POP JUMP JUMPDEST PUSH1 0x40 MLOAD PUSH4 0x95EA7B3 PUSH1 0xE0 SHL DUP2 MSTORE PUSH1 0x1 PUSH1 0x1 PUSH1 0xA0 SHL SUB DUP6 AND PUSH1 0x4 DUP3 ADD DUP2 SWAP1 MSTORE PUSH1 0x24 DUP3 ADD DUP6 SWAP1 MSTORE SWAP1 PUSH4 0x95EA7B3 SWAP1 PUSH1 0x44 ADD PUSH1 0x20 PUSH1 0x40 MLOAD DUP1 DUP4 SUB DUP2 PUSH0 DUP8 GAS CALL ISZERO DUP1 ISZERO PUSH2 0xC77 JUMPI RETURNDATASIZE PUSH0 DUP1 RETURNDATACOPY RETURNDATASIZE PUSH0 REVERT JUMPDEST POP POP POP POP PUSH1 0x40 MLOAD RETURNDATASIZE PUSH1 0x1F NOT PUSH1 0x1F DUP3 ADD AND DUP3 ADD DUP1 PUSH1 0x40 MSTORE POP DUP2 ADD SWAP1 PUSH2 0xC9B SWAP2 SWAP1 PUSH2 0x2057 JUMP JUMPDEST POP PUSH0 DUP1 SLOAD SWAP1 PUSH2 0x100 EXP SWAP1 DIV PUSH1 0x1 PUSH1 0x1 PUSH1 0xA0 SHL SUB AND PUSH1 0x1 PUSH1 0x1 PUSH1 0xA0 SHL SUB AND PUSH4 0x26B1D5F PUSH1 0x40 MLOAD DUP2 PUSH4 0xFFFFFFFF AND PUSH1 0xE0 SHL DUP2 MSTORE PUSH1 0x4 ADD PUSH1 0x20 PUSH1 0x40 MLOAD DUP1 DUP4 SUB DUP2 DUP7 GAS STATICCALL ISZERO DUP1 ISZERO PUSH2 0xCEA JUMPI RETURNDATASIZE PUSH0 DUP1 RETURNDATACOPY RETURNDATASIZE PUSH0 REVERT JUMPDEST POP POP POP POP PUSH1 0x40 MLOAD RETURNDATASIZE PUSH1 0x1F NOT PUSH1 0x1F DUP3 ADD AND DUP3 ADD DUP1 PUSH1 0x40 MSTORE POP DUP2 ADD SWAP1 PUSH2 0xD0E SWAP2 SWAP1 PUSH2 0x2072 JUMP JUMPDEST PUSH1 0x40 MLOAD PUSH4 0x573ADE81 PUSH1 0xE0 SHL DUP2 MSTORE PUSH1 0x1 PUSH1 0x1 PUSH1 0xA0 SHL SUB DUP7 DUP2 AND PUSH1 0x4 DUP4 ADD MSTORE PUSH1 0x24 DUP3 ADD DUP7 SWAP1 MSTORE PUSH1 0x44 DUP3 ADD DUP6 SWAP1 MSTORE DUP4 DUP2 AND PUSH1 0x64 DUP4 ADD MSTORE SWAP2 SWAP1 SWAP2 AND SWAP1 PUSH4 0x573ADE81 SWAP1 PUSH1 0x84 ADD PUSH1 0x20 PUSH1 0x40 MLOAD DUP1 DUP4 SUB DUP2 PUSH0 DUP8 GAS CALL ISZERO DUP1 ISZERO PUSH2 0xD6B JUMPI RETURNDATASIZE PUSH0 DUP1 RETURNDATACOPY RETURNDATASIZE PUSH0 REVERT JUMPDEST POP POP POP POP PUSH1 0x40 MLOAD RETURNDATASIZE PUSH1 0x1F NOT PUSH1 0x1F DUP3 ADD AND DUP3 ADD DUP1 PUSH1 0x40 MSTORE POP DUP2 ADD SWAP1 PUSH2 0xD8F SWAP2 SWAP1 PUSH2 0x2040 JUMP JUMPDEST POP POP POP POP POP JUMP JUMPDEST PUSH1 0x40 DUP1 MLOAD PUSH1 0x20 DUP2 ADD SWAP1 SWAP2 MSTORE PUSH0 DUP1 DUP3 MSTORE JUMPDEST DUP6 MLOAD DUP2 LT ISZERO PUSH2 0xED6 JUMPI PUSH1 0x64 DUP7 DUP3 DUP2 MLOAD DUP2 LT PUSH2 0xDC3 JUMPI PUSH2 0xDC3 PUSH2 0x2011 JUMP JUMPDEST PUSH1 0x20 MUL PUSH1 0x20 ADD ADD MLOAD PUSH1 0x2 PUSH2 0xDD7 SWAP2 SWAP1 PUSH2 0x20FC JUMP JUMPDEST PUSH2 0xDE1 SWAP2 SWAP1 PUSH2 0x2113 JUMP JUMPDEST DUP8 DUP3 DUP2 MLOAD DUP2 LT PUSH2 0xDF3 JUMPI PUSH2 0xDF3 PUSH2 0x2011 JUMP JUMPDEST PUSH1 0x20 MUL PUSH1 0x20 ADD ADD MLOAD PUSH1 0x1 PUSH1 0x1 PUSH1 0xA0 SHL SUB AND PUSH4 0x70A08231 DUP10 DUP5 DUP2 MLOAD DUP2 LT PUSH2 0xE1B JUMPI PUSH2 0xE1B PUSH2 0x2011 JUMP JUMPDEST PUSH1 0x20 MUL PUSH1 0x20 ADD ADD MLOAD PUSH1 0x40 MLOAD DUP3 PUSH4 0xFFFFFFFF AND PUSH1 0xE0 SHL DUP2 MSTORE PUSH1 0x4 ADD PUSH2 0xE4E SWAP2 SWAP1 PUSH1 0x1 PUSH1 0x1 PUSH1 0xA0 SHL SUB SWAP2 SWAP1 SWAP2 AND DUP2 MSTORE PUSH1 0x20 ADD SWAP1 JUMP JUMPDEST PUSH1 0x20 PUSH1 0x40 MLOAD DUP1 DUP4 SUB DUP2 DUP7 GAS STATICCALL ISZERO DUP1 ISZERO PUSH2 0xE69 JUMPI RETURNDATASIZE PUSH0 DUP1 RETURNDATACOPY RETURNDATASIZE PUSH0 REVERT JUMPDEST POP POP POP POP PUSH1 0x40 MLOAD RETURNDATASIZE PUSH1 0x1F NOT PUSH1 0x1F DUP3 ADD AND DUP3 ADD DUP1 PUSH1 0x40 MSTORE POP DUP2 ADD SWAP1 PUSH2 0xE8D SWAP2 SWAP1 PUSH2 0x2040 JUMP JUMPDEST GT PUSH2 0xECE JUMPI PUSH1 0x40 MLOAD PUSH3 0x461BCD PUSH1 0xE5 SHL DUP2 MSTORE PUSH1 0x20 PUSH1 0x4 DUP3 ADD MSTORE PUSH1 0x11 PUSH1 0x24 DUP3 ADD MSTORE PUSH17 0x6973756666696369656E742066756E6473 PUSH1 0x78 SHL PUSH1 0x44 DUP3 ADD MSTORE PUSH1 0x64 ADD PUSH2 0x96A JUMP JUMPDEST PUSH1 0x1 ADD PUSH2 0xDA6 JUMP JUMPDEST POP PUSH0 DUP1 SLOAD SWAP1 PUSH2 0x100 EXP SWAP1 DIV PUSH1 0x1 PUSH1 0x1 PUSH1 0xA0 SHL SUB AND PUSH1 0x1 PUSH1 0x1 PUSH1 0xA0 SHL SUB AND PUSH4 0x26B1D5F PUSH1 0x40 MLOAD DUP2 PUSH4 0xFFFFFFFF AND PUSH1 0xE0 SHL DUP2 MSTORE PUSH1 0x4 ADD PUSH1 0x20 PUSH1 0x40 MLOAD DUP1 DUP4 SUB DUP2 DUP7 GAS STATICCALL ISZERO DUP1 ISZERO PUSH2 0xF25 JUMPI RETURNDATASIZE PUSH0 DUP1 RETURNDATACOPY RETURNDATASIZE PUSH0 REVERT JUMPDEST POP POP POP POP PUSH1 0x40 MLOAD RETURNDATASIZE PUSH1 0x1F NOT PUSH1 0x1F DUP3 ADD AND DUP3 ADD DUP1 PUSH1 0x40 MSTORE POP DUP2 ADD SWAP1 PUSH2 0xF49 SWAP2 SWAP1 PUSH2 0x2072 JUMP JUMPDEST PUSH1 0x1 PUSH1 0x1 PUSH1 0xA0 SHL SUB AND PUSH4 0xAB9C4B5D DUP9 DUP9 DUP9 DUP9 DUP9 DUP8 DUP10 PUSH1 0x40 MLOAD DUP9 PUSH4 0xFFFFFFFF AND PUSH1 0xE0 SHL DUP2 MSTORE PUSH1 0x4 ADD PUSH2 0xBF6 SWAP8 SWAP7 SWAP6 SWAP5 SWAP4 SWAP3 SWAP2 SWAP1 PUSH2 0x21F7 JUMP JUMPDEST PUSH0 DUP1 JUMPDEST DUP8 DUP2 LT ISZERO PUSH2 0x10E3 JUMPI DUP11 DUP11 DUP3 DUP2 DUP2 LT PUSH2 0xF9D JUMPI PUSH2 0xF9D PUSH2 0x2011 JUMP JUMPDEST SWAP1 POP PUSH1 0x20 MUL ADD PUSH1 0x20 DUP2 ADD SWAP1 PUSH2 0xFB2 SWAP2 SWAP1 PUSH2 0x2025 JUMP JUMPDEST PUSH1 0x1 PUSH1 0x1 PUSH1 0xA0 SHL SUB AND PUSH4 0x95EA7B3 PUSH0 DUP1 SLOAD SWAP1 PUSH2 0x100 EXP SWAP1 DIV PUSH1 0x1 PUSH1 0x1 PUSH1 0xA0 SHL SUB AND PUSH1 0x1 PUSH1 0x1 PUSH1 0xA0 SHL SUB AND PUSH4 0x26B1D5F PUSH1 0x40 MLOAD DUP2 PUSH4 0xFFFFFFFF AND PUSH1 0xE0 SHL DUP2 MSTORE PUSH1 0x4 ADD PUSH1 0x20 PUSH1 0x40 MLOAD DUP1 DUP4 SUB DUP2 DUP7 GAS STATICCALL ISZERO DUP1 ISZERO PUSH2 0x100E JUMPI RETURNDATASIZE PUSH0 DUP1 RETURNDATACOPY RETURNDATASIZE PUSH0 REVERT JUMPDEST POP POP POP POP PUSH1 0x40 MLOAD RETURNDATASIZE PUSH1 0x1F NOT PUSH1 0x1F DUP3 ADD AND DUP3 ADD DUP1 PUSH1 0x40 MSTORE POP DUP2 ADD SWAP1 PUSH2 0x1032 SWAP2 SWAP1 PUSH2 0x2072 JUMP JUMPDEST DUP10 DUP10 DUP6 DUP2 DUP2 LT PUSH2 0x1044 JUMPI PUSH2 0x1044 PUSH2 0x2011 JUMP JUMPDEST SWAP1 POP PUSH1 0x20 MUL ADD CALLDATALOAD DUP13 DUP13 DUP7 DUP2 DUP2 LT PUSH2 0x105D JUMPI PUSH2 0x105D PUSH2 0x2011 JUMP JUMPDEST SWAP1 POP PUSH1 0x20 MUL ADD CALLDATALOAD PUSH2 0x106E SWAP2 SWAP1 PUSH2 0x20E3 JUMP JUMPDEST PUSH1 0x40 MLOAD PUSH1 0x1 PUSH1 0x1 PUSH1 0xE0 SHL SUB NOT PUSH1 0xE0 DUP6 SWAP1 SHL AND DUP2 MSTORE PUSH1 0x1 PUSH1 0x1 PUSH1 0xA0 SHL SUB SWAP1 SWAP3 AND PUSH1 0x4 DUP4 ADD MSTORE PUSH1 0x24 DUP3 ADD MSTORE PUSH1 0x44 ADD PUSH1 0x20 PUSH1 0x40 MLOAD DUP1 DUP4 SUB DUP2 PUSH0 DUP8 GAS CALL ISZERO DUP1 ISZERO PUSH2 0x10B6 JUMPI RETURNDATASIZE PUSH0 DUP1 RETURNDATACOPY RETURNDATASIZE PUSH0 REVERT JUMPDEST POP POP POP POP PUSH1 0x40 MLOAD RETURNDATASIZE PUSH1 0x1F NOT PUSH1 0x1F DUP3 ADD AND DUP3 ADD DUP1 PUSH1 0x40 MSTORE POP DUP2 ADD SWAP1 PUSH2 0x10DA SWAP2 SWAP1 PUSH2 0x2057 JUMP JUMPDEST POP PUSH1 0x1 ADD PUSH2 0xF83 JUMP JUMPDEST POP PUSH1 0x1 SWAP11 SWAP10 POP POP POP POP POP POP POP POP POP POP JUMP JUMPDEST PUSH1 0x3 SLOAD PUSH1 0x40 MLOAD PUSH4 0x23B872DD PUSH1 0xE0 SHL DUP2 MSTORE CALLER PUSH1 0x4 DUP3 ADD MSTORE ADDRESS PUSH1 0x24 DUP3 ADD MSTORE PUSH1 0x44 DUP2 ADD DUP5 SWAP1 MSTORE PUSH1 0x1 PUSH1 0x1 PUSH1 0xA0 SHL SUB SWAP1 SWAP2 AND SWAP1 PUSH4 0x23B872DD SWAP1 PUSH1 0x64 ADD PUSH1 0x20 PUSH1 0x40 MLOAD DUP1 DUP4 SUB DUP2 PUSH0 DUP8 GAS CALL ISZERO DUP1 ISZERO PUSH2 0x1148 JUMPI RETURNDATASIZE PUSH0 DUP1 RETURNDATACOPY RETURNDATASIZE PUSH0 REVERT JUMPDEST POP POP POP POP PUSH1 0x40 MLOAD RETURNDATASIZE PUSH1 0x1F NOT PUSH1 0x1F DUP3 ADD AND DUP3 ADD DUP1 PUSH1 0x40 MSTORE POP DUP2 ADD SWAP1 PUSH2 0x116C SWAP2 SWAP1 PUSH2 0x2057 JUMP JUMPDEST POP PUSH1 0x3 SLOAD PUSH0 SLOAD PUSH1 0x40 DUP1 MLOAD PUSH4 0x26B1D5F PUSH1 0xE0 SHL DUP2 MSTORE SWAP1 MLOAD PUSH1 0x1 PUSH1 0x1 PUSH1 0xA0 SHL SUB SWAP4 DUP5 AND SWAP4 PUSH4 0x95EA7B3 SWAP4 AND SWAP2 PUSH4 0x26B1D5F SWAP2 PUSH1 0x4 DUP1 DUP4 ADD SWAP3 PUSH1 0x20 SWAP3 SWAP2 SWAP1 DUP3 SWAP1 SUB ADD DUP2 DUP7 GAS STATICCALL ISZERO DUP1 ISZERO PUSH2 0x11BE JUMPI RETURNDATASIZE PUSH0 DUP1 RETURNDATACOPY RETURNDATASIZE PUSH0 REVERT JUMPDEST POP POP POP POP PUSH1 0x40 MLOAD RETURNDATASIZE PUSH1 0x1F NOT PUSH1 0x1F DUP3 ADD AND DUP3 ADD DUP1 PUSH1 0x40 MSTORE POP DUP2 ADD SWAP1 PUSH2 0x11E2 SWAP2 SWAP1 PUSH2 0x2072 JUMP JUMPDEST PUSH1 0x40 MLOAD PUSH1 0x1 PUSH1 0x1 PUSH1 0xE0 SHL SUB NOT PUSH1 0xE0 DUP5 SWAP1 SHL AND DUP2 MSTORE PUSH1 0x1 PUSH1 0x1 PUSH1 0xA0 SHL SUB SWAP1 SWAP2 AND PUSH1 0x4 DUP3 ADD MSTORE PUSH1 0x24 DUP2 ADD DUP6 SWAP1 MSTORE PUSH1 0x44 ADD PUSH1 0x20 PUSH1 0x40 MLOAD DUP1 DUP4 SUB DUP2 PUSH0 DUP8 GAS CALL ISZERO DUP1 ISZERO PUSH2 0x122C JUMPI RETURNDATASIZE PUSH0 DUP1 RETURNDATACOPY RETURNDATASIZE PUSH0 REVERT JUMPDEST POP POP POP POP PUSH1 0x40 MLOAD RETURNDATASIZE PUSH1 0x1F NOT PUSH1 0x1F DUP3 ADD AND DUP3 ADD DUP1 PUSH1 0x40 MSTORE POP DUP2 ADD SWAP1 PUSH2 0x1250 SWAP2 SWAP1 PUSH2 0x2057 JUMP JUMPDEST POP PUSH0 DUP1 SLOAD SWAP1 PUSH2 0x100 EXP SWAP1 DIV PUSH1 0x1 PUSH1 0x1 PUSH1 0xA0 SHL SUB AND PUSH1 0x1 PUSH1 0x1 PUSH1 0xA0 SHL SUB AND PUSH4 0x26B1D5F PUSH1 0x40 MLOAD DUP2 PUSH4 0xFFFFFFFF AND PUSH1 0xE0 SHL DUP2 MSTORE PUSH1 0x4 ADD PUSH1 0x20 PUSH1 0x40 MLOAD DUP1 DUP4 SUB DUP2 DUP7 GAS STATICCALL ISZERO DUP1 ISZERO PUSH2 0x129F JUMPI RETURNDATASIZE PUSH0 DUP1 RETURNDATACOPY RETURNDATASIZE PUSH0 REVERT JUMPDEST POP POP POP POP PUSH1 0x40 MLOAD RETURNDATASIZE PUSH1 0x1F NOT PUSH1 0x1F DUP3 ADD AND DUP3 ADD DUP1 PUSH1 0x40 MSTORE POP DUP2 ADD SWAP1 PUSH2 0x12C3 SWAP2 SWAP1 PUSH2 0x2072 JUMP JUMPDEST PUSH1 0x3 SLOAD PUSH1 0x40 MLOAD PUSH4 0x617BA037 PUSH1 0xE0 SHL DUP2 MSTORE PUSH1 0x1 PUSH1 0x1 PUSH1 0xA0 SHL SUB DUP7 DUP2 AND PUSH1 0x4 DUP4 ADD MSTORE PUSH1 0x24 DUP3 ADD DUP7 SWAP1 MSTORE DUP5 DUP2 AND PUSH1 0x44 DUP4 ADD MSTORE PUSH1 0x1 PUSH1 0xA0 SHL SWAP1 SWAP3 DIV PUSH2 0xFFFF AND PUSH1 0x64 DUP3 ADD MSTORE SWAP2 AND SWAP1 PUSH4 0x617BA037 SWAP1 PUSH1 0x84 ADD PUSH0 PUSH1 0x40 MLOAD DUP1 DUP4 SUB DUP2 PUSH0 DUP8 DUP1 EXTCODESIZE ISZERO DUP1 ISZERO PUSH2 0x1326 JUMPI PUSH0 DUP1 REVERT JUMPDEST POP GAS CALL ISZERO DUP1 ISZERO PUSH2 0x1338 JUMPI RETURNDATASIZE PUSH0 DUP1 RETURNDATACOPY RETURNDATASIZE PUSH0 REVERT JUMPDEST POP POP POP POP POP POP POP JUMP JUMPDEST PUSH0 DUP1 SLOAD SWAP1 PUSH2 0x100 EXP SWAP1 DIV PUSH1 0x1 PUSH1 0x1 PUSH1 0xA0 SHL SUB AND PUSH1 0x1 PUSH1 0x1 PUSH1 0xA0 SHL SUB AND PUSH4 0x26B1D5F PUSH1 0x40 MLOAD DUP2 PUSH4 0xFFFFFFFF AND PUSH1 0xE0 SHL DUP2 MSTORE PUSH1 0x4 ADD PUSH1 0x20 PUSH1 0x40 MLOAD DUP1 DUP4 SUB DUP2 DUP7 GAS STATICCALL ISZERO DUP1 ISZERO PUSH2 0x138F JUMPI RETURNDATASIZE PUSH0 DUP1 RETURNDATACOPY RETURNDATASIZE PUSH0 REVERT JUMPDEST POP POP POP POP PUSH1 0x40 MLOAD RETURNDATASIZE PUSH1 0x1F NOT PUSH1 0x1F DUP3 ADD AND DUP3 ADD DUP1 PUSH1 0x40 MSTORE POP DUP2 ADD SWAP1 PUSH2 0x13B3 SWAP2 SWAP1 PUSH2 0x2072 JUMP JUMPDEST PUSH1 0x40 MLOAD PUSH4 0x28530A47 PUSH1 0xE0 SHL DUP2 MSTORE PUSH1 0xFF DUP4 AND PUSH1 0x4 DUP3 ADD MSTORE PUSH1 0x1 PUSH1 0x1 PUSH1 0xA0 SHL SUB SWAP2 SWAP1 SWAP2 AND SWAP1 PUSH4 0x28530A47 SWAP1 PUSH1 0x24 ADD PUSH0 PUSH1 0x40 MLOAD DUP1 DUP4 SUB DUP2 PUSH0 DUP8 DUP1 EXTCODESIZE ISZERO DUP1 ISZERO PUSH2 0x13F6 JUMPI PUSH0 DUP1 REVERT JUMPDEST POP GAS CALL ISZERO DUP1 ISZERO PUSH2 0xD8F JUMPI RETURNDATASIZE PUSH0 DUP1 RETURNDATACOPY RETURNDATASIZE PUSH0 REVERT JUMPDEST PUSH1 0x40 MLOAD PUSH4 0x23B872DD PUSH1 0xE0 SHL DUP2 MSTORE PUSH1 0x1 PUSH1 0x1 PUSH1 0xA0 SHL SUB DUP5 DUP2 AND PUSH1 0x4 DUP4 ADD MSTORE ADDRESS PUSH1 0x24 DUP4 ADD MSTORE PUSH1 0x44 DUP3 ADD DUP5 SWAP1 MSTORE DUP7 AND SWAP1 PUSH4 0x23B872DD SWAP1 PUSH1 0x64 ADD PUSH1 0x20 PUSH1 0x40 MLOAD DUP1 DUP4 SUB DUP2 PUSH0 DUP8 GAS CALL ISZERO DUP1 ISZERO PUSH2 0x145A JUMPI RETURNDATASIZE PUSH0 DUP1 RETURNDATACOPY RETURNDATASIZE PUSH0 REVERT JUMPDEST POP POP POP POP PUSH1 0x40 MLOAD RETURNDATASIZE PUSH1 0x1F NOT PUSH1 0x1F DUP3 ADD AND DUP3 ADD DUP1 PUSH1 0x40 MSTORE POP DUP2 ADD SWAP1 PUSH2 0x147E SWAP2 SWAP1 PUSH2 0x2057 JUMP JUMPDEST POP DUP5 PUSH1 0x1 PUSH1 0x1 PUSH1 0xA0 SHL SUB AND PUSH4 0x95EA7B3 PUSH0 DUP1 SLOAD SWAP1 PUSH2 0x100 EXP SWAP1 DIV PUSH1 0x1 PUSH1 0x1 PUSH1 0xA0 SHL SUB AND PUSH1 0x1 PUSH1 0x1 PUSH1 0xA0 SHL SUB AND PUSH4 0x26B1D5F PUSH1 0x40 MLOAD DUP2 PUSH4 0xFFFFFFFF AND PUSH1 0xE0 SHL DUP2 MSTORE PUSH1 0x4 ADD PUSH1 0x20 PUSH1 0x40 MLOAD DUP1 DUP4 SUB DUP2 DUP7 GAS STATICCALL ISZERO DUP1 ISZERO PUSH2 0x14DC JUMPI RETURNDATASIZE PUSH0 DUP1 RETURNDATACOPY RETURNDATASIZE PUSH0 REVERT JUMPDEST POP POP POP POP PUSH1 0x40 MLOAD RETURNDATASIZE PUSH1 0x1F NOT PUSH1 0x1F DUP3 ADD AND DUP3 ADD DUP1 PUSH1 0x40 MSTORE POP DUP2 ADD SWAP1 PUSH2 0x1500 SWAP2 SWAP1 PUSH2 0x2072 JUMP JUMPDEST PUSH1 0x40 MLOAD PUSH1 0x1 PUSH1 0x1 PUSH1 0xE0 SHL SUB NOT PUSH1 0xE0 DUP5 SWAP1 SHL AND DUP2 MSTORE PUSH1 0x1 PUSH1 0x1 PUSH1 0xA0 SHL SUB SWAP1 SWAP2 AND PUSH1 0x4 DUP3 ADD MSTORE PUSH1 0x24 DUP2 ADD DUP6 SWAP1 MSTORE PUSH1 0x44 ADD PUSH1 0x20 PUSH1 0x40 MLOAD DUP1 DUP4 SUB DUP2 PUSH0 DUP8 GAS CALL ISZERO DUP1 ISZERO PUSH2 0x154A JUMPI RETURNDATASIZE PUSH0 DUP1 RETURNDATACOPY RETURNDATASIZE PUSH0 REVERT JUMPDEST POP POP POP POP PUSH1 0x40 MLOAD RETURNDATASIZE PUSH1 0x1F NOT PUSH1 0x1F DUP3 ADD AND DUP3 ADD DUP1 PUSH1 0x40 MSTORE POP DUP2 ADD SWAP1 PUSH2 0x156E SWAP2 SWAP1 PUSH2 0x2057 JUMP JUMPDEST POP PUSH0 DUP1 SLOAD SWAP1 PUSH2 0x100 EXP SWAP1 DIV PUSH1 0x1 PUSH1 0x1 PUSH1 0xA0 SHL SUB AND PUSH1 0x1 PUSH1 0x1 PUSH1 0xA0 SHL SUB AND PUSH4 0x26B1D5F PUSH1 0x40 MLOAD DUP2 PUSH4 0xFFFFFFFF AND PUSH1 0xE0 SHL DUP2 MSTORE PUSH1 0x4 ADD PUSH1 0x20 PUSH1 0x40 MLOAD DUP1 DUP4 SUB DUP2 DUP7 GAS STATICCALL ISZERO DUP1 ISZERO PUSH2 0x15BD JUMPI RETURNDATASIZE PUSH0 DUP1 RETURNDATACOPY RETURNDATASIZE PUSH0 REVERT JUMPDEST POP POP POP POP PUSH1 0x40 MLOAD RETURNDATASIZE PUSH1 0x1F NOT PUSH1 0x1F DUP3 ADD AND DUP3 ADD DUP1 PUSH1 0x40 MSTORE POP DUP2 ADD SWAP1 PUSH2 0x15E1 SWAP2 SWAP1 PUSH2 0x2072 JUMP JUMPDEST PUSH1 0x40 MLOAD PUSH3 0xA718A9 PUSH1 0xE0 SHL DUP2 MSTORE PUSH1 0x1 PUSH1 0x1 PUSH1 0xA0 SHL SUB DUP8 DUP2 AND PUSH1 0x4 DUP4 ADD MSTORE DUP7 DUP2 AND PUSH1 0x24 DUP4 ADD MSTORE DUP6 DUP2 AND PUSH1 0x44 DUP4 ADD MSTORE PUSH1 0x64 DUP3 ADD DUP6 SWAP1 MSTORE DUP4 ISZERO ISZERO PUSH1 0x84 DUP4 ADD MSTORE SWAP2 SWAP1 SWAP2 AND SWAP1 PUSH3 0xA718A9 SWAP1 PUSH1 0xA4 ADD PUSH0 PUSH1 0x40 MLOAD DUP1 DUP4 SUB DUP2 PUSH0 DUP8 DUP1 EXTCODESIZE ISZERO DUP1 ISZERO PUSH2 0x1640 JUMPI PUSH0 DUP1 REVERT JUMPDEST POP GAS CALL ISZERO DUP1 ISZERO PUSH2 0x1652 JUMPI RETURNDATASIZE PUSH0 DUP1 RETURNDATACOPY RETURNDATASIZE PUSH0 REVERT JUMPDEST POP POP POP POP POP POP POP POP POP JUMP JUMPDEST PUSH0 DUP1 SLOAD SWAP1 PUSH2 0x100 EXP SWAP1 DIV PUSH1 0x1 PUSH1 0x1 PUSH1 0xA0 SHL SUB AND PUSH1 0x1 PUSH1 0x1 PUSH1 0xA0 SHL SUB AND PUSH4 0x26B1D5F PUSH1 0x40 MLOAD DUP2 PUSH4 0xFFFFFFFF AND PUSH1 0xE0 SHL DUP2 MSTORE PUSH1 0x4 ADD PUSH1 0x20 PUSH1 0x40 MLOAD DUP1 DUP4 SUB DUP2 DUP7 GAS STATICCALL ISZERO DUP1 ISZERO PUSH2 0x16AB JUMPI RETURNDATASIZE PUSH0 DUP1 RETURNDATACOPY RETURNDATASIZE PUSH0 REVERT JUMPDEST POP POP POP POP PUSH1 0x40 MLOAD RETURNDATASIZE PUSH1 0x1F NOT PUSH1 0x1F DUP3 ADD AND DUP3 ADD DUP1 PUSH1 0x40 MSTORE POP DUP2 ADD SWAP1 PUSH2 0x16CF SWAP2 SWAP1 PUSH2 0x2072 JUMP JUMPDEST PUSH1 0x40 MLOAD PUSH4 0x69A933A5 PUSH1 0xE0 SHL DUP2 MSTORE PUSH1 0x1 PUSH1 0x1 PUSH1 0xA0 SHL SUB DUP7 DUP2 AND PUSH1 0x4 DUP4 ADD MSTORE PUSH1 0x24 DUP3 ADD DUP7 SWAP1 MSTORE DUP5 DUP2 AND PUSH1 0x44 DUP4 ADD MSTORE PUSH2 0xFFFF DUP5 AND PUSH1 0x64 DUP4 ADD MSTORE SWAP2 SWAP1 SWAP2 AND SWAP1 PUSH4 0x69A933A5 SWAP1 PUSH1 0x84 ADD PUSH2 0x7C4 JUMP JUMPDEST PUSH0 DUP1 SLOAD SWAP1 PUSH2 0x100 EXP SWAP1 DIV PUSH1 0x1 PUSH1 0x1 PUSH1 0xA0 SHL SUB AND PUSH1 0x1 PUSH1 0x1 PUSH1 0xA0 SHL SUB AND PUSH4 0x26B1D5F PUSH1 0x40 MLOAD DUP2 PUSH4 0xFFFFFFFF AND PUSH1 0xE0 SHL DUP2 MSTORE PUSH1 0x4 ADD PUSH1 0x20 PUSH1 0x40 MLOAD DUP1 DUP4 SUB DUP2 DUP7 GAS STATICCALL ISZERO DUP1 ISZERO PUSH2 0x1766 JUMPI RETURNDATASIZE PUSH0 DUP1 RETURNDATACOPY RETURNDATASIZE PUSH0 REVERT JUMPDEST POP POP POP POP PUSH1 0x40 MLOAD RETURNDATASIZE PUSH1 0x1F NOT PUSH1 0x1F DUP3 ADD AND DUP3 ADD DUP1 PUSH1 0x40 MSTORE POP DUP2 ADD SWAP1 PUSH2 0x178A SWAP2 SWAP1 PUSH2 0x2072 JUMP JUMPDEST PUSH1 0x3 SLOAD PUSH1 0x40 MLOAD PUSH4 0x1A4CA37B PUSH1 0xE2 SHL DUP2 MSTORE PUSH1 0x1 PUSH1 0x1 PUSH1 0xA0 SHL SUB SWAP2 DUP3 AND PUSH1 0x4 DUP3 ADD MSTORE PUSH1 0x24 DUP2 ADD DUP6 SWAP1 MSTORE DUP4 DUP3 AND PUSH1 0x44 DUP3 ADD MSTORE SWAP2 AND SWAP1 PUSH4 0x69328DEC SWAP1 PUSH1 0x64 ADD PUSH1 0x20 PUSH1 0x40 MLOAD DUP1 DUP4 SUB DUP2 PUSH0 DUP8 GAS CALL ISZERO DUP1 ISZERO PUSH2 0x17E1 JUMPI RETURNDATASIZE PUSH0 DUP1 RETURNDATACOPY RETURNDATASIZE PUSH0 REVERT JUMPDEST POP POP POP POP PUSH1 0x40 MLOAD RETURNDATASIZE PUSH1 0x1F NOT PUSH1 0x1F DUP3 ADD AND DUP3 ADD DUP1 PUSH1 0x40 MSTORE POP DUP2 ADD SWAP1 PUSH2 0x1805 SWAP2 SWAP1 PUSH2 0x2040 JUMP JUMPDEST POP POP POP JUMP JUMPDEST PUSH0 DUP1 SLOAD SWAP1 PUSH2 0x100 EXP SWAP1 DIV PUSH1 0x1 PUSH1 0x1 PUSH1 0xA0 SHL SUB AND PUSH1 0x1 PUSH1 0x1 PUSH1 0xA0 SHL SUB AND PUSH4 0x26B1D5F PUSH1 0x40 MLOAD DUP2 PUSH4 0xFFFFFFFF AND PUSH1 0xE0 SHL DUP2 MSTORE PUSH1 0x4 ADD PUSH1 0x20 PUSH1 0x40 MLOAD DUP1 DUP4 SUB DUP2 DUP7 GAS STATICCALL ISZERO DUP1 ISZERO PUSH2 0x1858 JUMPI RETURNDATASIZE PUSH0 DUP1 RETURNDATACOPY RETURNDATASIZE PUSH0 REVERT JUMPDEST POP POP POP POP PUSH1 0x40 MLOAD RETURNDATASIZE PUSH1 0x1F NOT PUSH1 0x1F DUP3 ADD AND DUP3 ADD DUP1 PUSH1 0x40 MSTORE POP DUP2 ADD SWAP1 PUSH2 0x187C SWAP2 SWAP1 PUSH2 0x2072 JUMP JUMPDEST PUSH1 0x3 SLOAD PUSH1 0x40 MLOAD PUSH4 0x5A3B74B9 PUSH1 0xE0 SHL DUP2 MSTORE PUSH1 0x1 PUSH1 0x1 PUSH1 0xA0 SHL SUB SWAP2 DUP3 AND PUSH1 0x4 DUP3 ADD MSTORE PUSH1 0x1 PUSH1 0x24 DUP3 ADD MSTORE SWAP2 AND SWAP1 PUSH4 0x5A3B74B9 SWAP1 PUSH1 0x44 ADD PUSH0 PUSH1 0x40 MLOAD DUP1 DUP4 SUB DUP2 PUSH0 DUP8 DUP1 EXTCODESIZE ISZERO DUP1 ISZERO PUSH2 0x18C6 JUMPI PUSH0 DUP1 REVERT JUMPDEST POP GAS CALL ISZERO DUP1 ISZERO PUSH2 0xB13 JUMPI RETURNDATASIZE PUSH0 DUP1 RETURNDATACOPY RETURNDATASIZE PUSH0 REVERT JUMPDEST PUSH0 DUP1 DUP4 PUSH1 0x1F DUP5 ADD SLT PUSH2 0x18E8 JUMPI PUSH0 DUP1 REVERT JUMPDEST POP DUP2 CALLDATALOAD PUSH8 0xFFFFFFFFFFFFFFFF DUP2 GT ISZERO PUSH2 0x18FF JUMPI PUSH0 DUP1 REVERT JUMPDEST PUSH1 0x20 DUP4 ADD SWAP2 POP DUP4 PUSH1 0x20 DUP3 PUSH1 0x5 SHL DUP6 ADD ADD GT ISZERO PUSH2 0x1919 JUMPI PUSH0 DUP1 REVERT JUMPDEST SWAP3 POP SWAP3 SWAP1 POP JUMP JUMPDEST PUSH0 DUP1 PUSH1 0x20 DUP4 DUP6 SUB SLT ISZERO PUSH2 0x1931 JUMPI PUSH0 DUP1 REVERT JUMPDEST DUP3 CALLDATALOAD PUSH8 0xFFFFFFFFFFFFFFFF DUP2 GT ISZERO PUSH2 0x1947 JUMPI PUSH0 DUP1 REVERT JUMPDEST PUSH2 0x1953 DUP6 DUP3 DUP7 ADD PUSH2 0x18D8 JUMP JUMPDEST SWAP1 SWAP7 SWAP1 SWAP6 POP SWAP4 POP POP POP POP JUMP JUMPDEST PUSH1 0x1 PUSH1 0x1 PUSH1 0xA0 SHL SUB DUP2 AND DUP2 EQ PUSH2 0x1973 JUMPI PUSH0 DUP1 REVERT JUMPDEST POP JUMP JUMPDEST DUP1 CALLDATALOAD PUSH2 0x1981 DUP2 PUSH2 0x195F JUMP JUMPDEST SWAP2 SWAP1 POP JUMP JUMPDEST PUSH0 DUP1 DUP4 PUSH1 0x1F DUP5 ADD SLT PUSH2 0x1996 JUMPI PUSH0 DUP1 REVERT JUMPDEST POP DUP2 CALLDATALOAD PUSH8 0xFFFFFFFFFFFFFFFF DUP2 GT ISZERO PUSH2 0x19AD JUMPI PUSH0 DUP1 REVERT JUMPDEST PUSH1 0x20 DUP4 ADD SWAP2 POP DUP4 PUSH1 0x20 DUP3 DUP6 ADD ADD GT ISZERO PUSH2 0x1919 JUMPI PUSH0 DUP1 REVERT JUMPDEST PUSH0 DUP1 PUSH0 DUP1 PUSH0 DUP1 PUSH1 0xA0 DUP8 DUP10 SUB SLT ISZERO PUSH2 0x19D9 JUMPI PUSH0 DUP1 REVERT JUMPDEST DUP7 CALLDATALOAD PUSH2 0x19E4 DUP2 PUSH2 0x195F JUMP JUMPDEST SWAP6 POP PUSH1 0x20 DUP8 ADD CALLDATALOAD SWAP5 POP PUSH1 0x40 DUP8 ADD CALLDATALOAD SWAP4 POP PUSH1 0x60 DUP8 ADD CALLDATALOAD PUSH2 0x1A02 DUP2 PUSH2 0x195F JUMP JUMPDEST SWAP3 POP PUSH1 0x80 DUP8 ADD CALLDATALOAD PUSH8 0xFFFFFFFFFFFFFFFF DUP2 GT ISZERO PUSH2 0x1A1D JUMPI PUSH0 DUP1 REVERT JUMPDEST PUSH2 0x1A29 DUP10 DUP3 DUP11 ADD PUSH2 0x1986 JUMP JUMPDEST SWAP8 SWAP11 SWAP7 SWAP10 POP SWAP5 SWAP8 POP SWAP3 SWAP6 SWAP4 SWAP5 SWAP3 POP POP POP JUMP JUMPDEST PUSH0 DUP1 PUSH1 0x40 DUP4 DUP6 SUB SLT ISZERO PUSH2 0x1A4C JUMPI PUSH0 DUP1 REVERT JUMPDEST DUP3 CALLDATALOAD PUSH2 0x1A57 DUP2 PUSH2 0x195F JUMP JUMPDEST SWAP2 POP PUSH1 0x20 DUP4 ADD CALLDATALOAD PUSH2 0x1A67 DUP2 PUSH2 0x195F JUMP JUMPDEST DUP1 SWAP2 POP POP SWAP3 POP SWAP3 SWAP1 POP JUMP JUMPDEST PUSH0 DUP1 PUSH0 DUP1 PUSH1 0x80 DUP6 DUP8 SUB SLT ISZERO PUSH2 0x1A85 JUMPI PUSH0 DUP1 REVERT JUMPDEST DUP5 CALLDATALOAD SWAP4 POP PUSH1 0x20 DUP6 ADD CALLDATALOAD SWAP3 POP PUSH1 0x40 DUP6 ADD CALLDATALOAD PUSH2 0x1A9E DUP2 PUSH2 0x195F JUMP JUMPDEST SWAP2 POP PUSH1 0x60 DUP6 ADD CALLDATALOAD PUSH2 0x1AAE DUP2 PUSH2 0x195F JUMP JUMPDEST SWAP4 SWAP7 SWAP3 SWAP6 POP SWAP1 SWAP4 POP POP JUMP JUMPDEST PUSH0 DUP1 PUSH1 0x40 DUP4 DUP6 SUB SLT ISZERO PUSH2 0x1ACA JUMPI PUSH0 DUP1 REVERT JUMPDEST DUP3 CALLDATALOAD PUSH2 0x1AD5 DUP2 PUSH2 0x195F JUMP JUMPDEST SWAP5 PUSH1 0x20 SWAP4 SWAP1 SWAP4 ADD CALLDATALOAD SWAP4 POP POP POP JUMP JUMPDEST PUSH0 DUP1 PUSH0 PUSH1 0x60 DUP5 DUP7 SUB SLT ISZERO PUSH2 0x1AF5 JUMPI PUSH0 DUP1 REVERT JUMPDEST DUP4 CALLDATALOAD PUSH2 0x1B00 DUP2 PUSH2 0x195F JUMP JUMPDEST SWAP3 POP PUSH1 0x20 DUP5 ADD CALLDATALOAD PUSH2 0x1B10 DUP2 PUSH2 0x195F JUMP JUMPDEST SWAP3 SWAP6 SWAP3 SWAP5 POP POP POP PUSH1 0x40 SWAP2 SWAP1 SWAP2 ADD CALLDATALOAD SWAP1 JUMP JUMPDEST PUSH0 DUP1 PUSH0 PUSH1 0x60 DUP5 DUP7 SUB SLT ISZERO PUSH2 0x1B33 JUMPI PUSH0 DUP1 REVERT JUMPDEST DUP4 CALLDATALOAD PUSH2 0x1B3E DUP2 PUSH2 0x195F JUMP JUMPDEST SWAP6 PUSH1 0x20 DUP6 ADD CALLDATALOAD SWAP6 POP PUSH1 0x40 SWAP1 SWAP5 ADD CALLDATALOAD SWAP4 SWAP3 POP POP POP JUMP JUMPDEST DUP1 CALLDATALOAD PUSH1 0xFF DUP2 AND DUP2 EQ PUSH2 0x1981 JUMPI PUSH0 DUP1 REVERT JUMPDEST PUSH0 DUP1 PUSH0 DUP1 PUSH0 DUP1 PUSH0 PUSH1 0xE0 DUP9 DUP11 SUB SLT ISZERO PUSH2 0x1B79 JUMPI PUSH0 DUP1 REVERT JUMPDEST DUP8 CALLDATALOAD PUSH2 0x1B84 DUP2 PUSH2 0x195F JUMP JUMPDEST SWAP7 POP PUSH1 0x20 DUP9 ADD CALLDATALOAD PUSH2 0x1B94 DUP2 PUSH2 0x195F JUMP JUMPDEST SWAP6 POP PUSH1 0x40 DUP9 ADD CALLDATALOAD SWAP5 POP PUSH1 0x60 DUP9 ADD CALLDATALOAD SWAP4 POP PUSH2 0x1BB0 PUSH1 0x80 DUP10 ADD PUSH2 0x1B53 JUMP JUMPDEST SWAP3 POP PUSH1 0xA0 DUP9 ADD CALLDATALOAD SWAP2 POP PUSH1 0xC0 DUP9 ADD CALLDATALOAD SWAP1 POP SWAP3 SWAP6 SWAP9 SWAP2 SWAP5 SWAP8 POP SWAP3 SWAP6 POP JUMP JUMPDEST PUSH0 DUP1 PUSH0 DUP1 PUSH1 0x80 DUP6 DUP8 SUB SLT ISZERO PUSH2 0x1BDF JUMPI PUSH0 DUP1 REVERT JUMPDEST DUP5 CALLDATALOAD PUSH2 0x1BEA DUP2 PUSH2 0x195F JUMP JUMPDEST SWAP4 POP PUSH1 0x20 DUP6 ADD CALLDATALOAD SWAP3 POP PUSH1 0x40 DUP6 ADD CALLDATALOAD SWAP2 POP PUSH1 0x60 DUP6 ADD CALLDATALOAD PUSH2 0x1AAE DUP2 PUSH2 0x195F JUMP JUMPDEST PUSH4 0x4E487B71 PUSH1 0xE0 SHL PUSH0 MSTORE PUSH1 0x41 PUSH1 0x4 MSTORE PUSH1 0x24 PUSH0 REVERT JUMPDEST PUSH1 0x40 MLOAD PUSH1 0x1F DUP3 ADD PUSH1 0x1F NOT AND DUP2 ADD PUSH8 0xFFFFFFFFFFFFFFFF DUP2 GT DUP3 DUP3 LT OR ISZERO PUSH2 0x1C45 JUMPI PUSH2 0x1C45 PUSH2 0x1C08 JUMP JUMPDEST PUSH1 0x40 MSTORE SWAP2 SWAP1 POP JUMP JUMPDEST PUSH0 PUSH8 0xFFFFFFFFFFFFFFFF DUP3 GT ISZERO PUSH2 0x1C66 JUMPI PUSH2 0x1C66 PUSH2 0x1C08 JUMP JUMPDEST POP PUSH1 0x5 SHL PUSH1 0x20 ADD SWAP1 JUMP JUMPDEST PUSH0 DUP3 PUSH1 0x1F DUP4 ADD SLT PUSH2 0x1C7F JUMPI PUSH0 DUP1 REVERT JUMPDEST DUP2 CALLDATALOAD PUSH1 0x20 PUSH2 0x1C94 PUSH2 0x1C8F DUP4 PUSH2 0x1C4D JUMP JUMPDEST PUSH2 0x1C1C JUMP JUMPDEST DUP1 DUP4 DUP3 MSTORE PUSH1 0x20 DUP3 ADD SWAP2 POP PUSH1 0x20 DUP5 PUSH1 0x5 SHL DUP8 ADD ADD SWAP4 POP DUP7 DUP5 GT ISZERO PUSH2 0x1CB5 JUMPI PUSH0 DUP1 REVERT JUMPDEST PUSH1 0x20 DUP7 ADD JUMPDEST DUP5 DUP2 LT ISZERO PUSH2 0x1CD1 JUMPI DUP1 CALLDATALOAD DUP4 MSTORE SWAP2 DUP4 ADD SWAP2 DUP4 ADD PUSH2 0x1CBA JUMP JUMPDEST POP SWAP7 SWAP6 POP POP POP POP POP POP JUMP JUMPDEST DUP1 CALLDATALOAD PUSH2 0xFFFF DUP2 AND DUP2 EQ PUSH2 0x1981 JUMPI PUSH0 DUP1 REVERT JUMPDEST PUSH0 DUP1 PUSH0 DUP1 PUSH0 DUP1 PUSH1 0xC0 DUP8 DUP10 SUB SLT ISZERO PUSH2 0x1D02 JUMPI PUSH0 DUP1 REVERT JUMPDEST DUP7 CALLDATALOAD PUSH2 0x1D0D DUP2 PUSH2 0x195F JUMP JUMPDEST SWAP6 POP PUSH1 0x20 DUP8 DUP2 ADD CALLDATALOAD PUSH8 0xFFFFFFFFFFFFFFFF DUP1 DUP3 GT ISZERO PUSH2 0x1D2A JUMPI PUSH0 DUP1 REVERT JUMPDEST DUP2 DUP11 ADD SWAP2 POP DUP11 PUSH1 0x1F DUP4 ADD SLT PUSH2 0x1D3D JUMPI PUSH0 DUP1 REVERT JUMPDEST DUP2 CALLDATALOAD PUSH2 0x1D4B PUSH2 0x1C8F DUP3 PUSH2 0x1C4D JUMP JUMPDEST DUP2 DUP2 MSTORE PUSH1 0x5 SWAP2 SWAP1 SWAP2 SHL DUP4 ADD DUP5 ADD SWAP1 DUP5 DUP2 ADD SWAP1 DUP14 DUP4 GT ISZERO PUSH2 0x1D69 JUMPI PUSH0 DUP1 REVERT JUMPDEST SWAP4 DUP6 ADD SWAP4 JUMPDEST DUP3 DUP6 LT ISZERO PUSH2 0x1D90 JUMPI DUP5 CALLDATALOAD PUSH2 0x1D81 DUP2 PUSH2 0x195F JUMP JUMPDEST DUP3 MSTORE SWAP4 DUP6 ADD SWAP4 SWAP1 DUP6 ADD SWAP1 PUSH2 0x1D6E JUMP JUMPDEST SWAP10 POP POP POP PUSH1 0x40 DUP11 ADD CALLDATALOAD SWAP3 POP DUP1 DUP4 GT ISZERO PUSH2 0x1DA7 JUMPI PUSH0 DUP1 REVERT JUMPDEST PUSH2 0x1DB3 DUP12 DUP5 DUP13 ADD PUSH2 0x1C70 JUMP JUMPDEST SWAP7 POP PUSH1 0x60 DUP11 ADD CALLDATALOAD SWAP3 POP DUP1 DUP4 GT ISZERO PUSH2 0x1DC8 JUMPI PUSH0 DUP1 REVERT JUMPDEST POP POP PUSH2 0x1DD6 DUP10 DUP3 DUP11 ADD PUSH2 0x1C70 JUMP JUMPDEST SWAP4 POP POP PUSH2 0x1DE5 PUSH1 0x80 DUP9 ADD PUSH2 0x1976 JUMP JUMPDEST SWAP2 POP PUSH2 0x1DF3 PUSH1 0xA0 DUP9 ADD PUSH2 0x1CDC JUMP JUMPDEST SWAP1 POP SWAP3 SWAP6 POP SWAP3 SWAP6 POP SWAP3 SWAP6 JUMP JUMPDEST PUSH0 DUP1 PUSH0 DUP1 PUSH0 DUP1 PUSH0 DUP1 PUSH0 PUSH1 0xA0 DUP11 DUP13 SUB SLT ISZERO PUSH2 0x1E17 JUMPI PUSH0 DUP1 REVERT JUMPDEST DUP10 CALLDATALOAD PUSH8 0xFFFFFFFFFFFFFFFF DUP1 DUP3 GT ISZERO PUSH2 0x1E2E JUMPI PUSH0 DUP1 REVERT JUMPDEST PUSH2 0x1E3A DUP14 DUP4 DUP15 ADD PUSH2 0x18D8 JUMP JUMPDEST SWAP1 SWAP12 POP SWAP10 POP PUSH1 0x20 DUP13 ADD CALLDATALOAD SWAP2 POP DUP1 DUP3 GT ISZERO PUSH2 0x1E52 JUMPI PUSH0 DUP1 REVERT JUMPDEST PUSH2 0x1E5E DUP14 DUP4 DUP15 ADD PUSH2 0x18D8 JUMP JUMPDEST SWAP1 SWAP10 POP SWAP8 POP PUSH1 0x40 DUP13 ADD CALLDATALOAD SWAP2 POP DUP1 DUP3 GT ISZERO PUSH2 0x1E76 JUMPI PUSH0 DUP1 REVERT JUMPDEST PUSH2 0x1E82 DUP14 DUP4 DUP15 ADD PUSH2 0x18D8 JUMP JUMPDEST SWAP1 SWAP8 POP SWAP6 POP PUSH1 0x60 DUP13 ADD CALLDATALOAD SWAP2 POP PUSH2 0x1E97 DUP3 PUSH2 0x195F JUMP JUMPDEST SWAP1 SWAP4 POP PUSH1 0x80 DUP12 ADD CALLDATALOAD SWAP1 DUP1 DUP3 GT ISZERO PUSH2 0x1EAC JUMPI PUSH0 DUP1 REVERT JUMPDEST POP PUSH2 0x1EB9 DUP13 DUP3 DUP14 ADD PUSH2 0x1986 JUMP JUMPDEST SWAP2 POP DUP1 SWAP4 POP POP DUP1 SWAP2 POP POP SWAP3 SWAP6 SWAP9 POP SWAP3 SWAP6 SWAP9 POP SWAP3 SWAP6 SWAP9 JUMP JUMPDEST PUSH0 DUP1 PUSH0 PUSH1 0x60 DUP5 DUP7 SUB SLT ISZERO PUSH2 0x1EE2 JUMPI PUSH0 DUP1 REVERT JUMPDEST DUP4 CALLDATALOAD PUSH2 0x1EED DUP2 PUSH2 0x195F JUMP JUMPDEST SWAP3 POP PUSH1 0x20 DUP5 ADD CALLDATALOAD SWAP2 POP PUSH1 0x40 DUP5 ADD CALLDATALOAD PUSH2 0x1F04 DUP2 PUSH2 0x195F JUMP JUMPDEST DUP1 SWAP2 POP POP SWAP3 POP SWAP3 POP SWAP3 JUMP JUMPDEST PUSH0 PUSH1 0x20 DUP3 DUP5 SUB SLT ISZERO PUSH2 0x1F1F JUMPI PUSH0 DUP1 REVERT JUMPDEST PUSH2 0x1F28 DUP3 PUSH2 0x1B53 JUMP JUMPDEST SWAP4 SWAP3 POP POP POP JUMP JUMPDEST DUP1 ISZERO ISZERO DUP2 EQ PUSH2 0x1973 JUMPI PUSH0 DUP1 REVERT JUMPDEST PUSH0 DUP1 PUSH0 DUP1 PUSH0 PUSH1 0xA0 DUP7 DUP9 SUB SLT ISZERO PUSH2 0x1F50 JUMPI PUSH0 DUP1 REVERT JUMPDEST DUP6 CALLDATALOAD PUSH2 0x1F5B DUP2 PUSH2 0x195F JUMP JUMPDEST SWAP5 POP PUSH1 0x20 DUP7 ADD CALLDATALOAD PUSH2 0x1F6B DUP2 PUSH2 0x195F JUMP JUMPDEST SWAP4 POP PUSH1 0x40 DUP7 ADD CALLDATALOAD PUSH2 0x1F7B DUP2 PUSH2 0x195F JUMP JUMPDEST SWAP3 POP PUSH1 0x60 DUP7 ADD CALLDATALOAD SWAP2 POP PUSH1 0x80 DUP7 ADD CALLDATALOAD PUSH2 0x1F92 DUP2 PUSH2 0x1F2F JUMP JUMPDEST DUP1 SWAP2 POP POP SWAP3 SWAP6 POP SWAP3 SWAP6 SWAP1 SWAP4 POP JUMP JUMPDEST PUSH0 DUP1 PUSH0 DUP1 PUSH1 0x80 DUP6 DUP8 SUB SLT ISZERO PUSH2 0x1FB3 JUMPI PUSH0 DUP1 REVERT JUMPDEST DUP5 CALLDATALOAD PUSH2 0x1FBE DUP2 PUSH2 0x195F JUMP JUMPDEST SWAP4 POP PUSH1 0x20 DUP6 ADD CALLDATALOAD SWAP3 POP PUSH1 0x40 DUP6 ADD CALLDATALOAD PUSH2 0x1FD5 DUP2 PUSH2 0x195F JUMP JUMPDEST SWAP2 POP PUSH2 0x1FE3 PUSH1 0x60 DUP7 ADD PUSH2 0x1CDC JUMP JUMPDEST SWAP1 POP SWAP3 SWAP6 SWAP2 SWAP5 POP SWAP3 POP JUMP JUMPDEST PUSH0 DUP1 PUSH1 0x40 DUP4 DUP6 SUB SLT ISZERO PUSH2 0x1FFF JUMPI PUSH0 DUP1 REVERT JUMPDEST DUP3 CALLDATALOAD SWAP2 POP PUSH1 0x20 DUP4 ADD CALLDATALOAD PUSH2 0x1A67 DUP2 PUSH2 0x195F JUMP JUMPDEST PUSH4 0x4E487B71 PUSH1 0xE0 SHL PUSH0 MSTORE PUSH1 0x32 PUSH1 0x4 MSTORE PUSH1 0x24 PUSH0 REVERT JUMPDEST PUSH0 PUSH1 0x20 DUP3 DUP5 SUB SLT ISZERO PUSH2 0x2035 JUMPI PUSH0 DUP1 REVERT JUMPDEST DUP2 CALLDATALOAD PUSH2 0x1F28 DUP2 PUSH2 0x195F JUMP JUMPDEST PUSH0 PUSH1 0x20 DUP3 DUP5 SUB SLT ISZERO PUSH2 0x2050 JUMPI PUSH0 DUP1 REVERT JUMPDEST POP MLOAD SWAP2 SWAP1 POP JUMP JUMPDEST PUSH0 PUSH1 0x20 DUP3 DUP5 SUB SLT ISZERO PUSH2 0x2067 JUMPI PUSH0 DUP1 REVERT JUMPDEST DUP2 MLOAD PUSH2 0x1F28 DUP2 PUSH2 0x1F2F JUMP JUMPDEST PUSH0 PUSH1 0x20 DUP3 DUP5 SUB SLT ISZERO PUSH2 0x2082 JUMPI PUSH0 DUP1 REVERT JUMPDEST DUP2 MLOAD PUSH2 0x1F28 DUP2 PUSH2 0x195F JUMP JUMPDEST PUSH1 0x20 DUP1 DUP3 MSTORE DUP2 DUP2 ADD DUP4 SWAP1 MSTORE PUSH0 SWAP1 DUP5 PUSH1 0x40 DUP5 ADD DUP4 JUMPDEST DUP7 DUP2 LT ISZERO PUSH2 0x1CD1 JUMPI DUP3 CALLDATALOAD PUSH2 0x20B4 DUP2 PUSH2 0x195F JUMP JUMPDEST PUSH1 0x1 PUSH1 0x1 PUSH1 0xA0 SHL SUB AND DUP3 MSTORE SWAP2 DUP4 ADD SWAP2 SWAP1 DUP4 ADD SWAP1 PUSH1 0x1 ADD PUSH2 0x20A1 JUMP JUMPDEST PUSH4 0x4E487B71 PUSH1 0xE0 SHL PUSH0 MSTORE PUSH1 0x11 PUSH1 0x4 MSTORE PUSH1 0x24 PUSH0 REVERT JUMPDEST DUP1 DUP3 ADD DUP1 DUP3 GT ISZERO PUSH2 0x20F6 JUMPI PUSH2 0x20F6 PUSH2 0x20CF JUMP JUMPDEST SWAP3 SWAP2 POP POP JUMP JUMPDEST DUP1 DUP3 MUL DUP2 ISZERO DUP3 DUP3 DIV DUP5 EQ OR PUSH2 0x20F6 JUMPI PUSH2 0x20F6 PUSH2 0x20CF JUMP JUMPDEST PUSH0 DUP3 PUSH2 0x212D JUMPI PUSH4 0x4E487B71 PUSH1 0xE0 SHL PUSH0 MSTORE PUSH1 0x12 PUSH1 0x4 MSTORE PUSH1 0x24 PUSH0 REVERT JUMPDEST POP DIV SWAP1 JUMP JUMPDEST PUSH0 DUP2 MLOAD DUP1 DUP5 MSTORE PUSH0 JUMPDEST DUP2 DUP2 LT ISZERO PUSH2 0x2156 JUMPI PUSH1 0x20 DUP2 DUP6 ADD DUP2 ADD MLOAD DUP7 DUP4 ADD DUP3 ADD MSTORE ADD PUSH2 0x213A JUMP JUMPDEST POP PUSH0 PUSH1 0x20 DUP3 DUP7 ADD ADD MSTORE PUSH1 0x20 PUSH1 0x1F NOT PUSH1 0x1F DUP4 ADD AND DUP6 ADD ADD SWAP2 POP POP SWAP3 SWAP2 POP POP JUMP JUMPDEST PUSH1 0x1 PUSH1 0x1 PUSH1 0xA0 SHL SUB DUP7 DUP2 AND DUP3 MSTORE DUP6 AND PUSH1 0x20 DUP3 ADD MSTORE PUSH1 0x40 DUP2 ADD DUP5 SWAP1 MSTORE PUSH1 0xA0 PUSH1 0x60 DUP3 ADD DUP2 SWAP1 MSTORE PUSH0 SWAP1 PUSH2 0x21A7 SWAP1 DUP4 ADD DUP6 PUSH2 0x2132 JUMP JUMPDEST SWAP1 POP PUSH2 0xFFFF DUP4 AND PUSH1 0x80 DUP4 ADD MSTORE SWAP7 SWAP6 POP POP POP POP POP POP JUMP JUMPDEST PUSH0 DUP2 MLOAD DUP1 DUP5 MSTORE PUSH1 0x20 DUP1 DUP6 ADD SWAP5 POP PUSH1 0x20 DUP5 ADD PUSH0 JUMPDEST DUP4 DUP2 LT ISZERO PUSH2 0x21EC JUMPI DUP2 MLOAD DUP8 MSTORE SWAP6 DUP3 ADD SWAP6 SWAP1 DUP3 ADD SWAP1 PUSH1 0x1 ADD PUSH2 0x21D0 JUMP JUMPDEST POP SWAP5 SWAP6 SWAP5 POP POP POP POP POP JUMP JUMPDEST PUSH1 0x1 PUSH1 0x1 PUSH1 0xA0 SHL SUB DUP9 DUP2 AND DUP3 MSTORE PUSH1 0xE0 PUSH1 0x20 DUP1 DUP5 ADD DUP3 SWAP1 MSTORE DUP10 MLOAD SWAP2 DUP5 ADD DUP3 SWAP1 MSTORE PUSH0 SWAP3 DUP11 DUP3 ADD SWAP3 SWAP1 SWAP2 SWAP1 PUSH2 0x100 DUP7 ADD SWAP1 DUP6 JUMPDEST DUP2 DUP2 LT ISZERO PUSH2 0x2245 JUMPI DUP6 MLOAD DUP6 AND DUP4 MSTORE SWAP5 DUP4 ADD SWAP5 SWAP2 DUP4 ADD SWAP2 PUSH1 0x1 ADD PUSH2 0x2227 JUMP JUMPDEST POP POP DUP6 DUP2 SUB PUSH1 0x40 DUP8 ADD MSTORE PUSH2 0x2259 DUP2 DUP13 PUSH2 0x21BD JUMP JUMPDEST SWAP4 POP POP POP POP DUP3 DUP2 SUB PUSH1 0x60 DUP5 ADD MSTORE PUSH2 0x2270 DUP2 DUP9 PUSH2 0x21BD JUMP JUMPDEST PUSH1 0x1 PUSH1 0x1 PUSH1 0xA0 SHL SUB DUP8 AND PUSH1 0x80 DUP6 ADD MSTORE SWAP1 POP DUP3 DUP2 SUB PUSH1 0xA0 DUP5 ADD MSTORE PUSH2 0x2293 DUP2 DUP7 PUSH2 0x2132 JUMP JUMPDEST SWAP2 POP POP PUSH2 0x22A6 PUSH1 0xC0 DUP4 ADD DUP5 PUSH2 0xFFFF AND SWAP1 MSTORE JUMP JUMPDEST SWAP9 SWAP8 POP POP POP POP POP POP POP POP JUMP INVALID LOG2 PUSH5 0x6970667358 0x22 SLT KECCAK256 PUSH11 0xE1BAE2CFF77B7ED62291EC GT TLOAD COINBASE PUSH17 0xDA988B2A62A92401F5A1A5E76BE280B164 PUSH20 0x6F6C634300081800330000000000000000000000 "
		},
		"gasEstimates": {
			"creation": {
				"codeDepositCost": "1787200",
				"executionCost": "infinite",
				"totalCost": "infinite"
			},
			"external": {
				"aave()": "2447",
				"borrowToken(uint256,uint256,address,address)": "infinite",
				"executeOperation(address,uint256,uint256,address,bytes)": "infinite",
				"executeOperation(address[],uint256[],uint256[],address,bytes)": "infinite",
				"flashLoanImplementation(address,address[],uint256[],uint256[],address,uint16)": "infinite",
				"flashLoanSimpleImplementations(address,address,uint256)": "infinite",
				"liquidationCallToken(address,address,address,uint256,bool)": "infinite",
				"mintToTreasuryToken(address[])": "infinite",
				"mintUnbackedToken(address,uint256,address,uint16)": "infinite",
				"pool_Address()": "2448",
				"rebalanceToken(address,address)": "infinite",
				"refferal()": "2439",
				"repayAToken(address,uint256,uint256)": "infinite",
				"repayTokens(address,uint256,uint256,address)": "infinite",
				"setReserveAsCollateral()": "infinite",
				"supplyPermitTokens(address,address,uint256,uint256,uint8,bytes32,bytes32)": "infinite",
				"supplyToken(address,uint256,address)": "infinite",
				"swapBorrowRateOfToken(address,uint256)": "infinite",
				"userMode(uint8)": "infinite",
				"withdrawToken(uint256,address)": "infinite"
			}
		},
		"methodIdentifiers": {
			"aave()": "819faf7b",
			"borrowToken(uint256,uint256,address,address)": "20b81c0f",
			"executeOperation(address,uint256,uint256,address,bytes)": "1b11d0ff",
			"executeOperation(address[],uint256[],uint256[],address,bytes)": "920f5c84",
			"flashLoanImplementation(address,address[],uint256[],uint256[],address,uint16)": "898775be",
			"flashLoanSimpleImplementations(address,address,uint256)": "608684ae",
			"liquidationCallToken(address,address,address,uint256,bool)": "b2bc64d2",
			"mintToTreasuryToken(address[])": "15c56202",
			"mintUnbackedToken(address,uint256,address,uint16)": "b6eaca56",
			"pool_Address()": "3f286405",
			"rebalanceToken(address,address)": "1eda2b50",
			"refferal()": "fe04345a",
			"repayAToken(address,uint256,uint256)": "629813fe",
			"repayTokens(address,uint256,uint256,address)": "845612f3",
			"setReserveAsCollateral()": "c829755f",
			"supplyPermitTokens(address,address,uint256,uint256,uint8,bytes32,bytes32)": "638a0133",
			"supplyToken(address,uint256,address)": "a8733453",
			"swapBorrowRateOfToken(address,uint256)": "473ffd68",
			"userMode(uint8)": "adf96861",
			"withdrawToken(uint256,address)": "be4b1772"
		}
	},
	"abi": [
		{
			"inputs": [],
			"name": "aave",
			"outputs": [
				{
					"internalType": "address",
					"name": "",
					"type": "address"
				}
			],
			"stateMutability": "view",
			"type": "function"
		},
		{
			"inputs": [
				{
					"internalType": "uint256",
					"name": "_amount",
					"type": "uint256"
				},
				{
					"internalType": "uint256",
					"name": "_interestRateMode",
					"type": "uint256"
				},
				{
					"internalType": "address",
					"name": "_onBehalfOf",
					"type": "address"
				},
				{
					"internalType": "address",
					"name": "_asset",
					"type": "address"
				}
			],
			"name": "borrowToken",
			"outputs": [],
			"stateMutability": "nonpayable",
			"type": "function"
		},
		{
			"inputs": [
				{
					"internalType": "address",
					"name": "asset",
					"type": "address"
				},
				{
					"internalType": "uint256",
					"name": "amount",
					"type": "uint256"
				},
				{
					"internalType": "uint256",
					"name": "premium",
					"type": "uint256"
				},
				{
					"internalType": "address",
					"name": "initiator",
					"type": "address"
				},
				{
					"internalType": "bytes",
					"name": "params",
					"type": "bytes"
				}
			],
			"name": "executeOperation",
			"outputs": [
				{
					"internalType": "bool",
					"name": "",
					"type": "bool"
				}
			],
			"stateMutability": "nonpayable",
			"type": "function"
		},
		{
			"inputs": [
				{
					"internalType": "address[]",
					"name": "assets",
					"type": "address[]"
				},
				{
					"internalType": "uint256[]",
					"name": "amounts",
					"type": "uint256[]"
				},
				{
					"internalType": "uint256[]",
					"name": "premiums",
					"type": "uint256[]"
				},
				{
					"internalType": "address",
					"name": "initiator",
					"type": "address"
				},
				{
					"internalType": "bytes",
					"name": "params",
					"type": "bytes"
				}
			],
			"name": "executeOperation",
			"outputs": [
				{
					"internalType": "bool",
					"name": "",
					"type": "bool"
				}
			],
			"stateMutability": "nonpayable",
			"type": "function"
		},
		{
			"inputs": [
				{
					"internalType": "address",
					"name": "_receiverAddress",
					"type": "address"
				},
				{
					"internalType": "address[]",
					"name": "_assets",
					"type": "address[]"
				},
				{
					"internalType": "uint256[]",
					"name": "_amounts",
					"type": "uint256[]"
				},
				{
					"internalType": "uint256[]",
					"name": "interestRateModes",
					"type": "uint256[]"
				},
				{
					"internalType": "address",
					"name": "onBehalfOf",
					"type": "address"
				},
				{
					"internalType": "uint16",
					"name": "referralCode",
					"type": "uint16"
				}
			],
			"name": "flashLoanImplementation",
			"outputs": [],
			"stateMutability": "nonpayable",
			"type": "function"
		},
		{
			"inputs": [
				{
					"internalType": "address",
					"name": "_receiverAddress",
					"type": "address"
				},
				{
					"internalType": "address",
					"name": "_asset",
					"type": "address"
				},
				{
					"internalType": "uint256",
					"name": "_amount",
					"type": "uint256"
				}
			],
			"name": "flashLoanSimpleImplementations",
			"outputs": [],
			"stateMutability": "nonpayable",
			"type": "function"
		},
		{
			"inputs": [
				{
					"internalType": "address",
					"name": "_collateral",
					"type": "address"
				},
				{
					"internalType": "address",
					"name": "_debt",
					"type": "address"
				},
				{
					"internalType": "address",
					"name": "_user",
					"type": "address"
				},
				{
					"internalType": "uint256",
					"name": "_debtToCover",
					"type": "uint256"
				},
				{
					"internalType": "bool",
					"name": "_receiveAToken",
					"type": "bool"
				}
			],
			"name": "liquidationCallToken",
			"outputs": [],
			"stateMutability": "nonpayable",
			"type": "function"
		},
		{
			"inputs": [
				{
					"internalType": "address[]",
					"name": "assets",
					"type": "address[]"
				}
			],
			"name": "mintToTreasuryToken",
			"outputs": [],
			"stateMutability": "nonpayable",
			"type": "function"
		},
		{
			"inputs": [
				{
					"internalType": "address",
					"name": "_asset",
					"type": "address"
				},
				{
					"internalType": "uint256",
					"name": "_amount",
					"type": "uint256"
				},
				{
					"internalType": "address",
					"name": "_onBehalfOf",
					"type": "address"
				},
				{
					"internalType": "uint16",
					"name": "_referralCode",
					"type": "uint16"
				}
			],
			"name": "mintUnbackedToken",
			"outputs": [],
			"stateMutability": "nonpayable",
			"type": "function"
		},
		{
			"inputs": [],
			"name": "pool_Address",
			"outputs": [
				{
					"internalType": "address",
					"name": "",
					"type": "address"
				}
			],
			"stateMutability": "view",
			"type": "function"
		},
		{
			"inputs": [
				{
					"internalType": "address",
					"name": "_asset",
					"type": "address"
				},
				{
					"internalType": "address",
					"name": "_user",
					"type": "address"
				}
			],
			"name": "rebalanceToken",
			"outputs": [],
			"stateMutability": "nonpayable",
			"type": "function"
		},
		{
			"inputs": [],
			"name": "refferal",
			"outputs": [
				{
					"internalType": "uint16",
					"name": "",
					"type": "uint16"
				}
			],
			"stateMutability": "view",
			"type": "function"
		},
		{
			"inputs": [
				{
					"internalType": "address",
					"name": "_asset",
					"type": "address"
				},
				{
					"internalType": "uint256",
					"name": "_amount",
					"type": "uint256"
				},
				{
					"internalType": "uint256",
					"name": "_interestRateMode",
					"type": "uint256"
				}
			],
			"name": "repayAToken",
			"outputs": [],
			"stateMutability": "nonpayable",
			"type": "function"
		},
		{
			"inputs": [
				{
					"internalType": "address",
					"name": "_asset",
					"type": "address"
				},
				{
					"internalType": "uint256",
					"name": "_amount",
					"type": "uint256"
				},
				{
					"internalType": "uint256",
					"name": "_rateMode",
					"type": "uint256"
				},
				{
					"internalType": "address",
					"name": "_onBehalfOf",
					"type": "address"
				}
			],
			"name": "repayTokens",
			"outputs": [],
			"stateMutability": "nonpayable",
			"type": "function"
		},
		{
			"inputs": [],
			"name": "setReserveAsCollateral",
			"outputs": [],
			"stateMutability": "nonpayable",
			"type": "function"
		},
		{
			"inputs": [
				{
					"internalType": "address",
					"name": "_asset",
					"type": "address"
				},
				{
					"internalType": "address",
					"name": "_onBehalfOf",
					"type": "address"
				},
				{
					"internalType": "uint256",
					"name": "_amount",
					"type": "uint256"
				},
				{
					"internalType": "uint256",
					"name": "_deadline",
					"type": "uint256"
				},
				{
					"internalType": "uint8",
					"name": "_permitV",
					"type": "uint8"
				},
				{
					"internalType": "bytes32",
					"name": "_permitR",
					"type": "bytes32"
				},
				{
					"internalType": "bytes32",
					"name": "_permitS",
					"type": "bytes32"
				}
			],
			"name": "supplyPermitTokens",
			"outputs": [],
			"stateMutability": "nonpayable",
			"type": "function"
		},
		{
			"inputs": [
				{
					"internalType": "address",
					"name": "_asset",
					"type": "address"
				},
				{
					"internalType": "uint256",
					"name": "_amount",
					"type": "uint256"
				},
				{
					"internalType": "address",
					"name": "_onBehalfOf",
					"type": "address"
				}
			],
			"name": "supplyToken",
			"outputs": [],
			"stateMutability": "nonpayable",
			"type": "function"
		},
		{
			"inputs": [
				{
					"internalType": "address",
					"name": "_asset",
					"type": "address"
				},
				{
					"internalType": "uint256",
					"name": "_rateMode",
					"type": "uint256"
				}
			],
			"name": "swapBorrowRateOfToken",
			"outputs": [],
			"stateMutability": "nonpayable",
			"type": "function"
		},
		{
			"inputs": [
				{
					"internalType": "uint8",
					"name": "_categoryId",
					"type": "uint8"
				}
			],
			"name": "userMode",
			"outputs": [],
			"stateMutability": "nonpayable",
			"type": "function"
		},
		{
			"inputs": [
				{
					"internalType": "uint256",
					"name": "_amount",
					"type": "uint256"
				},
				{
					"internalType": "address",
					"name": "_to",
					"type": "address"
				}
			],
			"name": "withdrawToken",
			"outputs": [],
			"stateMutability": "nonpayable",
			"type": "function"
		}
	]
}